:020000040800F2
:10C0000000A0002011330108B9FC0008BBFC0008A7
:10C01000BDFC0008BFFC0008C1FC000800000000D7
:10C02000000000000000000000000000C5FC000847
:10C03000C3FC000800000000C7FC0008C9FC0008A1
:10C04000CBFC0008CDFC0008CFFC0008D1FC0008A8
:10C05000D3FC0008D5FC0008D7FC0008D9FC000878
:10C06000DBFC0008DDFC0008DFFC0008E1FC000848
:10C07000E3FC0008E5FC0008E7FC0008E9FC000818
:10C08000EBFC0008EDFC0008EFFC0008F1FC0008E8
:10C09000F5FC0008F9FC0008FBFC0008FDFC0008AA
:10C0A000FFFC000801FD000803FD000805FD000875
:10C0B00007FD000809FD0008FDFD0008FFFD000860
:10C0C00001FE000803FE000805FE000807FE000848
:10C0D00009FE00080BFE00080DFE00080FFE000818
:10C0E00011FE000813FE000815FE000817FE0008E8
:10C0F00019FE00081BFE00081DFE00081FFE0008B8
:10C1000021FE000823FE000825FE000827FE000887
:10C1100029FE00082BFE00082DFE00082FFE000857
:10C1200031FE000833FE000835FE000837FE000827
:10C1300070B514200021304CF8F788F82420012134
:10C14000F8F784F823680720B3F95C11F8F77EF854
:10C1500023680820B3F85E11F8F778F80920012168
:10C16000F8F774F80B200121F8F770F8234C002041
:10C170006421F8F76BF801206421F8F767F8236869
:10C180000A209988F8F762F823680C2099881C4ED9
:10C190000131F8F75BF805200121F8F757F806F0B0
:10C1A00035F920200146F8F751F84FF4FA6003F012
:10C1B00018F9144D06200121F8F748F8002414203E
:10C1C00003F00FF934602C60F8F734F80E4B00F0F0
:10C1D000FF02E0503368000AD3182A6800F0FF001D
:10C1E00004348018B4F5804F33602860ECD11B1AFA
:10C1F000064A1B0B137070BD7C530020789C0020F6
:10C20000545400205854002064540020729C002094
:10C210002DE9F04FBD4B0024BD4DA1B01C7021464F
:10C2200006461420F8F712F8B5F994330A210133C1
:10C2300059430220F8F70AF82046F7F7EBFFB54B11
:10C2400005201C702146F8F701F824200121F7F79A
:10C25000FDFF20200146F7F7F9FFB5F9E413A5F833
:10C2600050410139032001EB8101F7F7EFFFAA4D9F
:10C27000AA4B4FF4FA7018802B680720B3F9F81016
:10C28000F7F7E4FF2B680820B3F8FA10F7F7DEFFA2
:10C2900009202146F7F7DAFF0B202146F7F7D6FFF2
:10C2A00011E028462146F7F7B1FF01354FF6FF7040
:10C2B000F7F7AEFFADB240F28F139D42F1D11434C7
:10C2C000A4B2DC2C01D00025EBE700242046EF21AE
:10C2D000F7F79CFF01344FF6FF70F7F799FFA4B210
:10C2E00040F28F139C42F1D100200146F7F78EFFF8
:10C2F000EF24013C4FF6FF70A4B2F7F789FF002C42
:10C30000F7D12C201421F7F781FF143401344FF6B4
:10C31000FF70A4B2F7F77CFFC92CF7D15820142185
:10C32000F7F774FFB53C01344FF6FF70A4B2F7F78E
:10C330006FFFC92CF7D184201421F7F767FF143C55
:10C34000013C4FF6FF70A4B2F7F762FF002CF7D163
:10C35000C8201421F7F75AFFB534013C4FF6FF709F
:10C36000A4B2F7F755FF002CF7D1F4201421F7F70A
:10C370004DFFB534013C4FF6FF70A4B2F7F748FF0C
:10C38000002CF7D14FF490701421F7F73FFFB5342C
:10C39000013C4FF6FF70A4B2F7F73AFF002CF7D13B
:10C3A0004FF4A6701421F7F731FFB534013C4FF676
:10C3B000FF70A4B2F7F72CFF002CF7D121464FF401
:10C3C000C770F7F723FFEF34013C4FF6FF70A4B2BC
:10C3D000F7F71EFF002CF7D1514B06200093B9212F
:10C3E000052223464F4F00F0C5FF4F4D3120B921A4
:10C3F00005222346DFF85C81009700F0BBFF5D203B
:10C40000B92105222346009500F0B4FF8920B92107
:10C4100005222346CDF8008000F0ACFF434BCE2030
:10C420000093B92140F20512234600F0A3FFF92042
:10C43000B92140F205122346009700F09BFF40F21D
:10C440002510B92140F205122346009500F092FF15
:10C450004FF4A970B92140F205122346CDF80080AF
:10C46000A62500F087FF39E04FF0140808FB04F818
:10C470002F4F29463B6806204344009305220023A2
:10C4800000F078FF3B6829464344009340F20512D0
:10C490000023CE2000F06EFF264A20A9125D0B1962
:10C4A00003F80C2C01EB44022349143D31F814101D
:10C4B000ADB222F8501C2149095D03F8241C204923
:10C4C000095D03F8181C1F4931F8141022F8641C88
:10C4D0001D4A125D013403F8302CA4B21B4B1A68BC
:10C4E00098469288A242BFD2002504952F462C463A
:10C4F000174A118889B279BB0220F7F7A7FE1420EA
:10C500000121F7F7A3FE00F0E3BE00BF424B00207D
:10C5100060310020645300207C530020324B002007
:10C5200090440108954401089A440108A744010871
:10C53000749C002010540020563E002065530020BB
:10C540001A5400206A3E00206F530020789C00207F
:10C55000384B00209F4401080A202146F7F776FE59
:10C5600021460C20F7F772FE142002F03AFF012159
:10C570000620F7F76BFE142002F033FFC349C44ACC
:10C5800000230B60136099468B469246F7F752FEE4
:10C59000C04B00F0FF0249F80300DBF80030000A4E
:10C5A000D318DAF8002000F0FF0009F10409801820
:10C5B000B9F5804FCBF80030CAF80000E6D1B64993
:10C5C0001B0B31F814A0DFF80CB30AFB03FA1BF9BC
:10C5D00004200AF5007A02EB9A2AB04A000B32F8DE
:10C5E0001490DFF8E4C209FB00F91CF9043009F5E6
:10C5F000007903EB9929AA4B1FFA8AFA1A781FFAD5
:10C6000089F9002A00F0E48400221A700C2D00F24F
:10C61000DF84DFE815F00D009C000B01AA01D701B3
:10C620004D02D4023303F2035404780484049004CA
:10C630009C4C4FF0280B94F9001000200BFB01F1EB
:10C6400001F522418912F7F701FEDFF884C20120CB
:10C650009CF90010CDF808C00BFB01FB0BF5224143
:10C660008912F7F7F3FD904B08200093D82140F290
:10C670000532002300F07EFE8C4BE8200093D82189
:10C6800040F20532002300F075FE894B4FF498709C
:10C690000093D82140F20542002300F06BFE854B49
:10C6A00008200093062140F20532002300F062FECC
:10C6B000814A824B50201B780621009240F20542AD
:10C6C00000F058FEDDF808C0E346FEB97C4BD821E7
:10C6D0000093B8203346052200F04CFED8F8001035
:10C6E00033460BE0DFF8ECE16B480EF803204FF423
:10C6F000806E20F813E0E25401339BB28A889A429C
:10C700004FF00002EED2144600F062BC012E40F061
:10C71000DD856C4B40F205120093B8200023D82130
:10C7200000F028FED8F8002000230AE066485B49A4
:10C730004FF4806EC45421F813E00BF8034001332A
:10C740009BB2918800249942F0D200F041BC5F4B2B
:10C7500008200093062140F205320023CDF808C0DE
:10C7600000F008FEDDF808C016BB5FFA8AFCACF1E9
:10C77000280111AF384649B2CDF808C002F090FF49
:10C780006FF0130363434FF6FE71A63303EA010112
:10C790002D2001230522009700F0ECFD1BF804304A
:10C7A000DDF808C02833CCEB030C0BF804C024E000
:10C7B000012E22D15FFA89FB11AFABF12801384677
:10C7C00049B2CDF808C002F06BFF6FF0130363436A
:10C7D0004FF6FE71A63303EA0101F520334640F21D
:10C7E0000512009700F0C6FDDDF808C01CF8043003
:10C7F0002833CBEB030B0CF804B0D8F8003001342D
:10C800009B88E4B2A34201D202250024254B2827AD
:10C8100019570020794301F522418912F7F716FDD7
:10C820002B4B19574F4307F522413BE10137FFB22C
:10C83000072F88BF0027002E4ED15FFA8AFC11AB6C
:10C84000ACF12801184649B2CDF808C0039302F0B4
:10C8500027FF6FF013026243039BA6324FF6FE716F
:10C8600000932D2002EA01013346052200F082FDEB
:10C87000BAF1280FDDF808C05AD01BF8043028336D
:10C88000CCEB030C0BF804C051E000BF5454002063
:10C890005854002064540020563E00206A3E002078
:10C8A0003C4B002065530020AC440108C344010800
:10C8B000CD440108D7440108C64601083B4B00207F
:10C8C000064501080D4501081A54002014450108C9
:10C8D0006F53002010540020012E28D15FFA89F0F8
:10C8E0000DF1440BA0F12801059049B25846CDF84E
:10C8F00008C002F0D5FE6FF0130363434FF6FE71DC
:10C90000A633F52003EA010140F205120023CDF819
:10C9100000B000F02FFDB9F1280FDDF808C007D0F6
:10C920001CF80430059928335B1A0CF8043017B949
:10C930000134E4B20027D8F800309B88A34201D22A
:10C9400003250024BA4B4FF0280B195700200BFB8E
:10C9500001F101F522418912F7F778FCB54B19571F
:10C960000BFB01FB0BF5224124E1B14B4FF0A00B77
:10C97000195700200BFB01F101F5203101F5007181
:10C980008912F7F763FCAB4B0137195701200BFBFA
:10C9900001FB0BF5203101F500718912FFB2F7F7A9
:10C9A00055FC16B90FFA8AF303E0012E04D10FFAF1
:10C9B00089F38C2BC8BF0425142F40F2098301355D
:10C9C000EDB205E39A4FDFF86CB22EBB11AB0AF162
:10C9D0006001184649B2039302F062FE6FF0130241
:10C9E0006243039BA6324FF6FE71009302EA0101F7
:10C9F00001230522592000F0BDFC0FFA8AF39B02A7
:10CA0000A3F51E336FF09F02A3F5F66393FBF2F3D9
:10CA10003A5D9B183B552AE0012E28D111AB09F154
:10CA20006001184649B2039302F03AFE6FF0130218
:10CA30006243039BA6324FF6FE71009302EA0101A6
:10CA4000334640F2051240F2211000F093FC0FFA39
:10CA500089F39B02A3F51E336FF09F02A3F5F663E3
:10CA600093FBF2F31BF804209B180BF80430D8F862
:10CA7000003001349B88E4B2A34201D20525002492
:10CA80003957A027794301F5203101F5007189124A
:10CA90000020F7F7DBFB1BF904104F4307F52031AB
:10CAA00001F5007101208912F7F7D0FB00278FE212
:10CAB0000137FFB2072F88BF0027DFF874B14EBBE4
:10CAC00011AB0AF16001184649B2039302F0E8FD88
:10CAD0006FF013026243039BA6324FF6FE71009380
:10CAE000592002EA01013346052200F043FC0FFA07
:10CAF0008AF3A02B3ED09B02A3F51E336FF09F025A
:10CB0000A3F5F66393FBF2F31BF804209B180BF8D4
:10CB100004302EE0012E2CD111AB09F16001184632
:10CB200049B2039302F0BCFD6FF013026243039B12
:10CB3000A6324FF6FE71009302EA0101002340F293
:10CB4000211040F2051200F015FC0FFA89F3A02B1A
:10CB500010D09B02DFF8DCE0A3F51E336FF09F02DC
:10CB6000A3F5F66393FBF2F31EF804209B180EF86E
:10CB7000043017B90134E4B20027D8F800309B889C
:10CB8000A34201D2062500241BF904104FF0A00B8C
:10CB90000BFB01F101F5203101F500710020891234
:10CBA000F7F754FB234801570BFB01FB0BF5203132
:10CBB00001F5007101208912F7F748FB08E20137FF
:10CBC0000499FFB2142F88BF07250129184BDFF8FD
:10CBD00064B031D893F900102824614301F5224153
:10CBE00000208912F7F732FB9BF9001001204C431B
:10CBF00004F522418912F7F729FB56B90FFA8AF397
:10CC0000312B00F36383049A0125531CDBB2049398
:10CC10005CE3012E40F05A830FFA89F3312B00F3C5
:10CC20005583049C3546631CDBB204934EE300BF7E
:10CC3000655300206F53002093F9001019246143BD
:10CC400001F5CC4100208912F7F700FB9BF9001099
:10CC500001204C4304F5CC418912F7F7F7FA16B9D5
:10CC60000FFA8AF304E0012E40F030830FFA89F3C3
:10CC7000362B00F32B830135EDB227E3B84B202090
:10CC80000093D82140F20532002300F073FBB54A2F
:10CC90000C2101FB0422DFF818B358209BF8003068
:10CCA000CC31009240F2054200F064FBAE4BA02074
:10CCB0000093D82140F20532002300F05BFBAB4B20
:10CCC00008200093062140F20532002300F052FBB9
:10CCD000A74A9BF8003090200092062140F20542BE
:10CCE00000F048FBA34A9BF80030B02000920621D8
:10CCF00040F2054200F03EFB9F4BD82000930621F6
:10CD000040F20532002300F035FB9C4A9BF80030CE
:10CD10004FF4A8700092062140F2054200F02AFB71
:10CD2000974A9BF800304FF4B8700092062140F209
:10CD3000054200F01FFB66BB0FFA8AF3232B0ADDC6
:10CD4000904A14211268193B01FB0422116911A8B1
:10CD50000096594302E0009611A831468A4A0323FF
:10CD600002F048FB6FF01302624311A99BF80030F8
:10CD7000A63200914FF6FE71862002EA01010522DB
:10CD800000F0F8FA814B4FF4A4700093D8210522EB
:10CD9000E1E0012E40F01C810FFA89F3232B0BDD1B
:10CDA000784A14211268193B01FB04221169002200
:10CDB000009211A8594302E00021009111A8724A83
:10CDC000032302F017FB6FF01302624311A99BF8D3
:10CDD0000030A63200914FF6FE7102EA01014FF4D5
:10CDE000A77040F2051200F0C5FA694B4FF4A47029
:10CDF0000093D82140F20512ADE0664B0820009365
:10CE0000062140F20532002300F0B4FADFF8A0B1A9
:10CE10005A4A9BF8003060200092062140F20542F9
:10CE200000F0A8FA564A9BF80030802000920621B4
:10CE300040F2054200F09EFA574B882000930621ED
:10CE400040F20532002300F095FA544B082000937D
:10CE5000D82140F20532002300F08CFA504B7020AC
:10CE60000093D82140F20542002300F083FA4D4A96
:10CE70009BF8003048200092D82140F2054200F093
:10CE800079FA56B9484B4FF4A4700093D821052283
:10CE9000334600F06FFA04969AE0012E40F0968037
:10CEA000424B4FF4A4700093D82140F205120023A6
:10CEB00000F060FA4FF0000ECDF810E088E0394A3B
:10CEC0003B4B48201B78D821009240F2054200F0ED
:10CED00051FA384B70200093D82140F205420023CC
:10CEE00000F048FA46B9344B4FF494700093D821BF
:10CEF00040F2051233462FE0012E69D12F4B4FF43B
:10CF00009470009342E7274A294B48201B78D82188
:10CF1000009240F2054200F02DFA294B16E0214A1A
:10CF2000234B48201B78D821009240F2054200F0A4
:10CF300021FA244B0AE01B4A1D4B48201B78D821BC
:10CF4000009240F2054200F015FA1F4B009370204A
:10CF5000D82140F20542002300F00CFA38E000BF6F
:10CF600043450108003000204B4501086145010898
:10CF70007B4501087D4501087F450108964501086C
:10CF800098450108749C0020703500209A450108DE
:10CF9000A1450108A8450108BA450108DB4501087B
:10CFA000E9450108C6460108074501080E45010884
:10CFB0003B4B0020054601081D4601082746010895
:10CFC00031460108534601087546010800200490C7
:10CFD000DFF8CCB29BF80030002B3FF489AAD8F8D8
:10CFE0000030A4499B884FF41672A3420A8023D3D1
:10CFF000072D21D16EB96FF01303634311AAA63335
:10D000004FF6FE71009203EA0101862005223346A5
:10D0100010E0012E10D16FF01303634311AAA63361
:10D020004FF6FE71009203EA01014FF4A77040F23F
:10D030000512002300F09EF99BF80030023B072BFD
:10D0400000F23F81DFE813F008003D013D01EC00F4
:10D0500007013D01D700C800002D08BF0125A5F13B
:10D060000803DBB2012B50D8092D04BFC6F101061D
:10D07000F6B24FF00009A62540E0C6B9DFF824A2B9
:10D080002D20294605223346CDF800A000F072F984
:10D090005920294605223346CDF800A000F06AF950
:10D0A000754B862000932946052233461EE0012E4B
:10D0B0001ED1DFF8F0A1F520294640F20512002329
:10D0C000CDF800A000F056F940F22110294640F2B8
:10D0D00005120023CDF800A000F04CF9664B4FF488
:10D0E000A7700093294640F20512002300F042F990
:10D0F00009F10109143D1FFA89F9ADB2D8F80030E1
:10D100009B884B45B9D20025DBE0092D40F2D98040
:10D110000A2D2DD1D8F80000002322E020A9CA183A
:10D1200012F80C1C554C20ADE15405EB430131F8CD
:10D13000505C534CDFF860E124F8135012F8245C83
:10D14000504C31F8641CE55412F8184C0EF80340AA
:10D150004D4C24F8131012F8301C4C4AD1540133B2
:10D160009BB282889A42D9D202F016F8484B24E04A
:10D170000B2D03D102F010F8464B1EE00C2D24D1EC
:10D18000D8F80010002312E03D484FF4806420F8E6
:10D1900013403C480022C254384D3B48EA5420F822
:10D1A00013403D4D3948EA54C25401339BB28A883A
:10D1B0009A42E9D201F0F0FF384B00930820D821C1
:10D1C00040F20542002300F0D5F84FF47A7002F0E7
:10D1D00008F904F041FF7BE0072D04D1002C70D04A
:10D1E000013CE4B26DE0082D01D9013DEDB2082DFE
:10D1F00008BF0C2565E0072D03D90135EDB20C2DD4
:10D2000004D8072D03D10134E4B200E00825D8F892
:10D2100000309B88A34254D20135EDB2002450E087
:10D22000072D4ED14EB90FFA8AFABAF1230F48DD15
:10D23000134931F81430023B41E0012E41D10FFA7D
:10D2400089F9B9F1230F3CDD0F4A32F81430023B63
:10D2500022F8143035E0072D33D12EBB0FFA8AFAAD
:10D26000BAF1230F2DDD064830F81430023320F8D0
:10D27000143026E0384B0020C0460108105400202E
:10D28000563E0020655300206A3E00206F53002068
:10D2900097460108C84601081A540020F9460108BB
:10D2A000424B0020C2460108012E0AD10FFA89F92B
:10D2B000B9F1230F05DD084931F81430023321F8A4
:10D2C000143000238BF80030FFF712B900247FE6FA
:10D2D00021B0BDE8F08F00BF6A3E00202238034B2A
:10D2E00001EBC00133F81100704700BF2A47010865
:10D2F000024B1B1893F8D005704700BF2A4701085E
:10D300002DE9F0470E461D4600F10A0106F10A0319
:10D3100014469BB2324689B2F6F780FF0B235D4379
:10D320004FEA14280026114B002703EB450333F87E
:10D33000069049FA07F313F0010F0D4B0ABF04F0F2
:10D340000F0233F8180033F812000137F6F760FFC8
:10D350000B2FEED10236162EE5D1002040F28F11B0
:10D360000246EF23BDE8F047F6F758BF264E010806
:10D370006C3000202DE9F14F0F461D4601F10A03E4
:10D38000144640F28F113A469BB20A9EF6F746FFCA
:10D390004FEA14294FF00B082C4F25B904F00F0366
:10D3A00037F8130001E037F8190008F1FF381FFAC9
:10D3B00088F8F6F72DFFB8F1000FEDD138E04FF007
:10D3C000000816F8010CA0F12003DBB2012B05D9EF
:10D3D0005FFA88F1FFF782FF834603E0212804D03B
:10D3E0004FF0000B4FF0000A03E0B8F1040FF7D143
:10D3F0001EE00FFA8BF303FA0AF313F4806F01D0E7
:10D400000DB905E025B904F00F0337F8130001E06A
:10D4100037F819000AF1010AF6F7FAFEBAF10B0F14
:10D42000E7D108F101081FFA88F8B8F1080FC8D150
:10D4300016F8010B0028C2D140F28F110246EF23EB
:10D4400001B0BDE8F04FF6F7E9BE00BF6C30002038
:10D45000F0B50B2885B005469D4C56D923888342EC
:10D4600053D3A0F10C0CA0F10B0E4FEA8C0C4FEA39
:10D470008E0E6E4602AB0DF10902002000213170C4
:10D4800094490FFA8CF701EB5001CF5D02F8017C53
:10D490000FFA8EF7C95D597012F8011CC72901D91E
:10D4A000C72102E0012902D8012102F8011C5978A4
:10D4B000C72901D9C72102E0012901D801215970EA
:10D4C00012F8017C5978B94210D1012901D0C7293D
:10D4D00002D10121317009E0012902D9013902F894
:10D4E000011C5978C62901D80131597012F8017C04
:10D4F00059788F4284BF5F7002F8011C0230C0B2BD
:10D500000236023302320828B8D1F6F78FFE0D2119
:10D510002846F6F77BFE15F0010F00F00C826C4EEA
:10D520006D48B11CF6F784FE0B2D40F2C4813388A0
:10D53000AB4240F2C181B5F5857F21DC674B1B789A
:10D54000F3B1A5F10B0313F0010208D1644931F9DD
:10D550001330002B05DBC72BA8BFC72302E0002335
:10D5600000E01346002209E004EB4201B1F8E201B9
:10D57000013240F01F00A1F8E201D2B29A42F3DB7F
:10D580009DF80030574A43BBB2F910302BB39DF8D9
:10D5900009109DF80830C81A0528534801DC068890
:10D5A00019E00688A6F5844608E004EB4300B0F8CD
:10D5B000E27101333743A0F8E271DBB28B42F4D958
:10D5C0000BE004EB4300B0F8E271013346EA0707D1
:10D5D000A0F8E271DBB28B42F3D99DF8023043BB75
:10D5E000B2F960302BB39DF80B109DF80A30C81AC1
:10D5F00005283D4801DC468819E04688A6F50276F4
:10D6000008E004EB4300B0F8E27101333743A0F8BF
:10D61000E271DBB28B42F4D90BE004EB4300B0F8CB
:10D62000E271013346EA0707A0F8E271DBB28B42F0
:10D63000F3D99DF804304BBBB2F9B03033B39DF849
:10D640000D009DF80C30C11A0529274901DC8E8890
:10D650001AE08988A1F58041083908E004EB430607
:10D66000B6F8E27101330F43A6F8E271DBB28342F0
:10D67000F4D90BE004EB4301B1F8E271013346EA5F
:10D680000707A1F8E271DBB28342F3D99DF80630B7
:10D69000002B37D1B2F90031002B33D09DF80F1099
:10D6A0009DF80E30C81A05280F4801DCC68827E00F
:10D6B000C688A6F5007608E004EB4300B0F8E271F6
:10D6C00001333743A0F8E271DBB28B42F4D919E0A1
:10D6D000803E0020444D00207E4E0108524B002029
:10D6E00072980020603100206C30002004EB430071
:10D6F000B0F8E271013346EA0707A0F8E271DBB245
:10D700008B42F3D9B2F8403243B99849B1F920308D
:10D71000098804EB4303B3F8E20120E01BB2012BBC
:10D7200008D19249B1F92430498804EB4303B3F896
:10D73000E20114E0022B08D18C49B1F92830898824
:10D7400004EB4303B3F8E20109E0032B0BD1874953
:10D75000B1F92C30C98804EB4303B3F8E20140EA85
:10D760000101A3F8E211B2F81812C1F1A10109B246
:10D770000B292BDD8D4211D17D4B93F81A3213F01A
:10D78000040F0BD1794B9E897A4B03F5C9705F88E2
:10D7900046EA07075F8006338342F8D14B1E9D425D
:10D7A00002D04B1C9D4205D1704B9B89A4F872336B
:10D7B000A4F8E2318D4209D16C4B9B89A4F87233F5
:10D7C000A4F87033A4F8E431A4F8E231B2F83013CD
:10D7D0000B3109B28D4211D1654B93F8323313F0FE
:10D7E000040F0BD1614B1E89624B03F5C9705F8832
:10D7F00046EA07075F8006338342F8D14B1E9D42FD
:10D8000002D04B1C9D420CD1584BB4F872031B89BB
:10D8100043EA0000A4F87203B4F8E2010343A4F859
:10D82000E2318D4218D1514BB4F872131B8943EA8F
:10D830000101A4F87213B4F8701343EA0101A4F8CB
:10D840007013B4F8E41143EA0101A4F8E411B4F848
:10D85000E2110B43A4F8E231B2F844230B3212B2C6
:10D86000954211D1424B93F8463313F0040F0BD17C
:10D870003E4B18893F4B03F5C9715E8840EA0606A6
:10D880005E8006338B42F8D1531E9D4202D0531C5A
:10D890009D4205D1354B1B89A4F87233A4F8E231BF
:10D8A000954209D1314B1B89A4F87233A4F8703327
:10D8B000A4F8E43100E002D02388AB4239D12C49EE
:10D8C0002A4BB1F990221B89501E04EB4000B0F89E
:10D8D000E25143EA0505A0F8E25104EB4200B0F83A
:10D8E000E251013243EA0505A0F8E25104EB42029D
:10D8F000B2F8E20143EA0000A2F8E201B1F9A42281
:10D90000511E04EB4101B1F8E20143EA0000A1F825
:10D91000E20104EB4201B1F8E201013243EA000006
:10D92000A1F8E20104EB4204B4F8E2211343A4F8A5
:10D93000E2311048C3E123886A1C9A420C4E01D19F
:10D940000D4820E00A2D23D0A5F10A031E2293FBE7
:10D95000F2F102FB11320AB9084814E0062293FBE7
:10D96000F2F102FB11336BB905480CE06C3000207A
:10D97000603100206240002010500108A2510108CF
:10D98000345301087E487F49F6F752FC0C2D03D032
:10D990002388013B9D4210D1B6F990327A4A04EBBC
:10D9A00043035988128942EA01015980B6F9A43229
:10D9B00004EB430359880A435A8096F8923213F0D5
:10D9C000040F0AD1714B704AB3F99032128904EBFB
:10D9D0004303598841EA02025A8096F8A63213F0AE
:10D9E000040F0AD1694B684AB3F9A432128904EBD7
:10D9F0004303598841EA02025A800B2D40F2D68037
:10DA00002388AB4240F2D280B5F5857F1FDC604BA6
:10DA10001B78E3B1A5F10B0313F0010208D15D49B6
:10DA200031F91330002B05DBC72BA8BFC72302E059
:10DA3000002300E01346002207E004EB420148887F
:10DA4000013240F01F004880D2B29A42F5DB9DF8C7
:10DA5000003023BBB6F910300BB39DF809209DF8B8
:10DA60000830D11A0529484901DC088815E00888E2
:10DA7000A0F5844006E004EB43014F8801330743DF
:10DA80004F80DBB29342F6D909E004EB43014F88A3
:10DA9000013340EA07074F80DBB29342F5D99DF886
:10DAA000023023BBB6F960300BB39DF80B209DF814
:10DAB0000A30D11A0529344901DC488815E0488824
:10DAC000A0F5027006E004EB43014F8801330743E1
:10DAD0004F80DBB29342F6D909E004EB43014F8853
:10DAE000013340EA07074F80DBB29342F5D99DF836
:10DAF00004302BBBB6F9B03013B39DF80D109DF870
:10DB00000C30CA1A052A204A01DC908816E0928857
:10DB1000A2F58042083A06E004EB4300478801334F
:10DB200017434780DBB28B42F6D909E004EB43028E
:10DB30005788013340EA07075780DBB28B42F5D99B
:10DB40009DF80630002B31D1B6F90031002B2DD0D5
:10DB50009DF80F209DF80E30D11A05290A4901DCE5
:10DB6000C88821E0C888A0F5007006E004EB4301F6
:10DB70004F88013307434F80DBB29342F6D915E05B
:10DB80007E4E0108624000206C3000206031002091
:10DB9000524B00207298002004EB43014F88013360
:10DBA00040EA07074F80DBB29342F5D9B6F8182256
:10DBB000C2F1A10212B20B2A28DD954211D1434BCA
:10DBC00093F81A3213F0040F0BD1414B9889414B53
:10DBD00003F5C9715F8840EA07075F8006338B420F
:10DBE000F8D1531E9D4202D0531C9D4204D1384BA4
:10DBF0009B89A4F892316380954207D1344B9B896D
:10DC0000A4F89231A4F89031A3806380B6F8302351
:10DC10000B3212B2954211D12C4B93F8323313F0E0
:10DC2000040F0BD12A4B18892A4B03F5C9715F8861
:10DC300040EA07075F8006338B42F8D1531E9D42AE
:10DC400002D0531C9D4204D1214B1B89A4F8923170
:10DC50006380954206D11E4B1B89A4F89231A4F82B
:10DC60009031A380B6F844230B3212B2954211D101
:10DC7000164B93F8463313F0040F0BD1144B18894D
:10DC8000144B03F5C9715E8840EA06065E800633D0
:10DC90008B42F8D1531E9D4202D0531C9D4204D1A9
:10DCA0000B4B1B89A4F892316380954206D1084B37
:10DCB0001B89A4F89231A4F89031A3800548C921AA
:10DCC00005B0BDE8F040F6F7ADBA00BF6031002006
:10DCD0006C300020823E002003282DE9F8430546E1
:10DCE0000F4606D8464B502202FB0033B3F94C30A6
:10DCF00004E0444B03EB8103B3F92030C52B7DDCFA
:10DD00000024A6B2062E30D8032DDFF8F8803E4B53
:10DD10000BD803EBC5035B1B13F80490384B502260
:10DD200002FB0533B3F84C1005E01B1993F81C9067
:10DD300008EB8703198C0931304689B2F6F766FA89
:10DD4000082619F0010F14BFB8F80A0038F81700B8
:10DD5000013EB6B2F6F75CFA16B14FEA5909F0E7A0
:10DD600038F81700F6F754FA45E0032D23D8DFF80A
:10DD700090804FF0500909FB0589B9F84C103046E6
:10DD80000331711889B2F6F741FAB9F84C30033310
:10DD9000F61805E01B4B013633F81700F6F738FA92
:10DDA000502303FB0583B3F94C30B6B218331B1B69
:10DDB0009E42EFDB1FE0DFF84C80304608EB87091E
:10DDC000B9F820100331711889B2F6F71FFAB9F8C3
:10DDD00020300333F61805E00A4B013633F81700FC
:10DDE000F6F716FA08EB8703B3F92030B6B218330A
:10DDF0001B1B9E42F0DB01340B2C82D1BDE8F88363
:10DE0000603100206C300020C65401082DE9F04735
:10DE1000F6F70CFA002630460C21F6F7F7F9CB2777
:10DE2000954D013F6889FFB2F6F7F2F9002FF7D15F
:10DE30000136B6B20B2EEED1904CB4F910301BB1B6
:10DE400038463946FFF748FFB4F960301BB101206E
:10DE50000146FFF741FFB4F9B0301BB10220014683
:10DE6000FFF73AFFB4F900311BB103200146FFF779
:10DE700033FFB4F9401211B90720FFF72DFFB4F9B1
:10DE80004012012902D10720FFF726FFB4F9401202
:10DE9000022902D10720FFF71FFFB4F9401203291E
:10DEA00002D10720FFF718FF754F0C2138884FF07B
:10DEB000CB08013080B2F6F7A9F908F1FF3868897C
:10DEC0005FFA88F8F6F7A4F9B8F1000FF5D111E080
:10DED0001FFA86F90C214846F6F798F96889F6F793
:10DEE00097F94846D621F6F791F96889F6F790F93F
:10DEF0000136B6B23B8808F10B0201339A4208F1B1
:10DF00000108E5DDB4F890120A200B3189B2F6F76A
:10DF10007DF90526013E2889B6B2F6F779F9002E7B
:10DF2000F8D1B4F8A4120A200B3189B2F6F76EF9D1
:10DF30000536013E2889B6B2F6F76AF9002EF8D107
:10DF40003888B4F8901201300B3180B289B2F6F7FC
:10DF50005DF90536013E2889B6B2F6F759F9002E6B
:10DF6000F8D13888B4F8A41201300B3180B289B2EC
:10DF7000F6F74CF90536013E2889B6B2F6F748F9AE
:10DF8000002EF8D1B4F81882C8F1A1081FFA88F859
:10DF90000FFA88F30B2BC14620DDA8F102081FFA07
:10DFA00088F8474612E01FFA87FA0C215046F6F728
:10DFB0002DF9A889F6F72CF95046D621F6F726F95F
:10DFC000A889F6F725F90137BFB201360FFA88F2B2
:10DFD0000FFA89F3B21802339A42E4DDB4F83093B1
:10DFE000002609F10B081FFA88F8A8F10207BFB252
:10DFF00012E01FFA87FA0C215046F6F707F9288934
:10E00000F6F706F95046D621F6F700F92889F6F713
:10E01000FFF80137BFB2013609F1090212B20FFA57
:10E0200088F3B21802339A42E3DDB4F84483002443
:10E0300008F10B07BFB2BE1EB6B212E01FFA86F996
:10E040000C214846F6F7E2F82889F6F7E1F8484649
:10E05000D621F6F7DBF82889F6F7DAF80136B6B2FA
:10E06000013408F1090212B23BB2A21802339A42FB
:10E07000E4DDBDE8F08700BF6C3000206031002097
:10E08000803E00202DE9F84359200021F6F7BEF824
:10E090000C24013C40F21F50A4B2F6F7B9F8002C52
:10E0A000F7D121465A20F6F7B1F80C34013C40F282
:10E0B0001F50A4B2F6F7ACF8002CF7D121464FF46C
:10E0C0009A70F6F7A3F80C34013C40F21F50A4B24A
:10E0D000F6F79EF8002CF7D1214640F23510F6F7FE
:10E0E00095F80C34013C40F21F50A4B2F6F790F8BA
:10E0F000002CF7D15B261CE028460021F6F786F8B5
:10E100000027444B185B384110F0010018BF40F263
:10E110001F500137F6F77CF80C2FF2D1023401358D
:10E12000102CADB2E8D10836B6B240F233139E429D
:10E1300003D0B6B235460024DEE7374CC820B4F928
:10E1400018320021584340F6886390FBF3F05B30AF
:10E1500080B2F6F75BF80925013D4FF6FF70ADB2CE
:10E16000F6F756F8002DF7D104F04CFAB4F918324E
:10E17000C822534340F6886293FBF2F34FF64C6299
:10E1800092FBF0F25C339B18294698B2F6F73EF802
:10E190000935013D4FF6FF70ADB2F6F739F8002DA5
:10E1A000F7D12E4627E0B4F918024FF0C80909FB51
:10E1B00000F040F6886890FBF8F0B7B25B30381892
:10E1C000002180B2F6F722F84FF6FF70F6F720F83C
:10E1D000B4F91832092109FB03F999FBF8F808F1A1
:10E1E0005B084744B8B2F6F711F84FF6FF70F6F740
:10E1F0000FF80136B6B204F005FA4FF64C622B4622
:10E2000092FBF0F201359A42CDDA002384F82E32E7
:10E21000BDE8F883EA5401086031002038B54FF4B6
:10E220009C740FE0294620460135F5F7EFFFADB2AB
:10E230000020F5F7EDFFD82DF4D10134A4B2B4F5E8
:10E24000C87F01D00B25EDE7024B002283F82E2278
:10E2500038BD00BF603100202DE9F04F044687B083
:10E26000F5F7E4FF0D212046F5F7D0FF14F0010F7C
:10E27000A74DA84F00F0A780A91CA748F5F7D8FF25
:10E28000B4F5827F03D02B88621C9A4224D1A34824
:10E29000A349F5F7CDFF95F8C26395F8C303A6F13E
:10E2A0006C039BB20193FB88A0F16409029306F111
:10E2B0000408A6F1040AA0F1040C00231FFA89F94E
:10E2C000CDF80C80CDF810A0BF8800F1040BCDF87C
:10E2D00014C094491A4620E00B2C01D18F480BE062
:10E2E000A4F10A03192293FBF2F102FB113232B9B5
:10E2F000B4F5827F03D28C4805F5F171C9E7052298
:10E3000093FBF2F202EB8202934204D1B4F5827FD6
:10E3100001D28648BCE78048BAE791F800C011F8FE
:10E3200001ACCC441FFA8CFC0CF1FF381FFA88F8C2
:10E33000B8F1C60F16D8DDF80480C2441FFA8AFA75
:10E34000BAF1000F0ED0BAF1F90F0BD8A24509D1DE
:10E3500005EB4C0CBCF8E281DDF808A04AEA08089D
:10E36000ACF8E2811FFA82FA824511D1052C0FD94F
:10E37000DDF80CC0A4450BDBDDF81080A04507DC00
:10E38000DFF89CC13CF8038047EA08082CF80380BA
:10E39000B44210D1BAF1050F0DD993450BDBDDF86E
:10E3A00014A0924507DCDFF878C13CF8038047EA07
:10E3B00008082CF80380013204310233B2F5807F63
:10E3C000ABD157489EE0B4F5827F03D02B88621C06
:10E3D0009A4222D151485649F5F72AFF95F8C303CE
:10E3E00095F8C263A0F164039BB20293A6F16C039B
:10E3F0009BB2B7F806C00193331D0493A6F104083D
:10E400000023CDF80CC0CDF81480BF8800F10409BA
:10E41000A0F1040B43491A461FE00B2C01D13F48E1
:10E420000BE0A4F10A03192293FBF2F102FB113273
:10E430002AB9B4F5827F02D23B48A91CCCE7052259
:10E4400093FBF2F202EB8202934204D1B4F5827F95
:10E4500001D23648BFE73048BDE7DDF8088091F8C3
:10E4600000C011F801ACC4441FFA8CFC0CF1FF3859
:10E470001FFA88F8B8F1C60F16D8DDF80480C24438
:10E480001FFA8AFABAF1000F0ED0BAF1F90F0BD8C1
:10E49000A24509D105EB4C0CBCF80280DDF80CA0BC
:10E4A0004AEA0808ACF802801FFA82FA824511D1C4
:10E4B000052C0FD9DDF810C0A4450BDBDDF8148066
:10E4C000A04507DCDFF868C03CF8038047EA08088D
:10E4D0002CF80380B4420ED1BAF1050F0BD9914547
:10E4E00009DB934507DCDFF848C03CF8038047EAC6
:10E4F00008082CF80380013204310233B2F5807F22
:10E50000ABD10B48C92107B0BDE8F04FF5F78ABE83
:10E51000803E00206C3000207E4E01081050010823
:10E5200062400020454D0020A251010834530108EB
:10E53000823E002070B5F5F779FE2B4C2B482C4914
:10E54000F5F776FEF5F772FE2A482B49F5F770FECF
:10E55000B4F8F031043B9BB2012B0AD8B4F9103067
:10E560003BB9264A69219954043340F2246293420C
:10E57000F7D1B4F8F031043B9BB2012B0CD81A4B05
:10E58000B3F9603043B91D4B03F5C4620432642112
:10E59000597004339342FAD1B4F8F031043B9BB282
:10E5A000012B0AD90B2504E02846FEF751FF01355F
:10E5B000ADB2134B1B88AB42F6D2B4F8F031043B3A
:10E5C0009BB2012B0AD80B2404E02046FFF744FE3F
:10E5D0000134A4B20A4B1B88A342F6D2F5F720FE01
:10E5E000BDE87040F5F722BE6031002010500108F0
:10E5F000624000207E4E0108823E0020444D0020F3
:10E60000803E002013B503460C4601A8194601F0D0
:10E610002DF89DF80430002023719DF805306371BA
:10E620009DF80630A3711CBD4FF6FF73984252D07F
:10E630001F3B00EA03034FF6E07293424DD04305BF
:10E640005B0D40F2FF72934249D04FF61F0300EA80
:10E6500003034FF61F02934243D000F4FC63B3F56B
:10E66000FC6F40D04BF6E05300EA03034BF6E05258
:10E6700093423AD040F2F75300EA030340F2F752D4
:10E68000934234D04BF6170300EA03034BF617020C
:10E6900093422ED000F4BC63B3F5BC6F2BD047F689
:10E6A000EF3300EA030347F6EF32934225D040F2FE
:10E6B0001F5300EA030340F21F5293421FD000F49D
:10E6C0007843B3F5784F1CD000F01F001F2814BF0B
:10E6D0000D200C2070470020704701207047032058
:10E6E00070470520704707207047022070470420BC
:10E6F00070470620704708207047092070470A209D
:10E7000070470B20704730B5164A87B051680446F1
:10E7100010686B4603C39068694618602046FFF78F
:10E7200071FF1148694603AA05ABF5F7AFFD044632
:10E73000A0B905460C4803A9F5F7AAFD68B90B492D
:10E740004FF4C8724819A1F5007105F5C87505F0B8
:10E750003FFDB5F5C86FEDD100E00824204607B0B5
:10E7600030BD00BFFA540108444200204444002058
:10E7700070B52A4A88B051680446106801AB03C3DB
:10E78000906801A91860002320468DF81030FFF72B
:10E7900039FF234801A905AA07ABF5F775FD204EFF
:10E7A0000446002835D1304621464FF4007205F06A
:10E7B000B7FD1C4D1EE01C496118C95C043302F80A
:10E7C000011F40F23C618B42F5D1B5F84C3005A9F0
:10E7D000134886F88F31F5F75DFD0146D8B9FE2064
:10E7E00004F0030340F20A520134FEF789FD50356C
:10E7F000042C02D00D4A0023DDE709484FF40061E4
:10E8000005AA07ABF5F748FD002814BF0920002032
:10E8100002E00A2000E0092008B070BDFA540108A7
:10E820004442002060310020444D00204542002039
:10E830002DE9F047484A86B05168044610686B4697
:10E8400003C39068694618602046FFF7DBFE434823
:10E85000694603AA05ABF5F717FDDFF8008100282C
:10E8600073D13F4B424603F1340153F8040B8B4202
:10E8700042F8040BF9D11B881380384B0022394928
:10E880000024895A023201F47840001283F83600DD
:10E8900001F4FC60C010C90083F8370083F8381019
:10E8A00083F839400433202AE9D17627264638E018
:10E8B00021462846F5F7AAFCF5F7D6FC8146681CE8
:10E8C000214680B2F5F7A2FCF5F7CEFC8246484619
:10E8D000FFF7AAFE81465046FFF7A6FE00EB09109F
:10E8E00008F807000137BFB2B7F5007F10D31B4807
:10E8F00003A9F5F7CFFC074648BB7308FE20013695
:10E90000394640F20A5203F00303B6B2FEF7F8FCB0
:10E910000235ADB2B5F5C87FCAD10134A4B2F02C2E
:10E9200001D00025C4E727B10C4803A9F5F7B2FCD4
:10E9300068B90A484FF43C4103AA05ABF5F7ACFCB3
:10E94000002814BF0920002002E00A2000E009206E
:10E9500006B0BDE8F08700BF06550108444200201C
:10E960009C300020D2300020F0B53E4A87B051687C
:10E97000044610686B4603C39068694618602046D9
:10E98000FFF740FE3848694603AA05ABF5F77CFC63
:10E99000002862D1354F0546334C39464FF400729A
:10E9A000204605F015FC204603A9F5F773FC064642
:10E9B000002854D16B080135FE20314640F20A523E
:10E9C00003F00303EDB2FEF79BFC202D07F5007763
:10E9D000E2D131464FF40072204605F0A1FC244BF1
:10E9E00004F12000224619461D8A15809D8C558011
:10E9F0001D8F9580B3F84C505033D5800832824239
:10EA0000F2D1B1F8A0311B4A2384B1F8B451658426
:10EA1000B1F93830184DD25CA5F12800A284174A0C
:10EA200032F81320E284B1F98830154A03A9D25C88
:10EA30002285144A32F813206A80F5F72BFC70B94E
:10EA4000A5F128004FF4844103AA05ABF5F724FC97
:10EA5000002814BF0920002002E00A2000E009205D
:10EA600007B0F0BD12550108444200206454002054
:10EA700060310020105400206C420020563E0020DF
:10EA80001A5400206A3E00202DE9F0475C4A88B005
:10EA900051680746106801AB03C390685949186074
:10EAA000594C00234AF655228DF8103001F50660C6
:10EAB00001F50463A1F840280A330A3022462546AE
:10EAC000168A23F8086CB2F824E023F806EC168FB7
:10EAD00023F8046CB2F84CE0503223F802EC08330F
:10EAE0008342EDD1B5F8A021B5F8B431A1F8622880
:10EAF000A1F864384548464B46490022464EDFF8A7
:10EB00002CA116F802E023F808EC30F802EF23F805
:10EB100006EC1AF802E0013223F804EC31F802EFB7
:10EB200023F802EC0833082AE8D101A93846FFF798
:10EB300069FD344801A905AA07ABF5F7A7FB804694
:10EB4000002859D181462F4F05A93846F5F7A0FB7B
:10EB500000284FD13148394648444FF4007209F536
:10EB6000007905F035FBB9F5804FECD1384605A9A1
:10EB7000F5F78EFB00283DD107F120013B461A88AE
:10EB800022825A88A2849A882287DA880833A4F8D5
:10EB90004C200222A27484F8262084F83A2084F8BB
:10EBA0004E2050348B42EAD13B8CA5F8A031798CB1
:10EBB00085F8A221A5F8B41185F8B621BA8CB5F96B
:10EBC00038301749F254FE8C164A22F813603A8DF9
:10EBD000B5F988300AF803204988134A22F813103F
:10EBE00095F85231012143F00203A5F8501185F840
:10EBF000523101E04FF00808404608B0BDE8F08708
:10EC0000125501084442002060310020543E00208B
:10EC1000B24A0020683E00201054002064540020B6
:10EC20006C420020563E00206A3E00201A5400200C
:10EC300028484AF65523B0F8402870B59A4247D183
:10EC4000254B00F5046200F506650A320A351C46BC
:10EC500032F8081C198232F8061C998432F8041C18
:10EC6000198732F8021C0832A3F84C10022199745B
:10EC700083F8261083F83A1083F84E105033AA42D6
:10EC8000E6D1B0F86238B0F86458A4F8A03184F83E
:10EC9000A21184F8B611A4F8B451104B104C1149CC
:10ECA000002233F8086C104D565533F8065C24F8F2
:10ECB000025F33F8046C0D4D565533F8025C013297
:10ECC0000833082A21F8025FEBD10021A0F8401890
:10ECD00070BD00BF4442002060310020B24A0020D5
:10ECE000543E0020683E0020105400201A5400209A
:10ECF0000E4B10B5502404FB0033B3F938000C4B15
:10ED0000463C04FB0034002305E0212808BF0138FD
:10ED1000C8540133DBB214F8010B0028F5D12C24C0
:10ED2000CC54C91801334870137010BD60310020F5
:10ED3000744B00202DE9F047A84A8AB05168044678
:10ED4000106801AB03C3906801A918602046A44C69
:10ED5000FFF758FC204601A904AA06ABF5F794FA80
:10ED6000002840F034819F4BE11D1A6822609A8888
:10ED70009B79A280A3710DF12702FFF7B9FF9A4B8F
:10ED80009DF827101868CD1D605198889B796219ED
:10ED90000E319080937161180DF127020120FFF769
:10EDA000A7FF9DF82780914B08F10708A84404EBC2
:10EDB000080203F10C0153F8040B8B4242F8040BD8
:10EDC000F9D119888A4E9B781180937008F10F0849
:10EDD00006F580490025874B8748B3F9381056F867
:10EDE000042B30F8110002F0FF024243834802F581
:10EDF0000072415601EB922211B2002903DDC829AD
:10EE000002DDC72200E000228DF82020B3F988003F
:10EE10007B4A32F8101056F8042C02F47F477943ED
:10EE2000784F090A385601F5007100EB912108B2BC
:10EE3000002803DDC82802DDC72100E000218DF88D
:10EE4000211012F4803F0EBFB3F8EC1093F8EC10D1
:10EE500014318DF8221012F4003F0EBFB3F83C318C
:10EE600093F83C3114338DF82330002708ABD95D7B
:10EE700007A800F0FBFB002321E00AAAD31813F82F
:10EE80000C3C13B304F8083008F10108B8F5007F12
:10EE900012D3534804A9F5F7FDF98046002840F045
:10EEA00098806B08FE200135414640F20A5203F07B
:10EEB0000303EDB2FEF724FA9DF8273001338DF8F5
:10EEC00027309DF82730022BD7D92C2304F808309F
:10EED00008F10108B8F5007F11D3414804A9F5F7FE
:10EEE000D9F98046002874D16B08FE2001354146CF
:10EEF00040F20A5203F00303EDB2FEF701FA0137C4
:10EF0000042FB3D108F101070D23B7F5007FAA46FE
:10EF100004F8083012D1324804A9F5F7BBF90746C6
:10EF2000002856D14FEA5A030135FE20394640F2F7
:10EF30000A5203F00303EDB2FEF7E2F907F101080C
:10EF40000A23B8F5007FE35512D1254804A9F5F747
:10EF5000A1F9074600283CD16B08FE20394640F253
:10EF60000A5203F00303FEF7CBF90135EDB2B846C0
:10EF70004E457FF430AFB8F1000F1DD00D2304F8DB
:10EF8000083008F10108033B08F1010204F80830D9
:10EF9000A0180021C2F5007205F0C2F904A91048BA
:10EFA000F5F778F90146A0B96B08FE2040F20A5245
:10EFB00003F00303FEF7A4F90948690204AA06ABAB
:10EFC000F5F76AF9002814BF0920002002E00A20A2
:10EFD00000E009200AB0BDE8F08700BF3F550108F6
:10EFE000444200201E550108265501082E550108EF
:10EFF0006454002060310020563E00201054002050
:10F000006A3E00201A540020F0B587B0F5F716F9D3
:10F010000146684600F0C7FB57238DF80830073BD0
:10F020008DF809304A4C04338DF80A30543B8DF882
:10F030000B302046694603AA05ABF5F727F90546CC
:10F04000002840F08280204603A9F5F721F9002826
:10F0500076D1218801F0FF03062B73D12A462B4677
:10F06000A05C01321B18B2F5007FDBB2F8D1002B97
:10F070006AD1384A090A117035490A4632F8020F36
:10F08000354C18551E190233000A0E2B7070F5D13D
:10F09000324B2F4A03F58260148A1C82568A9E8462
:10F0A000948A1C87D68A0832A3F84C605033834276
:10F0B000F2D1274A00232A48B2F8784018180C33B6
:10F0C00044710232240A6C2B0471F4D1254B264C76
:10F0D00026480022B1F88A60254FD655254F360ABA
:10F0E000D655B1F88C60244F24F8026BB1F88E60CD
:10F0F00020F8026FB1F890600831D6551F4F360ADC
:10F10000D65501320A2AE5D1B3F850101C4A1180B5
:10F11000B3F852409480B3F854101A4A1170B3F8FF
:10F120005610194A1170B3F85810184A1170B3F8F4
:10F130005A10174A1170B3F85C20164B1A7004E08D
:10F14000082502E0052500E00625284607B0F0BDA9
:10F1500044420020564B0020664B002060310020C6
:10F16000F4300020CE420020563E0020683E0020B1
:10F17000105400201A540020655300206F530020C3
:10F180008C300020514B0020484B00204F4B00207A
:10F190004242002043420020F0B589B0F5F74EF816
:10F1A000014601A800F0FFFA57238DF80C30073B09
:10F1B0008DF80D3004338DF80E30724801A904AA81
:10F1C00006ABF5F763F86F4C18B1042840F0D78010
:10F1D0002DE04223BDF810008DF80C30013B8DF876
:10F1E0000D300A33ADF81C008DF80E30204601A911
:10F1F00004AA06ABF5F748F8002840F0BE80204688
:10F2000007A9F5F745F8002840F0B580204604A985
:10F21000F5F740F8002840F0B28020464FF4007126
:10F2200004AA06ABF5F738F8002840F0A880572369
:10F230008DF80C30534D073B8DF80D3004338DF8AD
:10F240000E30284601A904AA06ABF5F71DF80646BC
:10F25000002840F09280284631464FF4007205F0B5
:10F260005FF8494B1B781B0206332B802B46474A1D
:10F27000B1184878B15C0002023642180E2E23F80D
:10F28000022FF4D1424B3F4A03F582611E8A168257
:10F29000988C50821E8F9682B3F84C005033D082E7
:10F2A00008328B42F2D1374A00233A4959180E7975
:10F2B0004879360231180C33A2F8781002326C2BE0
:10F2C000F3D1354B354836490022364E364F9657E6
:10F2D000D7573602F619A5F88A6030F8026B334F1B
:10F2E000A5F88C6031F8026FA5F88E60304ED757C4
:10F2F000965701323602F619A5F8906008350A2AA9
:10F30000E3D12C4A1088A3F850009288A3F8522029
:10F31000294A1278A3F85420284A1278A3F85620D4
:10F32000274A1278A3F85820264A1278A3F85A20C0
:10F33000254A1278A3F85C2000231A46E15C0133C9
:10F34000521840F2FF118B420E4DD2B2F6D152420A
:10F35000284604A985F8FF21F4F79CFF78B92846D0
:10F360004FF4007104AA06ABF4F796FF002814BF0F
:10F370000920002004E0082002E00A2000E0092023
:10F3800009B0F0BD44420020564B0020664B0020DF
:10F3900060310020F4300020CE420020563E002094
:10F3A000683E00201A5400201054002065530020AD
:10F3B0006F5300208C300020514B0020484B002020
:10F3C0004F4B00204242002043420020034609B92F
:10F3D00005E058430139C9B20029FAD1704701202C
:10F3E0007047034B18801A8892B2002AFBD17047ED
:10F3F000304B00202DE9F74F9DF830B0B1F1004FB0
:10F400000C4615461E465FFA8BF913D1034620229F
:10F4100003F8012B0E3242705A1C334601E02021C2
:10F420004170013BDBB20130002BF8D1013EF6B256
:10F430009355AFE0B9F1000F18D1002900F1010395
:10F4400005DD4FF02B0880F80080184610E006D04C
:10F450004FF02D0880F800804C42184608E030221A
:10F46000027018462E230370884601E04FF0000812
:10F4700021460522002306E001330A27B342C8BF14
:10F480007A4391FBF7F10929F6DCB342A8BFA4182F
:10F490002246002703E00A2192FBF1F21F46092AC7
:10F4A00007F10103F7DC032E4FF0030A0BD997FB9A
:10F4B000FAF793FBFAFA0AEB4A0AB3EB0A0A08BF17
:10F4C0004FF0030A05E093FBFAF707EB470ACAEB94
:10F4D000030A831931460A200193FFF777FF019B46
:10F4E00002E00A2294FBF2F48442FAD2002204E001
:10F4F00015F8011B0029FBD10132BA42F8DB1A468C
:10F50000297802F8011F15F8011B0029F8D114E031
:10F510000A2194FBF1F201FB1241013E3031B9F1B5
:10F52000020FF6B203F80119144606D0002F04DDCD
:10F53000B24502D12E2203F80129002EE8D1B9F1FB
:10F54000020F07D0B9F1000F20D01FBB2E225A7036
:10F55000023201E0F7B920221A701BE01878302837
:10F5600018D0587983F807B0987118795871D878FD
:10F57000187198789A703022B8F12D0FD8700A70EF
:10F5800002D183F8008005E02B22E5E75A78591C68
:10F590002E2AE3D0BDE8FE8F70B51B4B86B0054622
:10F5A0000C4601AA03F11006186859680833B342E3
:10F5B00003C2F9D11B781370A5F16103DBB2192BDB
:10F5C00001D8203DEDB2A4F16103DBB2192B01D8C3
:10F5D000203CE4B200230DF10302184612F8011F8B
:10F5E000A94204BF1818C0B21033DBB2002BF5D10A
:10F5F00001A9C95CDAB2A14204BF1018C0B201333C
:10F60000102BF5D106B070BD5C55010842F21072A6
:10F6100030B5B1FBF2F4034604F1300503F8015BA9
:10F6200002FB14154FF47A72ADB2B5FBF2F101F1A1
:10F630003004447002FB1150642280B2B0FBF2F53A
:10F6400002FB150005F13001597080B20A21B0FBB0
:10F65000F1F202F1300501FB12025C1C3032023380
:10F6600065705A7002340023637030BD642230B577
:10F67000B1FBF2F5034605F1300403F8014B02FB40
:10F6800015140A21E4B2B4FBF1F202F1300501FBDA
:10F69000124230324570581C5A700023437030BDFE
:10F6A000002930B500F1010202DB2B23037003E0D7
:10F6B0002D234942037049B2642491FBF4F004FB0A
:10F6C0001011134600F1300549B22E205A3C03F8C0
:10F6D000015B507091FBF4F004FB101100F1300558
:10F6E000303100225D709970DA7030BD6423B1FB57
:10F6F000F3F202FB131370B5DBB20A26B3FBF6F587
:10F7000006FB15330446303305F1300204F8012BB3
:10F7100043700023637070BD9F294FEA111200F1FE
:10F72000010301D9373200E0303201F00F0109291D
:10F73000027003F1010201D9373100E03031197054
:10F74000002313707047B1F5204F4FEA113200F1DA
:10F75000010301D3373200E030320905090DB1F55C
:10F76000206F02704FEA112003F1010201D33730FC
:10F7700000E03030C9B29F2918704FEA111002F131
:10F78000010301D9373000E0303001F00F010929C1
:10F79000107003F1010201D9373100E030311970E6
:10F7A000002313707047B1F1204F4FEA117200F13E
:10F7B000010301D3373200E0303221F07041B1F162
:10F7C000206F02704FEA116003F1010201D337305C
:10F7D00000E0303021F07F41B1F5200F18704FEA82
:10F7E000115002F1010301D3373000E0303021F035
:10F7F0007F4121F47001B1F5202F10704FEA1140C4
:10F8000003F1010201D3373000E0303009041870F1
:10F81000080CB0F5204F4FEA117102F1010301D33A
:10F82000373100E0303100051170020DB2F5206F64
:10F830004FEA107003F1010101D3373000E030309E
:10F8400002F0FF029F2A18704FEA121001F1010323
:10F8500001D9373000E0303002F00F02092A087079
:10F8600003F1010101D9373200E030321A70002370
:10F870000B70704710B5044650B18008FFF7FAFFCF
:10F880004000431C03FB03F2A24298BF184610BD80
:10F8900010BD38B50420F4F7DDFC314CC243258897
:10F8A00091B2ADB221EA0505ABB2002B34D02D499F
:10F8B0001E20087013F0080018BF092003F0400153
:10F8C000002918BF0A2003F48071002918BF032003
:10F8D00003F40071002918BF042003F4806100299B
:10F8E00018BF052003F40061002918BF062003F4A7
:10F8F0008051002918BF072003F40051002918BFC8
:10F90000022003F48043002B18BF01202DB230EAFF
:10F91000250028BF08200AE02088104007D01148A1
:10F92000007818B9104B1D780DB902E018462280F6
:10F9300038BD12F4806018BF052002F40065002D68
:10F9400018BF062002F0080509B2002D18BF0920D3
:10F9500030EA210028BF082002211970E7E700BF24
:10F96000444B0020404B0020414B0020104B002214
:10F97000011E10B5DA7715D001DA494201320D4B7C
:10F9800018460A2391FBF3F403FB14110A4B5B5C4A
:10F9900021460370431E002CF2D13AB118462D23A4
:10F9A000037010BD1846302300F81E3F10BD00BF85
:10F9B000084B0020264B00204B550108034BC05834
:10F9C000884234BF00200120704700BF083800087B
:10F9D0000A4B10B5C4580433C158002318460122FD
:10F9E0009A40224201D00130C0B20A4201D0013017
:10F9F000C0B20133202BF2D110BD00BF083800087F
:10FA0000014BC058704700BF04380008064B02463F
:10FA1000202019688A4205D0203080B22033B0F50A
:10FA2000006FF6D1704700BF2038000830B50C4B8E
:10FA300020200FE054F8045B013989B22A400029E4
:10FA4000F8D1B2F1FF3F0AD0203080B22033B0F5B8
:10FA5000006F04D01C4608214FF0FF32EAE730BDAA
:10FA60002038000870B50D460446F4F705FC05F192
:10FA70000060A1B200F56050F4F7FCFB06460648B2
:10FA8000210C2818F4F7F6FB0446F4F7F7FB04EA18
:10FA90000600C0B270BD00BF02380008F8B50646C7
:10FAA0000F46F4F7E9FB00240425A3190848597808
:10FAB000A35D3818001943EA0121F4F7DBFB023497
:10FAC000102C05EA0005F0D1F4F7D8FB2846F8BD64
:10FAD00010380008F8B507460E46F4F7CDFBDFB145
:10FAE000202F02D900231C460FE000231D460122CF
:10FAF0009A4001331543DAB2BA42F8D300240DE03C
:10FB000001229A4001331443DBB2A7F12002934251
:10FB1000F6DB4FF0FF3501E03C463D460F48A9B209
:10FB20003018F4F7A7FB07460D48290C3018F4F7F6
:10FB3000A1FB00EA07050B48A1B23018F4F79AFBC5
:10FB4000EDB205400848210C3018F4F793FB044649
:10FB5000F4F794FB05EA0400F8BD00BF083800087C
:10FB60000A3800080C3800080E38000870B5044642
:10FB70000D46F4F781FB0948A1B22818F4F77AFB87
:10FB800006460748210C2818F4F774FB0446F4F7DE
:10FB900075FB04EA0600C0B270BD00BF043800085F
:10FBA000063800082DE9F04F87B002AC8A463021B4
:10FBB0008146ADF8141020460021FFF7F4FD4846B9
:10FBC00051464FF6FF7200230094F4F73DFB0026E8
:10FBD0003546344602A82946FFF7E5FD344B1A782E
:10FBE000964224D009EBC40B1E781FFA8BFBC84643
:10FBF000002702ABDA5D06AB03F8042DFAB294429B
:10FC000006D10093584651464FF6FF72334605E041
:10FC10000093404651464FF6FF7200230137F4F738
:10FC200013FB08F10808082F1FFA88F8E1D1214BCF
:10FC30001A78002A36D01A78023A072A30D8DFE834
:10FC400002F02A2F2F04102F2226C4F1070292005F
:10FC500035FA02F111F00F0F01D001210FE00F2151
:10FC600009E0C4F10702920035FA02F101F00F0138
:10FC70000F2904D0012111FA02F2AD1810E011FA97
:10FC800002F2AD1A0CE0072C07D0013401E034B1C8
:10FC9000013CE4B204E0082402E0002400E0072470
:10FCA00000221A70072C95D9284607B0BDE8F08FBE
:10FCB0003B4B0020424B00207047FEE7FEE7FEE78B
:10FCC000FEE770477047704770477047704770474E
:10FCD000704770477047704770477047704770476C
:10FCE000704770477047704770477047704770475C
:10FCF000F4F786BAF4F786BA7047704770477047D2
:10FD0000704770477047704738B513200021F4F7EB
:10FD10009DFA384B1A781C461AB11A78013A1A70B3
:10FD200038BD14232370636813B16368013B6360BB
:10FD30002289304B92B2142A02D91A89143A00E06F
:10FD400000221A8162892B4B92B2132A03D95A8955
:10FD5000143A5A8103E003200021F4F777FA237B59
:10FD6000244D312B03D82B7B01332B730EE0002362
:10FD7000042001212B73F4F769FAEB890133EB813D
:10FD80002B8A9BB213B12B8A013B2B82A27C194B8D
:10FD90000132A274A27C0E2A09D900229A74DA7C5C
:10FDA000D2F1010238BF0022DA7401221A75E28A08
:10FDB000104B92B212B1DA8A013ADA82227E0D4BEE
:10FDC00012B11A7E013A1A76627E0A4B12B15A7E3D
:10FDD000013A5A76FFF75DFD58B1074BA076B3F9AB
:10FDE000E4130320013901EB8101F4F72FFA3C23DE
:10FDF000638138BD284B0020603100207047704778
:10FE0000704770477047704770477047704770473A
:10FE1000704770477047704770477047704770472A
:10FE2000704770477047704770477047704770471A
:10FE3000704770477047704714490B78A3F10D0263
:10FE4000D2B2082A03D90B2B01D00C2B0ED1104AA9
:10FE5000D05C50225A43142303FB00230D4A9B1805
:10FE60009A7842F002029A7000230B700A4B00222B
:10FE70001A700A4B40F2931018800B78082B04D1AB
:10FE8000034B197A022908BF1A727047564B00209B
:10FE9000664B002070310020484B0020803E00203F
:10FEA00010B5344CB4F82833B4F9302319B263399F
:10FEB000914202DC643BA4F83033B4F83C33B4F92B
:10FEC000442319B26339914203DC2A4A643BA2F805
:10FED0004433FEF7A3F9284A01231370274A40F25E
:10FEE00037111180264A1370264B03F16C02D97A20
:10FEF00041F00201D9720C339342F8D194F8BA322E
:10FF000043F0020384F8BA3294F85A3343F0020300
:10FF100084F85A3394F8CE3243F0020384F8CE3298
:10FF200094F86E3343F0020384F86E3394F882330E
:10FF300043F0020384F8823394F8D23343F002038F
:10FF400084F8D23394F8963343F0020384F896335E
:10FF500094F8E63343F0020384F8E63301F052F9F3
:10FF6000002420460134E4B201F098F9092CF8D1BC
:10FF700010BD00BF60310020484B0020803E0020B3
:10FF8000123A0020F43000202DE9F04F4FF00060CD
:10FF900089B0A94903F0AAFAF4F768F90B20F4F73D
:10FFA00059F9034640B9A54A302000921E2140F27B
:10FFB000FF72F4F749F9FEE7A14B32214FF6FF72C9
:10FFC000009320200023F4F73FF90720F4F742F9CB
:10FFD0009C4B18600820F4F73DF99B4B18600920F2
:10FFE000F4F738F9994B18600A20F4F733F9984B75
:10FFF000186001F043FFFFF707F8064638B9954B44
:020000040801F1
:10000000302000931E214FF4FC62334606E0924BF1
:10001000302000931E2140F2FF720023F4F714F900
:100020008E4B4FF4FA701880FCF782F802F014F847
:100030008B4D8C4F00233B702B788B4C012B8B4BC3
:100040000DBF40F2371140F28D121A801980B4F8BA
:10005000F031B4F89C006B70B4F84C30EA796B80E6
:10006000834B4FF0000A1988A8800691AA71CDF839
:1000700014A0D046CDF81CA0CDF810A09946B4F934
:10008000F0216978784B8A42DFF8D4B172D0042A23
:1000900023D1029301F0A6FF9BF80120029B032AC3
:1000A00007D8B3F84C20B3F89C30ABF80220ABF87B
:1000B0000430704A872111706F4A6423A4F84C30D1
:1000C000A4F89C3013702B782B720BB9FFF7E8FE65
:1000D000B9F800300693EB79AB71B4F9F031DFF881
:1000E00088B1052B24D101F07DFF6A785C4B032A8F
:1000F0000BD8BBF84C001A78BBF89CB05880A3F81A
:1001000004B01A720AB9FFF7CBFE6A78544B042A7E
:1001100004D106999A79A9F80010DA71554A872115
:100120001170554A6423A4F84C30A4F89C30137025
:10013000B4F9F0214C4B032A1CDC6A78DFF820B1BB
:10014000032A17D9BBF80220BBF80400A3F84C20FF
:10015000A3F89C0001F046FF9BF808300BB9FFF7AD
:100160006BFE6A783E4B042A04D106999A79A9F865
:100170000010DA71B4F8F0313B4A191F89B2012935
:100180006B700DD872206421042BA2F84C00A2F8E9
:100190009C1005D1324B0022DA71C822A9F8002048
:1001A000DFF8E4B0BBF8001089B239B90220F4F7E7
:1001B0004DF814200121F4F749F8EEE002F020FF99
:1001C0002E4B1B889BB2BBB194F85A3343F0020309
:1001D00084F85A3394F8BA3243F0020384F8BA32FE
:1001E00094F8CE3243F0020384F8CE3294F86E33A2
:1001F00043F0020384F86E3304980799431C9BB2C2
:1002000004931F4B1A8892B2914241D01B88049AE2
:100210009BB207931B4B1A8001F072FE2B78012BC7
:1002200034D10026F0B2013601F038F8092EF9D1A8
:10023000002304932CE000BF00C000086D550108A6
:1002400093550108749C00207C530020789C00206A
:100250007C9C0020BF550108E6550108324B002068
:10026000484B0020424B002060310020803E00209F
:100270008C30002042420020434200203E4B0020B0
:10028000364B0020644B0020384B002000200490A7
:100290002B78012B01D100F0B5FF01F073FB9F49D2
:1002A0000B78002B76D0EB795BB9B4F840229C49EF
:1002B00002F5A062009140F26D10D82192B2FDF7D4
:1002C00059F8EB79012B0BD1B4F84022954902F58E
:1002D000A062009140F26D10D82192B2FDF74AF869
:1002E000EB79022B0CD1B4F840228F4B02F5A062BF
:1002F000009340F26D10D82192B20123FDF73AF835
:10030000EB79032B0CD1B4F84022884B02F5A062A4
:10031000009340F26D10D82192B20123FDF72AF824
:1003200001F018FF01F06EFF01F0A8FFB4F9F03101
:10033000042B01D002F06AF8B4F8F031043B9BB210
:10034000012B01D9FDF762FDB4F994330A21013381
:1003500059430220F3F77AFF754B1B78092B01D024
:10036000FDF790FE2B78012B11D194F8BA3243F0AF
:10037000020384F8BA3294F8CE3243F0020384F8D0
:10038000CE3294F86E3343F0020384F86E33634A3E
:1003900000231370674B00221A70B4F95031012BFF
:1003A00010D10320F3F756FF18B90230F3F752FFCC
:1003B00040B90223A4F8503194F8523143F00203BB
:1003C00084F85231EB79002B4BD0594B1B78072B1B
:1003D0000BD1594BDA79022A07D194F86A2242F0FC
:1003E000020284F86A220022DA71B4F94032CBB9F1
:1003F000524B53491B78EA7909785200C91A4A438B
:10040000059848BF073203EBE2039BB2421D9342BB
:1004100002DC421F934205DA404A0121A9F800306C
:1004200011700593B4F94032012B1AD1454B46495E
:100430001B78EA7909785200C91A4A4348BF073243
:1004400003EBE2039BB20AF10502934203DCAAF13B
:100450000502934205DA314A0121A9F804301170EE
:100460009A46697A394B01290FD1B4F9F00100227B
:100470000328A4F8182201D1197008E03449B1F911
:1004800004120A2902DC022200E000221A703B78E2
:10049000002B3FF4F4ADBBF800309BB20BB901F078
:1004A000DBFD4FF41671ABF800103B78012B64D1E3
:1004B000284B4FF42F721A809B4659E00420F3F723
:1004C000C9FE10F4804F49D0B4F95031D3F1010383
:1004D00038BF0023A4F8503194F8523143F002039E
:1004E00084F85231124B1B78092B06D1184BB3F903
:1004F0000833022B01D1FEF79BFBB4F9F031022B3C
:100500003BD10026144B0022F2540136B6F5C46FDD
:10051000F8D106200121F3F799FE2EE0123A0020CF
:100520000D56010813560108195601081F560108F7
:10053000564B00203C4B0020664B002050540020BE
:100540004E540020515400204F54002038540020B5
:1005500060310020304B0020444D00209D4B1B8813
:100560009BB22BB9AB7AD3F1010338BF0023AB7236
:10057000BBF800309BB2002BA0D13B78022B3ED1C0
:10058000DFF850B240F6B833ABF800305B4628E0F5
:1005900004200293F3F75EFE10F4005F029B20D06C
:1005A000EB790133DBB2032BEB7102D98A4B0022CA
:1005B000DA718A4A8A4B11784FF0500E585C0EFB64
:1005C00001F1AEF13C0E0EFB00116118887C40F089
:1005D00002008874E97941B9073111700222DA7199
:1005E00003E01A8892B2002AD2D1BBF800309BB245
:1005F0002BB97A4B1878012801D8FBF709FE3B7814
:10060000032B49D1734B40F2DC501880B3463DE0D8
:100610000420F3F71FFE10F4807F0FD02B785E4686
:10062000012B08D1B4F8F031043B9BB2012B33D934
:10063000FFF702FC30E0FFF733FC2DE0654B1B8831
:100640009BB21BBBFEF7A8FD644B1B78092B1DD08A
:100650000426644B002140F2054200935B200B46C8
:10066000FCF788FE4FF49670FEF7BBFE5E4B002150
:1006700000935B2040F205420B46013EFCF77AFEF8
:10068000F6B2C820FEF7ADFE002EE2D151490B882C
:100690009BB2002BBCD15E463B78042B40F07381AB
:1006A000DFF838B19BF80030092B00F0DD80494BB2
:1006B0004FF42F721A801A46C1E00420039202936D
:1006C000F3F7C8FD10F4007F039A029B00F0B78097
:1006D0002A78012A40F0B880B8F1030F00F2838530
:1006E000B4F8F00108F10108043880B201285FFA7B
:1006F00088F803D8B8F1010F24D105E0B8F1040F50
:1007000020D0B8F1010F03D10120A4F8B80202E013
:100710000021A4F8B812354AD17A41F00201D17211
:1007200000215171043111710339D07D0131C9B2F9
:1007300040F00200D075517482F810800C32092903
:10074000F3D181E02949CA7A01F1600E42F0020238
:10075000CA7200224A7104320A710A4691F817C01F
:100760004CF0020C81F817C00C317145F6D101280C
:1007700007D9B4F9B01000293CD11D49B1F90011D5
:10078000C1BB00214FF004084FF0030C4FF0020EE4
:1007900007201174117782F8281082F83410013183
:1007A00082F8118082F81DC082F829E082F83500B5
:1007B00082F8418082F8401082F84DC082F84C10D7
:1007C00082F859E082F8581082F8650082F86410C7
:1007D0003AE000BF304B0020484B0020564B002031
:1007E000664B002025560108AC460108F430002075
:1007F00060310020002010741077013082F828004A
:1008000082F8340001304FF00408072182F84000DC
:1008100082F84C00013082F81180517782F82980EB
:1008200082F8351082F8418082F84D1082F85980A4
:1008300082F8580082F8651082F8640004E011889C
:1008400089B200297FF439AF1A8892B262B9697A05
:100850008A4B29B901325A72B4F818229A8103E0FE
:100860005A729B89A4F818329BF80030092B40F08B
:100870008A80834B00210093E6200B4640F20A5207
:10088000FCF778FD7F4B50211B7801FB0342B2F946
:10089000100088BBB2F93820032A24D8DFE802F020
:1008A0000209151C01FB034191F82400FDF7C0FF6C
:1008B00018E001FB034191F82400FDF759FF0646BB
:1008C0004FF47A70FEF78DFD0DE001FB034191F8C6
:1008D0002400FEF749F805E001FB034191F82400EC
:1008E000FEF728FA06469BF80030502202FB03432D
:1008F0009A8C01329A8418E0B2F93830012B05D174
:1009000092F82400FDF7FFFE064600E000269BF863
:100910000030502202FB0343B3F93820022A04D1ED
:1009200093F82400FEF7B0F806463EB9564BE62091
:100930000093314640F20A5233460DE0042E01D1B5
:10094000524B03E0032E0CBF514B524B002100933E
:10095000E62040F20A520B46FCF70CFD4FF47A7089
:10096000FEF73FFD9BF80030502202FB034393F853
:10097000261093F83A2041F0020142F0020283F877
:10098000261083F83A203B78052B40F00D81B4F80F
:10099000F031043B9BB2012B3A4B18D81A784AB974
:1009A0003D4A1278032A05D13C4A11782D2901D9F4
:1009B000023911701A78012A09D1374A5278032A6C
:1009C00005D1374A11781E2901D9023911701A78D8
:1009D0000A2A03D0082A04D12A7812B9314A96216A
:1009E00011801A780C2A00F2B980072A0FD12A49FF
:1009F000C97902290BD1B4F9402239F8221008B282
:100A000011285BDD2848013920F8221056E0A2F1B8
:100A10000B01C9B2012909D8502101FB0242918C76
:100A200008B200284ADD0139918447E0062A1A49B4
:100A300016D18879022813D1B4F818221B4910B2B4
:100A40001E2801DD1E3A02E0002802DD013AA1F86D
:100A5000182294F82E2242F0020284F82E222DE071
:100A60005020895C42433C3800FB0122A218118AC5
:100A700008B200281CDD013911821FE0484B00201C
:100A800041560108564B0020475601084D560108B3
:100A90005356010859560108664B00204242002077
:100AA000434200203E4B00208C300020603100206B
:100AB000917A11F0100F1CBF108910821A78062A43
:100AC0000AD19C4A92793AB9A4F8502194F852215B
:100AD00042F0020284F852211A78052A0DD1B4F9A5
:100AE000A011954A042908D0052906D0B2F9B411FD
:100AF0000E2902DD0E21A2F8B4111A78092A12D1AA
:100B0000B4F9E0128C4A01290DD1B2F9081311B9D8
:100B10000220A2F80803B4F90823032A03D1864A65
:100B20000221A2F808131B78502202FB0343997C90
:100B300093F84E2041F00201997493F8261042F088
:100B4000020241F0020183F8261093F83A1083F86C
:100B50004E2041F0020183F83A1025E077480D3A23
:100B60000C2101FB020393F80BC093F805E04CF055
:100B7000020C83F80BC0BEF1000F02D00EF1FF3E55
:100B800001E04FF00B0E01FB020183F805E04B7909
:100B9000012B01D103330B710C2303FB02004379BA
:100BA0000B2B01D10B3B03713B78072B40F0D2801C
:100BB00063494FF0500E0A785E4B0EFB02FE985CC4
:100BC0004FF0140C0CFB00EEA6449EF812C0022A53
:100BD0004CF0020C8EF812C001D100B99A540A7878
:100BE000032A04D1DA7812B9524A0220D0702A7846
:100BF00032B90878082803D1187A012800F0A280B9
:100C00000A780C2A79D84FF0500C0CFB02FC985C47
:100C10004FF0140B0BFB00CCA4449CF812B002283C
:100C20004BF0020BDFF80CE18CF812B001D8013068
:100C300000E00020052A0EF8020009D1B4F9A02135
:100C4000042A05D15A79032A02D13A4A0020507168
:100C50000A78052A09D1B4F9A021042A05D05A79C5
:100C6000022A02D1334A032050710A78502050439F
:100C700013F802E04FF0140C0CFB0E00201890F952
:100C80000A00002804DA2B484FF0000E00F802E0BA
:100C90005020504313F802E04FF0140C0CFB0E00F0
:100CA0002018807A10F0010F04D022484FF0000E77
:100CB00000F802E05020504313F802E04FF0140C0B
:100CC0000CFB0E002018807A10F0020F08D0092AC1
:100CD00006D0052A04D017484FF0000E00F802E0B5
:100CE0000A78995C50235A433C3B03FB0123E318E9
:100CF0009A7C42F001029A742CE010480D3A0C21C3
:100D000001FB020393F804E001FB020293F80BC01D
:100D1000BEF1030F9CBF0EF1010E83F804E04CF00E
:100D2000020C83F80BC01379032B13D90023137122
:100D300010E000BF664B002060310020F43000203E
:100D4000564B002094F8A63243F0020384F8A632F2
:100D5000854B1A723B78062B40F03981B4F8F0319C
:100D6000043B9BB2012B814B18D81A784AB97E4AB2
:100D70001278032A05D17E4A1178D62901D802318A
:100D800011701A78012A09D1774A5278032A05D1BD
:100D9000784A1178A92901D8023111701A780A2AE3
:100DA00003D0082A04D12A7812B9734A96201080F9
:100DB000EA7942B11A78072A05D16B4AD17902291A
:100DC00001D10239D17119780C2900F2DB80072991
:100DD0000FD1654AD279022A0BD1B4F9402239F8F1
:100DE000221008B2D02870DC6448013120F82210AB
:100DF0006BE0A1F10B02D2B2012A0BD8502202FB08
:100E00000142918CB2F91CE008B286455DDD0131EA
:100E100091845AE0062954481CD18279022A3CD197
:100E2000B4F81812564A08B21D2809DDB2F910E2CA
:100E3000AEF11E0C604501DA1E3102E0704502DAA7
:100E40000131A2F8181294F82E2242F0020284F81E
:100E50002E223AE00A2920D1827A012A1DD8297847
:100E600001294FF0140109D101FB0242B2F83013FD
:100E7000B2F928030FFA81FE643808E001FB024250
:100E8000B2F83013B2F928030FFA81FE0C38864508
:100E90001BDA0131A2F8301317E05022405C5143B5
:100EA0003C3A02FB0012A218118AB2F908C00FFAEC
:100EB00081FEF44502F1080001DD013104E0817892
:100EC00011F0100F01D0002111821A78062A0AD1E0
:100ED000254A92793AB9A4F8502194F8522142F067
:100EE000020284F852211A78052A0DD1B4F9A01112
:100EF000234A042908D0052906D0B2F9B4110E29D5
:100F000002DD0E20A2F8B4011A78092A11D1B4F931
:100F1000E0121B4A01290CD1B2F9080308B9A2F862
:100F20000813B4F90823032A03D1154A0121A2F8B2
:100F300008131B78502202FB0343997C93F84E2040
:100F400041F00201997493F8261042F0020241F038
:100F5000020183F8261093F83A1083F84E2041F0EE
:100F6000020183F83A1032E0664B0020564B002015
:100F700042420020434200203E4B00208C300020A3
:100F8000603100209A48A1F10D020C2101FB0203FF
:100F900093F805E001FB020193F80BC0BEF10A0FC4
:100FA00094BF0EF1010E4FF0000E4CF0020C83F8CE
:100FB00005E083F80BC04B790BB904330B710C239C
:100FC00003FB02004379022B01D1023B03713B7802
:100FD000092B67D1874B1A780C2A47D850205043E9
:100FE00085494FF0140C11F802E00CFB0E0020189C
:100FF00090F812E04EF0020E80F812E028780128F6
:1010000002D122B90C3203E00AB90A3200E0013AF7
:101010001A701A78042A02D1764A032010701B78BD
:1010200050225A43C95C142000FB01216118887CBE
:10103000092B40F00300887434D1704B9A18917CCE
:1010400092F84E3041F00201917492F8261043F06C
:10105000020341F0020182F8261092F83A1082F859
:101060004E3041F0020182F83A101BE060494FF027
:101070000C0EA2F10D000EFB001090F80BE00D2AF3
:101080004EF0020E80F80BE001D1083200E0013A88
:101090001A701B780C220D3B02FB0311CB7A43F034
:1010A0000103CB723B780A2B2AD1524A524913785A
:1010B0004FF0140EC85C502159430EFB001161180B
:1010C000887C40F002008874297849B9A3F10D01A9
:1010D000C9B2082912D90B2B10D00C2B10D10DE05E
:1010E0000C2B01D80D230AE0414B03F16C01D87A97
:1010F00040F00200D8720C338B42F8D100231370F9
:101100003B78082B68D13B4B1A780C2A48D85020E2
:101110003949504311F802E04FF0140C0CFB0E005B
:10112000201890F812E04EF0020E80F812E02878B5
:1011300018B90A2A01D1187005E00C2A01D10C3A1D
:1011400000E001321A701A78042A02D1294A0520D7
:1011500010701B7850225A43C95C142000FB0121F7
:101160006118887C092B40F00300887434D1234B2C
:101170009A18917C92F84E3041F00201917492F8E5
:10118000261043F0020341F0020182F8261092F883
:101190003A1082F84E3041F0020182F83A101BE01A
:1011A00013494FF00C0EA2F10D000EFB001090F849
:1011B0000BE0152A4EF0020E80F80BE001D1083A40
:1011C00000E001321A701B780C220D3B02FB031168
:1011D000CB7A43F00103CB7200233B70084B012212
:1011E0001A70FEF74CBF4FF00008FFF791BA00BF2E
:1011F000F4300020564B0020664B00206031002068
:10120000123A0020F7B51F4C04F16C05237813F057
:10121000020F14D014F8076C1B4A54F80B7C32F8F8
:10122000162014F8066C002306EB8606237034F8AB
:10123000050C14F8011CBE190096FCF79BF80C3441
:10124000AC42E3D1114B1A780D3AD2B2082A18D821
:101250000F4B1978A9B10C2555430E4E002119707A
:1012600074192779E088A17A647975590A4B064A7E
:1012700004EB84041B782C1932F817200094FCF737
:1012800079F8FEBDFF30002060560108564B002063
:101290003C4B0020F43000203B4B00202DE9F3476D
:1012A000A84B05461B78A84CDFF8DC8243B9B4F99B
:1012B0007032D8F80020142101FB0323DE8908E0F6
:1012C000B4F97032D8F80020142101FB0323B3F8DD
:1012D0007260B4F970720323082F0BD8C7F10B01A9
:1012E000B1FBF3F10A20C9B2FEF770F84FF0010A22
:1012F00081460AE0A7F10901B1FBF3F10A20C9B266
:10130000FEF764F84FF0010982460323B7FBF3F3BD
:10131000D8F8002003EB4303FF1A142303FB07272D
:10132000D7F8C47001F06EF90C2303FB0542527923
:1013300080460B2A00F2F782DFE812F00C0013005F
:101340001C0050008000DC0028016B01CE01F6017A
:10135000AB0231020620F2F77DFF4FF47A71414370
:1013600052E17A480223C189794A0093013001F0A1
:101370007F01D6E203FB05431B79734A73B9B2F8C8
:101380007C30002B00F03F81B2F8A400714A06B215
:101390001178714A12788A1A704910E0012B40F0D6
:1013A0003081B2F8CC30002B00F02D81B2F8F4007F
:1013B0006B4A06B211786B4A12788A1A6A4931F878
:1013C000161000B24A4312F5007144BF02F5BE6127
:1013D0000F3189120429D8BF002106E103FB054320
:1013E0001B79594A8BB9B2F87C30002B00F00B8185
:1013F000B2F9A4005D49B2F9B82009568A1A5C49CD
:101400000968B1FBF8F8554913E0012B40F0F98069
:10141000B2F8CC30002B00F0F680B2F9F400554958
:10142000B2F9082109568A1A53490968B1FBF8F83C
:101430004D4931F8101001FB08F1CEE003FB0543E4
:101440001B79414A3BBBB2F97C1029B3B2F9A430F5
:10145000464AD656414A32F81370484B1868B0FBDA
:10146000F8F0FEF707FA464AB4F9A43012681421DE
:10147000474301FB032307F50077196906EB97261D
:10148000B4F97C30042ED8BF00267143022B03D15F
:101490000833594300E000210C2202FB0542127977
:1014A000294B012A40F0B080B3F9CC10002900F09C
:1014B000AB80B3F9F4302F4AD6562B4A32F813706A
:1014C000304B1868B0FBF8F0FEF7D4F92C4AB4F9A9
:1014D000F43012681421474301FB032307F500771A
:1014E000196906EB9726042ED8BF00267143B4F97C
:1014F000CC3081E003FB05431B79134A7BB9B2F87A
:101500007C30002B7FD0B2F9A4001849B2F9B82082
:101510000956104E8A1A114931F810105BE0012B60
:101520006FD1B2F8CC30002B6DD0B2F9F400114974
:10153000B2F9082109560A4E8A1A0B4931F81010DF
:1015400049E000BF64530020F4300020564B0020D7
:101550007C3500204E54002050540020563E002080
:101560004F540020515400206A3E002010540020A7
:10157000545400201A540020585400205C54002079
:10158000749C0020605400207C53002003FB054322
:101590001B79944A7BB9B2F87C30002B33D0B2F976
:1015A000A4009149B2F9B8200956904E8A1A904980
:1015B00031F810100FE0012B23D1B2F8CC3013B367
:1015C000B2F9F4008B49B2F9082109568A4E8A1AF9
:1015D0008A4931F810103678714301F5007102EB39
:1015E00091218A1C042A98BF0021854A142612687A
:1015F00006FB002002695143022B05D108335943F1
:1016000002E0002100E01946002300937D487E4A55
:1016100086E103FB05431B79724A4BB9B2F97C3072
:10162000002B2FD0794B7A4A1B885343794A21E00B
:10163000012B08D1B2F9CC3023B3774B744A1B8805
:101640005343764A16E0022B09D1B2F91C31012B23
:1016500017D1734B6E4A1B885343724A0AE0032B1F
:101660000FD1B2F96C31012B0BD16F4B684A1B883B
:1016700053436E4A128893FBF2F34FF4FA625343DA
:1016800000E00023BAF1090F4FF0060210D8B7FBB3
:10169000F2F7B3FBF7F3F4325343B3FBF9F9012349
:1016A00000930E33B9FBF3F15648614A0B3B38E126
:1016B000B7FBF2F7B3FBF7F30AFB03FAF021BAFB2F
:1016C000F1FA06FB0AF60123360A4FF47A71009309
:1016D0004C487143564A23E103FB05431B79414AB9
:1016E00033B9B2F97C10002900F02E81494BDAE0C1
:1016F000012B06D1B2F9CC10002900F02581474B0F
:10170000DCE0022B06D1B2F91C31012B40F0F38052
:10171000444BDEE0032B40F0EE80B2F96C31012B3C
:1017200040F0E980414BDFE003FB05431B792D4A84
:101730004BB9B2F97C1000292CD03E4B3E491B8896
:101740005943344B21E0012B08D1B2F9CC1009B335
:101750003A4B39491B885943304B16E0022B09D1CB
:10176000B2F91C31012B14D1354B33491B88594335
:101770002C4B0AE0032B0CD1B2F96C31012B08D1B0
:10178000304B2D491B885943284B1B8891FBF3F1A3
:1017900000E00021012300931A482B4AC0E003FB1C
:1017A00005431B790F4A6BB9B2F97C10002900F090
:1017B000CB80184A154B12881B887A431D49B2FB0F
:1017C000F3F260E0012B41D1B2F9CC10002900F016
:1017D000BB80124A104B12881B887A431749B2FB10
:1017E000F3F250E0F4300020105400205054002058
:1017F000563E00201A540020515400206A3E00201A
:10180000749C0020574B002070350020425400206B
:10181000404B4C0066980020445400206A980020F9
:10182000465400206E9800204854002070980020F4
:10183000883500203A540020A08601003C54002046
:101840003E54002040540020A0350020022B0CD133
:10185000B2F91C31012B4ED13C4A3D4B12881B88FA
:101860007A433C49B2FBF3F20DE0032B43D1B2F9CA
:101870006C31012B3FD1384A384B12881B887A4390
:101880003749B2FBF3F209884F43B7FBF3F3D71A9A
:1018900032E003FB05431B79324A43B9B2F97C10AD
:1018A000002951D0304B1B885F43304B1FE0012B88
:1018B00008D1B2F9CC10002946D02D4B1B885F43CC
:1018C0002C4B14E0022B08D1B2F91C31012B12D1A0
:1018D000204B1B885F431E4B09E0032B0BD1B2F951
:1018E0006C31012B07D11E4B1B885F431B4B1B88A0
:1018F000B7FBF3F700E000276FF00043B3FBF9F309
:101900009F4207D809FB07F1B1FBF6F18902B1FB51
:10191000FAF101E04FF0004101231748174A009304
:101920000333FDF767FD0C2303FB0544144B2279B9
:10193000208903EB42035A890F4BA17A00930023BD
:10194000FBF718FDBDE8FC870F46D5E76E98002031
:10195000465400203E540020709800204854002037
:1019600040540020F43000203A540020425400201B
:101970003C54002044540020574B00209435002054
:10198000605601082DE9F74FB64B1A78052A07D1A2
:101990005B7D023BDBB2012B02D8B34B1C7800E02D
:1019A0000124B24DB5F90C32042B1AD1D5F824021A
:1019B00095F83412FDF75AFED5F828329C201A8883
:1019C000AB4BD82100932346FBF7D4FCD5F8283243
:1019D000B5F830021A88D5F8243295F832120093FF
:1019E00020E0D5F828329C201A88A24BD8210093F9
:1019F0002346FBF7BFFCA04EB5F948320122009206
:101A000046F2905105F58E62594330460C3202235E
:101A1000FDF7F0FCD5F83C32B5F8440295F84612D3
:101A20001A8800962346FBF7A5FC944F4FF0000858
:101A30000CE2237813F0020100F05F8123F002032F
:101A4000042E237014F8082C01D0072E16D112F0A2
:101A500020030AD0B7F9102054F80E3C34F8060CD5
:101A600014F8041C33F8122012E012F0800F40F03A
:101A7000DE8134F8060C14F8041C69E112F0200829
:101A800009D054F80E3C34F8060C14F8041C1A88DB
:101A900054F8123C42E012F0020300F0B480082E29
:101AA0003ED1B5F92433502101FB0351B1F97C300B
:101AB0006E4A022B72480ED1B1F9A430016814208D
:101AC00000FB03131B690A214B43B2F9FC02B2F974
