:020000040800F2
:10C0000000A00020213E010839FA00083BFA000890
:10C010003DFA00083FFA000841FA0008000000005D
:10C0200000000000000000000000000045FA0008C9
:10C0300043FA00080000000047FA000849FA000827
:10C040004BFA00084DFA00084FFA000851FA0008B0
:10C0500053FA000855FA000857FA000859FA000880
:10C060005BFA00085DFA00085FFA000861FA000850
:10C0700063FA000865FA000867FA000869FA000820
:10C080006BFA00086DFA00086FFA000871FA0008F0
:10C0900075FA000879FA00087BFA00087DFA0008B2
:10C0A0007FFA000881FA000883FA000885FA000880
:10C0B00087FA000889FA00087DFB00087FFB00086A
:10C0C00081FB000883FB000885FB000887FB000854
:10C0D00089FB00088BFB00088DFB00088FFB000824
:10C0E00091FB000893FB000895FB000897FB0008F4
:10C0F00099FB00089BFB00089DFB00089FFB0008C4
:10C10000A1FB0008A3FB0008A5FB0008A7FB000893
:10C11000A9FB0008ABFB0008ADFB0008AFFB000863
:10C12000B1FB0008B3FB0008B5FB0008B7FB000833
:10C130002DE9F04114200021454CF8F787F8242020
:10C140000121F8F783F823680720B3F95C11F8F7A9
:10C150007DF823680820B3F85E11F8F777F83D4CB6
:10C1600009200121F8F772F80B200121F8F76EF889
:10C17000217800206431F8F769F82178364D0120E4
:10C180006431F8F763F82B680A209988F8F75EF8AD
:10C190002B680C209988314F0131F8F757F80520AA
:10C1A0000121F8F753F806F081FD20200146F8F749
:10C1B0004DF84FF4FA6002F0EAFF06200121F8F78B
:10C1C00045F8274E1420274D02F0E1FF4FF400639D
:10C1D0003B60336005F58048F8F72CF800F44073B5
:10C1E000B3F5807F45F8040B02D0B3F5007F03D18F
:10C1F00080F4407045F8040C55F8041C3B6801F0CD
:10C20000FF02D21823783A609A42B8BF134A3068C6
:10C21000B8BF1360090A01F0FF01091899423160A3
:10C22000B8BF0F493A68B8BF0B603168D21A4545AC
:10C23000C3EB01033A603360CED1D31A44BF03F598
:10C240007E631F33084A1B131370BDE8F08100BFE3
:10C25000F0470020D438002058970020EC4E0020F2
:10C26000F84E0020004F0020529700202DE9F04F9B
:10C27000934B0024934DA1B01C7021460646142018
:10C28000F7F7E4FFB5F994330A210133594302204B
:10C29000F7F7DCFF2046F7F7BDFF05202146F7F74B
:10C2A000D5FF24200121F7F7D1FF20200146F7F721
:10C2B000CDFFB5F9E413A5F850410139032001EB96
:10C2C0008101F7F7C3FF804D804B4FF4FA7018805F
:10C2D0002B680720B3F9F810F7F7B8FF2B68082090
:10C2E000B3F8FA10F7F7B2FF09202146F7F7AEFFCF
:10C2F0000B202146F7F7AAFF11E028462146F7F761
:10C3000085FF01354FF6FF70F7F782FFADB240F2BF
:10C310008F139D42F1D11434A4B2DC2C01D000253E
:10C32000EBE700242046EF21F7F770FF01344FF6CA
:10C33000FF70F7F76DFFA4B240F28F139C42F1D16A
:10C3400000200146F7F762FFEF24013C4FF6FF7033
:10C35000A4B2F7F75DFF002CF7D12C201421F7F7DA
:10C3600055FFB534013C4FF6FF70A4B2F7F750FF0C
:10C37000002CF7D158201421F7F748FF143401346A
:10C380004FF6FF70A4B2F7F743FFC92CF7D1842012
:10C390001421F7F73BFF143C013C4FF6FF70A4B2A9
:10C3A000F7F736FF002CF7D1C8201421F7F72EFF3E
:10C3B000B534013C4FF6FF70A4B2F7F729FF002C0B
:10C3C000F7D1F4201421F7F721FF143401344FF68C
:10C3D000FF70A4B2F7F71CFFC92CF7D14FF490708F
:10C3E0001421F7F713FFB53C01344FF6FF70A4B2E8
:10C3F000F7F70EFFC92CF7D14FF4A6701421F7F709
:10C4000005FF143C013C4FF6FF70A4B2F7F700FFA4
:10C41000002CF7D121464FF4C770F7F7F7FEEF3441
:10C42000013C4FF6FF70A4B2F7F7F2FE002CF7D1F3
:10C43000274B06200093B92105222346254F01F002
:10C4400011F8254D3120B92105222346DFF89080CF
:10C45000009701F007F85D20B921052223460095D9
:10C4600001F000F88920B92105222346CDF800808B
:10C4700000F0F8FF194BCE200093B92140F20512CD
:10C48000234600F0EFFFF920B92140F205122346C0
:10C49000009700F0E7FF40F22510B92140F20512A5
:10C4A0002346009500F0DEFF4FF4A970B92140F259
:10C4B00005122346CDF80080A62500F0D3FF4BE0FF
:10C4C000CE45002048310020F0470020BE45002026
:10C4D0009C4C0108A14C0108A64C0108B34C010872
:10C4E000AB4C01084FF0140808FB04F8B94F29467B
:10C4F0003B680620434400930522002300F0B2FF6E
:10C500003B6829464344009340F205120023CE20A5
:10C5100000F0A8FFB04A20A9125D0B1903F80C2CFB
:10C5200001EB4402AD49143D31F81410ADB222F8CC
:10C53000501CAB49095D03F8241CAA49095D03F8A6
:10C54000181CA94931F8141022F8641CA74A125D7E
:10C55000013403F8302CA4B2A54B1A68984692888F
:10C56000A242BFD2002504952F462C460520F7F79E
:10C5700071FE18B19F4A4FF4167313809D480188CD
:10C5800089B241B90220F7F761FE14200121F7F7C3
:10C590005DFE00F015BF21460A20F7F757FE214641
:10C5A0000C20F7F753FE142002F0F1FD01210620C4
:10C5B000F7F74CFE142002F0EAFDDFF868928E4B8C
:10C5C0004FF400618D4A19609A464B46116009F597
:10C5D0008041A1461C4603910292F7F72BFE00F41E
:10C5E0004073B3F5807F44F8040B0399029A02D09C
:10C5F000B3F5007F03D180F4407044F8040C54F884
:10C60000040CD2F800E000F0FF0CDFF81CB2000AC6
:10C61000E64400F0FF0CDAF800009BF800306044BC
:10C62000C3EB0E0EC01A8C42C2F800E0CAF800003C
:10C63000D1D1BEF1000F6949B8BF0EF57E6E31F859
:10C640001920B8BF0EF11F0E4FEA2E3E02FB0EFE60
:10C65000DFF884C11EF5007244BF0EF5BE620F32D2
:10C660001CF909A000286049BCBF00F57E601F309E
:10C670000AEBA22A31F8192000135043DFF864E1D5
:10C6800010F5007248BF00F5BE624C461EF90990D5
:10C6900048BF0F3209EBA229594A1FFA8AFA1178CA
:10C6A0001FFA89F9002900F00985002111700C2D6D
:10C6B00000F20485DFE815F00D00CB003A01B5016A
:10C6C000E5016902F4025A03190479049D04A904DE
:10C6D000B504434A282492F900100020614301F573
:10C6E000224103EBA121F7F7B1FDDFF800C19BF870
:10C6F00000109CF9003001205C4304F5224401EB5A
:10C70000A421CDF80CC0F7F7A1FD3E4B0820009303
:10C71000D82140F20532002300F0A4FE3A4BE82075
:10C720000093D82140F20532002300F09BFE374BE6
:10C730004FF498700093D82140F20542002300F096
:10C7400091FE334B08200093062140F2053200236E
:10C7500000F088FE2F4A304B50201B7806210092B3
:10C7600040F2054200F07EFEDDF80CC01C4CE346B2
:10C77000FEB92A4BD8210093B8203346052200F099
:10C7800071FED8F8001033460BE0DFF84CE0134898
:10C790000EF803204FF4806E20F813E0E2540133CA
:10C7A0009BB28A889A424FF00002EED2144600F003
:10C7B00085BC012E40F00286194B40F20512009311
:10C7C000B8200023D82100F04DFED8F80020002327
:10C7D00037E000BF5497002084480020D63800205E
:10C7E000DC4700208E480020EA380020E647002081
:10C7F00058970020C4450020F84E0020EC4E002041
:10C80000C8450020B84C0108CF4C0108D94C01089C
:10C81000E34C0108D24E0108C7450020124D010823
:10C82000194D0108004F0020D4380020A948AA491A
:10C830004FF4806EC45421F813E00BF80340013329
:10C840009BB2918800249942F0D200F037BCA34BF0
:10C8500008200093062140F205320023CDF80CC0D9
:10C8600000F000FE0EBB5FFA8AF011AFA0F12801C4
:10C87000059049B2384602F02DFE6FF01303634372
:10C880004FF6FE71A63303EA01012D200123052294
:10C89000009700F0E7FDDDF80CC005991CF80430A6
:10C8A00028335B1A0CF8043024E0012E22D15FFA01
:10C8B00089FCACF1280111AF384649B2CDF80CC063
:10C8C00002F008FE6FF0130363434FF6FE71A633C8
:10C8D00003EA010140F205123346F520009700F00B
:10C8E000C1FD7C4ADDF80CC0135D2833CCEB030C92
:10C8F00002F804C0D8F8003001349B88E4B2A342A7
:10C9000001D202250024764B282719579BF80030C6
:10C91000794301F5224103EBA1210020F7F796FCB2
:10C92000704B1B575F4307F5224725E10137FFB2E4
:10C93000072F88BF002756BB5FFA8AF311AAA3F11D
:10C940002801104649B2CDF80CC00593029202F0BE
:10C95000C1FD6FF013036343029AA6334FF6FE71D5
:10C9600000922D2003EA01010522334600F07AFDF2
:10C97000BAF1280FDDF80CC034D01CF80430DDF813
:10C9800014E02833CEEB03030CF8043029E0012E29
:10C9900027D15FFA89FC11AAACF12801104649B2EF
:10C9A000CDF80CC0029202F095FD6FF013036343C3
:10C9B000029AA6334FF6FE710092F52003EA0101B8
:10C9C00040F20512002300F04DFDB9F1280FDDF80B
:10C9D0000CC007D03F48035D2833CCEB030C00F8B4
:10C9E00004C017B90134E4B20027D8F800309B889E
:10C9F000A34201D203250024394B9BF8002019578C
:10CA00002823594301F5224102EBA1210020039381
:10CA1000F7F71CFC334A039B1257534303F5224399
:10CA200036E12F4A00201157A022514301F5203151
:10CA300001F5007103EBA1210292F7F707FC294BE6
:10CA4000029A1B579BF800105A4302F5203202F558
:10CA500000720137012001EBA221FFB2F7F7F6FBCC
:10CA600016B90FFA8AF303E0012E04D10FFA89F305
:10CA70008C2BC8BF0425142F40F220830135EDB262
:10CA80001CE3174F86BB11AB0AF16001184649B28F
:10CA9000039302F01FFD6FF013026243039BA63263
:10CAA0004FF6FE71009302EA01010123052259208D
:10CAB00000F0D8FC0FFA8AF39B02A3F51E336FF047
:10CAC0009F02A3F5F66393FBF2F33A5D9B183B5587
:10CAD00034E000BF8E480020EA380020204D0108D5
:10CAE000DC470020E6470020012E27D111AB09F1D9
:10CAF0006001184649B2039302F0ECFC6FF0130298
:10CB00006243039BA6324FF6FE7102EA01010093D5
:10CB100040F20512334640F2211000F0A3FC0FFA58
:10CB200089F39B028F49A3F51E336FF09F02A3F593
:10CB3000F66393FBF2F30A5D9B180B55D8F80030AF
:10CB400001349B88E4B2A34201D2052500243B575F
:10CB5000A0277B439BF8001003F5203303F50073F7
:10CB600001EBA3210020F7F771FB7E4A13575F43C7
:10CB700007F5203707F500779BF80010012001EB3F
:10CB8000A721F7F763FB002798E20137FFB2072FD1
:10CB900088BF00275EBB11AA0AF16001104649B2A6
:10CBA000029202F097FC6FF013036343029AA633DC
:10CBB0004FF6FE710092592003EA01010522334627
:10CBC00000F050FC0FFA8AF3A02B3DD09B02DFF857
:10CBD00098E1A3F51E336FF09F02A3F5F66393FB74
:10CBE000F2F31EF804209B180EF804302BE0012EFF
:10CBF00029D111AA09F16001104649B2029202F04E
:10CC000069FC6FF013036343029AA6334FF6FE717B
:10CC1000009203EA010140F22110002340F20512C4
:10CC200000F020FC0FFA89F3A02B0DD09B024D4899
:10CC3000A3F51E336FF09F02A3F5F66393FBF2F3A7
:10CC4000025D9B18035517B90134E4B20027D8F8E8
:10CC500000309B88A34201D2062500244249A0232C
:10CC60000A579BF800105A4302F5203202F5007271
:10CC700001EBA22100200393F7F7E8FADFF8E4E0E4
:10CC8000039B1EF90420534303F5203303F500737F
:10CC90009BF80010012001EBA321F7F7D7FA0DE272
:10CCA00001370498FFB2142F88BF072501282E4AA8
:10CCB00031D892F900102824614301F5224103EB99
:10CCC000A1210020F7F7C2FA2649012091F900308E
:10CCD0009BF800105C4304F5224401EBA421F7F714
:10CCE000B5FA56B90FFA8AF3312B00F36783049A29
:10CCF0000125531CDBB2049360E3012E40F05E83F8
:10CD00000FFA89F3312B00F35983049C3546631CD9
:10CD1000DBB2049352E392F900101924614301F548
:10CD2000CC4103EBA1210020F7F790FA0D489BF8C6
:10CD3000001090F9003001205C4304F5CC4401EB75
:10CD4000A421F7F783FA16B90FFA8AF304E0012E4B
:10CD500040F034830FFA89F3362B00F32F8301352B
:10CD6000EDB22BE3E6470020DC470020B74B202044
:10CD70000093D82140F20532002300F073FBB44A3F
:10CD80000C2101FB0422DFF814B358209BF800307B
:10CD9000CC31009240F2054200F064FBAD4BA02084
:10CDA0000093D82140F20532002300F05BFBAA4B30
:10CDB00008200093062140F20532002300F052FBC8
:10CDC000A64A9BF8003090200092062140F20542CE
:10CDD00000F048FBA24A9BF80030B02000920621E8
:10CDE00040F2054200F03EFB9E4BD8200093062106
:10CDF00040F20532002300F035FB9B4A9BF80030DF
:10CE00004FF4A8700092062140F2054200F02AFB80
:10CE1000964A9BF800304FF4B8700092062140F219
:10CE2000054200F01FFB66BB0FFA8AF3232B0ADDD5
:10CE30008F4A14211268193B01FB0422116911A8C1
:10CE40000096594302E0009611A83146894A03230F
:10CE500002F0A6F96FF01302624311A99BF80030AB
:10CE6000A63200914FF6FE71862002EA01010522EA
:10CE700000F0F8FA804B4FF4A4700093D8210522FB
:10CE8000DFE0012E40F01A810FFA89F3232B0BDD2E
:10CE9000774A14211268193B01FB04221169002210
:10CEA000009211A8594302E00021009111A8714A93
:10CEB000032302F075F96FF01302624311A99BF886
:10CEC0000030A63200914FF6FE7102EA01014FF4E4
:10CED000A77040F2051200F0C5FA684B4FF4A47039
:10CEE0000093D82140F20512ABE0654B0820009377
:10CEF000062140F20532002300F0B4FADFF89CB1BD
:10CF0000594A9BF8003060200092062140F2054209
:10CF100000F0A8FA554A9BF80030802000920621C4
:10CF200040F2054200F09EFA564B882000930621FD
:10CF300040F20532002300F095FA534B082000938D
:10CF4000D82140F20532002300F08CFA4F4B7020BC
:10CF50000093D82140F20542002300F083FA4C4AA6
:10CF60009BF8003048200092D82140F2054200F0A2
:10CF700079FA56B9474B4FF4A4700093D821052293
:10CF8000334600F06FFA049698E0012E40F094804A
:10CF9000414BD82100934FF4A47040F205120023B6
:10CFA00000F060FA0021049188E0394A3B4B4820A8
:10CFB0001B78D821009240F2054200F053FA384B1A
:10CFC00070200093D82140F20542002300F04AFA75
:10CFD00046B9344B4FF494700093D82140F20512B7
:10CFE00033462FE0012E69D12F4B4FF494700093FC
:10CFF00044E7274A294B48201B78D821009240F269
:10D00000054200F02FFA294B16E0214A234B482015
:10D010001B78D821009240F2054200F023FA244BFD
:10D020000AE01B4A1D4B48201B78D821009240F291
:10D03000054200F017FA1F4B00937020D82140F2F0
:10D040000542002300F00EFA38E000BF4F4D010802
:10D0500000300020574D01086D4D0108874D010833
:10D06000894D01088B4D0108A24D0108A44D01080E
:10D070005497002058350020A64D0108AD4D0108F9
:10D08000B44D0108C64D0108E74D0108F54D0108F2
:10D09000D24E0108134D01081A4D0108C745002062
:10D0A000114E0108294E0108334E01083D4E01087A
:10D0B0005F4E0108814E010800220492DFF8D0B2D1
:10D0C0009BF80030002B3FF451AAA64B4FF4167E7C
:10D0D000A3F800E0D8F800309B88A34223D3072DA3
:10D0E00021D16EB96FF01303634311AAA6334FF633
:10D0F000FE71009203EA010186200522334610E00A
:10D10000012E10D16FF01303634311AAA6334FF61B
:10D11000FE71009203EA01014FF4A77040F205127C
:10D12000002300F09FF99BF80030023B072B00F230
:10D130004081DFE813F008003E013E01EC000701EA
:10D140003E01D700C800002D08BF0125A5F1080346
:10D15000DBB2012B50D8092D04BFC6F10106F6B28F
:10D160004FF00009A62540E0C6B9DFF828A22D201F
:10D17000294605223346CDF800A000F073F9592066
:10D18000294605223346CDF800A000F06BF9764B16
:10D19000862000932946052233461EE0012E1ED12B
:10D1A000DFF8F0A1F520294640F205120023CDF862
:10D1B00000A000F057F940F22110294640F2051274
:10D1C0000023CDF800A000F04DF9674B4FF4A77095
:10D1D0000093294640F20512002300F043F909F1BB
:10D1E0000109143D1FFA89F9ADB2D8F800309B88C7
:10D1F0004B45B9D20025DCE0092D40F2DA800A2D3A
:10D200002DD1D8F80000002322E020A9CA1812F876
:10D210000C1C564C20ADE15405EB430131F8505C39
:10D22000534CDFF864E124F8135012F8245C514C9D
:10D2300031F8641CE55412F8184C0EF803404E4CBB
:10D2400024F8131012F8301C4C4AD15401339BB20D
:10D2500082889A42D9D201F069FE494B24E00B2D15
:10D2600003D101F063FE474B1EE00C2D24D1D8F80A
:10D270000010002312E03E484FF4806420F8134071
:10D280003C480022C254394D3B48EA5420F8134030
:10D290003D4D3A48EA54C25401339BB28A889A42BF
:10D2A000E9D201F043FE394B00930820D82140F227
:10D2B0000542002300F0D6F84FF47A7001F067FFC2
:10D2C00005F03CFB7CE0072D04D1002C71D0013C23
:10D2D000E4B26EE0082D01D9013DEDB2082D08BF82
:10D2E0000C2566E0072D03D90135EDB20C2D04D8CD
:10D2F000072D03D10134E4B200E00825D8F800304E
:10D300009B88A34255D20135EDB2002451E0072D90
:10D310004FD14EB90FFA8AFABAF1230F49DD1449F9
:10D3200031F81430023B42E0012E42D10FFA89F964
:10D33000B9F1230F3DDD104A32F81430023B22F8D8
:10D34000143036E0072D34D136BB0FFA8AFABAF121
:10D35000230F2EDD064830F81430023320F8143045
:10D3600027E000BFC4450020CC4E010884480020BF
:10D37000D6380020DC470020EA380020E6470020AD
:10D38000A34E0108D44E01088E480020054F010825
:10D39000CE450020CE4E0108012E0AD10FFA89F9A0
:10D3A000B9F1230F05DD084931F81430023321F8B3
:10D3B000143000238BF80030FFF7D8B800247DE646
:10D3C00021B0BDE8F08F00BFEA380020A0F12003B3
:10D3D000DBB2012B06D92238034B01EBC00033F836
:10D3E0001000704700207047364F01082DE9F047C4
:10D3F0000E461D4600F10A0106F10A0314469BB2CF
:10D40000324689B2F6F70AFF0B235D434FEA142830
:10D410000026124B002703EB450333F8069049FA28
:10D4200007F313F0010F0E4B0ABF04F00F0203EBDA
:10D43000480303EB4203B3F828060137F6F7E8FE8A
:10D440000B2FECD10236162EE3D1002040F28F11C3
:10D450000246EF23BDE8F047F6F7E0BE06550108A7
:10D46000364F01082DE9F14F0F461D4601F10A0321
:10D47000144640F28F113A469BB20A9EF6F7CEFE52
:10D480004FEA14294FF00B082E4F25B904F00F0373
:10D4900007EB430301E007EB490308F1FF38B3F85A
:10D4A00028061FFA88F8F6F7B3FEB8F1000FEBD1A3
:10D4B0003AE04FF0000816F8010CA0F12003DBB2AF
:10D4C000012B05D95FFA88F1FFF780FF834603E05F
:10D4D000212804D04FF0000B4FF0000A03E0B8F110
:10D4E000040FF7D120E00FFA8BF303FA0AF313F4D9
:10D4F000806F01D00DB905E025B904F00F0307EBEB
:10D50000430301E007EB4903B3F828060AF1010AD7
:10D51000F6F77EFEBAF10B0FE5D108F101081FFA0C
:10D5200088F8B8F1080FC6D116F8010B0028C0D151
:10D5300040F28F110246EF2301B0BDE8F04FF6F73D
:10D540006DBE00BF364F0108F8B51F460C46BDF84A
:10D5500018509DF81C60089B32E0BCF1210F14BFED
:10D56000092105219042114429D3884227DA411E1E
:10D57000891A89B211F4004F04D16046C9B2FFF78D
:10D5800025FF00E00020290A04EB4704002302B233
:10D590009A4012F4806F0D4A01D00EB905E026B909
:10D5A00005F00F0702EB470201E002EB4102B2F87F
:10D5B00028260133228002340B2BE8D1F8BD8AB231
:10D5C00013F801CBBCF1000FC7D1F8BD364F0108ED
:10D5D0002DE9F0430C4689B0A0F10C09A0F10B0134
:10D5E00005464FEA89094FEA810804AF06AB0DF101
:10D5F00019020026002038705D480FFA89FC00EB04
:10D60000560010F80CC002F801CC0FFA88FC10F894
:10D610000C00587012F8010CC72801D9C72002E08D
:10D62000012802D8012002F8010C5878C72801D936
:10D63000C72002E0012801D80120587012F801CC5F
:10D640005878604510D1012801D0C72802D10120A7
:10D65000387009E0012802D9013802F8010C587825
:10D66000C62801D80130587012F801CC587884458A
:10D6700084BF83F801C002F8010C0236F6B202370B
:10D6800002330232082EB5D13A4E0022334604A8A6
:10D69000805CA8B9B6F9100090B106AFB85CBF18AD
:10D6A0007F780BE0DFF8E4C034F810803CF802C06B
:10D6B00048EA0C0C24F810C00130C0B2B842F1D9CD
:10D6C00002325036082AE2D12B4E3278002A37D067
:10D6D000FF2935DC294A32F911000122C728A8BFE9
:10D6E000C72005E04FF4FC6724F812700132D2B273
:10D6F0008242F7DB224A1268101F814202D0101DBD
:10D70000814210D11F490A78013A06E01E484FF0C5
:10D710001F0824F8128005800132B1F90000D2B24E
:10D720009042F3DA0CE0D01E814202D0D01C81423C
:10D7300008D1144A4FF01F0CB2F9002024F812C08F
:10D74000002225E0501F814202D005329142F7D1DC
:10D750000C490A78023A03E01F2024F81200013233
:10D76000B1F90000D2B201309042F5DAE8E700BF2B
:10D770009848002048310020DE450020028F00201C
:10D78000409700203C970020043900205E55010896
:10D79000B3F9401291420DD19749984831F92210BE
:10D7A00000EB420034F81170B0F8280647EA000098
:10D7B00024F81100B3F81812C1F1A10109B20B2924
:10D7C00029DD8D4211D18E4890F81A0210F0040F15
:10D7D0000BD1204604F5C97C478847F4A26747F07F
:10D7E0000F07478006306045F6D1481E854202D0BB
:10D7F000481C854205D140F21F5CA4F890C1A4F8F2
:10D8000000C08D4207D140F21F50A4F89001A4F847
:10D810008E0160802080B3F830130B3109B28D4245
:10D820000FD1774890F8320310F0040F09D1204649
:10D8300004F5C9774FF0FF38A0F802800630B842EF
:10D84000F8D1481E854202D0481C854205D14FF0D0
:10D85000FF3CA4F890C1A4F800C08D4207D14FF05E
:10D86000FF30A4F89001A4F88E0160802080B3F806
:10D8700044130B3109B28D420FD1614890F8460331
:10D8800010F0040F09D1204604F5C9774FF0FF3896
:10D89000A0F802800630B842F8D1481E854202D076
:10D8A000481C854205D14FF0FF3CA4F890C1A4F874
:10D8B00000C08D4206D14FF0FF30A4F89001A4F8CB
:10D8C0008E0160800132042A7FF462AF0C2D04D0F7
:10D8D0004C4A5288013A954209D1B3F990224FF04F
:10D8E000FF3124F81210B3F9A42224F8121093F88F
:10D8F000922212F0040F06D1414A4FF0FF37B2F9DD
:10D90000902224F8127093F8A63213F0040F06D177
:10D910003B4B4FF0FF38B3F9A43224F8138033782F
:10D92000002B65D04FF6FF73009301230193364B14
:10D93000F5220293284604232146FFF705FE334BC8
:10D940001B881AB2052A28DD2E4A9188222998BF01
:10D950004FF0230C19B298BFA2F804C0A4292C4997
:10D960000CDD92884FF6FF73143A00930123019364
:10D9700002912846214692B2B1330CE092884FF6CC
:10D98000FF70143A0E330090012001900291284656
:10D99000214692B29BB2FFF7D7FD1E4B4FF6FF77A1
:10D9A00001260293284621460F22BD2300970196A7
:10D9B000FFF7CAFD184B2846029321463222BD23A9
:10D9C00000970196FFF7C0FD144B284602932146AD
:10D9D000C822BD2300970196FFF7B6FD104B2846DD
:10D9E00002932146EB22BD2300970196FFF7ACFD81
:10D9F00009B0BDE8F08300BF6C300020364F01084D
:10DA00004831002004390020189700203C9700205E
:10DA1000449700208A5D0108309700208F5D01083F
:10DA2000249700200D4B5B88834201D00B2801D145
:10DA30000B4811E00B381E2390FBF3F203FB12039B
:10DA40000BB9084808E0062390FBF3F203FB120031
:10DA500008B9054800E00548F6F7EABB043900209C
:10DA60007E55010810570108A2580108345A0108D0
:10DA7000B0F5827F30B50B4604D0154A441C52885D
:10DA8000944201D113481DE00B2801D111481AE03E
:10DA9000A0F10A02192492FBF4F504FB152424B921
:10DAA000B0F5827F01D20C480DE0052192FBF1F127
:10DAB00001EB81018A4204D1B0F5827F01D207488F
:10DAC00000E007481946BDE83040F6F7B1BB00BF9B
:10DAD000043900207E55010810570108A25801089A
:10DAE000345A01080148F6F7A3BB00BF345A0108B5
:10DAF00003282DE9F84305460E4606D8484B502228
:10DB000002FB0033B3F94C3002E0464B33F92130CD
:10DB1000C52B00F383800024A7B2062F34D8032D31
:10DB2000414B0BD803EBC5035B1B13F804803C4B44
:10DB3000502202FB0533B3F84C1005E01B1993F893
:10DB40001C80384B33F826100931384689B2F6F775
:10DB50005DFB082718F0010F01D0002004E0334BD3
:10DB600003EB4603B3F82806013FBFB2F6F750FBBC
:10DB700017B14FEA5808EDE72C4B03EB4603B3F817
:10DB80002806F6F745FB45E0032D25D8DFF8908001
:10DB90004FF0500909FB0589B9F84C10384603319C
:10DBA000791889B2F6F732FBB9F84C300333FF1815
:10DBB00007E01E4B013703EB4603B3F82806F6F7E0
:10DBC00027FB502303FB0583B3F94C30BFB2183356
:10DBD0001B1B9F42EDDB1DE0DFF84880384638F81C
:10DBE00026100331791889B2F6F710FB38F8263081
:10DBF0000333FF1807E00D4B013703EB4603B3F87F
:10DC00002806F6F705FB38F92630BFB218331B1B80
:10DC10009F42F0DB01340B2C7FF47EAFBDE8F8832C
:10DC2000483100206C300020C65B0108364F0108E7
:10DC30002DE9F843F6F7FAFA002528460C21F6F705
:10DC4000E5FACB26013E0020F6B2F6F7E1FA002E07
:10DC5000F8D10135ADB20B2DEFD1A64CB4F910308F
:10DC60001BB130463146FFF743FFB4F960301BB1BA
:10DC700001200146FFF73CFFB4F9B0301BB1022090
:10DC80000146FFF735FFB4F900311BB1032001460F
:10DC9000FFF72EFFB4F9401211B90720FFF728FF54
:10DCA000B4F94012012902D10720FFF721FFB4F98E
:10DCB0004012022902D10720FFF71AFFB4F94012DF
:10DCC000032902D10720FFF713FF8B4F0C2178881F
:10DCD000CB26013080B2F6F799FAB946013E002012
:10DCE000F6B2F6F795FA002EF8D111E01FFA85F892
:10DCF0000C214046F6F78AFA0020F6F789FA4046EA
:10DD0000D621F6F783FA0020F6F782FA0135ADB294
:10DD1000B9F8023006F10B02013301369A42764F10
:10DD2000E4DDB4F890120A200B3189B2F6F76EFAEE
:10DD30004FF6FF70F6F76CFA4FF6FF70F6F768FAD9
:10DD40004FF6FF70F6F764FA4FF6FF70F6F760FAD9
:10DD50004FF6FF70F6F75CFAB4F8A4120A200B3104
:10DD600089B2F6F753FA4FF6FF70F6F751FA4FF60D
:10DD7000FF70F6F74DFA4FF6FF70F6F749FA4FF6D7
:10DD8000FF70F6F745FA4FF6FF70F6F741FA78881C
:10DD9000B4F8901201300B3189B280B2F6F736FA3E
:10DDA0004FF6FF70F6F734FA4FF6FF70F6F730FAD9
:10DDB0004FF6FF70F6F72CFA4FF6FF70F6F728FAD9
:10DDC0004FF6FF70F6F724FA7888B4F8A412013001
:10DDD0000B3189B280B2F6F719FA4FF6FF70F6F7F9
:10DDE00017FA4FF6FF70F6F713FA4FF6FF70F6F7D3
:10DDF0000FFA4FF6FF70F6F70BFA4FF6FF70F6F7D3
:10DE000007FAB4F81872C7F1A107BFB23BB20B2BE7
:10DE1000B84620DD023FBFB23E46002514E01FFA9F
:10DE200086F90C214846F6F7F1F940F21F50F6F753
:10DE3000EFF94846D621F6F7E9F940F21F50F6F718
:10DE4000E7F90136B6B201353AB20FFA88F3AA18EB
:10DE500002339A42E3DDB4F83083002508F10B0762
:10DE6000BFB2BE1EB6B214E01FFA86F90C214846B6
:10DE7000F6F7CCF94FF6FF70F6F7CAF94846D62107
:10DE8000F6F7C4F94FF6FF70F6F7C2F90136B6B2ED
:10DE9000013508F1090212B23BB2AA1802339A42C4
:10DEA000E2DDB4F84473002407F10B06B6B2B51EE8
:10DEB000ADB214E01FFA85F80C214046F6F7A6F93A
:10DEC0004FF6FF70F6F7A4F94046D621F6F79EF913
:10DED0004FF6FF70F6F79CF90135ADB2013407F14A
:10DEE000090212B233B2A21802339A42E2DDBDE84F
:10DEF000F88300BF48310020043900202DE9F843A1
:10DF000059200021F6F782F90C24013C40F21F5001
:10DF1000A4B2F6F77DF9002CF7D121465A20F6F786
:10DF200075F90C34013C40F21F50A4B2F6F770F9B9
:10DF3000002CF7D121464FF49A70F6F767F90C34AC
:10DF4000013C40F21F50A4B2F6F762F9002CF7D161
:10DF5000214640F23510F6F759F90C34013C40F2F5
:10DF60001F50A4B2F6F754F9002CF7D15B261CE041
:10DF700028460021F6F74AF90027444B185B384140
:10DF800010F0010018BF40F21F500137F6F740F9BA
:10DF90000C2FF2D102340135102CADB2E8D1083685
:10DFA000B6B240F233139E4203D0B6B235460024D7
:10DFB000DEE7374CC820B4F918320021584340F648
:10DFC000886390FBF3F05B3080B2F6F71FF9092508
:10DFD000013D4FF6FF70ADB2F6F71AF9002DF7D1FB
:10DFE00004F054FFB4F91832C822534340F6886253
:10DFF00093FBF2F34FF64C6292FBF0F25C339B180A
:10E00000294698B2F6F702F90935013D4FF6FF703F
:10E01000ADB2F6F7FDF8002DF7D12E4627E0B4F9A2
:10E0200018024FF0C80909FB00F040F6886890FB21
:10E03000F8F0B7B25B303818002180B2F6F7E6F896
:10E040004FF6FF70F6F7E4F8B4F91832092109FB2E
:10E0500003F999FBF8F808F15B084744B8B2F6F702
:10E06000D5F84FF6FF70F6F7D3F80136B6B204F0E4
:10E070000DFF4FF64C622B4692FBF0F201359A42AF
:10E08000CDDA002384F82E32BDE8F883EA5B01087C
:10E090004831002038B54FF49C740FE029462046E3
:10E0A0000135F6F7B3F8ADB20020F6F7B1F8D82D88
:10E0B000F4D10134A4B2B4F5C87F01D00B25EDE74B
:10E0C000024B002283F82E2238BD00BF48310020C9
:10E0D0002DE9F0430023274C1A46274D94F8009071
:10E0E000EE791FFA82FC4E44643EB6B206F1FF3967
:10E0F0001FFA89F9B9F1C60F14F8018CAF790DD860
:10E1000047446C3FBFB24FB1F92F07D8874205D1C2
:10E1100031F8167047F4FC6721F81670EE79664501
:10E120000DD105280BD9144EB679371D874206DB71
:10E13000043E864203DCCE5A66F4FC66CE52AD79CC
:10E1400085420ED1BCF1050F0BD90B4DED792E1D7B
:10E15000964206DB043D954203DCCD5A65F4FC652E
:10E16000CD52013204340233B2F5807FB5D1BDE81F
:10E17000F08300BF9948002004390020020C0302FC
:10E18000D2B2400903F4784343EAD20300F4FC60BE
:10E1900043EA0000704710B5084B03F5C77233F926
:10E1A000020F074CC728A8BFC72004EB4000B0F8F7
:10E1B000C40C934221F8020FF1D110BD028F002050
:10E1C000364F01082DE9F041294E4FF4F07206F167
:10E1D000080300F0010702FB0735044687F001073A
:10E1E00002FB0737F6F722F80D212046F6F70EF866
:10E1F000204AB2F9F031002B33DB042B02DD052B72
:10E200002FD121E0B2F800310C3B9BB2012B0DD98C
:10E2100020463946FFF706FC0B2C22D97388A3420F
:10E220001FD920462946FFF7D3F91AE02046394680
:10E23000FFF758FC0B2C14D97388A34211D9204640
:10E240002946FFF7A8FF0CE020463946FFF710FCEF
:10E250000B2C06D97388A34203D920462946FFF721
:10E2600037FF2846C921BDE8F041F5F7DBBF00BF05
:10E27000043900204831002070B529482949F5F7B4
:10E28000D7FFF5F7D3FF284AB2F9F031052B0AD1B1
:10E29000B2F910303BB9254969205854043340F293
:10E2A00024618B42F7D1B2F9F031052B0CD11E4B12
:10E2B000B3F9603043B91D4B03F5C46104316420E8
:10E2C000587004338B42FAD1B2F80031184C0C3B31
:10E2D0009BB2012B01D90B2516E0B4F8C823638843
:10E2E0009A4202D90023A4F8C833B4F8C803FFF750
:10E2F00069FFB4F8C8330133A4F8C83307E02846EF
:10E30000FFF760FF0135ADB26388AB42F7D22388D7
:10E31000A380F5F785FFBDE87040F5F787BF00BF24
:10E32000345A01080C390020483100209848002058
:10E330000439002013B503460C4601A8194601F024
:10E34000AFF89DF80430002023719DF8053063710B
:10E350009DF80630A3711CBD4FF6FF73984252D052
:10E360001F3B00EA03034FF6E07293424DD0430592
:10E370005B0D40F2FF72934249D04FF61F0300EA53
:10E3800003034FF61F02934243D000F4FC63B3F53E
:10E39000FC6F40D04BF6E05300EA03034BF6E0522B
:10E3A00093423AD040F2F75300EA030340F2F752A7
:10E3B000934234D04BF6170300EA03034BF61702DF
:10E3C00093422ED000F4BC63B3F5BC6F2BD04BF658
:10E3D000F75300EA03034BF6F752934225D040F27D
:10E3E0001F5300EA030340F21F5293421FD000F470
:10E3F0007843B3F5784F1CD000F01F001F2814BFDE
:10E400000D200C207047002070470120704703202A
:10E41000704705207047072070470220704704208E
:10E4200070470620704708207047092070470A206F
:10E4300070470B20704730B5164A87B051680446C4
:10E4400010686B4603C39068694618602046FFF762
:10E4500071FF1148694603AA05ABF5F717FF04469B
:10E46000A0B905460C4803A9F5F712FF68B90B4996
:10E470004FF4C8724819A1F5007105F5C87506F08A
:10E48000ADFAB5F5C86FEDD100E00824204607B01D
:10E4900030BD00BF945D0108CE3C0020CE3E002080
:10E4A00070B52A4A88B051680446106801AB03C3AE
:10E4B000906801A91860002320468DF81030FFF7FE
:10E4C00039FF234801A905AA07ABF5F7DDFE204E69
:10E4D0000446002835D1304621464FF4007206F03C
:10E4E00025FB1C4D1EE01C496118C95C043302F871
:10E4F000011F40F23C618B42F5D1B5F84C3005A9C3
:10E50000134886F88F31F5F7C5FE0146D8B9FE20CD
:10E5100004F0030340F20A520134FEF767FF50355E
:10E52000042C02D00D4A0023DDE709484FF40061B6
:10E5300005AA07ABF5F7B0FE002814BF092000209C
:10E5400002E00A2000E0092008B070BD945D0108D7
:10E55000CE3C00204831002098480020CF3C0020CD
:10E560002DE9F047484A86B05168044610686B466A
:10E5700003C39068694618602046FFF7DBFE4348F6
:10E58000694603AA05ABF5F77FFEDFF80081002896
:10E5900073D13F4B424603F1340153F8040B8B42D5
:10E5A00042F8040BF9D11B881380384B00223949FB
:10E5B0000024895A023201F47840001283F83600B0
:10E5C00001F4FC60C010C90083F8370083F83810EC
:10E5D00083F839400433202AE9D17627264638E0EB
:10E5E00021462846F5F712FEF5F73EFE8146681CE7
:10E5F000214680B2F5F70AFEF5F736FE8246484618
:10E60000FFF7AAFE81465046FFF7A6FE00EB091071
:10E6100008F807000137BFB2B7F5007F10D31B48D9
:10E6200003A9F5F737FE074648BB7308FE200136FD
:10E63000394640F20A5203F00303B6B2FEF7D6FEA3
:10E640000235ADB2B5F5C87FCAD10134A4B2F02C01
:10E6500001D00025C4E727B10C4803A9F5F71AFE3D
:10E6600068B90A484FF43C4103AA05ABF5F714FE1C
:10E67000002814BF0920002002E00A2000E0092041
:10E6800006B0BDE8F08700BFA05D0108CE3C0020C9
:10E690007C300020B2300020F0B53E4A87B051688F
:10E6A000044610686B4603C39068694618602046AC
:10E6B000FFF740FE3848694603AA05ABF5F7E4FDCD
:10E6C000002862D1354F0546334C39464FF400726D
:10E6D000204606F083F9204603A9F5F7DBFD064640
:10E6E000002854D16B080135FE20314640F20A5211
:10E6F00003F00303EDB2FEF779FE202D07F5007756
:10E70000E2D131464FF40072204606F00FFA244B56
:10E7100004F12000224619461D8A15809D8C5580E3
:10E720001D8F9580B3F84C505033D580083282420B
:10E73000F2D1B1F8A0311B4A2384B1F8B4516584F9
:10E74000B1F93830184DD25CA5F12800A284174ADF
:10E7500032F81320E284B1F98830154A03A9D25C5B
:10E760002285144A32F813206A80F5F793FD70B9B8
:10E77000A5F128004FF4844103AA05ABF5F78CFD01
:10E78000002814BF0920002002E00A2000E0092030
:10E7900007B0F0BDAC5D0108CE3C0020004F00206A
:10E7A0004831002084480020F63C0020D638002064
:10E7B0008E480020EA3800202DE9F0475C4A88B0F6
:10E7C00051680746106801AB03C390685949186047
:10E7D000594C00234AF655228DF8103001F5066099
:10E7E00001F50463A1F840280A330A302246254681
:10E7F000168A23F8086CB2F824E023F806EC168F8A
:10E8000023F8046CB2F84CE0503223F802EC0833E1
:10E810008342EDD1B5F8A021B5F8B431A1F8622852
:10E82000A1F864384548464B46490022464EDFF879
:10E830002CA116F802E023F808EC30F802EF23F8D8
:10E8400006EC1AF802E0013223F804EC31F802EF8A
:10E8500023F802EC0833082AE8D101A93846FFF76B
:10E8600069FD344801A905AA07ABF5F70FFD8046FD
:10E87000002859D181462F4F05A93846F5F708FDE4
:10E8800000284FD13148394648444FF4007209F509
:10E89000007906F0A3F8B9F5804FECD1384605A908
:10E8A000F5F7F6FC00283DD107F120013B461A8818
:10E8B00022825A88A2849A882287DA880833A4F8A8
:10E8C0004C200222A27484F8262084F83A2084F88E
:10E8D0004E2050348B42EAD13B8CA5F8A031798C84
:10E8E00085F8A221A5F8B41185F8B621BA8CB5F93E
:10E8F00038301749F254FE8C164A22F813603A8DCC
:10E90000B5F988300AF803204988134A22F8131011
:10E9100095F85231012143F00203A5F8501185F812
:10E92000523101E04FF00808404608B0BDE8F087DA
:10E93000AC5D0108CE3C002048310020D4380020D6
:10E940003C450020E838002084480020004F00208B
:10E95000F63C0020D6380020EA3800208E480020FF
:10E9600028484AF65523B0F8402870B59A4247D156
:10E97000254B00F5046200F506650A320A351C468F
:10E9800032F8081C198232F8061C998432F8041CEB
:10E99000198732F8021C0832A3F84C10022199742E
:10E9A00083F8261083F83A1083F84E105033AA42A9
:10E9B000E6D1B0F86238B0F86458A4F8A03184F811
:10E9C000A21184F8B611A4F8B451104B104C11499F
:10E9D000002233F8086C104D565533F8065C24F8C5
:10E9E000025F33F8046C0D4D565533F8025C01326A
:10E9F0000833082A21F8025FEBD10021A0F8401863
:10EA000070BD00BFCE3C0020483100203C450020B6
:10EA1000D4380020E8380020844800208E480020A8
:10EA20000E4B10B5502404FB0033B3F938000C4BE7
:10EA3000463C04FB0034002305E0212808BF0138D0
:10EA4000C8540133DBB214F8010B0028F5D12C2493
:10EA5000CC54C91801334870137010BD48310020E0
:10EA60000C4600202DE9F047A84A8AB051680446B8
:10EA7000106801AB03C3906801A918602046A44C3C
:10EA8000FFF758FC204601A904AA06ABF5F7FCFBEA
:10EA9000002840F034819F4BE11D1A6822609A885B
:10EAA0009B79A280A3710DF12702FFF7B9FF9A4B62
:10EAB0009DF827101868CD1D605198889B796219C0
:10EAC0000E319080937161180DF127020120FFF73C
:10EAD000A7FF9DF82780914B08F10708A84404EB95
:10EAE000080203F10C0153F8040B8B4242F8040BAB
:10EAF000F9D119888A4E9B781180937008F10F081C
:10EB000006F580490025874B8748B3F9381056F839
:10EB1000042B30F8110002F0FF024243834802F553
:10EB20000072415601EB922211B2002903DDFF2948
:10EB300002DDFF2200E000228DF82020B3F98800DA
:10EB40007B4A32F8101056F8042C02F47F477943C0
:10EB5000784F090A385601F5007100EB912108B28F
:10EB6000002803DDFF2802DDFF2100E000218DF8F1
:10EB7000211012F4803F0EBFB3F8EC1093F8EC10A4
:10EB800014318DF8221012F4003F0EBFB3F83C315F
:10EB900093F83C3114338DF82330002708ABD95D4E
:10EBA00007A800F07DFC002321E00AAAD31813F87F
:10EBB0000C3C13B304F8083008F10108B8F5007FE5
:10EBC00012D3534804A9F5F765FB8046002840F0AE
:10EBD00098806B08FE200135414640F20A5203F04E
:10EBE0000303EDB2FEF702FC9DF8273001338DF8E8
:10EBF00027309DF82730022BD7D92C2304F8083072
:10EC000008F10108B8F5007F11D3414804A9F5F7D0
:10EC100041FB8046002874D16B08FE200135414637
:10EC200040F20A5203F00303EDB2FEF7DFFB0137B7
:10EC3000042FB3D108F101070D23B7F5007FAA46D1
:10EC400004F8083012D1324804A9F5F723FB07462F
:10EC5000002856D14FEA5A030135FE20394640F2CA
:10EC60000A5203F00303EDB2FEF7C0FB07F10108FF
:10EC70000A23B8F5007FE35512D1254804A9F5F71A
:10EC800009FB074600283CD16B08FE20394640F2BC
:10EC90000A5203F00303FEF7A9FB0135EDB2B846B3
:10ECA0004E457FF430AFB8F1000F1DD00D2304F8AE
:10ECB000083008F10108033B08F1010204F80830AC
:10ECC000A0180021C2F5007205F030FF04A9104819
:10ECD000F5F7E0FA0146A0B96B08FE2040F20A52AF
:10ECE00003F00303FEF782FB0948690204AA06AB9E
:10ECF000F5F7D2FA002814BF0920002002E00A200C
:10ED000000E009200AB0BDE8F08700BFD95D010826
:10ED1000CE3C0020B85D0108C05D0108C85D010857
:10ED2000004F002048310020D638002084480020C1
:10ED3000EA3800208E4800202DE9F04387B0F5F72F
:10ED40007DFA0146684600F048FC57238DF80830EC
:10ED5000073B8DF80930614C04338DF80A30543B81
:10ED60008DF80B302046694603AA05ABF5F78EFAFD
:10ED700026460546002840F0AC80204603A9F5F75A
:10ED800087FA002840F0A080218801F0FF03062BBD
:10ED900002D0162B40F09A800022CCB21346B05C11
:10EDA00001321B18B2F5007FDBB2F8D1002B40F026
:10EDB0008F804B4A090A117048490A4632F8020FFF
:10EDC000484E98559F190233000A0E2B7870F5D1E2
:10EDD000454B424A03F58260168A1E82578A9F84F9
:10EDE000968A1E87D78A0832A3F84C705033834224
:10EDF000F2D13A4A00233D48B2F8786018180C3333
:10EE000046710232360A6C2B0671F4D10020384A62
:10EE10000346B1F88A80374F374E5FFA88FC162CCC
:10EE20004FEA182803F807C0C14603F8068006D148
:10EE3000ACF1320C03F807C0A9F132079F55B1F8C5
:10EE40008C702E4E162C3752B1F88E702C4E3752D5
:10EE5000B1F890802B4F2C4E5FFA88FC4FEA1828AF
:10EE600003F807C0C14603F8068006D1ACF1320CA6
:10EE700003F807C0A9F132079F550230013308316A
:10EE80001428C6D1B2F85010204B1980B2F8526045
:10EE90009E80B2F854101E4B1970B2F856301D49BE
:10EEA0000B701D491B0A0B70B2F858301B490B70D0
:10EEB0001B491B0A0B70B2F85A101A4B1970B2F8A2
:10EEC0005C20194B1A7004E0082502E0052500E0DB
:10EED0000625284607B0BDE8F08300BFCE3C0020E1
:10EEE000EE450020FE45002048310020DC300020A7
:10EEF000583D0020844800208E480020D63800204D
:10EF0000EA380020DC470020E64700206C30002073
:10EF1000DF450020D4450020D2300020DB45002012
:10EF2000109300200A3900200B390020F0B589B079
:10EF3000F5F784F9014601A800F04FFB57238DF83F
:10EF40000C30073B8DF80D3004338DF80E307648C9
:10EF500001A904AA06ABF5F799F9734C18B1042876
:10EF600040F0DF802DE04223BDF810008DF80C301A
:10EF7000013B8DF80D300A33ADF81C008DF80E30D2
:10EF8000204601A904AA06ABF5F77EF9002840F057
:10EF9000C680204607A9F5F77BF9002840F0BD8020
:10EFA000204604A9F5F776F9002840F0BA802046FB
:10EFB0004FF4007104AA06ABF5F76EF9002840F093
:10EFC000B08057238DF80C30574D073B8DF80D302E
:10EFD00004338DF80E30284601A904AA06ABF5F7D4
:10EFE00053F90646002840F09A80284631464FF4EF
:10EFF000007205F09BFD4D4B1B781B0206332B80E6
:10F000002B464B4AB1184878B15C000202364218D0
:10F010000E2E23F8022FF4D1464B434A03F58261AA
:10F020001E8A1682988C50821E8F9682B3F84C00EE
:10F030005033D08208328B42F2D13B4A00233E4902
:10F0400059180E794879360231180C33A2F8781025
:10F0500002326C2BF3D1394B39483A4900223A4EEF
:10F06000975D3A4E96573602BE19A5F88A6030F879
:10F07000026BA5F88C6031F8026FA5F88E60344EF3
:10F08000975D344E965701323602BE19A5F890604E
:10F0900008350A2AE3D1304A30491088A3F85000D5
:10F0A0009288A3F852202E4A1278A3F854202D4AB1
:10F0B0000978127812025218A3F856202A4A2B49CE
:10F0C0001278097812025218A3F85820284A1278A8
:10F0D000A3F85A20274A1278A3F85C2000231A4686
:10F0E000E15C0133521840F2FF118B420E4DD2B257
:10F0F000F6D15242284604A985F8FF21F5F7CAF84F
:10F1000078B928464FF4007104AA06ABF5F7C4F8A5
:10F11000002814BF0920002004E0082002E00A2093
:10F1200000E0092009B0F0BDCE3C0020EE450020F3
:10F13000FE45002048310020DC300020583D0020F2
:10F14000D6380020E8380020844800208E4800206F
:10F15000DC470020E64700206C300020D44500202A
:10F16000DF450020D230002010930020DB45002036
:10F170000A3900200B390020034609B905E058433D
:10F180000139C9B20029FAD1704701207047034BF9
:10F1900018801A8892B2002AFBD17047BC45002023
:10F1A0002DE9F74FB1F1004F15460C461F469DF86B
:10F1B00030B012781CD10346202103F8011B0E3118
:10F1C0005C1C41703B4601E020214170013BDBB2F9
:10F1D0000130002BF8D1791EC9B2752A04EB010366
:10F1E00004D1032F02D1553A625401330022E2E0E8
:10F1F000BBF1000F1AD1002900F1010306DD4FF029
:10F200002B0980F800900E46184612E006D04FF009
:10F210002D0980F800904E4218460AE03021017016
:10F2200018462E2303702646A14602E00E464FF0F4
:10F230000009B6460521002308E001334FF00A0C0F
:10F24000BB42C8BF0CFB01F19EFBFCFEBEF1090FE7
:10F25000F3DCBB42A8BF761831464FF0000804E04B
:10F260004FF00A0E91FBFEF19846092908F10103BF
:10F27000F6DC032F4FF0030A0BD998FBFAF893FB47
:10F28000FAFA0AEB4A0AB3EB0A0A08BF4FF0030A7C
:10F2900005E093FBFAF808EB480ACAEB030AC31926
:10F2A00039460A2000920193FFF766FF009A019BFE
:10F2B00002E00A2196FBF1F68642FAD2002104E030
:10F2C00015F8010B0028FBD101314145F8DB3E491F
:10F2D000B1F90412022909DC752A07D1032F05D1DF
:10F2E000294611F8010B0D460028FAD11946287855
:10F2F00001F8010F15F8010B0028F8D1394615E087
:10F300000A2596FBF5F005FB106501393035BBF198
:10F31000020FC9B203F80159064607D0B8F1000F31
:10F3200004DD8A4502D12E2003F801090029E7D126
:10F33000BBF1020F09D0BBF1000F3ED0B8F1000FB6
:10F340002AD12E315970023125E0B8F1000F23D1B6
:10F35000202103F801191FE0187830281CD0752AE5
:10F3600004D1032F02D1453A1A7019E00020D87158
:10F370005879987118795871D87818719878D87028
:10F380002E2098700230B9F12D0F087002D183F849
:10F39000009001E02B211970752A13D1032F11D190
:10F3A0001A782B2A01D10B3A1A70632C0ADC30220E
:10F3B00003F8012C023A1A7004E05878591C2E28E0
:10F3C000EAD1C9E7BDE8FE8F4831002070B51B4B7C
:10F3D00086B005460C4601AA03F110061868596864
:10F3E0000833B34203C2F9D11B781370A5F161034E
:10F3F000DBB2192B01D8203DEDB2A4F16103DBB2E1
:10F40000192B01D8203CE4B200230DF10302184669
:10F4100012F8011FA94204BF1818C0B21033DBB2A2
:10F42000002BF5D101A9C95CDAB2A14204BF1018C2
:10F43000C0B20133102BF5D106B070BDF8600108E1
:10F4400042F2107230B5B1FBF2F4034604F130051C
:10F4500003F8015B02FB14154FF47A72ADB2B5FBF1
:10F46000F2F101F13004447002FB1150642280B2C9
:10F47000B0FBF2F502FB150005F13001597080B2C6
:10F480000A21B0FBF1F202F1300501FB12025C1C13
:10F490003032023365705A7002340023637030BD1D
:10F4A000642230B5B1FBF2F5034605F1300403F8F0
:10F4B000014B02FB15140A21E4B2B4FBF1F202F194
:10F4C000300501FB124230324570581C5A7000233F
:10F4D000437030BD002930B500F1010202DB2B235F
:10F4E000037003E02D234942037049B2642491FB69
:10F4F000F4F004FB1011134600F1300549B22E2040
:10F500005A3C03F8015B507091FBF4F004FB1011BE
:10F5100000F13005303100225D709970DA7030BD35
:10F520006423B1FBF3F202FB131370B5DBB20A26BE
:10F53000B3FBF6F506FB15330446303305F1300214
:10F5400004F8012B43700023637070BD9F294FEABC
:10F55000111200F1010301D9373200E0303201F01D
:10F560000F010929027003F1010201D9373100E0CE
:10F5700030311970002313707047B1F5204F4FEAF6
:10F58000113200F1010301D3373200E030320905B6
:10F59000090DB1F5206F02704FEA112003F101024D
:10F5A00001D3373000E03030C9B29F2918704FEADC
:10F5B000111002F1010301D9373000E0303001F0C1
:10F5C0000F010929107003F1010201D9373100E060
:10F5D00030311970002313707047B1F1204F4FEA9A
:10F5E000117200F1010301D3373200E0303221F013
:10F5F0007041B1F1206F02704FEA116003F1010216
:10F6000001D3373000E0303021F07F41B1F5200FD9
:10F6100018704FEA115002F1010301D3373000E0B6
:10F62000303021F07F4121F47001B1F5202F1070AE
:10F630004FEA114003F1010201D3373000E03030CE
:10F6400009041870080CB0F5204F4FEA117102F14F
:10F65000010301D3373100E0303100051170020D94
:10F66000B2F5206F4FEA107003F1010101D337307A
:10F6700000E0303002F0FF029F2A18704FEA1210AB
:10F6800001F1010301D9373000E0303002F00F0200
:10F69000092A087003F1010101D9373200E0303244
:10F6A0001A7000230B70704710B54FF400431021FF
:10F6B0001A4603FB03F4844288BF534052080139C1
:10F6C00001D1184610BD1343F3E770B50420F4F7D9
:10F6D000C1FD464DC243298892B294B289B224EA50
:10F6E00001018BB2002B34D041481E24047013F06A
:10F6F000080018BF092003F04004002C18BF0A209E
:10F7000003F48074002C18BF032003F40074002C51
:10F7100018BF042003F48064002C18BF052003F4F4
:10F720000064002C18BF062003F48054002C18BF7E
:10F73000072003F40054002C18BF022003F4804378
:10F74000002B18BF012009B230EA210028BF082091
:10F750003DE0288810403AD025490878002835D166
:10F76000244B1978002932D133E0234909780A293A
:10F770001DD8DFE801F0161616161C0911060F1C1D
:10F780000F001E49C97909E01C4949790239C9B2FB
:10F7900001290CD802210BE018498979022906D1E8
:10F7A00006E0164E715C032901D1013900E0052104
:10F7B000197012F0080F02D005211970092014F4F5
:10F7C000004F04D005211970082000E018462A8057
:10F7D00070BD12F4806018BF052002F4006100299A
:10F7E00018BF062012F4406FE3D0BEE7D0450020DA
:10F7F000CC450020CD450020EE450020FE450020F0
:10F80000104B0022011E10B5DA7715D001DA4942FB
:10F8100001320D4B18460A2391FBF3F403FB14113C
:10F820000A4B5B5C21460370431E002CF2D13AB1B7
:10F8300018462D23037010BD1846302300F81E3FD4
:10F8400010BD00BF92450020B0450020E65D0108D4
:10F850002DE9F04F002491B002F1FF3C0F4606461F
:10F8600023461CE015466D1005EB0308E045FADC65
:10F8700005F1FF3808EA03035B19A3420DDD758823
:10F8800030F81380A6F8028020F813507D8831F8F4
:10F890001390A7F8029021F8135002360237013472
:10F8A0006445DFDD4FF0080ACDF818A001240D9063
:10F8B0000E91B9E00E9B610003930D9B0020049311
:10F8C000A8E0DDF818805B4B00FA08F503EB45066D
:10F8D000738AB6F912515B42DDF81090DDF80CA086
:10F8E0001BB26D1067005B104FF0000B0B9509EB1E
:10F8F000070C0C934FEA4108574456464D46CDF845
:10F900001CB00F946EE00B9B1BB208934B005B4244
:10F910003CF90340DDF820A0099404FB0AF90C9C93
:10F920004FEAA93BCDF804B037F903B024B20A94EA
:10F930000BFB04F44FEAA43ACDF814A0DDF804A0C0
:10F940000AF0010ACDF804A00AEBE939DDF814A0A9
:10F950001FFA89F9A9EBE4390AF00104C4EB0904A0
:10F96000A4B20594089CDDF824A00BFB04FB4FEA2D
:10F97000AB39CDF82090DDF828900AFB09F44FEA66
:10F98000A43ACDF824A0DDF820A00AF0010909EB83
:10F99000EB391FFA89F909EBE439F45ADDF824B0A0
:10F9A0000894EC5E0BF0010A6410DDF814B0A4B208
:10F9B000D144CBEB040A2CF803A0DDF820A01FFAF9
:10F9C00089F90FFA8AFB4FEA6B0B1FFA8BFBC9EB25
:10F9D0000B0A27F803A0DDF814A0D9445444EC52D4
:10F9E00026F80390DDF81CB0431A8B445B44934225
:10F9F000CDF81CB0C44447444544464483DB049BD3
:10FA0000DDF80C80023308F102080F9C01300493EA
:10FA1000CDF80C80A042FFF654AFDDF818900C46EC
:10FA200009F1FF39CDF818909442FFF643AF11B0B9
:10FA3000BDE8F08FE65D01087047FEE7FEE7FEE7F0
:10FA4000FEE77047704770477047704770477047D0
:10FA500070477047704770477047704770477047EE
:10FA600070477047704770477047704770477047DE
:10FA7000F4F7C6BBF4F7C6BB7047704770477047D2
:10FA8000704770477047704738B513200021F4F76E
:10FA9000DDFB384B1A781C461AB11A78013A1A70F5
:10FAA00038BD14232370636813B16368013B63603E
:10FAB0002289304B92B2142A02D91A89143A00E0F2
:10FAC00000221A8162892B4B92B2132A03D95A89D8
:10FAD000143A5A8103E003200021F4F7B7FB237B9B
:10FAE000244D312B03D82B7B01332B730EE00023E5
:10FAF000042001212B73F4F7A9FBEB890133EB817F
:10FB00002B8A9BB213B12B8A013B2B82A27C194B0F
:10FB10000132A274A27C0E2A09D900229A74DA7CDE
:10FB2000D2F1010238BF0022DA7401221A75E28A8A
:10FB3000104B92B212B1DA8A013ADA82227E0D4B70
:10FB400012B11A7E013A1A76627E0A4B12B15A7EBF
:10FB5000013A5A76FFF7B9FD58B1074BA076B3F9D1
:10FB6000E4130320013901EB8101F4F76FFB3C231F
:10FB7000638138BDB445002048310020704770478C
:10FB800070477047704770477047704770477047BD
:10FB900070477047704770477047704770477047AD
:10FBA000704770477047704770477047704770479D
:10FBB000704770477047704714490B78A3F10D02E6
:10FBC000D2B2082A03D90B2B01D00C2B0ED1104A2C
:10FBD000D05C50225A43142303FB00230D4A9B1888
:10FBE0009A7842F002029A7000230B700A4B0022AE
:10FBF0001A700A4B40F28D1018800B78082B04D134
:10FC0000034B197A022908BF1A727047EE4500208B
:10FC1000FE45002058310020D44500200639002040
:10FC200010B5344CB4F82833B4F9302319B2633921
:10FC3000914202DC643BA4F83033B4F83C33B4F9AD
:10FC4000442319B26339914203DC2A4A643BA2F887
:10FC50004433FEF71FFA284A01231370274A40F263
:10FC600037111180264A1370264B03F16C02D97AA2
:10FC700041F00201D9720C339342F8D194F8BA32B0
:10FC800043F0020384F8BA3294F85A3343F0020383
:10FC900084F85A3394F8CE3243F0020384F8CE321B
:10FCA00094F86E3343F0020384F86E3394F8823391
:10FCB00043F0020384F8823394F8D23343F0020312
:10FCC00084F8D23394F8963343F0020384F89633E1
:10FCD00094F8E63343F0020384F8E63301F042FE81
:10FCE000002420460134E4B201F088FE092CF8D14A
:10FCF00010BD00BF48310020D44500200639002047
:10FD0000C8380020DC3000202DE9F04F4FF00060B3
:10FD10008FB0894904F072F9F4F7A8FA0B20F4F7D0
:10FD200099FA034640B9854A302000921E2140F2DC
:10FD3000FF72F4F789FAFEE7814B32214FF6FF722A
:10FD4000009320200023F4F77FFA0720F4F782FACB
:10FD50007C4B18600820F4F77DFA7B4B1860092073
:10FD6000F4F778FA794B18600A20F4F773FA784BB5
:10FD7000186002F0F5FCFEF7DFFF034630B9754A64
:10FD8000302000921E214FF4FC6206E0724B3020BE
:10FD900000931E2140F2FF720023F4F755FA6F4BD7
:10FDA0004FF4FA701880FCF7C3F902F0C7FD6C4DF0
:10FDB0006C4B00221A702A786B4C012A98466B4BC8
:10FDC00015BF40F28D1240F237111A801980B4F835
:10FDD000F031B4F89CC06B70B4F84C30EA796B80A9
:10FDE000634B0027B3F800E09888A5F804C0CDF86D
:10FDF00030E00D90AA7108970A970B9709979946DA
:10FE0000B4F9F0316A78DFF860A19342544E4FD0D4
:10FE1000052B2AD102F058FD7378042B06D8BAF8C6
:10FE20004C10BAF89CA07180A6F804A0514A872112
:10FE30001170514A6423A4F84C30A4F89C3013701C
:10FE40002B782B720BB9FFF7EBFEB9F80430B9F839
:10FE500000200D93EB794FF0000CAB7102230C9254
:10FE6000EB71CDF820C0CDF828C0B4F9F0213E4B9D
:10FE7000042A1DDC6A783A4E042A19D97188B2889E
:10FE8000A3F84C10A3F89C2002F01EFD337A0BB9A6
:10FE9000FFF792FE6A78324B052A09D1DDF830C0AF
:10FEA000DDF834E09A79A9F800C0A9F804E0DA7125
:10FEB000B4F8F0212C4B052A6A7005D17220642118
:10FEC000A3F84C00A3F89C10B4F84032697A18B239
:10FED0008842234A12D0981E80B20128274806D8AB
:10FEE00001299CBFD17991710222EA7103E00129B5
:10FEF00084BF9179D1716B7201230370B4F8003122
:10FF00000A3B9BB2012B01D8012300E0002305200E
:10FF1000AB72F4F79FF91A4E10B14FF4167232809B
:10FF2000318889B271BB0220F4F790F914200121C5
:10FF3000F4F78CF927E100BF00C000084061010818
:10FF40006661010854970020F04700205897002070
:10FF50005C9700208B610108B2610108BE4500205A
:10FF6000D4450020CE45002048310020063900202D
:10FF70006C3000200A3900200B390020C8380020DE
:10FF8000C445002003F0FAFC3C4B1B889BB2BBB17C
:10FF900094F85A3343F0020384F85A3394F8BA328F
:10FFA00043F0020384F8BA3294F8CE3243F00203ED
:10FFB00084F8CE3294F86E3343F0020384F86E3343
:10FFC000DDF824C0DDF82CE00CF101039BB20993AD
:10FFD0002B4B1A8892B296451AD01B8809989BB26F
:10FFE0000B93284B188002F0FDFB2B78012B0DD1D1
:10FFF0004FF0000A5FFA8AF00AF1010A01F0FEFCF4
:020000040801F1
:10000000BAF1090FF6D10021099101E0002209920D
:100010002B78012B01D101F0A5FC02F0A5F8EB79BA
:1000200043B3B4F8F031DFF864A01BB31BB2012B6B
:1000300022D0042B20D00220F4F70CF98346D8B943
:10004000BAF90422104B013733F81230BFB2BB4269
:100050001FD2BAF84C30BAF89CC0A9F80030A9F801
:1000600004C002F023FEBAF9F031052B10D0FDF7E1
:10007000DFFD0DE01F460CE000270AE0CA45002026
:10008000C2450020FC4500200A61010848310020DB
:100090005F46DFF88CA29AF80030002B70D0EB7925
:1000A0005BB9B4F84022934902F5A062009140F296
:1000B0006D10D82192B2FDF7D5F9EB79012B0BD158
:1000C000B4F840228C4902F5A062009140F26D1014
:1000D000D82192B2FDF7C6F9EB79022B0CD1B4F816
:1000E0004022864B02F5A062009340F26D10D821A9
:1000F00092B20123FDF7B6F9EB79032B0CD1B4F8DA
:1001000040227F4B02F5A062009340F26D10D8218F
:1001100092B20123FDF7A6F902F05EFC02F0B8FCF2
:1001200002F0E8FC02F0C2FDB4F9F031052B01D079
:10013000FDF77EFDB4F994330A21013359430220BF
:10014000F4F784F86F4B1B78092B01D0FDF7D6FE2E
:100150002B78012B11D194F8BA3243F0020384F8C2
:10016000BA3294F8CE3243F0020384F8CE3294F8D7
:100170006E3343F0020384F86E3300238AF80030B4
:10018000614B00221A70B4F95031012B11D10320B8
:10019000F4F760F818B90230F4F75CF848B994F84D
:1001A00052314FF0020E43F00203A4F850E184F8FC
:1001B0005231EB79002B5FD0B4F9F031534A002B68
:1001C0005AD0504B1B78072B0BD1514BD9790229B0
:1001D00007D192F86A1241F0020182F86A120022F5
:1001E000DA71B4F940320BBB4A4B4B491A88474B82
:1001F0004A48B3F93830B0F90000C956EB7989188C
:1002000012B25B00821A5A430A9848BF073201EBC8
:10021000E20189B2431D994202DC431F994205DA8B
:100220003F4B0122A9F800101A700A91B4F940322C
:10023000012B21D13B4B3C491A88344B3B48B3F945
:100240008830B0F90000C956EB79891812B25B000A
:10025000821A5A4348BF073201EBE201089A89B279
:10026000531D994202DC531F994205DA2C4B01229F
:10027000A9F804101A700891EB7A2D4A012BDFF8C7
:10028000B4A01BD1B4F8F021204B5AB9B3F9041231
:100290000929C6BF4FF0960CA3F818C2A3F818227C
:1002A000012355E0042A1CBF4FF0000EA3F818E20A
:1002B000B4F904321D2B4ADC022349E0B4F8F031D2
:1002C000124973B9B1F9040209280ADD137B002B26
:1002D0003DD19620A1F81802114901330B70137318
:1002E00035E02A7B012A27D10BB9A4F81832002364
:1002F0002B7329E0D9610108DF610108E56101087C
:10030000EB610108EE450020C8450020483100207F
:10031000FE450020E84E002084480020E44E0020E6
:10032000C8380020EA4E00208E480020E64E00200B
:10033000D4450020C84E00204BB9B4F91822002A39
:1003400005DDA94AA2F81832A84B01221A70002331
:100350008AF8003098F80030002B3FF451AD338814
:100360009BB20BB902F0EAFA4FF416719E4A318043
:100370000026B2F91030E3B9B5F90E10B14204BF4E
:100380009B49CB819B49012331F9020FB0420CD12B
:10039000184605EB400E013805EB400CBCF80EC0CA
:1003A000C0B2AEF80EC00028F3D10133DBB2042B8B
:1003B000EAD101365032042EDBD198F80030012BFF
:1003C00040F00581DFF83CB24FF4FA72ABF8002040
:1003D0005B4643E004200593F3F73CFF10F4804FA5
:1003E000059B3BD094F8523143F0020384F852311C
:1003F000814B1B78092B06D17B4BB3F90833022BB9
:1004000001D1FEF7ADFAB4F9F031042B10D1764BDF
:10041000B3F95031002B07DD0026784B0022F2544F
:100420000136B6F5C46FF8D106200121F3F70EFFAF
:10043000B4F95031B4F9F021D3F1010338BF0023EE
:10044000042AA4F850310DD063B91E466B4B00222C
:10045000F2540136B6F5C46FF8D103E01A8892B2AF
:10046000002AB7D1BBF800309BB20793002B40F0B5
:10047000AE80614A4FF0500B1078614B0BFB00FBD4
:1004800013F800E04FF0140C0CFB0EBCA4449CF8D5
:1004900012B055494BF0020B8CF812B010B1012884
:1004A0004CD12BE0BEF1020F0CD10120107083F86B
:1004B00001E0B1F960E0BEF1000F01D1A1F86000E8
:1004C00002210AE0107002201870B1F9100018B96A
:1004D0004FF0010CA1F810C00121A97511784FF05F
:1004E000500E585C0EFB01F1AEF13C0E0EFB0011FC
:1004F0006118887C40F0030088741FE0BEF1020F91
:100500000ED1DDF81CC083F800E082F800C0B1F91C
:1005100010E0BEF1000F00D108820121A9750DE0A5
:100520004FF0020E107083F801E0B1F960C0BCF129
:10053000000F01D1A1F8600085F816E01178DFF80E
:10054000B8E001292DD9208AB4F9601030B161B921
:100550008EF8001002311970013921E029B1012112
:100560008EF80010491859701AE0A97D012902D9A6
:10057000022916D10AE0002111700231197018B950
:100580004FF0010EA4F810E0012109E001201070E5
:100590005970B4F9601011B91349A1F86000022133
:1005A000A975A17C41F00201A17494F8621041F098
:1005B000020184F86210127850219B5C4A433C3956
:1005C00001FB0322A218937C43F00303937498F871
:1005D0000030022B40F09C80DFF828B040F6B830A5
:1005E000ABF800004BE000BF48310020C8380020C5
:1005F000D4450020E2450020EE4500209848002028
:10060000FE450020BC4500200420F3F723FE10F433
:10061000005F34D0B4F84032023B9BB2012B63D967
:100620008F4B904A1B781421D05C50225A4301FB17
:1006300000228D49DFF834E28A18917C41F00201F2
:100640009174EA7932B94FF0020C8EF807C0089223
:100650000A9202E001328EF80720EA79032A04D9CF
:10066000824A4FF0010E82F807E0502253433C3A91
:1006700002FB003341F00201E318997434E07C4935
:1006800040F6C4130A8892B29A42BDD82CE00420E6
:10069000F3F7E0FD10F4005F26D0B4F84032023BDF
:1006A0009BB2012B2AD96E4A6E4B11784FF0500E37
:1006B000585C0EFB01F1AEF13C0E0EFB00116A48D6
:1006C0004118887C40F002008874E97911B16749CB
:1006D0000020C871072111700222DA7194F86A3281
:1006E000134384F86A3209E0614A13889BB22BB144
:1006F000128840F6C41392B29A42C8D9BBF80030AF
:100700009BB22BB9564B1878012801D8FBF7AEFDE8
:1007100098F80030032B48D1554B40F2DC5CA3F82D
:1007200000C0B3463BE00420F3F794FD10F4807F53
:100730000DD02B785E46012B06D1B4F9F031052B94
:1007400033D0FFF739FA30E0FFF76AFA2DE0484B73
:100750001B889BB21BBBFEF7E9FB414B1B78092BA7
:100760001DD00226434B002140F2054200935B203E
:100770000B46FCF777FE4FF49670FEF708FD3E4BF4
:10078000002100935B2040F205420B46013EFCF73E
:1007900069FEF6B2C820FEF7FAFC002EE2D134481A
:1007A00003889BB2002BBED15E4698F80030042B24
:1007B00040F02681DFF8B8B04FF4FA71ABF80010C2
:1007C0005B46F3E004200593F3F744FD10F4007F4B
:1007D000059B00F0EB8022494FF0500E0A78214B28
:1007E0000EFB02FE985C4FF0140C0CFB00EEA644CE
:1007F0009EF812C0022A4CF0020C8EF812C001D1F1
:1008000000B99A540A78032A04D1DA7812B9154A41
:100810000220D0702A7832B90878082803D1187AD3
:10082000012800F0B4800A780C2A00F294804FF07E
:10083000500C0CFB02FC985C4FF0140E0EFB00CE2B
:10084000A6449EF812C002284CF0020C8EF812C08A
:1008500014D8DFF810C001300CF8020013E000BF1C
:10086000EE450020FE45002048310020D445002000
:10087000BC450020F1610108B84E0108DFF820E115
:1008800000200EF80200052A09D1B4F9A021042A9B
:1008900005D15A79032A02D1414A002050710A78C1
:1008A000052A09D1B4F9A021042A05D05A79022ACF
:1008B00002D13B4A032050710A785020504313F86C
:1008C00002E04FF0140C0CFB0E00201890F90A0007
:1008D000002804DA32484FF0000E00F802E0502001
:1008E000504313F802E04FF0140C0CFB0E002018DC
:1008F000807A10F0010F04D029484FF0000E00F864
:1009000002E04FF0500C0CFB02FC985C4FF0140E10
:100910000EFB00CC2348CDF81CC000EB0C0E9EF85B
:100920000AE01EF0020F09D0092A07D0052A05D0D7
:10093000DFF86CE04FF0000C0EF802C00A7850218E
:100940009B5C4A433C3901FB03228018837C43F0C3
:10095000010383742FE014480D3A0C2101FB0203BC
:1009600093F804E001FB020293F80BC0BEF1030F01
:100970009CBF0EF1010E83F804E04CF0020C83F8EA
:100980000BC01379032B16D90023137113E094F8CD
:10099000A63243F0020384F8A632014B1A720AE031
:1009A000FE45002048310020DC3000201A8892B239
:1009B000002A7FF407AFBBF800309BB203BB93491A
:1009C00050200B78924A584312F803E04FF0140C71
:1009D0000CFB0E00201890F812E04EF0020E80F88A
:1009E00012E00BB1012B01D10133AB7506230B7063
:1009F000053B937194F8063243F0030384F8063202
:100A000098F80030052B40F0AD81B4F9F031DFF8F3
:100A1000FCB1052B1AD19BF800304BB97C4B1B78ED
:100A2000032B05D17B4B1A782D2A01D9023A1A7073
:100A30009BF80030012B09D1754B5B78032B05D156
:100A4000754B1A781E2A01D9023A1A709BF80030A9
:100A50000A2B03D0082B04D12B7813B96F4B9621A6
:100A600019809BF800200C2A00F25681032A13D12A
:100A7000674BDB7883B9B4F90011694B61B9E87A47
:100A8000684A012808D1D172B3F9F01111B1128B63
:100A9000A3F81822FDF732FA00263B469BF80070B7
:100AA000B7424BD15A4A915D002947D1502000FBF3
:100AB0000640B0F910005A4A01283FD1B2F940026D
:100AC000B04219D1B5F814C0B5F812E0A2F840C28E
:100AD000288AB5F80EC0E981023182F8421282F804
:100AE000561282F86A12A5F814E005936882A5F8F8
:100AF00010C002F0DBF8059BB5F90E20BA4204D114
:100B0000484A4FF0000EA2F80EE04748012230F9A3
:100B1000021FB9420ED11146DFF808E10EEB410C7D
:100B200001390EEB410EBEF80EE0C9B2ACF80EE092
:100B30000029F1D10132D2B2042AE8D10136042EC3
:100B4000ACD19BF800201F46072A354B0FD1304906
:100B5000C97902290BD1B4F9402239F8221008B220
:100B600011286BDD3148013920F8221066E0A2F12E
:100B70000B01C9B2012909D8502101FB0242918C15
:100B800008B200285ADD0139918457E0062A20492D
:100B90001DD18A79022A20D1224AD27A1AB1B3F918
:100BA000F021042A19D1B3F818221D4910B21E28C9
:100BB00001DD1E3A02E0002802DD013AA1F8182208
:100BC00093F82E2242F0020283F82E2236E022B958
:100BD0000A7812B9134A012090759BF80020012A67
:100BE00004D14A7812B90F4A022090759BF8000090
:100BF0005022095C50433C3A02FB01029A18118AC8
:100C000008B2002814DD0139118217E0EE450020FA
:100C1000FE4500200A3900200B390020CA4500207B
:100C200048310020D4450020E24500206C300020EF
:100C3000917A11F0100F1CBF108910829BF80020D0
:100C4000062A22D19C4A9279FAB9B4F9F0213AB92C
:100C50009AF8002022B99949994AB1F818121183DB
:100C6000B3F9F021052A07D19AF8002022B9944956
:100C7000924A098BA2F8181293F85221002142F0EF
:100C80000202A3F8501183F852219BF80020052A94
:100C90000ED1B4F9A011894A042909D0052907D039
:100CA000B2F9B4110E29C4BF4FF00E0CA2F8B4C1B2
:100CB0009BF80020092A13D1B3F9E0127F4A0129D9
:100CC0000ED1B2F9081319B94FF0020EA2F808E3D9
:100CD000B3F90823032A03D1784A0220A2F80803B3
:100CE0009BF80020502101FB0233997C93F84E20A1
:100CF00041F00201997493F8261042F0020241F08B
:100D0000020183F8261093F83A1083F84E2041F040
:100D1000020183F83A1025E06A480D3A0C2101FBE4
:100D2000020393F80BC093F805E04CF0020C83F833
:100D30000BC0BEF1000F02D00EF1FF3E01E04FF0FC
:100D40000B0E01FB020183F805E04B79012B01D169
:100D500003330B710C2303FB020043790B2B01D1EE
:100D60000B3B037198F80030072B40F03882DFF816
:100D70005CB19BF80030092B00F08881524B4FF496
:100D8000FA7119801A4636E0042006920593F3F7AB
:100D900061FA10F4805F069A059B2CD000264B4820
:100DA0000278B24223D1502101FB0641B1F9101063
:100DB000424AE1B1B2F8401208B2B04217D0B5F8D9
:100DC00010C0B5F812E0A88AA9820221A2F84062F8
:100DD00082F8421282F8561282F86A12A5F80EC002
:100DE0000593A5F810E0688201F060FF059B0136CD
:100DF000042ED4D103E0118889B20029C4D11A8805
:100E000092B2002A40F042812B78012B40F0E7801B
:100E10002F4B1978032909D84A1CD2B21A70B4F999
:100E2000F011052903D1012A01D004221A701A7881
:100E3000042A00F22B81DFE802F00303214D6B004E
:100E4000012A02D1A4F8B82202E00023A4F8B832A3
:100E50001C4BD97A41F00201D97200215971043139
:100E600019710339D87D0131C9B240F00200D8753B
:100E700059741A740C330929F4D107E1114B144940
:100E8000DA7A42F00202DA7200225A7104321A71DE
:100E9000033AD87D052A40F00200D87511F8010FF9
:100EA000587401D8022000E003200132D2B2187435
:100EB0000C33092AEDD1E9E0FE450020483100203D
:100EC000D4450020DC300020BC450020EE45002049
:100ED000D2300020A44BA549DA7A42F00202DA723D
:100EE00000225A7104321A71033AD87D052A40F063
:100EF0000200D87511F8010F587401D8032000E0E2
:100F000002200132D2B218740C33092AEDD1BDE0AF
:100F1000954AD37A02F1600143F00203D3720023B1
:100F20005371043313711346D07D40F00200D07525
:100F30000C328A42F8D1B4F9F0118D4A052905D056
:100F4000B2F9B01039BBB2F9002122BB00224FF038
:100F5000040C4FF0030E022007211A741A7783F84D
:100F6000282083F83420013283F811C083F81DE073
:100F700083F8290083F8351083F841C083F84020B6
:100F800083F84DE083F84C2083F8590083F858200B
:100F900083F8651020E000200721187418770130CD
:100FA00003224FF0020E83F8280083F83400401823
:100FB00059745A7783F8291083F8352083F8411043
:100FC00083F840E083F84D0083F84CE083F8591033
:100FD00083F8582083F8650083F8642056E0654B59
:100FE000197831BB01224FF0020C07961A70664641
:100FF000614B002140F2054200935B200B46FCF759
:1010000031FA4FF4C870FEF7C2F85C480021009036
:1010100040F205425B200B46013EFCF723FAF6B294
:10102000C820FEF7B4F8002EE2D1B446544B079E18
:1010300024E04FF0020C07961A706646514B0021CF
:1010400040F2054200935B200B46FCF70BFA4FF48D
:10105000C870FEF79CF849495B200091002140F2DE
:1010600005420B46013EFCF7FDF9F6B2C820FEF73B
:101070008EF8002EE2D1B446434B079E00938920A0
:10108000D82140F205426346FCF7ECF99BF80030AA
:10109000092B40F0A4803D4B00210093E6200B4635
:1010A00040F20A52FCF7DEF9394B50211B7801FB64
:1010B0000342B2F9100088BBB2F93820032A24D8C1
:1010C000DFE802F00209151C01FB034191F824003E
:1010D000FDF746FA18E001FB034191F82400FDF703
:1010E000DFF906464FF47A70FEF751F80DE001FB88
:1010F000034191F82400FDF7CFFA05E001FB03411D
:1011000091F82400FDF7AEFC06469BF80030502213
:1011100002FB03439A8C01329A8418E0B2F938300A
:10112000012B05D192F82400FDF785F9064600E071
:1011300000269BF80030502202FB0343B3F938200D
:10114000022A04D193F82400FDF736FB06463EB987
:10115000104BE6200093314640F20A52334627E016
:10116000042E1BD10C4B1DE0DC300020D2300020BF
:1011700048310020109300200D620108B84E01088C
:10118000296201082D620108496201084C620108C8
:10119000EE4500205262010858620108032E0CBF80
:1011A000A54BA64B00210093E62040F20A520B46C5
:1011B000FCF758F94FF47A70FDF7E9FF9BF800301F
:1011C000502202FB034393F8261093F83A2041F093
:1011D000020142F0020283F8261083F83A2098F8C0
:1011E0000030062B40F01782B4F9F031DFF870B20E
:1011F000052B1AD19BF800304BB9914B1B78032B70
:1012000005D1904B1A78D62A01D802321A709BF871
:101210000030012B09D18A4B5B78032B05D18A4B17
:101220001A78A92A01D802321A709BF800300A2BCA
:1012300003D0082B06D12B7823B9844B4FF0960EA0
:10124000A3F800E0EB794BB19BF80030072B05D1F8
:101250007B4BDA79022A01D1023ADA719BF800203D
:101260000C2A00F2B881032A14D1754BD97889B9B8
:10127000B4F90021764B092A0CD1E87A754A012885
:1012800008D1D172B3F9F01111B1128BA3F8182261
:10129000FCF734FE00233A461F469BF80030BB4261
:1012A0007CD16749C95D002978D1B4F94002694E03
:1012B000B84250D16649032F40D8DFE807F0020258
:1012C0001C244FF0500E0EFB0010B0F91000022845
:1012D00034D1B6F814E05E48B6F810C0A0F840E289
:1012E000708AB6F80EE0B0820020A6F812C0A6F808
:1012F00010E0F08122E04FF0500E0EFB0010B0F92C
:101300001000012806E04FF0500E0EFB0010B0F95F
:1013100010000D2812D1B6F814C04D48B6F812E0EE
:10132000A0F840C2308AB6F80EC0A6F814E04FF01C
:10133000000E7082A6F810C0A6F80EE0022081F818
:10134000420281F8560281F86A020692059301F082
:10135000ADFC059B069AB6F90E10994202D13D49A3
:101360000020C8813C48012130F902EF9E4511D18F
:101370008E46039306EB4E030EF1FF3E06EB4E0C3A
:10138000BCF80EC05FFA8EFEA3F80EC0BEF1000FCF
:10139000F0D1039B0131C9B20429E5D10137042FF3
:1013A0007FF47BAF17469BF80020294B072A10D10A
:1013B0002349C97902290CD1B3F94012274A32F8DE
:1013C000210006B2D02E00F39A80013022F82100CD
:1013D00095E0A2F10B01C9B201290CD8502101FB03
:1013E0000232918CB2F91C6008B2864240F38780C9
:1013F0000131918483E0062A114933D18A79022A86
:1014000058D1B3F81812124A08B21D2809DDB2F9F2
:101410001062A6F11E0E704501DA1E3102E0B042E4
:1014200002DA0131A2F8181293F82E2242F00202D9
:1014300083F82E2263E000BF5E6201086462010847
:10144000FE4500200A3900200B390020CA45002043
:1014500048310020D4450020E24500206C300020B7
:10146000EE4500200A2A1FD18A7A012A22D8A749EC
:10147000097801294FF0140108D101FB0232B2F8BA
:101480003013B2F928030EB2643807E001FB0232D0
:10149000B2F83013B2F928030EB20C3886422EDAB5
:1014A0000131A2F830132AE022B90A7812B9974A1A
:1014B000012090759BF80020012A04D14A7812B9C6
:1014C000924A022090759BF800005022095C50431C
:1014D0003C3A02FB01029A18118AB2F908E00EB2F6
:1014E000B64502F1080002DD0131118207E0817882
:1014F00011F0100F1CBF4FF0000CA2F810C09BF8A9
:101500000020062A23D1824A927902BBB3F9F02146
:101510003AB99AF8002022B97E497C4AB1F81812EB
:101520001183B3F9F021012A07D19AF8002022B9DA
:101530007649784A098BA2F8181293F852214FF095
:10154000000E42F00202A3F850E183F852219BF80A
:101550000020052A0DD1B3F9A0116E4A042908D044
:10156000052906D0B2F9B4110E2902DD0E20A2F829
:10157000B4019BF80020092A11D1B3F9E012654AA1
:1015800001290CD1B2F9080308B9A2F80813B3F97C
:101590000823032A03D15F4A0121A2F808139BF80C
:1015A0000020502101FB0233997C93F84E2041F03A
:1015B0000201997493F8261042F0020241F00201F0
:1015C00083F8261093F83A1083F84E2041F0020178
:1015D00083F83A101FE050480D3A0C2101FB02033A
:1015E00093F80BE05E794EF0020E0A2E83F80BE0C2
:1015F00001D8013600E0002601FB02015E714B7943
:101600000BB904330B710C2303FB02004379022B4B
:1016100001D1023B037198F80030092B59D13F4AA0
:1016200013780C2B3CD8502039495843CE5C4FF0EE
:10163000140E0EFB06002018867C46F00206867407
:1016400003B1013B13701378042B02D1334B0320F9
:101650001870137850225A43C95C142000FB0121F2
:101660006118887C092B40F00300887431D1294B24
:101670009A18917C92F84E3041F00201917492F8E0
:10168000261043F0020341F0020182F8261092F87E
:101690003A1082F84E3041F0020182F83A1018E018
:1016A0001D490C26A3F10D0006FB0010C67A0D2B78
:1016B00046F00206C67201D1083300E0013B137008
:1016C00013780C220D3B02FB0311CB7A43F001038C
:1016D000CB7298F800300A2B63D1114E4FF4FA7296
:1016E0003280B2462AE00420F2F7B4FD10F0400F39
:1016F00024D0EA7A054BAAB90132DA72B4F9F021A2
:10170000CAB1044AB2F818221A8314E0D445002062
:10171000FE45002048310020DC300020EE4500204E
:10172000BC4500200022DA72B4F9F0211AB1874AD0
:101730001B8BA2F81832FCF7E1FB04E0BAF800308A
:101740009BB2002BCFD133889BB2002B29D1804A8A
:10175000804913781426C85C5021594306FB0011B8
:101760006118887C40F002008874297849B9A3F197
:101770000D01C9B2082912D90B2B10D00C2B10D196
:101780000DE00C2B01D80D230AE0734B03F16C0123
:10179000D87A40F00200D8720C338B42F8D1002383
:1017A000137098F80030082B5ED1694A13780C2B1F
:1017B00041D8502067495843CE5C4FF0140E0EFBC1
:1017C00006002018867C46F002068674287808B940
:1017D0000A2B02D00C2B18BF013313701378042B83
:1017E00002D15B4B05201870137850225A43C95C14
:1017F000142000FB01216118887C092B40F00300B4
:10180000887431D1514B9A18917C92F84E3041F046
:101810000201917492F8261043F0020341F0020194
:1018200082F8261092F83A1082F84E3041F0020108
:1018300082F83A1018E048490C26A3F10D0006FB87
:101840000010C67A152B46F00206C67201D1083B7D
:1018500000E00133137013780C220D3B02FB0311DF
:10186000CB7A43F00103CB723C4B1B78042B64D141
:101870002A78012A61D1384AD17A137141F00201E4
:10188000D17200215171134602F16001D07D40F008
:101890000200D0750C328A42F8D1B4F9F0112B4A0B
:1018A000052905D0B2F9B01029BBB2F9002112BB4D
:1018B00000224FF0040E0326022007211A741A7723
:1018C00083F8282083F83420013283F811E05E7712
:1018D00083F8290083F8351083F841E083F840202D
:1018E00083F84D6083F84C2083F8590083F8582022
:1018F00083F865101FE00020072118741877013065
:101900000322022683F8280083F834004018597413
:101910005A7783F8291083F8352083F8411083F82B
:10192000406083F84D0083F84C6083F8591083F8C9
:10193000582083F8650083F86420002388F800307D
:10194000074B01221A70FEF75BBA00BF4831002036
:10195000EE450020FE450020DC300020D230002083
:10196000C8380020F7B51F4C04F16C05237813F03C
:10197000020F14D014F8076C1B4A54F80B7C32F891
:10198000162014F8066C002306EB8606237034F844
:10199000050C14F8011CBE190096FBF763FD0C340E
:1019A000AC42E3D1114B1A780D3AD2B2082A18D8BA
:1019B0000F4B1978A9B10C2555430E4E0021197013
:1019C00074192779E088A17A647975590A4B064A17
:1019D00004EB84041B782C1932F817200094FBF7D1
:1019E00041FDFEBDE73000206A620108EE4500209F
:1019F000C8450020DC300020C74500202DE9F34712
:101A0000AD4BAE4C1A68B4F97062142101FB06228A
:101A1000082E98460546D7894FF003030BD8C6F128
:101A20000B01B1FBF3F10A20C9B2FDF7A5FB4FF0A2
:101A3000010A81460AE0A6F10901B1FBF3F10A208F
:101A4000C9B2FDF799FB4FF0010982460323B6FBAB
:101A5000F3F3D8F8002003EB4303F61A142303FB37
:101A60000626D6F8C46001F011FA0C2303FB0542E8
:101A7000527980460B2A00F24683DFE812F00C0010
:101A800013001C007E00B8000E014A019601FD0102
:101A90002C02F4026E020620F2F7DCFB4FF47A719E
:101AA00041437DE186480223C189864A0093013083
:101AB00001F07F0125E303FB05431B797F4AEBB966
:101AC000B2F87C00002856D0B2F8A4607E4933B248
