:020000040800F2
:10C0000000A0002045B601083D5C0108415C010824
:10C01000455C0108495C01084D5C01080000000016
:10C02000000000000000000000000000555C010856
:10C03000515C010800000000595C01085D5C0108CA
:10C04000615C0108655C0108695C01086D5C0108C0
:10C05000715C0108755C0108795C01087D5C010870
:10C06000815C0108855C0108895C01088D5C010820
:10C07000915C0108955C0108995C01089D5C0108D0
:10C08000A15C0108A55C0108A95C0108AD5C010880
:10C09000B15C0108B55C0108B95C0108BD5C010830
:10C0A000C15C0108C55C0108C95C0108CD5C0108E0
:10C0B000D15C0108D55C01083D5E0108415E0108C4
:10C0C000455E0108495E01084D5E0108515E0108A8
:10C0D000555E0108595E01085D5E0108615E010858
:10C0E000655E0108695E01086D5E0108715E010808
:10C0F000755E0108795E01087D5E0108815E0108B8
:10C10000855E0108895E01088D5E0108915E010867
:10C11000955E0108995E01089D5E0108A15E010817
:10C12000A55E0108A95E0108AD5E0108B15E0108C7
:10C13000F8B514200021464FF8F788F82420012193
:10C14000F8F784F83B680720B3F95C11F8F77EF83C
:10C150003E680820B6F85E11F8F778F8092001214A
:10C16000F8F774F80B200121F8F770F8394C00202B
:10C170006421F8F76BF801206421F8F767F8256867
:10C180000A20A988F8F762F822680C209188324CBE
:10C190000131F8F75BF805200121F8F757F80DF0A9
:10C1A000DDFF20200146F8F751F84FF4FA6008F05F
:10C1B00025FB06200121F8F749F8284D1420284EC8
:10C1C00008F01CFB4FF4006323602B6006F58047EA
:10C1D000F8F730F821682B6800F0FF0EC0F3072C49
:10C1E0000EEB01020CEB0301706022602960F8F78E
:10C1F00021F822682B6800F0FF0CC0F3072E0CEB2F
:10C2000002017344B06021602B60F8F713F82268D4
:10C210002B68C0F3072100F0FF0ECB187244F060CA
:10C2200022602B60F8F706F822682B6800F0FF0CFC
:10C23000C0F3072146F8100F6244CB18BE422260BB
:10C240002B60C5D1D31A074A180B1070F8BD00BF78
:10C25000A4960020AC4F00209896002090960020D5
:10C26000BC4F0020B09600202DE9F04FD84E00249E
:10C27000D84DA3B02146347007461420F7F7E6FFE7
:10C28000B5F994330A22591C02FB01F10220D24E67
:10C29000F7F7DCFF2046F7F7BDFF05202146347095
:10C2A000F7F7D4FF24200121F7F7D0FF2020014623
:10C2B000F7F7CCFFB5F9E403C84E431E03EB830147
:10C2C0000320A5F85041F7F7C1FFC54A31684FF484
:10C2D000FA7515800720B1F9F810F7F7B7FF336842
:10C2E0000820B3F8FA10F7F7B1FF09202146F7F755
:10C2F000ADFF0B202146F7F7A9FF40F28F1600256E
:10C3000028462146F7F782FF4FF6FF70F7F780FFC8
:10C310006A1C95B221462846F7F778FF4FF6FF7062
:10C32000F7F776FF681C85B221462846F7F76EFFBF
:10C330004FF6FF70F7F76CFF6B1C9DB22146284645
:10C34000F7F764FF4FF6FF70F7F762FF691C8DB2D5
:10C3500028462146F7F75AFF4FF6FF70F7F758FFC8
:10C360006A1C95B221462846F7F750FF4FF6FF703A
:10C37000F7F74EFF681C85B2284621460135F7F7CE
:10C3800045FFADB24FF6FF70F7F742FFB542B7D1A8
:10C390001434A4B2DC2CB2D1002440F28F15EF216A
:10C3A0002046F7F733FF4FF6FF70F7F731FF631CB6
:10C3B0009CB2EF212046F7F729FF4FF6FF70F7F701
:10C3C00027FF611C8EB23046EF21F7F71FFF4FF6B3
:10C3D000FF70F7F71DFF721C94B2EF212046F7F7AC
:10C3E00015FF4FF6FF70F7F713FF601C86B2EF21C1
:10C3F0003046F7F70BFF4FF6FF70F7F709FF731C96
:10C400009CB2EF212046F7F701FF4FF6FF70F7F7D8
:10C41000FFFE611C8EB23046EF21741CF7F7F6FE6A
:10C42000A4B24FF6FF70F7F7F3FEAC42B7D100208D
:10C430000146F7F7EBFE4FF6FF70F7F7E9FE4FF610
:10C44000FF70F7F7E5FE4FF6FF70F7F7E1FEEC241B
:10C450004FF6FF70F7F7DCFE4FF6FF70F7F7D8FEE8
:10C460004FF6FF70F7F7D4FE4FF6FF70F7F7D0FEE8
:10C47000043CEDD12C201421F7F7C8FE4FF6FF70D5
:10C48000F7F7C6FEB4244FF6FF70F7F7C1FE4FF67C
:10C49000FF70F7F7BDFE4FF6FF70F7F7B9FE4FF6E6
:10C4A000FF70F7F7B5FE043CEDD158201421F7F7E3
:10C4B000ADFE4FF6FF70F7F7ABFEB4244FF6FF70FA
:10C4C000F7F7A6FE4FF6FF70F7F7A2FE4FF6FF70E4
:10C4D000F7F79EFE4FF6FF70F7F79AFE043CEDD19A
:10C4E00084201421F7F792FE4FF6FF70F7F790FEC5
:10C4F000B4244FF6FF70F7F78BFE4FF6FF70F7F797
:10C5000087FE4FF6FF70F7F783FE4FF6FF70F7F7E1
:10C510007FFE043CEDD1C8201421F7F777FE4FF6DB
:10C52000FF70F7F775FEB4244FF6FF70F7F770FE53
:10C530004FF6FF70F7F76CFE4FF6FF70F7F768FEE7
:10C540004FF6FF70F7F764FE043CEDD1F4201421A0
:10C55000F7F75CFE4FF6FF70F7F75AFEB4244FF67C
:10C56000FF70F7F755FE4FF6FF70F7F751FE4FF6E5
:10C57000FF70F7F74DFE4FF6FF70F7F749FE043CEA
:10C58000EDD14FF490701421F7F740FE4FF6FF7095
:10C59000F7F73EFEB4244FF6FF70F7F739FE4FF67B
:10C5A000FF70F7F735FE4FF6FF70F7F731FE4FF6E5
:10C5B000FF70F7F72DFE043CEDD14FF4A670142167
:10C5C000F7F724FE4FF6FF70F7F722FEB42409E0D8
:10C5D000924D0020083200207C960020A496002076
:10C5E000904D00204FF6FF70F7F712FE4FF6FF70E8
:10C5F000F7F70EFE4FF6FF70F7F70AFE4FF6FF70E3
:10C60000F7F706FE043CEDD121464FF4C770F7F76B
:10C61000FDFD4FF6FF70F7F7FBFD4FF6FF70F7F7E4
:10C62000F7FD4FF6FF70F7F7F3FDEC244FF6FF70C0
:10C63000F7F7EEFD4FF6FF70F7F7EAFD4FF6FF70E4
:10C64000F7F7E6FD4FF6FF70F7F7E2FD043CEDD19A
:10C65000DFF850930620B92105222346C84EC94D64
:10C66000CDF8009001F024FA3120B92105222346AB
:10C67000DFF83483009601F01BFA5D20B921052212
:10C680002346009501F014FA8920B921052223469A
:10C69000CDF8008001F00CFADFF810E3CE20B921CC
:10C6A00040F205122346CDF800E001F001FAF9202E
:10C6B000B92140F205122346009601F0F9F940F243
:10C6C0002510B92140F205122346009501F0F0F93A
:10C6D0004FF4A970B92140F205122346CDF800802D
:10C6E00001F0E6F9DFF8C892A625DFF8C88204EB6E
:10C6F0008401D8F800008E0000EB060E29460620C3
:10C7000005220023CDF800E001F0D2F9D8F800208E
:10C7100029469619CE20002340F205120096DFF834
:10C72000988201F0C5F9984E984816F804C0065D45
:10C7300018F80400DFF8648222A938F8148001EBAD
:10C740004402934B22F8508CDFF8708213F804E017
:10C7500038F814800B19D9F8001003F8300C22F8BF
:10C76000648C03F80CCC03F824EC03F8186C601C00
:10C77000B1F804C084B2143DA445ADB2B5D20026D0
:10C78000844C0796069635460396834BB3F800C053
:10C790001FFA8CF1002900F08D810A202946F7F755
:10C7A00055FD29460C20F7F751FD142008F026F816
:10C7B00001210620DFF808A2DFF80882F7F746FD1E
:10C7C000142008F01BF84FF40060CAF80000C8F805
:10C7D0000000F7F72FFDDAF80060D8F80020DFF846
:10C7E000E8B100F0FF0CC0F307210CEB06038E1834
:10C7F000CBF80000CAF80030C8F80060F7F71AFD5F
:10C80000DAF80020D8F8003000F0FF0EC0F3072C53
:10C810000EEB02010CEB03064BF8040FCAF80010F4
:10C82000C8F80060F7F706FDDAF80020D8F8003005
:10C8300000F0FF01C0F3072C8E1863444BF8040F7F
:10C84000CAF80060C8F80030F7F7F4FCDAF8001016
:10C85000D8F8006000F0FF0EC0F307224BF8040F79
:10C860000EEB01039219A345CAF80030C8F8002066
:10C870004FD0039EF7F7DEFCDAF80020D8F800303E
:10C8800000F0FF0EC0F3072C0EEB02016344CBF85F
:10C890000400CAF80010C8F80030F7F7CBFCDAF84B
:10C8A00000E0D8F8003000F0FF01C0F3072201EBF0
:10C8B0000E0CD118CBF80800CAF800C0C8F8001058
:10C8C000F7F7B8FCDAF80020D8F8003000F0FF0ED7
:10C8D000C0F3072C0EEB02010CEB0302CBF80C00AB
:10C8E000CAF80010C8F80020F7F7A4FCDAF8003006
:10C8F000D8F8002000F0FF0EC0F307214BF8100F0E
:10C9000073448A18A345CAF80030C8F80020B1D192
:10C910000396DFF8A880214E38F815A036F815C028
:10C92000100B1B0B0CFB03FB0AFB00FE1649174AFE
:10C930001B4B485751570EF500780BF5007C1A78C1
:10C9400001EB982A00EB9C2BA8461FFA8BFB1FFAE1
:10C950008AFA002A6DD0039A00261E700C2A68D825
:10C96000DFE812F0A603560334007B024D021402E6
:10C97000E0012001FF02D802C202AE020C0100BF9A
:10C98000DCBE0108E4BE0108503F00205C3F0020EF
:10C99000383F0020BC8F00209C4D0020E83E002046
:10C9A0009B4D0020D4BE0108ECBE0108F4BE010876
:10C9B000AC4F002080960020443F0020FC3E002029
:10C9C0009896002090960020C04F002006994E1C9B
:10C9D000F2B2072A88BF00220692002F00F0C88416
:10C9E000012F00F05D86069818B901350026EDB2DA
:10C9F0000696D9F80010B1F80480A84502D20323A6
:10CA000003930025B44E4FF028087257002008FB0E
:10CA100002FE0EF522439912F7F718FCAF48415772
:10CA2000012008FB01FC0CF522429112A846F7F701
:10CA30000DFCAB4A1378002B3FF4A7AED9F80000E9
:10CA4000A849B0F804E04FF4167CAE45A1F800C048
:10CA500003D3039A072A00F07C83A14E3078831E0B
:10CA6000072B1CD8DFE803F0681B1B54301B044461
:10CA70000399072940F289834A1CD3B20C2B0393F4
:10CA800040F2838308200390D9F80060B6F804C010
:10CA9000AC4504D2039900254A1CD3B20393904EAF
:10CAA0000020904B3070B3F800C01FFA8CF10029C1
:10CAB0007FF473AE0220F7F7C9FB14200121F7F7CA
:10CAC000C5FB23B0BDE8F08F039B072BE7D1002FF8
:10CAD00000F0EA83012FE2D10FFA8AFABAF1230FAC
:10CAE000DDDD814E36F81820931C26F81830D6E785
:10CAF000039B072B00F05083039A082A02D9501E8B
:10CB0000C1B20391039E082E08BF0C260396C6E708
:10CB100003980728C3D1002F00F0B883012FBED19E
:10CB20000FFA8AFABAF1230FB9DD6F4931F81860AC
:10CB3000B01E21F81800B2E7039A002A00F0228301
:10CB4000A2F108015FFA81FCBCF1010F00F22A8317
:10CB5000092A04BFC7F10107FFB2002F00F0BF830D
:10CB6000012F00F03A850023D9F800200133968880
:10CB70009BB29E42F8D20020039090E75B495C4E46
:10CB80000B784820D821009640F20542594E00F01B
:10CB90008FFF7020D82140F205420023009600F05C
:10CBA00087FF46E7DFF858E12020D82140F2053220
:10CBB0000023514ECDF800E000F07AFF0C2202FB7A
:10CBC000056C4A4E58203378D82140F20542CDF802
:10CBD00000C000F06DFFDFF82CE1A020D82140F26A
:10CBE00005320023CDF800E000F062FFDFF818C145
:10CBF0000820062140F205320023CDF800C000F0E5
:10CC000057FFDFF808E133789020062140F2054213
:10CC1000CDF800E000F04CFFDFF8F4C03378B0202E
:10CC2000062140F20542CDF800C000F041FFDFF8D8
:10CC3000E4E0D820062140F205320023CDF800E0E0
:10CC400000F036FFDFF8D0C033784FF4A87006212B
:10CC500040F20542CDF800C000F02AFFDFF8BCE04A
:10CC600033784FF4B870062140F20542CDF800E069
:10CC700000F01EFF002F40F0BC820FFA8BF3232B35
:10CC800000F320830DF14C0C6046394603231B4A08
:10CC9000CDF814C0009707F0BBFD6FF0130303FB42
:10CCA00005F2124EDDF814C0A6324FF6FE7033784E
:10CCB00002EA000186200522CDF800C000F0F8FE4F
:10CCC000DFF85CC04FF4A470D82105220023CDF812
:10CCD00000C000F0EDFEACE6383F0020443F0020ED
:10CCE000924D00209C4D0020FC3E0020934D0020E2
:10CCF000D4C00108FCC00108003000201836002014
:10CD00009CBF0108A4BF0108BCBF0108D8BF01082F
:10CD1000DCBF0108E0BF0108F8BF0108FCBF010843
:10CD200000C001080699DDF81C804E1CF5B2039E78
:10CD30000695142D88BF0726B8F1010F039640F21F
:10CD4000CB83DFF83483192598F900C0002005FB58
:10CD50000CFE0EF5CC418912F7F778FAC54890F928
:10CD60000080012005FB08F303F5CC45A912F7F775
:10CD70006DFA002F40F073830FFA8BF2362A00F31E
:10CD8000E481039B5E1CF6B20396DEE1069A511C19
:10CD9000C8B2072888BF00200690002F00F07083DB
:10CDA000012F00F06085069818B901350026EDB214
:10CDB0000696D9F80010B1F804E0AE4502D206227A
:10CDC00003920025AC4E4FF0A00816F905C00020D4
:10CDD00008FB0CF303F5203E0EF500729112F7F7F5
:10CDE00035FAA4484157012008FB01F808F5203C1A
:10CDF0000CF500739912A846F7F728FA19E6002FE8
:10CE000000F00283012F00F01C84D9F800200135C6
:10CE10009188EDB2A94202D2052303930025964ED4
:10CE20004FF0A0087357002008FB03F202F5203EE4
:10CE30000EF500718912F7F709FA8E48465701205E
:10CE400008FB06FC0CF5203808F500718912002655
:10CE5000F7F7FCF9A8460696EBE5874B069E13F913
:10CE600005C0A02303FB0CFE721CD6B20EF52030C9
:10CE700000F5007106967F4E002089120593F7F7A2
:10CE8000E5F905997257012001FB02F303F5203CF7
:10CE90000CF500718912F7F7D9F9002F40F0EA81FB
:10CEA000039A0FFA8BF18C29C8BF04220392069BC8
:10CEB000142B7FF6BEAD039A561CF6B20396B8E566
:10CEC0006E4A6F4E13784820D821009640F20542F2
:10CED0006C4E00F0EDFD7020D82140F20542002399
:10CEE000009600F0E5FDA4E5644B654E1B784820F4
:10CEF000D82140F20542009600F0DAFDDFF888C143
:10CF00007020D82140F205420023CDF800C000F087
:10CF1000CFFD8EE559485A4E0378D821482040F27B
:10CF20000542009600F0C4FDDFF860E17020D821D2
:10CF300040F205420023CDF800E000F0B9FD002FDB
:10CF400000F00882012F7FF474ADDFF844E14FF464
:10CF50009470D82105220023CDF800E000F0A8FD50
:10CF600067E5DFF830C10820062140F205320023D2
:10CF7000CDF800C000F09CFD4049DFF81CE10B78C3
:10CF80006020062140F205423C4ECDF800E000F062
:10CF90008FFDDFF808C133788020062140F205427A
:10CFA000CDF800C000F084FDDFF8F4E08820062111
:10CFB00040F205320023CDF800E000F079FDDFF803
:10CFC000E4C00820D82140F205320023CDF800C08B
:10CFD00000F06EFDDFF8D0E07020D82140F205426D
:10CFE0000023CDF800E000F063FD244A244E1378BE
:10CFF0004820D82140F20542009600F059FD002F4C
:10D0000000F09A81012F00F08A840020079010E53B
:10D01000DFF898E00820062140F205320023CDF821
:10D0200000E000F045FD002F00F09F82012F00F08E
:10D030004C84D9F800000135B0F804C0EDB2AC451D
:10D0400002D20222039200250B484FF0280810F963
:10D0500005C0002008FB0CFE0EF522439912F7F7DD
:10D06000F5F8044901204E5708FB06F808F522415F
:10D07000ECE600BF443F0020383F0020934D0020E5
:10D08000D4C00108D8C00108B4C0010884C0010898
:10D09000A8C0010810C00108F8BF0108FCBF0108C2
:10D0A00024C0010848C0010858C001086CBF01082D
:10D0B000DFF83CC328269CF90080002006FB08FE10
:10D0C0000EF522429112F7F7C1F8BE48BE4D90F915
:10D0D0000030012006FB03FC0CF522418912BB4EF7
:10D0E000F7F7B4F80820D82140F205320023009564
:10D0F000B74D00F0DDFCE820D82140F205320023D6
:10D100000096B44E00F0D4FC4FF49870D82140F251
:10D11000054200230095B04D00F0CAFC082006210E
:10D1200040F2053200230096AC4E00F0C1FC2B7893
:10D130005020062140F20542009600F0B9FC002F75
:10D1400000F0F081012F00F06E834FF0000845469B
:10D150006FE4002F3AD0012F7FF47FAC6FF0130EF5
:10D160000EFB05F14FF6FE72A63111400DF14C0C8D
:10D170004FF4A77040F205120023CDF800C000F074
:10D1800097FC6AE40121039189E4039907297FF45C
:10D190007BAC0135EDB277E4002D3FF480AC6A1E24
:10D1A000D5B27CE4039A092A7FF679AC0A2A00F00A
:10D1B000DB820B2A00F0CC820C2A00F0AD824FF407
:10D1C0007A7007F01BFB0CF03DFA7AE46FF0130065
:10D1D00000FB05F34FF6FE76A63303EA06010DF1D8
:10D1E0004C0E8620023A3B46CDF800E000F060FC91
:10D1F00033E4012F7FF41DAC0FFA8AF3232B40F3A5
:10D200007A82774E142230680DF14C0C02FB050136
:10D210000E69193B604606FB03F14FF0000E714AA0
:10D220000323CDF814C0CDF800E007F0F1FADDF8E3
:10D2300014C06FF0130303FB05F0674EA6304FF6E2
:10D24000FE71337800EA010140F205124FF4A77035
:10D25000CDF800C000F02CFCDFF898C14FF4A470AA
:10D26000D82140F205120023CDF800C000F020FCC8
:10D27000FFF7DFBB012F7FF41AAE03980FFA8AFE87
:10D28000BEF18C0FC8BF0420039010E60FFA8BFB91
:10D29000BBF1230F7FF703AC534E36F81820931ED3
:10D2A00026F81830FFF7FBBB0FFA8BFBBBF1230FFF
:10D2B0007FF7F5AB4C4931F81800821C21F8182093
:10D2C000FFF7EDBB464914260A680DF14C0C06FB2E
:10D2D00005200169193B604601FB03F1D6E4DFF844
:10D2E00018A1DFF818B1A626B84631462D20052230
:10D2F0000023CDF800A000F0DBFB314659200522C9
:10D300000023CDF800A000F0D3FB862005220023E7
:10D310003146CDF800B000F0CBFBD9F8000008F1A1
:10D32000010283881FFA82F8143E4345B6B2DCD26C
:10D3300000210391FFF7B3BBDFF8C4E04FF4A47002
:10D34000D82105223B46CDF800E0079700F0B0FB5E
:10D35000FFF76FBBDFF8ACC04FF49470D82140F2F8
:10D3600005123B46CDF800C000F0A2FBFFF761BB01
:10D370005FFA8BFEAEF128020DF14C0851B2404627
:10D38000CDF814E007F008FE6FF0130000FB05F382
:10D390004FF6FE7CA63303EA0C012D2005223B4606
:10D3A000CDF8008000F084FBBBF1280FDDF814C03D
:10D3B0003FF41BAB0D4E735D2833CCEB030171556D
:10D3C000FFF711BB443F0020FCBE010814BF010859
:10D3D00020BF01082CBF0108934D0020D4C00108D4
:10D3E0008096002018360020E83E0020503F0020A4
:10D3F000383F002008C00108D0C00108BCD2010895
:10D4000074C001089CC001080DF14C080BF1600EBE
:10D4100040464FFA8EF107F0BFFD6FF0130101FB9C
:10D4200005F64FF6FE7CA63606EA0C0159200522C9
:10D430000123CDF8008000F03BFB0FFA8BF0830254
:10D44000CC48A3F51E32465DA2F5F6636FF09F014E
:10D4500093FBF1FC0CEB060800F80580D5E4012FE6
:10D460007FF473AE0FFA8AF5362D3FF76EAE03994F
:10D470004FF00008481CC6B203964546FFF7D9BADC
:10D480000BF1600E0DF14C084FFA8EF140466FF033
:10D49000130607F081FD06FB05F34FF6FE7CA6336D
:10D4A000592003EA0C0105223B46CDF8008000F02C
:10D4B000FFFA0FFA8BF3A02B3FF477AC9802AD4E36
:10D4C000A0F51E33725DA3F5F6686FF09F0C98FB14
:10D4D000FCF18818705566E4A64D002095F90020EF
:10D4E000282505FB02FE0EF522418912F6F7AEFE55
:10D4F000A14890F900C0012005FB0CF303F522427E
:10D500009112F6F7A3FE002F54D10FFA8BF3312BB3
:10D510003FF71BAE08F101085FFA88F0273D07903E
:10D52000039512E6954DB820D82105223B4600957B
:10D5300000F0BEFAD9F800009149039E3B463A46F6
:10D54000DFF840C28B4D4FF480680CF80320EA549A
:10D5500021F8028FB0F804E001339E45F0DA4FF075
:10D56000000803964546FFF764BA5FFA8BFE0DF19B
:10D570004C08AEF12801404649B2CDF814E007F05E
:10D580000BFD6FF0130C0CFB05F64FF6FE72A63682
:10D5900006EA02012D2001230522CDF8008000F0CB
:10D5A00087FA7849DDF81480485D2830C8EB00031D
:10D5B0004B553EE5012F7FF4C8AD0FFA8AFCBCF154
:10D5C000310F3FF7C2AD079E4FF00008721CD1B279
:10D5D000079103974546FFF72CBADFF8C0A1DFF8A3
:10D5E000C0B1A6264FF000083146F520002340F2D6
:10D5F0000512CDF800A000F05BFA3146002340F29E
:10D60000211040F20512CDF800A000F051FA314689
:10D6100000234FF4A77040F20512CDF800B000F0DF
:10D6200047FAD9F8001008F10108B1F804C01FFA50
:10D6300088F8143EC445B6B2D6D200260396FFF74A
:10D640002EBA0DF14C080AF1600E40464FFA8EF1E9
:10D6500007F0A2FC6FF0130000FB05F64FF6FE7C0E
:10D66000A63606EA0C0140F2211040F205123B46B4
:10D67000CDF8008000F01CFA0FFA8AF39A02DFF866
:10D68000F880A2F51E3118F80500A1F5F66C6FF0D0
:10D690009F069CFBF6F31A1808F80520FFF7B5BBA8
:10D6A0005FFA8AFEAEF128060DF14C08404671B2D1
:10D6B000CDF814E007F070FC6FF0130000FB05F2EA
:10D6C0004FF6FE7CA63202EA0C01F520002340F260
:10D6D0000512CDF8008000F0EBF9BAF1280FDDF863
:10D6E00014C03FF482A928494A5D2832CCEB0203DA
:10D6F0004B55FFF778B90DF14C0C4FF0000E60461A
:10D700007146224A0323CDF814C0CDF800E007F09B
:10D710007FF8DDF814C08CE50022D9F8000013462C
:10D720001146B0F804E0734571DC164D184FE9540A
:10D73000184D4FF48066BE52AE52DFF83880124C5E
:10D740000D4E08F80310E154F15402320133E8E7BA
:10D75000114C06F0B5FB0820D82140F20542002309
:10D76000009400F0A5F92AE50022D9F8001013462C
:10D770003DE000BF383F0020443F00205CBF01086F
:10D78000E63E0020503F00205C3F0020183600207D
:10D79000E83E0020FC3E002054C10108D0C0010832
:10D7A000BCD201081FAF0EAE17F80380DFF8ACC182
:10D7B000B75A1CAC6148E45C2CF80270604F00F86A
:10D7C000038019AD0DF124080DF1580E38F802C090
:10D7D000ED5C1EF803E0FC545A4EDFF884815A4C8D
:10D7E000F55428F802C004F803E002320133B1F81E
:10D7F00004C06345D6DD554C06F062FB0820D821F5
:10D8000040F205420023009400F052F9D7E4504C56
:10D8100006F056FB0820D82140F205420023009470
:10D8200000F046F9CBE44B4EB820D82140F2051267
:10D830000023009600F03CF90023D9F80000464987
:10D840001A46039E0AE03E4DDFF8FC804FF4806EDE
:10D85000EA5408F8032021F802EF0133B0F804C0BD
:10D860006345F0DD7BE60AF1600E0DF14C084FFADE
:10D870008EF1404607F090FB6FF0130202FB05F1BA
:10D880004FF6FE76A631002340F22110314040F2DF
:10D890000512CDF8008000F00BF90FFA8AF3A02BE7
:10D8A0003FF483AA9B02DFF8A080A3F51E3218F88C
:10D8B0000500A2F5F6666FF09F0196FBF1F303EB0E
:10D8C000000C08F805C0FFF76EBA5FFA8AFEAEF1E9
:10D8D00028030DF14C08404659B2CDF814E007F08A
:10D8E0005BFB6FF0130101FB05F64FF6FE72CDF8FE
:10D8F0000080A636DFF84880F52006EA02013B46A4
:10D9000040F2051200F0D4F818F80500DDF814C054
:10D910002830CCEB000308F80530FFF78ABBDFF8AE
:10D9200044C000234FF4A470D82140F20512CDF872
:10D9300000C0079300F0BCF8FFF77BB8503F002011
:10D940005C3F0020383F0020443F002020C10108F8
:10D9500088C1010864BF0108FA3E0020E83E0020AB
:10D96000FC3E00207CC001082238034B01EBC001C3
:10D9700033F81100704700BFBCC1010802490B1801
:10D9800093F8D005704700BFBCC101082DE9F047EE
:10D990000E4606F10A0700F10A0198461546BBB289
:10D9A000324689B2F6F73AFC08EB880008EB4004EF
:10D9B0003D4B04F1FF393D4E2F0A03EB49094FF06F
:10D9C0000B0805F00F0539F8024F14F0010F0CBFDA
:10D9D00036F8150036F81700F6F71AFC14F0020FA7
:10D9E0000CBF36F8150036F81700F6F711FC14F0E6
:10D9F000040F0CBF36F8150036F81700F6F708FCD0
:10DA000014F0080F0CBF36F8150036F81700F6F7BB
:10DA1000FFFB14F0100F0CBF36F8150036F8170096
:10DA2000F6F7F6FB14F0200F0CBF36F8150036F8A9
:10DA30001700F6F7EDFB14F0400F0CBF36F8150099
:10DA400036F81700F6F7E4FB14F0800F0CBF36F839
:10DA5000150036F81700F6F7DBFB14F4807F0CBFD7
:10DA600036F8150036F81700F6F7D2FB14F4007FED
:10DA70000CBF36F8150036F81700F6F7C9FB14F49A
:10DA8000806F0CBF36F8150036F81700F6F7C0FBAC
:10DA9000B8F1010897D1404640F28F114246EF237A
:10DAA000BDE8F047F6F7BABBB8C801080C31002052
:10DAB0002DE9F04F0D4601F10A0617461C468BB0C2
:10DAC0002A4640F28F11B3B2DDF850A03D0AF6F7B6
:10DAD000A5FB002C00F0A781B24E36F81500F6F732
:10DAE00097FB36F81500F6F793FB36F81500F6F7B6
:10DAF0008FFB36F81500F6F78BFB36F81500F6F7B6
:10DB000087FB36F81500F6F783FB36F81500F6F7B5
:10DB10007FFB36F81500F6F77BFB36F81500F6F7B5
:10DB200077FB36F81500F6F773FB36F81500F6F7B5
:10DB30006FFB9AF80030002B00F0BF8007F00F0752
:10DB40004FF000099AF80030CDF824A0A3F120008E
:10DB5000C2B2012A40F20481223B934909EBC30877
:10DB600031F9188018F4806F00F02781002C00F044
:10DB7000168136F81700F6F74BFB4FEAC8120492ED
:10DB80004FEA082202924FEA880C4FEA4822039299
:10DB90004FEA081E0CF4806208920EF480624FEA8D
:10DBA00048100792049A4FEA881100F4806001F44B
:10DBB0008061069002F480600591049002990398B8
:10DBC0004FEA48034FEAC80B01F480624FEA882805
:10DBD00000F4806103F480630BF4806B0292039184
:10DBE00008F48068002B40F0B380002C40F0B38034
:10DBF00036F81700F6F70CFB0899002940F0A080D2
:10DC0000002C40F0A08036F81700F6F701FBBBF1BE
:10DC1000000F40F08D80002C40F08D8036F817000A
:10DC2000F6F7F6FA079800287BD1002C7BD136F85E
:10DC30001700F6F7EDFA069B002B6BD1002C6BD189
:10DC400036F81700F6F7E4FA059A002A5BD1002CA3
:10DC50005BD136F81700F6F7DBFA049900294BD1AF
:10DC6000002C4BD136F81700F6F7D2FA02980028AC
:10DC70003BD1002C3BD136F81700F6F7C9FA039BCD
:10DC8000002B2BD1002C2BD136F81700F6F7C0FA59
:10DC9000B8F1000F1BD1E4B936F81700F6F7B8FA5F
:10DCA00009F10109B9F1080F7FF44CAF09990AF1A4
:10DCB000010A4A78002A7FF443AF002040F28F1116
:10DCC0000246EF230BB0BDE8F04FF6F7A7BA002CE1
:10DCD000E2D136F81500F6F79BFAE1E7002CD3D134
:10DCE00036F81500F6F794FAD2E7002CC3D136F8CF
:10DCF0001500F6F78DFAC2E7002CB3D136F81500FF
:10DD0000F6F786FAB2E7002CA3D136F81500F6F73D
:10DD10007FFAA2E7002C93D136F81500F6F778FACF
:10DD200092E7002C83D136F81500F6F771FA82E7F6
:10DD3000002C7FF473AF36F81500F6F769FA71E737
:10DD4000002C7FF460AF36F81500F6F761FA5EE755
:10DD5000002C7FF44DAF36F81500F6F759FA4BE773
:10DD6000212B02D1B9F1040FA0D04FF00008CDF85B
:10DD70000C80CDF80880CDF81080CDF81480CDF857
:10DD80001880CDF81C80C346CDF8208043466CB186
:10DD900036F815000193F6F73BFA019B22E736F8B7
:10DDA0001500E8E60C310020BCC1010836F8170068
:10DDB0000193F6F72DFA019B14E74FEAC81204927B
:10DDC0004FEA082202924FEA880C4FEA4822039257
:10DDD0004FEA081E0CF480624FEA881108920EF494
:10DDE00080624FEA4810079201F48062049900F4BF
:10DDF0008060069001F4806005920490029A039876
:10DE00004FEA48034FEAC80B02F480614FEA8828C2
:10DE100000F4806203F480630BF4806B0291039240
:10DE200008F48068B3E7184E07F00F0836F81800BA
:10DE3000F6F7EEF936F81800F6F7EAF936F81800B2
:10DE4000F6F7E6F936F81800F6F7E2F936F81800B2
:10DE5000F6F7DEF936F81800F6F7DAF936F81800B2
:10DE6000F6F7D6F936F81800F6F7D2F936F81800B2
:10DE7000F6F7CEF936F81800F6F7CAF936F81800B2
:10DE8000F6F7C6F955E600BF0C3100202DE9F04F3A
:10DE90000B288BB0044604D953490B88834280F089
:10DEA000B580F6F7C3F90D212046F6F7AFF914F067
:10DEB000010F40F048814C4D601C2B88984201F0C6
:10DEC000AA810A2C21D04949A4F10A0381FB03C08D
:10DED000D917C218C1EB221CCCEB0C1EB3EB4E0FB2
:10DEE00001F02C81424880FB0302C1EB020C0CEBD9
:10DEF0004C0EB3EB4E0F0CBF3E483F483F49F6F780
:10DF000097F90C2C00F060812B88013BA34200F0B4
:10DF10005B813B4B93F892E21EF0040F0BD1384E1D
:10DF2000384AB6F99012384832F81160008946EA4A
:10DF3000000C22F811C093F8A6E21EF0040F0BD1DA
:10DF40002F4E304AB6F9A4122F4832F811600089DA
:10DF500046EA000C22F811C00B2C04D9B5F800E0F9
:10DF6000A64500F2B581B3F81802C0F1A10210B2C3
:10DF70000B280DDDA04201F01781411EA14201F0E6
:10DF80008B80421CA24201F08780A04201F08F806A
:10DF9000B3F830030B3000B2A04201F09880411E6C
:10DFA000A14200F03981421CA24200F03581A0421A
:10DFB00000F03D81B3F844330B3319B2A14200F0B5
:10DFC00045814A1EA24200F015814B1CA34200F07D
:10DFD0001181A14200F017810A48C9210BB0BDE8A8
:10DFE000F04FF6F71FB900BFE24200208988888809
:10DFF000ABAAAA2ACCCD010810C90108E44200202E
:10E00000083200206C3F00200C310020A0F10C02EF
:10E010009500A94B0B3880002DB25E5D00B21A5CF2
:10E020000027C72E31468DF818708DF820608DF8C6
:10E03000212001F21E80012E41F29582C72A01F2B1
:10E040002080012A41F2A2828A4201F015818A428F
:10E050003CBF8DF821108DF8202003EB050E9EF8B3
:10E06000016003EB000C9CF801200027C72E31460D
:10E070008DF81A708DF822608DF8232001F28D80C2
:10E08000012E41F27D82C72A01F28080012A41F2ED
:10E090008A828A4201F0D980914284BF8DF8231090
:10E0A0008DF8222003EB050C9CF802601F18BA784B
:10E0B0000027C72E31468DF81C708DF824608DF82E
:10E0C000252001F25C80012E41F26782C72A01F20D
:10E0D0004F80012A41F24D828A4201F0E4808A4257
:10E0E0003CBF8DF825108DF824205D19E9781B18A8
:10E0F000DB780020C7290A468DF81E008DF826100F
:10E100008DF8273041F22A80C7228DF82620DBB215
:10E11000C72B41F21980C7239DF826208DF82730A0
:10E12000934201F07E809A4284BF8DF827208DF8BB
:10E130002630F6F77BF80D212046F6F767F814F045
:10E14000010F3FF4B8AE5D485D49F6F771F80B2C4E
:10E1500000F2408441F0BE805A495B4BB1F9900215
:10E160005A4A441E33F81460B2F808E0451C4EEADF
:10E17000060623F8146033F810C0B1F9A4224EEA61
:10E180000C0423F8104033F815C0511E4EEA0C0061
:10E1900023F8150033F81150501C4EEA050523F8FA
:10E1A000115033F812404EEA040423F8124033F8B9
:10E1B00010104EEA010C23F810C04348C9210BB0DF
:10E1C000BDE8F04FF6F72EB83E4B3D4AB3F99062EA
:10E1D0003E4832F81670B0F808C0B3F9A4124CEA01
:10E1E000070722F8167032F811604CEA060E22F882
:10E1F00011E08FE6354A324B1089A142A3F8900115
:10E2000018807FF4E9AE314B2D481989A0F89011A0
:10E21000A0F88E114180DFE62C49294AB1F808E0C8
:10E22000A042A2F890E1A2F800E07FF4C3AEB3F8F8
:10E23000443326490B330889214A19B2A142A2F876
:10E240009001A2F88E0150807FF4BBAE1D4890F87B
:10E2500046C31CF0040F7FF4B4AE194F1B4EB7F841
:10E2600002E03289BB1D42EA0E0507F5C9767D80C2
:10E27000B3F802C01D8942EA0C0E42EA0507D889AC
:10E28000A3F802E01F81B3F814E05F8B42EA000CB0
:10E2900042EA0E05188C42EA0707A3F80EC09D82D9
:10E2A00003F11E0C5F83243342EA0005B342ACF84D
:10E2B0000250DDD185E600BFC88F002010C90108DB
:10E2C0006C3F002008320020E44200200C31002086
:10E2D0009DF81810002940F0D980B3F91020002AC9
:10E2E00000F0D4809DF821009DF82020C2EB000CA6
:10E2F000BCF1050F01F31C839042C0F2C780DFF828
:10E300001883811A08EB420C4E1CC24DCCF340011D
:10E31000B14228BF31462D88174649B138F81280DE
:10E32000013245EA08088E42ACF8008000F0AE8069
:10E33000761A4FEA560B4FEA4B090396CDF8109028
:10E34000BBF1000F62D0DFF8D0A27F180AEB4708BC
:10E350004146002751F804CB65F30F0765F31F47CB
:10E3600047EA0C0CC8F800C04FF0010C0BF1FF3E5F
:10E37000E3450EF003080E4642D9B8F1000F1FD056
:10E38000B8F1010F12D0B8F1020F07D051F804EB29
:10E390004FF0020C47EA0E0846F8048B51F804EBE4
:10E3A0000CF1010C47EA0E0846F8048B51F8048B77
:10E3B0000CF1010C47EA0808E34546F8048B1FD925
:10E3C00082469946884658F8040BB64647EA000349
:10E3D0004EF8043B48680CF1040C47EA00037360F4
:10E3E000D8F8040047EA0003CEF80430C8681031BA
:10E3F00047EA0003F3601036E345E3D850464B4646
:10E40000DDF810C00399624461453FD08249861A05
:10E4100001EB42010F8801322F43904221F8027B29
:10E4200006F0030632DBBEB1012E0ED0022E05D05F
:10E430000E88013246EA050C21F802CBB1F800C083
:10E4400001324CEA050E21F802EB0E8801322E4310
:10E45000904221F8026B19DBB1F800C00E464CEA7D
:10E46000050726F8027BB1F802E077884EEA050C32
:10E47000A6F800C0B1F806E02F4304328F804EEAC0
:10E4800005060831904221F8026CE5DA9DF81A2061
:10E49000002A40F0DD80B3F96000002800F0D88049
:10E4A0009DF823009DF82220811A052901F3888018
:10E4B0009042C0F2CD80DFF86081811A08EB420CF7
:10E4C0004E1C544DCCF34001B14228BF31466D88FB
:10E4D000174649B138F81280013245EA08088E42E1
:10E4E000ACF8008000F0B480761A4FEA560B4FEA81
:10E4F0004B090396CDF81090BBF1000F62D0DFF806
:10E5000018A17F180AEB47084146002751F804CBB1
:10E5100065F30F0765F31F4747EA0C0CC8F800C006
:10E520004FF0010C0BF1FF3EE3450EF003080E46E1
:10E5300042D9B8F1000F1FD0B8F1010F12D0B8F1D5
:10E54000020F07D051F804EB4FF0020C47EA0E0817
:10E5500046F8048B51F804EB0CF1010C47EA0E0865
:10E5600046F8048B51F8048B0CF1010C47EA0808BB
:10E57000E34546F8048B1FD982469946884658F8E9
:10E58000040BB64647EA00034EF8043B48680CF11A
:10E59000040C47EA00037360D8F8040047EA00035C
:10E5A000CEF80430C868103147EA0003F360103633
:10E5B000E345E3D850464B46DDF810C0039962446A
:10E5C000614545D01449861A01EB42010F8801329A
:10E5D0002F43904221F8027B06F0030638DBEEB1B0
:10E5E000012E0ED0022E05D00E88013246EA050C0F
:10E5F00021F802CBB1F800C001324CEA050E21F837
:10E6000002EB0E8801322E43904221F8026B1FDB91
:10E6100004E000BF0C3100206C3F0020B1F800C0C6
:10E620000E464CEA050726F8027BB1F802E077882F
:10E630004EEA050CA6F800C0B1F806E02F430432FC
:10E640008F804EEA05060831904221F8026CE5DA27
:10E650009DF81C20002A40F0D780B3F9B0000028B4
:10E6600000F0D2809DF825009DF82420811A05290C
:10E6700001F382809042C0F2C780DFF81C83811AC8
:10E6800008EB420C4E1CC34DCCF34001B14228BFF5
:10E690003146AD88174649B138F81280013245EA53
:10E6A00008088E42ACF8008000F0AE80761A4FEA7F
:10E6B000560B4FEA4B090396CDF81090BBF1000FB3
:10E6C00062D0DFF8D4A27F180AEB47084146002742
:10E6D00051F804CB65F30F0765F31F4747EA0C0CAD
:10E6E000C8F800C04FF0010C0BF1FF3EE3450EF0FF
:10E6F00003080E4642D9B8F1000F1FD0B8F1010F40
:10E7000012D0B8F1020F07D051F804EB4FF0020C11
:10E7100047EA0E0846F8048B51F804EB0CF1010CA3
:10E7200047EA0E0846F8048B51F8048B0CF1010CF3
:10E7300047EA0808E34546F8048B1FD98246994604
:10E74000884658F8040BB64647EA00034EF8043BE7
:10E7500048680CF1040C47EA00037360D8F8040021
:10E7600047EA0003CEF80430C868103147EA0003D6
:10E77000F3601036E345E3D850464B46DDF810C051
:10E780000399624461453FD08349861A01EB4201F7
:10E790000F8801322F43904221F8027B06F00306D6
:10E7A00032DBBEB1012E0ED0022E05D00E88013212
:10E7B00046EA050C21F802CBB1F800C001324CEA60
:10E7C000050E21F802EB0E8801322E43904221F80B
:10E7D000026B19DBB1F800C00E464CEA050726F8BB
:10E7E000027BB1F802E077884EEA050CA6F800C07B
:10E7F000B1F806E02F4304328F804EEA0506083157
:10E80000904221F8026CE5DA9DF81E20002A7FF480
:10E81000AAABB3F9000100283FF4A5AB9DF827008F
:10E820009DF82620811A052901F35C819042FFF6AC
:10E830009AABDFF86481811A08EB420C4E1C554DEF
:10E84000CCF34001B14228BF3146ED88174649B1AB
:10E8500038F81280013245EA08088E42ACF8008090
:10E860003FF481AB761A4FEA560B4FEA4B090396F9
:10E87000CDF81090BBF1000F63D0DFF81CA17F181A
:10E880000AEB47084146002751F804CB65F30F0710
:10E8900065F31F4747EA0C0CC8F800C04FF0010CA5
:10E8A0000BF1FF3EE3450EF003080E4642D9B8F1E6
:10E8B000000F1FD0B8F1010F12D0B8F1020F07D02E
:10E8C00051F804EB4FF0020C47EA0E0846F8048BAF
:10E8D00051F804EB0CF1010C47EA0E0846F8048BE2
:10E8E00051F8048B0CF1010C47EA0808E34546F89F
:10E8F000048B1FD982469946884658F8040BB646C1
:10E9000047EA00034EF8043B48680CF1040C47EA60
:10E9100000037360D8F8040047EA0003CEF804301F
:10E92000C868103147EA0003F3601036E345E3D8C6
:10E9300050464B46DDF810C00399624461453FF4F0
:10E9400012AB1549861A01EB42010F8801322F43A1
:10E95000904221F8027B06F00306FFF604ABEEB10D
:10E96000012E0ED0022E05D00E88013246EA050C8B
:10E9700021F802CBB1F800C001324CEA050E21F8B3
:10E9800002EB0E8801322E43904221F8026BFFF613
:10E99000EAAA03E00C3100206C3F0020B1F800C06F
:10E9A0000E464CEA050726F8027BB1F802E07788AC
:10E9B0004EEA050CA6F800C0B1F806E02F43043279
:10E9C0008F804EEA05060831904221F8026CE5DAA4
:10E9D000FFF7C9BAC84A13889C4280F045839DF866
:10E9E0001850002D00F08884C44B9DF81A1000299F
:10E9F00040F0F480B3F96070002F00F0EF809DF8D4
:10EA000023509DF82210681A052801F335848D42A1
:10EA1000C0F2E480DFF8ECA2C1EB050B0AEB410881
:10EA20000BF1010CC8F34000B54F604528BF6046AC
:10EA30007F888B4648B13AF81190013147EA0909BD
:10EA40008445A8F8009000F0C980C0EB0C084FEA9C
:10EA50005806CDF810804FEA46080396CDF814808A
:10EA6000002E73D0DFF89CC20BEB000A0CEB4A0AB5
:10EA700050464FF0000C50F8048B67F30F0C039EC8
:10EA800067F31F4C4CEA08094FF0010806F1FF3EFE
:10EA90004645CAF800900EF00309019050D9B9F12B
:10EAA000000F01F0D285B9F1010F18D0B9F1020FB2
:10EAB0000BD050F804EBDDF804A04CEA0E094AF83C
:10EAC000049B4FF00208CDF804A050F8049B019E6F
:10EAD0004CEA090A46F804AB08F10108019650F81F
:10EAE00004EBDDF804A0039E08F101084CEA0E09CE
:10EAF0004AF8049B4645CDF804A021D95646AB46BA
:10EB00009A46814659F8045BB6464CEA05034EF82E
:10EB1000043B456808F104084CEA05037360D9F822
:10EB200004504CEA0503CEF80430C36810304CEAB8
:10EB30000305039BF56010364345E2D85D46534616
:10EB40000598DDF810800918804547D0DFF8B491AA
:10EB50006E1A09EB4100B0F800E001314EEA070CF3
:10EB60008D4220F802CB06F0030637DBCEB1012E32
:10EB70000ED0022E05D00688013146EA070C20F897
:10EB800002CBB0F800C001314CEA070E20F802EBCE
:10EB9000B0F800E001314EEA07068D4220F8026B22
:10EBA0001CDBB0F800C006464CEA070E26F802EB64
:10EBB000B0F80280B6F802C048EA0708A6F800805C
:10EBC000B0F806E04CEA070C0431A0F804C04EEAA5
:10EBD000070608308D4220F8026CE2DA9DF81C101E
:10EBE000002940F0FE80B3F9B070002F00F0F980EA
:10EBF0009DF825509DF82410681A052801F34682D7
:10EC00008D42C0F2EE80DFF8FCA0C1EB050B0AEBF1
:10EC100041080BF1010CC8F34000394F604528BF93
:10EC20006046BF888B4648B13AF81190013147EAF7
:10EC300009098445A8F8009000F0D380C0EB0C08C7
:10EC40004FEA5806CDF810804FEA46080396CDF8F3
:10EC50001480002E7DD0DFF8ACC00BEB000A0CEB6B
:10EC60004A0A50464FF0000C50F8048B67F30F0C23
:10EC7000039E67F31F4C4CEA08094FF0010806F1A8
:10EC8000FF3E4645CAF800900EF0030901905AD99C
:10EC9000B9F1000F01F0EB84B9F1010F18D0B9F10F
:10ECA000020F0BD050F804EBDDF804A04CEA0E097B
:10ECB0004AF8049B4FF00208CDF804A050F8049BDA
:10ECC000019E4CEA090A46F804AB08F101080196D6
:10ECD00050F804EBDDF804A0039E08F101084CEAAB
:10ECE0000E094AF8049B4645CDF804A02BD9564698
:10ECF000AB469A4608E000BFE242002008320020FE
:10ED00000C310020E4420020814659F8045BB646ED
:10ED10004CEA05034EF8043B456808F104084CEA48
:10ED200005037360D9F804504CEA0503CEF80430AB
:10ED3000C36810304CEA0305039BF5601036434569
:10ED4000E2D85D4653460598DDF8108009188045E5
:10ED500047D0DFF840936E1A09EB4100B0F800E0AD
:10ED600001314EEA070C8D4220F802CB06F0030673
:10ED700037DBCEB1012E0ED0022E05D00688013130
:10ED800046EA070C20F802CBB0F800C001314CEA8B
:10ED9000070E20F802EBB0F800E001314EEA07065A
:10EDA0008D4220F8026B1CDBB0F800C006464CEA2E
:10EDB000070E26F802EBB0F80280B6F802C048EA67
:10EDC0000708A6F80080B0F806E04CEA070C04310A
:10EDD000A0F804C04EEA070608308D4220F8026C05
:10EDE000E2DA9DF81E10002940F0F480B3F90071BA
:10EDF000002F00F0EF809DF827509DF82610681A2C
:10EE0000052801F350808D42C0F2E480DFF884A22F
:10EE1000C1EB050B0AEB41080BF1010CC8F34000F4
:10EE20009B4F604528BF6046FF888B4648B13AF843
:10EE30001190013147EA09098445A8F8009000F0D3
:10EE4000C980C0EB0C084FEA5806CDF810804FEA95
:10EE500046080396CDF81480002E73D0DFF834C234
:10EE60000BEB000A0CEB4A0A50464FF0000C50F82E
:10EE7000048B67F30F0C039E67F31F4C4CEA0809E1
:10EE80004FF0010806F1FF3E4645CAF800900EF02B
:10EE90000309019050D9B9F1000F01F0E383B9F1F2
:10EEA000010F18D0B9F1020F0BD050F804EBDDF8C8
:10EEB00004A04CEA0E094AF8049B4FF00208CDF872
:10EEC00004A050F8049B019E4CEA090A46F804ABE2
:10EED00008F10108019650F804EBDDF804A0039E48
:10EEE00008F101084CEA0E094AF8049B4645CDF8A2
:10EEF00004A021D95646AB469A46814659F8045B90
:10EF0000B6464CEA05034EF8043B456808F1040890
:10EF10004CEA05037360D9F804504CEA0503CEF8B7
:10EF20000430C36810304CEA0305039BF5601036CB
:10EF30004345E2D85D4653460598DDF81080091830
:10EF4000804547D0DFF84C916E1A09EB4100B0F8CC
:10EF500000E001314EEA070C8D4220F802CB06F0AA
:10EF6000030637DBCEB1012E0ED0022E05D0068867
:10EF7000013146EA070C20F802CBB0F800C001319D
:10EF80004CEA070E20F802EBB0F800E001314EEA3F
:10EF900007068D4220F8026B1CDBB0F800C0064665
:10EFA0004CEA070E26F802EBB0F80280B6F802C071
:10EFB00048EA0708A6F80080B0F806E04CEA070C1B
:10EFC0000431A0F804C04EEA070608308D4220F84C
:10EFD000026CE2DAB3F84012002940F09D822C4D19
:10EFE0002C49B5F92070288831F8176046EA0005E9
:10EFF00021F81750B3F818E2CEF1A10005B20B2D9D
:10F000000DDDA54200F01687691EA14200F0E186E1
:10F01000681CA04200F0DD86A54200F0FD86B3F832
:10F0200030630B3637B2A74200F04086791EA1420A
:10F0300000F08982781CA04200F08582A74200F08F
:10F04000A586B3F844330B331EB2A64200F06686A1
:10F05000731EA34200F07082711CA14200F06C820A
:10F06000A64200F0168613889C427FF4A6A8FFF7FC
:10F0700073B89DF82120C721C72A8DF820107EF68D
:10F08000E0AFC7229DF820108DF82120FEF7DCBFED
:10F090000C310020E44200209049914AB1F80CC0A4
:10F0A000A042A2F890C1A2F800C07EF471AF8B49D3
:10F0B0008B4A8889A2F89001A2F88E0150801080B6
:10F0C000B3F830030B3000B2A0427EF468AF854A3B
:10F0D00092F832E31EF0040F7EF461AF804E7F4F52
:10F0E000B6F802C03989B21D41EA0C0506F5C977A8
:10F0F0007580B2F802C0B2F808E041EA0C06B2F836
:10F100000EC0568041EA0E0541EA0C06B2F814E042
:10F11000B2F81AC01581D68141EA0E0541EA0C0603
:10F12000B2F820E09582568302F11E05243241EAAE
:10F130000E06BA426E80DCD1FEF731BF6A486B49D9
:10F14000F5F776F8FEF7DDBE012B3EF6E9AF0123B9
:10F150009DF826208DF82730FEF7E2BF01293EF604
:10F16000D7AF01229DF827308DF82620FEF7D0BFBB
:10F17000C7229DF824108DF82520FEF7ADBFC721CA
:10F180009DF825208DF82410FEF7A0BFC7229DF81A
:10F1900022108DF82320FEF77CBFC7219DF8232085
:10F1A0008DF82210FEF76FBF4E4A92F81A1211F036
:10F1B000040F7EF4E2AE4A4E484FB6F802E0B98939
:10F1C000B21D41EA0E0506F5C9777580B2F802E076
:10F1D000B2F808C041EA0E06B2F80EE0568041EAE5
:10F1E0000C0541EA0E06B2F814C0B2F81AE0158117
:10F1F000D68141EA0C0541EA0E06B2F820C095829C
:10F20000568302F11E05243241EA0C06BA426E8092
:10F21000DCD1FEF7B2BE36483449F5F709F8FEF7FF
:10F2200070BE012B00F06981C72B00F06681012BB5
:10F2300004D95A1E9DF827308DF82620C62B40F29F
:10F24000C0859DF82620FEF76EBF012A00F05F8181
:10F25000C72A00F05C81511E9DF82320C9B2C62A3E
:10F260008DF822103EF618AF561CF2B28DF823200E
:10F270009DF82210FEF710BF012A00F04381C72A33
:10F2800000F04081012A04D9571E9DF821208DF8F5
:10F290002070C62A03D8511CCAB28DF821209DF8CF
:10F2A0002010FEF7D4BE012A00F02281C72A00F008
:10F2B0001F81012A04D9013A8DF824209DF82520C8
:10F2C000C62A03D8511CCAB28DF825209DF82410F7
:10F2D000FEF705BF074A1388C6E600BF0C310020C1
:10F2E0006C3F00200832002038CC0108E4420020A6
:10F2F000A4CA0108E2420020AE4BB3F91060002E10
:10F300003FF473AB9DF821509DF82010C1EB050E22
:10F31000BEF1050F01F3A4808D42FFF666ABDFF866
:10F320009CA2C1EB050B0AEB41080BF1010CC8F3E1
:10F330004000A14F604528BF60463F888B4648B1DA
:10F340003AF81190013147EA09098445A8F800907C
:10F350003FF44BABC0EB0C084FEA5806CDF81080D9
:10F360004FEA46080396CDF81480002E74D0DFF8DB
:10F370004CC20BEB000A0CEB4A0A50464FF0000C53
:10F3800050F8048B67F30F0C039E67F31F4C4CEA95
:10F3900008094FF0010806F1FF3E4645CAF8009003
:10F3A0000EF00309019050D9B9F1000F01F064810A
:10F3B000B9F1010F18D0B9F1020F0BD050F804EBDE
:10F3C000DDF804A04CEA0E094AF8049B4FF002084D
:10F3D000CDF804A050F8049B019E4CEA090A46F8B7
:10F3E00004AB08F10108019650F804EBDDF804A025
:10F3F000039E08F101084CEA0E094AF8049B4645B1
:10F40000CDF804A021D95646AB469A46814659F814
:10F41000045BB6464CEA05034EF8043B456808F128
:10F4200004084CEA05037360D9F804504CEA05035C
:10F43000CEF80430C36810304CEA0305039BF56036
:10F4400010364345E2D85D4653460598DDF81080F6
:10F45000091880453FF4C9AADFF860916E1A09EBDC
:10F460004100B0F800E001314EEA070C8D4220F86F
:10F4700002CB06F00306FFF6B8AAD6B1012E0ED0D5
:10F48000022E05D00688013146EA070C20F802CB8F
:10F49000B0F800C001314CEA070E20F802EBB0F8DA
:10F4A00000E001314EEA07068D4220F8026BFFF6BC
:10F4B0009CAAB0F800C006464CEA070E26F802EBFC
:10F4C000B0F80280B6F802C048EA0708A6F8008043
:10F4D000B0F806E04CEA070C0431A0F804C04EEA8C
:10F4E000070608308D4220F8026CE2DAFFF77DBA99
:10F4F00001228DF81C20FEF7F8BD01218DF81E10A9
:10F50000FEF7CFBC01268DF81860FEF7A6BD0122DC
:10F510008DF81A20FEF7C6BD09B2012940F06384B8
:10F52000254E264FB6F924E0718837F81E0040EAD0
:10F53000010C27F81EC05DE51F49204B0889A3F880
:10F54000900118808CE51D491B48B1F89051B0F826
:10F5500008E00E884EEA05054EEA060CA1F8905127
:10F56000A1F800C06AE501218DF82010D2B2FEF7A3
:10F5700065BD01228DF825209DF82410FEF7ACBD55
:10F5800001218DF82210D2B2FEF77DBD01228DF847
:10F5900021209DF82010FEF757BD01218DF8241081
:10F5A000D2B2FEF793BD01228DF823209DF82210E0
:10F5B000FEF76FBD083200200C310020E44200202D
:10F5C0009042FFF645A86A496A4FB1F802E007EB9E
:10F5D000420C861A0136CCF34001AEF50275B142F9
:10F5E00028BF3146ADB2174659B1DFF8889139F8D6
:10F5F0001280013245EA08088E42ACF800803FF4E0
:10F6000027A8761A4FEA560B4FEA4B0A0396CDF815
:10F6100010A0BBF1000F62D0DFF858E17F180EEBAD
:10F6200047084146002751F804CB65F30F0765F3FF
:10F630001F474CEA070CC8F800C04FF0010C0BF153
:10F64000FF3EE3450EF003080E4642D9B8F1000F25
:10F650001FD0B8F1010F12D0B8F1020F07D051F846
:10F6600004EB4FF0020C4EEA070846F8048B51F801
:10F6700004EB0CF1010C4EEA070846F8048B51F834
:10F68000048B0CF1010C48EA0708E34546F8048BAB
:10F690001FD982469946884658F8040BB64640EA78
:10F6A00007034EF8043B48680CF1040C40EA0703DA
:10F6B0007360D8F8040040EA0703CEF80430C86845
:10F6C000103140EA0703F3601036E345E3D85046B3
:10F6D0004B460499039E52188E423EF4B9AF254F13
:10F6E000861A07EB4201B1F800C0013245EA0C0767
:10F6F000904221F8027B06F00306FEF6A9AFCEB1D8
:10F70000012E0ED0022E05D00E88013245EA060CDD
:10F7100021F802CBB1F800C0013245EA0C0E21F805
:10F7200002EB0E88013245EA0606904221F8026B90
:10F73000FEF68EAFB1F800C00E4645EA0C0726F87B
:10F74000027BB1F802E0778845EA0E0CA6F800C00B
:10F75000B1F806E045EA070704328F8045EA0E0655
:10F760000831904221F8026CE4DAFEF771BF00BF65
:10F770000C3100206C3F00209042FFF645A86A49FA
:10F780006A4FB1F804E007EB420C861AAEF58045EB
:10F790000136CCF34001083DB14228BF3146ADB23D
:10F7A000174659B1DFF8849139F81280013245EAE1
:10F7B00008088E42ACF800803FF426A8761A4FEA7B
:10F7C000560B4FEA4B0A0396CDF810A0BBF1000F81
:10F7D00062D0DFF858E17F180EEB4708414600275A
:10F7E00051F804CB65F30F0765F31F474CEA070C8C
:10F7F000C8F800C04FF0010C0BF1FF3EE3450EF0DE
:10F8000003080E4642D9B8F1000F1FD0B8F1010F1E
:10F8100012D0B8F1020F07D051F804EB4FF0020CF0
:10F820004EEA070846F8048B51F804EB0CF1010C82
:10F830004EEA070846F8048B51F8048B0CF1010CD2
:10F8400048EA0708E34546F8048B1FD982469946E3
:10F85000884658F8040BB64640EA07034EF8043BC6
:10F8600048680CF1040C40EA07037360D8F8040000
:10F8700040EA0703CEF80430C868103140EA0703B5
:10F88000F3601036E345E3D850464B460499039E97
:10F8900052188E423EF4B8AF244F861A07EB42014D
:10F8A000B1F800C0013245EA0C07904221F8027B12
:10F8B00006F00306FEF6A8AFCEB1012E0ED0022E42
:10F8C00005D00E88013245EA060C21F802CBB1F8CA
:10F8D00000C0013245EA0C0E21F802EB0E8801321D
:10F8E00045EA0606904221F8026BFEF68DAFB1F8AC
:10F8F00000C00E4645EA0C0726F8027BB1F802E08C
:10F90000778845EA0E0CA6F800C0B1F806E045EA93
:10F91000070704328F8045EA0E060831904221F82D
:10F92000026CE4DAFEF770BF0C3100206C3F00205F
:10F930009042FEF6ABAD6949DFF8A4910F88861AB4
:10F9400009EB420C0136CCF34001A7F58445B142E6
:10F9500028BF3146ADB2174649B139F8128001329D
:10F9600045EA08088E42ACF800803EF48FAD761A66
:10F970004FEA560B4FEA4B0A0396CDF810A0BBF1A5
:10F98000000F62D0DFF858E17F180EEB47084146C0
:10F99000002751F804CB65F30F0765F31F474CEAC6
:10F9A000070CC8F800C04FF0010C0BF1FF3EE34517
:10F9B0000EF003080E4642D9B8F1000F1FD0B8F17F
:10F9C000010F12D0B8F1020F07D051F804EB4FF03D
:10F9D000020C4EEA070846F8048B51F804EB0CF1D0
:10F9E000010C4EEA070846F8048B51F8048B0CF121
:10F9F000010C48EA0708E34546F8048B1FD9824604
:10FA00009946884658F8040BB64640EA07034EF874
:10FA1000043B48680CF1040C40EA07037360D8F813
:10FA2000040040EA0703CEF80430C868103140EA09
:10FA30000703F3601036E345E3D850464B4604997C
:10FA4000039E52188E423EF421AD254F861A07EBD5
:10FA50004201B1F800C0013245EA0C07904221F89A
:10FA6000027B06F00306FEF611ADCEB1012E0ED0DC
:10FA7000022E05D00E88013245EA060C21F802CB91
:10FA8000B1F800C0013245EA0C0E21F802EB0E88F5
:10FA9000013245EA0606904221F8026BFEF6F6AC0A
:10FAA000B1F800C00E4645EA0C0726F8027BB1F813
:10FAB00002E0778845EA0E0CA6F800C0B1F806E02F
:10FAC00045EA070704328F8045EA0E060831904266
:10FAD00021F8026CE4DAFEF7D9BC00BF0C3100203B
:10FAE0006C3F00209042FEF63EAAC749C74FB1F8CE
:10FAF00006E007EB420C861A0136CCF34001AEF566
:10FB00000075B14228BF3146ADB2174659B1DFF892
:10FB1000FC9239F81280013245EA08088E42ACF8AE
:10FB200000803EF420AA761A4FEA560B4FEA4B0AA1
:10FB30000396CDF810A0BBF1000F62D0DFF8CCE245
:10FB40007F180EEB47084146002751F804CB65F3B8
:10FB50000F0765F31F474CEA070CC8F800C04FF0C9
:10FB6000010C0BF1FF3EE3450EF003080E4642D9AF
:10FB7000B8F1000F1FD0B8F1010F12D0B8F1020F89
:10FB800007D051F804EB4FF0020C4EEA070846F894
:10FB9000048B51F804EB0CF1010C4EEA070846F80F
:10FBA000048B51F8048B0CF1010C48EA0708E3457B
:10FBB00046F8048B1FD982469946884658F8040BAC
:10FBC000B64640EA07034EF8043B48680CF1040CC3
:10FBD00040EA07037360D8F8040040EA0703CEF850
:10FBE0000430C868103140EA0703F3601036E3457B
:10FBF000E3D850464B460499039E52188E423EF479
:10FC0000B2A9824F861A07EB4201B1F800C0013257
:10FC100045EA0C07904221F8027B06F00306FEF647
:10FC2000A2A9CEB1012E0ED0022E05D00E8801322F
:10FC300045EA060C21F802CBB1F800C0013245EAD2
:10FC40000C0E21F802EB0E88013245EA06069042BE
:10FC500021F8026BFEF687A9B1F800C00E4645EA0E
:10FC60000C0726F8027BB1F802E0778845EA0E0C13
:10FC7000A6F800C0B1F806E045EA070704328F8015
:10FC800045EA0E060831904221F8026CE4DAFEF7EC
:10FC90006AB95D4B5E48B3F808E01388A0F890E1BC
:10FCA000A0F88EE1A0F802E0FFF7DEB9594991F81B
:10FCB00032C31CF0040F7FF4B9A9554E5248B6F870
:10FCC0000280008906F5C97C40EA08057580B11DEF
:10FCD000B1F80280B1F808E040EA0806B1F80E80F9
:10FCE0004E8040EA0E0540EA0806B1F814E0B1F88B
:10FCF0001A800D81CE8140EA0E050E8C40EA08087C
:10FD00008D82A1F81A8001F11E05243140EA060E09
:10FD10006145A5F802E0DBD1FFF788B93D4890F8CE
:10FD2000461311F0040F7FF493A9394D364FB5F8FF
:10FD300002C03989AB1D41EA0C0E05F5C977A5F85B
:10FD400002E0B3F802C01D8941EA0C0EB3F80EC000
:10FD5000A3F802E041EA050041EA0C0E9D8AB3F8DF
:10FD60001AC01881A3F80EE041EA050041EA0C0E22
:10FD70001D8C9882A3F81AE003F11E00243341EA97
:10FD80000505BB424580DCD1FFF762B920491E481A
:10FD9000B1F890710089B1F88E614D88B1F800C05A
:10FDA00040EA070740EA060E40EA050540EA0C0C67
:10FDB000A1F89071A1F88EE14D80A1F800C0FFF785
:10FDC00040B9581CC3B29DF826208DF82730FEF7A5
:10FDD000AAB90D4F0E4EB7F80CC0A6F890C1A6F800
:10FDE00000C0FFF719B9022940F04B840648084FBC
:10FDF000B0F928E0B0F804C037F81E1041EA0C054D
:10FE000027F81E50FFF7F6B80C3100206C3F002099
:10FE1000E44200200832002099489A49B0F80CE0EA
:10FE2000A1F890E1A1F88EE1A1F802E0A1F800E0CC
:10FE3000FFF7F5B8944E96F81A7217F0040F7FF496
:10FE4000E3A890498E48B1F802E0808901F5C97CA9
:10FE500040EA0E08A1F802800631B1F802800F894D
:10FE600040EA080EB1F80E80A1F802E040EA070669
:10FE700040EA080E8F8AB1F81A800E81A1F80EE0D0
:10FE800040EA0706B1F820E040EA08088E82A1F8AF
:10FE90001A8001F11E06243140EA0E076145778081
:10FEA000DBD1FFF7B1B88D42FFF694A8744FDFF8AD
:10FEB000D4A1B7F806906E1A0AEB410806F1010CBE
:10FEC000C8F34000A9F5007B604528BF60461FFAD3
:10FED0008BF78B4648B13AF811E0013147EA0E0939
:10FEE0008445A8F800903FF475A8C0EB0C084FEAD1
:10FEF0005806CDF810804FEA46080396CDF81480D6
:10FF0000002E71D0DFF87CC10BEB000A0CEB4A0A23
:10FF100050464FF0000C50F8048B67F30F0C039E13
:10FF200067F31F4C48EA0C0E4FF0010806F1FF3949
:10FF30004645CAF800E009F0030901904DD9B9F12E
:10FF4000000F28D0B9F1010F18D0B9F1020F09D074
:10FF500050F804AB019E4AEA0C0946F8049B4FF0A6
:10FF60000208019650F8049BDDF804A049EA0C0E43
:10FF70004AF804EB08F10108CDF804A050F804EBAE
:10FF8000019E4EEA0C0946F8049B0196039E08F177
:10FF90000108464521D9019EAB469A46814659F84B
:10FFA000045BB64645EA0C034EF8043B456808F18D
:10FFB000040845EA0C037360D9F8045045EA0C03C1
:10FFC000CEF80430C368103043EA0C05039BF5609B
:10FFD00010364345E2D85D4653460598DDF810805B
:10FFE000091880453EF4F6AFDFF898906E1A09EBD9
:10FFF0004100B0F800E0013147EA0E0C8D4220F8D4
:020000040801F1
:1000000002CB06F00306FEF6E5AFD6B1012E0ED008
:10001000022E06D0B0F800E0013147EA0E0620F8C3
:10002000026B0688013147EA060C20F802CBB0F8D3
:1000300000C0013147EA0C0E8D4220F802EBFEF6BB
:10004000C9AFB0F800C0064647EA0C0E26F802EB2E
:10005000B0F80280B6F802C047EA0808A6F80080A7
:10006000B0F806E047EA0C0C0431A0F804C047EAF7
:100070000E0608308D4220F8026CE2DAFEF7AABFC5
:100080000C310020E4420020083200208D42FEF6B0
:10009000A8AE774FDFF8DCA1B7F80490C1EB050BF1
:1000A0000AEB41080BF1010CA9F58046C8F34000AA
:1000B000083E604528BF6046B7B28B4648B13AF863
:1000C00011E0013147EA0E098445A8F800903EF49A
:1000D00088AEC0EB0C084FEA5806CDF810804FEA06
:1000E00046080396CDF81480002E74D0DFF884C142
:1000F0000BEB000A0CEB4A0A50464FF0000C50F88C
:10010000048B67F30F0C039E67F31F4C48EA0C0E39
:100110004FF0010806F1FF394645CAF800E009F042
:100120000309019050D9B9F1000F00F09782B9F19D
:10013000010F18D0B9F1020F0BD050F804EBDDF825
:1001400004A04EEA0C094AF8049B4FF00208CDF8CF
:1001500004A050F8049B019E49EA0C0A46F804AB3F
:1001600008F10108019650F804EBDDF804A0039EA5
:1001700008F101084EEA0C094AF8049B4645CDF8FF
:1001800004A021D95646AB469A46814659F8045BED
:10019000B64645EA0C034EF8043B456808F10408EE
:1001A00045EA0C037360D9F8045045EA0C03CEF815
:1001B0000430C368103043EA0C05039BF560103629
:1001C0004345E2D85D4653460598DDF8108009188E
:1001D00080453EF406AEDFF89C906E1A09EB4100B4
:1001E000B0F800E0013147EA0E0C8D4220F802CB56
:1001F00006F00306FEF6F5ADD6B1012E0ED0022EA6
:1002000005D00688013147EA060C20F802CBB0F889
:1002100000C0013147EA0C0E20F802EBB0F800E014
:10022000013147EA0E068D4220F8026BFEF6D9AD89
:10023000B0F800C0064647EA0C0E26F802EBB0F80C
:100240000280B6F802C047EA0808A6F80080B0F8B5
:1002500006E047EA0C0C0431A0F804C047EA0E0699
:1002600008308D4220F8026CE2DAFEF7BABD00BF1A
:100270000C310020E44200208D42FEF6AFAC764FF8
:10028000DFF8D8A1B7F802906E1A0AEB410806F120
:10029000010CC8F34000A9F5027B604528BF604609
:1002A0001FFA8BF78B4648B13AF811E0013147EA63
:1002B0000E098445A8F800903EF490ACC0EB0C0801
:1002C0004FEA5806CDF810804FEA46080396CDF85D
:1002D0001480002E74D0DFF884C10BEB000A0CEB05
:1002E0004A0A50464FF0000C50F8048B67F30F0C8D
:1002F000039E67F31F4C48EA0C0E4FF0010806F10D
:10030000FF394645CAF800E009F00309019050D9C9
:10031000B9F1000F00F09E81B9F1010F18D0B9F1C9
:10032000020F0BD050F804EBDDF804A04EEA0C09E4
:100330004AF8049B4FF00208CDF804A050F8049B43
:10034000019E49EA0C0A46F804AB08F1010801963F
:1003500050F804EBDDF804A0039E08F101084EEA12
:100360000C094AF8049B4645CDF804A021D956460D
:10037000AB469A46814659F8045BB64645EA0C03FB
:100380004EF8043B456808F1040845EA0C03736025
:10039000D9F8045045EA0C03CEF80430C368103095
:1003A00043EA0C05039BF56010364345E2D85D46F1
:1003B00053460598DDF81080091880453EF40EACD0
:1003C000DFF898906E1A09EB4100B0F800E00131B7
:1003D00047EA0E0C8D4220F802CB06F00306FEF62B
:1003E000FDABD6B1012E0ED0022E05D0068801310C
:1003F00047EA060C20F802CBB0F800C0013147EA0A
:100400000C0E20F802EBB0F800E0013147EA0E06CE
:100410008D4220F8026BFEF6E1ABB0F800C0064654
:1004200047EA0C0E26F802EBB0F80280B6F802C0DC
:1004300047EA0808A6F80080B0F806E047EA0C0C86
:100440000431A0F804C047EA0E0608308D4220F8B7
:10045000026CE2DAFEF7C2BB0C310020E44200205D
:100460008D42FEF6C2AA8F488F4E6F1AB6F800B0C2
:1004700000EB410807F1010CC8F34000ABF58449DB
:10048000604528BF60461FFA89F78B4658B1DFF8F0
:1004900014A23AF811E0013147EA0E098445A8F8A0
:1004A00000903EF4A2AAC0EB0C084FEA5806CDF823
:1004B00010804FEA46080396CDF81480002E74D0C1
:1004C000DFF8E0C10BEB000A0CEB4A0A50464FF094
:1004D000000C50F8048B67F30F0C039E67F31F4C5E
:1004E00048EA0C0E4FF0010806F1FF394645CAF8FC
:1004F00000E009F00309019050D9B9F1000F00F0B4
:10050000A080B9F1010F18D0B9F1020F0BD050F84B
:1005100004EBDDF804A04EEA0C094AF8049B4FF006
:100520000208CDF804A050F8049B019E49EA0C0A89
:1005300046F804AB08F10108019650F804EBDDF829
:1005400004A0039E08F101084EEA0C094AF8049B36
:100550004645CDF804A021D95646AB469A46814679
:1005600059F8045BB64645EA0C034EF8043B45686F
:1005700008F1040845EA0C037360D9F8045045EA11
:100580000C03CEF80430C368103043EA0C05039B1B
:10059000F56010364345E2D85D4653460598DDF8D0
:1005A0001080091880453EF420AADFF8F8906E1AF2
:1005B00009EB4100B0F800E0013147EA0E0C8D4232
:1005C00020F802CB06F00306FEF60FAAD6B1012EE4
:1005D0000ED0022E05D00688013147EA060C20F81D
:1005E00002CBB0F800C0013147EA0C0E20F802EB54
:1005F000B0F800E0013147EA0E068D4220F8026BA8
:10060000FEF6F3A9B0F800C0064647EA0C0E26F83D
:1006100002EBB0F80280B6F802C047EA0808A6F874
:100620000080B0F806E047EA0C0C0431A0F804C0E2
:1006300047EA0E0608308D4220F8026CE2DAFEF737
:10064000D4B9AB469A46019E89E7AB469A46019ECD
:10065000FEF757BAAB469A46019E8BE6AB469A46E2
:10066000019E92E5AB469A46019EFEF746BCAB461C
:100670009A46019EFEF748BBAB469A46019EFEF79E
:10068000C5BE03297EF4B6AC0749064FB1F92CE08C
:10069000CD8837F81EC04CEA050627F81E60FEF725
:1006A000A9BC00BFE44200200C31002003282DE942
:1006B000F04780460D4600F2E780794900EB800262
:1006C00001EB0210B0F94C30C52B00F39E80744E44
:1006D00008EB8807002406EB07176AE0B8F1030F60
:1006E00000F29580B7F84C106E4AC8EBC80C02EBCC
:1006F0000C0E09310EEB0409204689B299F8A49D2D
:10070000F3F784FD684E19F0010F0CBF36F81500A1
:1007100070894FEA5909F3F77BFD19F0010F0CBFFF
:1007200036F8150070894FEA5909F3F771FD19F091
:10073000010F0CBF36F8150070894FEA5909F3F71D
:1007400067FD19F0010F0CBF36F8150070894FEAEC
:100750005909F3F75DFD19F0010F0CBF36F81500CC
:1007600070894FEA5909F3F753FD19F0010F0CBFD7
:1007700036F8150070894FEA5909F3F749FD19F069
:10078000010F0CBF36F81500708909F00209F3F764
:100790003FFD1FFA89F3002B72D136F81500F3F7ED
:1007A00037FD36F81500F3F733FD0134A4B20B2CF6
:1007B0002BD0062C92D9B8F1030F38D8B7F84C30AB
:1007C0002046DA1C04EB020E1FFA8EF1F3F71EFD31
:1007D000B7F84C00C11C03B218336618B6B21A1B26
:1007E0009642E2DADFF8C09039F81500F3F710FD11
:1007F000B7F94C1001361831B6B2C4EB010C66459E
:10080000F2DB0134A4B20B2CD3D1BDE8F087264E25
:10081000244806EB850CBCF8201000EB040E0931CF
:10082000204689B29EF8C09DF3F7F0FC6BE71E4EA0
:10083000204606EB8509B9F82020D11C04EB010EF7
:100840001FFA8EF1F3F7E2FCB9F8203003F1030C44
:100850001AB2183204EB0C0A1FFA8AFA101B504520
:10086000A3DD36F81500F3F7D3FCB9F920300AF10F
:10087000010A18331FFA8AFA181B8245F1DB94E744
:100880007089F3F7C5FC8CE7074800EB8103B3F9E7
:1008900020C0BCF1C50F7FF71AAFBDE8F08700BFDD
:1008A00008320020BCC101080C3100202DE9F047BE
:1008B000F3F7BCFCAD4C0025A8B20C21F3F7A6FC65
:1008C000CB266089F3F7A4FC6089F3F7A1FC60896B
:1008D000F3F79EFC6089F3F79BFC6089F3F798FCC3
:1008E0006089F3F795FC6089F3F792FC073EE8D145
:1008F00001350B2DE0D1DFF87882B8F910301BB14B
:1009000030463146FFF7D2FEB8F9600018B1012039
:100910000146FFF7CBFEB8F9B01019B1022001462D
:10092000FFF7C4FEB8F900211AB103200146FFF712
:10093000BDFEB8F9401211B90720FFF7B7FEB8F9AC
:100940004012012900F0EC82B8F94012022900F0AF
:10095000E382B8F94012032900F0DA82DFF814923A
:100960000C21B9F80030CB255F1CB8B2F3F74EFC70
:100970006089F3F74DFC6089F3F74AFC6089F3F76F
:1009800047FC6089F3F744FC6089F3F741FC608918
:10099000F3F73EFC6089F3F73BFC073DE8D1B9F87B
:1009A00000C0BCF1090F19DD0B26B7B20C21384687
:1009B000F3F72CFC6089F3F72BFCD6213846F3F7CC
:1009C00025FC6089F3F724FCB9F8002005F10C013F
:1009D000501C013601358842B6B2E6DAB8F89022EA
:1009E0000A200B3291B2F3F711FC2089F3F710FCC7
:1009F0002089F3F70DFC2089F3F70AFC2089F3F72F
:100A000007FC2089F3F704FCB8F8A4120A200B3184
:100A100089B2F3F7FBFB2089F3F7FAFB2089F3F7A0
:100A2000F7FB2089F3F7F4FB2089F3F7F1FB20892A
:100A3000F3F7EEFBB9F80030B8F890525F1C0B35B5
:100A4000A9B2B8B2F3F7E2FB2089F3F7E1FB208902
:100A5000F3F7DEFB2089F3F7DBFB2089F3F7D8FB04
:100A60002089F3F7D5FBB9F80020B8F8A412501C80
:100A70000B3189B280B2F3F7C9FB2089F3F7C8FBC9
:100A80002089F3F7C5FB2089F3F7C2FB2089F3F730
:100A9000BFFB2089F3F7BCFBB8F81832C3F1A105FE
:100AA000ABB21FB20B2F40F3B380981E85B22BB2AE
:100AB00002379F42C0F2AC80AEB20C21304603F147
:100AC000010AC3EB0709F3F7A1FBA089F3F7A0FB29
:100AD0003046D621F3F79AFBA0896E1CF3F798FBFA
:100AE0005745B5B209F003090AF10106C0F290803A
:100AF000B9F1000F40D0B9F1010F28D0B9F1020FC0
:100B000012D01FFA85F90C214846F3F77FFBA08924
:100B1000F3F77EFB4846D621F3F778FBA089F3F77D
:100B200077FB0135ADB201361FFA85F90C21484635
:100B3000F3F76CFBA089F3F76BFBD6214846F3F77C
:100B400065FBA089F3F764FB691C8DB201361FFABF
:100B500085F90C214846F3F759FBA089F3F758FBB8
:100B60004846D621F3F752FB013649E00C3100200C
:100B700008320020E24200201FFA85F90C21484685
:100B8000F3F744FBA089F3F743FB4846D621F3F77C
:100B90003DFBA089F3F73CFB691C8DB21FFA85F978
:100BA0000C214846F3F732FBA089F3F731FB4846A6
:100BB000D621F3F72BFBA089F3F72AFB6B1C9DB220
:100BC0001FFA85F90C214846F3F720FB0135A0896F
:100BD000F3F71EFBADB24846D621F3F717FB1FFA19
:100BE00085F9A089F3F714FB0C214846F3F70EFBB7
:100BF000A089F3F70DFB4846D621F3F707FB04362F
:100C0000A089F3F705FB731E6A1C9F4295B2B3DA05
:100C1000B8F8303303F10B0C1FFA8CF2901E85B23A
:100C200017B202370FFA85FEBE4500F3B0800933D4
:100C3000AEB20FFA83FACAEB07030C21304603F079
:100C40000309F3F7E3FA2089F3F7E2FA3046D621F5
:100C50006E1CF3F7DBFAB5B220890AF102060AF13D
:100C6000010AF3F7D5FA5745C0F29180B9F1000FA8
:100C700041D0B9F1010F28D0B9F1020F12D01FFAFB
:100C800085F90C214846F3F7C1FA2089F3F7C0FA39
:100C9000D6214846F3F7BAFA2089F3F7B9FA691C66
:100CA0008DB201361FFA85F90C214846F3F7AEFAEA
:100CB0002089F3F7ADFA4846D621F3F7A7FA208941
:100CC000F3F7A6FA6B1C9DB201361FFA85F90C21C9
:100CD0004846F3F79BFA2089F3F79AFAD62148465B
:100CE000F3F794FA01362089F3F792FA721E681C22
:100CF000974285B24BDB1FFA85F90C214846F3F782
:100D000085FA2089F3F784FAD6214846F3F77EFA6C
:100D10002089F3F77DFA6A1C95B21FFA85F90C2138
:100D20004846F3F773FA2089F3F772FAD62148465A
:100D3000F3F76CFA2089F3F76BFA691C8DB21FFA8E
:100D400085F90C214846F3F761FA01352089F3F75C
:100D50005FFAADB2D6214846F3F758FA1FFA85F983
:100D60002089F3F755FA0C214846F3F74FFA20890A
:100D7000F3F74EFAD6214846F3F748FA04362089AD
:100D8000F3F746FA721E681C974285B2B3DAB8F8D8
:100D9000443303F10B0C1FFA8CF0811E8DB207B2A5
:100DA00002370FFA85FEBE4500F3B080AEB20933BC
:100DB0000C2130460FFA83F9F3F728FA2089F3F76C
:100DC00027FA3046D6216E1CF3F720FAC9EB070844
:100DD0002089B5B209F1020609F10109F3F718FA01
:100DE0004F4508F00308C0F2A180B8F1000F41D0D0
:100DF000B8F1010F28D0B8F1020F12D01FFA85F810
:100E00000C214046F3F702FA2089F3F701FA404635
:100E1000D621F3F7FBF92089F3F7FAF96B1C9DB2A1
:100E200001361FFA85F80C214046F3F7EFF92089C7
:100E3000F3F7EEF94046D621F3F7E8F92089F3F706
:100E4000E7F96A1C95B201361FFA85F80C21404675
:100E5000F3F7DCF92089F3F7DBF9D6214046F3F705
:100E6000D5F901362089F3F7D3F9701E0135874291
:100E7000ADB259DB1FFA85F80C214046F3F7C6F9ED
:100E80002089F3F7C5F9D6214046F3F7BFF9208949
:100E9000F3F7BEF9691C8DB21FFA85F80C214046A4
:100EA000F3F7B4F92089F3F7B3F9D6214046F3F705
:100EB000ADF92089F3F7ACF9681C85B21FFA85F803
:100EC0000C214046F3F7A2F92089F3F7A1F9D621C6
:100ED0004046F3F79BF92089F3F79AF96A1C95B21B
:100EE0001FFA85F80C214046F3F790F92089F3F7B3
:100EF0008FF9D6214046F3F789F904362089F3F7B4
:100F000087F9731E01359F42ADB2B3DABDE8F087B1
:100F10000720FFF7CBFB21E50720FFF7C7FB18E50C
:100F20000720FFF7C3FB0FE5BDE8F087BDE8F087BA
:100F3000F8B500215920F3F769F940F21F50F3F793
:100F400067F940F21F50F3F763F940F21F50F3F7CF
:100F50005FF940F21F50F3F75BF940F21F50F3F7CF
:100F600057F940F21F50F3F753F940F21F50F3F7CF
:100F70004FF940F21F50F3F74BF940F21F50F3F7CF
:100F800047F940F21F50F3F743F940F21F50F3F7CF
:100F90003FF940F21F50F3F73BF900215A20F3F7D5
:100FA00035F940F21F50F3F733F940F21F50F3F7D1
:100FB0002FF940F21F50F3F72BF940F21F50F3F7CF
:100FC00027F940F21F50F3F723F940F21F50F3F7CF
:100FD0001FF940F21F50F3F71BF940F21F50F3F7CF
:100FE00017F940F21F50F3F713F940F21F50F3F7CF
:100FF0000FF940F21F50F3F70BF940F21F50F3F7CF
:1010000007F900214FF49A70F3F700F940F21F50EE
:10101000F3F7FEF840F21F50F3F7FAF840F21F50D2
:10102000F3F7F6F840F21F50F3F7F2F840F21F50D2
:10103000F3F7EEF840F21F50F3F7EAF840F21F50D2
:10104000F3F7E6F840F21F50F3F7E2F840F21F50D2
:10105000F3F7DEF840F21F50F3F7DAF840F21F50D2
:10106000F3F7D6F840F21F50F3F7D2F8002140F220
:101070003510F3F7CBF840F21F50F3F7C9F840F200
:101080001F50F3F7C5F840F21F50F3F7C1F840F2D4
:101090001F50F3F7BDF840F21F50F3F7B9F840F2D4
:1010A0001F50F3F7B5F840F21F50F3F7B1F840F2D4
:1010B0001F50F3F7ADF840F21F50F3F7A9F840F2D4
:1010C0001F50F3F7A5F840F21F50F3F7A1F840F2D4
:1010D0001F50F3F79DF85B24A4B204F10806EE4D0F
:1010E000B6B200212046F3F791F835F8027F17F0E9
:1010F000010018BF40F21F50F3F78AF817F0020002
:1011000018BF40F21F50F3F783F817F0040018BF20
:1011100040F21F50F3F77CF817F0080018BF40F2B8
:101120001F50F3F775F817F0100018BF40F21F506A
:10113000F3F76EF817F0200018BF40F21F50F3F7D6
:1011400067F817F0400018BF40F21F50F3F760F83F
:1011500017F0800018BF40F21F50F3F759F817F44A
:10116000807018BF40F21F50F3F752F817F4007068
:1011700018BF40F21F50F3F74BF817F4806018BF08
:1011800040F21F50F3F744F817F4006018BF40F224
:101190001F500134A4B2F3F73BF8B442A1D1A4B27A
:1011A00040F233139C4297D1BC490878012800F0E3
:1011B0004D82BB4CC826B4F9181240F6886506FB70
:1011C00001FE9EFBF5F05B30002180B2F3F71EF8C4
:1011D0004FF6FF70F3F71CF84FF6FF70F3F718F8AF
:1011E0004FF6FF70F3F714F84FF6FF70F3F710F8AF
:1011F0004FF6FF70F3F70CF84FF6FF70F3F708F8AF
:101200004FF6FF70F3F704F84FF6FF70F3F700F8AE
:101210004FF6FF70F2F7FCFFB4F91832002106FB1D
:1012200003F292FBF5F06A3080B2F2F7EFFF4FF66F
:10123000FF70F2F7EDFF4FF6FF70F2F7E9FF4FF6A0
:10124000FF70F2F7E5FF4FF6FF70F2F7E1FF4FF6A0
:10125000FF70F2F7DDFF4FF6FF70F2F7D9FF4FF6A0
:10126000FF70F2F7D5FF4FF6FF70F2F7D1FF4FF6A0
:10127000FF70F2F7CDFFB4F918C2002106FB0CF3A2
:1012800093FBF5F25B3290B2F2F7C0FF4FF6FF70BE
:10129000F2F7BEFFB4F91802092106FB00FC9CFB23
:1012A000F5F35B3398B2F2F7B1FF4FF6FF70F2F748
:1012B000AFFFB4F91822002106FB02F090FBF5F312
:1012C0005C3398B2F2F7A2FF4FF6FF70F2F7A0FF7F
:1012D000B4F918C2092106FB0CF292FBF5F05C3060
:1012E00080B2F2F793FF4FF6FF70F2F791FFB4F977
:1012F0001832002106FB03FC9CFBF5F25D3290B234
:10130000F2F784FF4FF6FF70F2F782FFB4F918028C
:10131000092106FB00F393FBF5F25D3290B2F2F780
:1013200075FF4FF6FF70F2F773FFB4F918C2002192
:1013300006FB0CF090FBF5F35E3398B2F2F766FF14
:101340004FF6FF70F2F764FFB4F91822092106FB8B
:1013500002FC9CFBF5F05E3080B2F2F757FF4FF6CF
:10136000FF70F2F755FFB4F91832002106FB03F2C3
:1013700092FBF5F05F3080B2F2F748FF4FF6FF7056
:10138000F2F746FFB4F918C2092106FB0CF393FBF0
:10139000F5F25F3290B2F2F739FF4FF6FF70F2F7D5
:1013A00037FFB4F91802002106FB00FC9CFBF5F3A3
:1013B000603398B2F2F72AFF4FF6FF70F2F728FF7A
:1013C000B4F91822092106FB02F090FBF5F3603313
:1013D00098B2F2F71BFF4FF6FF70F2F719FFB4F95E
:1013E00018C2002106FB0CF292FBF5F0613080B2CE
:1013F000F2F70CFF4FF6FF70F2F70AFFB4F918325C
:10140000092106FB03FC9CFBF5F2613290B2F2F776
:10141000FDFE4FF6FF70F2F7FBFEB4F91802002153
:1014200006FB00F393FBF5F2623290B2F2F7EEFEA8
:101430004FF6FF70F2F7ECFEB4F918C2092106FB73
:101440000CF090FBF5F3623398B2F2F7DFFE4FF643
:10145000FF70F2F7DDFEB4F91822002106FB02FC52
:101460009CFBF5F0633080B2F2F7D0FE4FF6FF70D0
:10147000F2F7CEFEB4F91832092106FB03F292FB13
:10148000F5F0633080B2F2F7C1FE4FF6FF70F2F76D
:10149000BFFEB4F918C205E082CF0108AE4D0020AE
:1014A00008320020002106FB0CF393FBF5F26432B6
:1014B00090B2F2F7ABFE4FF6FF70F2F7A9FEB4F967
:1014C0001802092106FB00FC9CFBF5F3643398B27B
:1014D000F2F79CFE4FF6FF70F2F79AFEB4F918226D
:1014E000002106FB02F090FBF5F3653398B2F2F7AA
:1014F0008DFE4FF6FF70F2F78BFEB4F918C209218A
:1015000006FB0CF292FBF5F0653080B2F2F77EFE3E
:101510004FF6FF70F2F77CFEB4F91832002106FB9B
:1015200003FC9CFBF5F2663290B2F2F76FFE4FF6C9
:10153000FF70F2F76DFEB4F91802092106FB00F303
:1015400093FBF5F2663290B2F2F760FE4FF6FF7051
:10155000F2F75EFEB4F918C2002106FB0CF090FB16
:10156000F5F3673398B2F2F751FE4FF6FF70F2F7DA
:101570004FFEB4F91822092106FB02FC9CFBF5F092
:10158000673080B2F2F742FE4FF6FF70F2F740FE8E
:10159000B4F91832002106FB03F292FBF5F0683033
:1015A00080B2F2F733FE4FF6FF70F2F731FEB4F976
:1015B00018C2092106FB0CF393FBF5F2683290B2D6
:1015C000F2F724FE4FF6FF70F2F722FEB4F918028C
:1015D000002106FB00FC9CFBF5F3693398B2F2F79F
:1015E00015FE4FF6FF70F2F713FEB4F91822092129
:1015F00006FB02F090FBF5F3693398B2F2F706FEB2
:101600004FF6FF70F2F704FEB4F918C2002106FB92
:101610000CF292FBF5F06A3080B2F2F7F7FD4FF66C
:10162000FF70F2F7F5FDB4F91832092106FB03FC4F
:101630009CFBF5F26A3290B2F2F7E8FD4FF6FF70CC
:10164000F2F7E6FD002284F82E22F8BD5B2000218F
:10165000F2F7DCFD09244FF6FF70F2F7D9FD013CEB
:10166000F9D121464FF49970F2F7D0FD09244FF6D5
:10167000FF70F2F7CDFD013CF9D15B2440F2331548
:1016800000212046F2F7C2FD4FF6FF70F2F7C0FDD1
:1016900009212046F2F7BAFD4FF6FF70F2F7B8FDC8
:1016A000611C8CB220460021F2F7B0FD4FF6FF70AE
:1016B000F2F7AEFD09212046F2F7A8FD4FF6FF70C4
:1016C000F2F7A6FD601C84B200212046F2F79EFDD1
:1016D0004FF6FF70F2F79CFD09212046F2F796FDC8
:1016E0004FF6FF70F2F794FD631C9CB20021204678
:1016F000F2F78CFD4FF6FF70F2F78AFD20460921C4
:10170000F2F784FD4FF6FF70F2F782FD621C94B28F
:10171000AC42B5D1004C95E708320020F8B54FF443
:101720009C77BDB20B24A1B22846F2F76FFD661C70
:101730000020F2F76DFDB1B22846F2F767FD0020F8
:10174000F2F766FDA21C91B22846F2F75FFD002079
:10175000F2F75EFDE01C81B22846F2F757FD00204B
:10176000F2F756FD211D284689B2F2F74FFD0534E8
:101770000020F2F74DFDD82CD5D10137B7F5C87F41
:10178000CFD1024B002183F82E12F8BD0832002081
:101790002DE9F04F04468BB0F2F748FD0D212046AD
:1017A000F2F734FD14F0010F40F07881FA2C2BD0C1
:1017B000AF4B661CB3F800904E4525D00A2C27D0BD
:1017C000AC49A4F10A0381FB030BD9170BEB030A05
:1017D000C1EB2A10C0EB0015B3EB450F02D1F92C79
:1017E00040F28E82A44F87FB030AC1EB0A0909EB82
:1017F000490CB3EB4C0F02D1F92C40F286829F4882
:101800009F49F2F715FD03E09E489D49F2F710FD50
:101810009D4E9E4D9E4B31782D78DA8858889F8852
:10182000002605F1040BA5F1040801F1040AA1F159
:10183000040E984BDFF860920892099005973246A3
:10184000CDF81880CDF810A0CDF81CE0CDF804B08C
:101850005F7893F80080643FC81987B207F1FF3CB6
:101860001FFA8CFEBEF1C60F00F2A68008EB8808B6
:101870004FEAA800A0F1820E05EB0E081FFA88F8C7
:10188000B8F1000F00F09880B8F1F90F00F29480E1
:10189000962C36D0501CA0455CD0914264D0AC420E
:1018A00076D01F1D7A780236643A01EB020C1FFADB
:1018B0008CF202F1FF3C1FFA8CF8B8F1C60F1B79CD
:1018C0000ED803EB83039B10823BEB189BB23BB11A
:1018D000F92B05D8962C00F0A080A34200F094804C
:1018E00081427DD0AC4269D0421C3B1D0236B2F52C
:1018F000807FADD16848C9210BB0BDE8F04FF2F749
:1019000091BC9742C6D139F81CB0DDF824E0501CD8
:101910004EEA0B0A29F81CA039F812E0DDF824C0C1
:1019200002F1020A4CEA0E0B29F812B039F810E065
:10193000DDF824C0A0454CEA0E0B29F810B039F8A8
:101940001AB0DDF824E04EEA0B0CCDF80CC029F8F3
:101950001AC0A2D139F817C0DDF820E091424EEA52
:101960000C0829F817809AD1052C98D9DDF804A025
:10197000544594DCDDF818B05C4590DB36F80980FE
:10198000DDF814C0AC424CEA080726F8097088D18B
:10199000052A86DDDDF810A0524582DCDDF81CB09A
:1019A0005A45FFF67EAF36F809E0DDF8148048EAC4
:1019B0000E0226F8092074E7501C6EE7052893DD17
:1019C000049B984290DCDDF81C8040458CDB39F8A4
:1019D00006C0DDF814A04AEA0C0E29F806E083E7F9
:1019E000052C7FF67FAFDDF804B05C453FF77AAF9A
:1019F000DDF818C06445FFF675AF39F80630059A72
:101A00001A4329F806206DE739F812C0DDF820B036
:101A10004BEA0C0E29F812E062E782427FF45DAFD8
:101A200039F81CB0DDF824E000F1010A4EEA0B0899
:101A300029F81C8039F810C0DDF824E000F1020814
:101A40004EEA0C0B29F810B039F81AB0DDF824C0B2
:101A50004CEA0B0E29F81AE039F818C0DDF824A07A
:101A6000CDF80CE04AEA0C0E29F818E035E700BF83
:101A7000E242002089888888ABAAAA2A10C90108F6
:101A8000E4420020A4CA0108683F00204C41002025
:101A90000C310020C88F00206C3F00209D489E49DB
:101AA000F2F7C6FB9D4F9E4D9E49BB882D78097865
:101AB000FA8878880026059305F1040B2F1F01F1A1
:101AC0000408A1F1040A984BDFF86092099208908B
