:020000040800F2
:10C0000000A00020112D010859F900085BF9000873
:10C010005DF900085FF9000861F900080000000000
:10C0200000000000000000000000000065F90008AA
:10C0300063F900080000000067F9000869F90008CA
:10C040006BF900086DF900086FF9000871F9000834
:10C0500073F9000875F9000877F9000879F9000804
:10C060007BF900087DF900087FF9000881F90008D4
:10C0700083F9000885F9000887F9000889F90008A4
:10C080008BF900088DF900088FF9000891F9000874
:10C0900095F9000899F900089BF900089DF9000836
:10C0A0009FF90008A1F90008A3F90008A5F9000804
:10C0B000A7F90008A9F900089DFA00089FFA0008EE
:10C0C000A1FA0008A3FA0008A5FA0008A7FA0008D8
:10C0D000A9FA0008ABFA0008ADFA0008AFFA0008A8
:10C0E000B1FA0008B3FA0008B5FA0008B7FA000878
:10C0F000B9FA0008BBFA0008BDFA0008BFFA000848
:10C10000C1FA0008C3FA0008C5FA0008C7FA000817
:10C11000C9FA0008CBFA0008CDFA0008CFFA0008E7
:10C12000D1FA0008D3FA0008D5FA0008D7FA0008B7
:10C1300070B514200021304CF8F788F82420012134
:10C14000F8F784F823680720B3F95C11F8F77EF854
:10C1500023680820B3F85E11F8F778F80920012168
:10C16000F8F774F80B200121F8F770F8234C002041
:10C170006421F8F76BF801206421F8F767F8236869
:10C180000A209988F8F762F823680C2099881C4ED9
:10C190000131F8F75BF805200121F8F757F805F0B1
:10C1A00069FF20200146F8F751F84FF4FA6002F0D9
:10C1B000FAFF144D06200121F8F748F80024142056
:10C1C00002F0F1FF34602C60F8F734F80E4B00F009
:10C1D000FF02E0503368000AD3182A6800F0FF001D
:10C1E00004348018B4F5804F33602860ECD11B1AFA
:10C1F000064A1B0B137070BD305500206C9E00204A
:10C20000085600200C56002018560020659E00207D
:10C210002DE9F04FBC4B0024BC4DA1B01C70214651
:10C2200006461420F8F712F8B5F994330A210133C1
:10C2300059430220F8F70AF82046F7F7EBFF0520EC
:10C240002146F8F703F824200121F7F7FFFF20200B
:10C250000146F7F7FBFFB5F9E413A5F850410139A2
:10C26000032001EB8101F7F7F1FFA94DA94B4FF432
:10C27000FA7018802B680720B3F9F810F7F7E6FF7B
:10C280002B680820B3F8FA10F7F7E0FF09202146E1
:10C29000F7F7DCFF0B202146F7F7D8FF11E028461F
:10C2A0002146F7F7B3FF01354FF6FF70F7F7B0FF00
:10C2B000ADB240F28F139D42F1D11434A4B2DC2C04
:10C2C00001D00025EBE700242046EF21F7F79EFF81
:10C2D00001344FF6FF70F7F79BFFA4B240F28F13C3
:10C2E0009C42F1D100200146F7F790FFEF24013C7A
:10C2F0004FF6FF70A4B2F7F78BFF002CF7D12C207C
:10C300001421F7F783FF143401344FF6FF70A4B201
:10C31000F7F77EFFC92CF7D158201421F7F776FFE5
:10C32000B53C01344FF6FF70A4B2F7F771FFC92C8A
:10C33000F7D184201421F7F769FF143C013C4FF634
:10C34000FF70A4B2F7F764FF002CF7D1C8201421C6
:10C35000F7F75CFFB534013C4FF6FF70A4B2F7F776
:10C3600057FF002CF7D1F4201421F7F74FFFB53415
:10C37000013C4FF6FF70A4B2F7F74AFF002CF7D14B
:10C380004FF490701421F7F741FFB534013C4FF69C
:10C39000FF70A4B2F7F73CFF002CF7D14FF4A67062
:10C3A0001421F7F733FFB534013C4FF6FF70A4B208
:10C3B000F7F72EFF002CF7D121464FF4C770F7F79F
:10C3C00025FFEF34013C4FF6FF70A4B2F7F720FFD2
:10C3D000002CF7D1504B06200093B92105222346AB
:10C3E0004E4F00F0C9FF4E4D3120B92105222346A2
:10C3F000DFF85881009700F0BFFF5D20B9210522CA
:10C400002346009500F0B8FF8920B9210522234674
:10C41000CDF8008000F0B0FF424BCE200093B92150
:10C4200040F20512234600F0A7FFF920B92140F29F
:10C4300005122346009700F09FFF40F22510B92116
:10C4400040F205122346009500F096FF4FF4A970C4
:10C45000B92140F205122346CDF80080A62500F050
:10C460008BFF39E04FF0140808FB04F82E4F2946E3
:10C470003B680620434400930522002300F07CFF24
:10C480003B6829464344009340F205120023CE2026
:10C4900000F072FF254A20A9125D0B1903F80C2C3D
:10C4A00001EB44022249143D31F81410ADB222F8D8
:10C4B000501C2049095D03F8241C1F49095D03F83D
:10C4C000181C1E4931F8141022F8641C1C4A125D15
:10C4D000013403F8302CA4B21A4B1A68984692889B
:10C4E000A242BFD2002504952F462C46164A118839
:10C4F00089B269BB0220F7F7A9FE14200121F7F7E2
:10C50000A5FE00F0E1BE00BFFA4C00206031002023
:10C5100030550020EA4C00208C3B0108913B01087B
:10C52000963B0108A33B0108689E0020C4550020EB
:10C53000763E00201C550020CE5500208A3E00206B
:10C54000265500206C9E0020F04C00209B3B0108EB
:10C550000A202146F7F77AFE21460C20F7F776FEEF
:10C56000142002F020FE01210620F7F76FFE1420B0
:10C5700002F019FEC349C44A00230B6013609946B8
:10C580008B469246F7F756FEC04B00F0FF0249F883
:10C590000300DBF80030000AD318DAF8002000F0BE
:10C5A000FF0009F104098018B9F5804FCBF800307D
:10C5B000CAF80000E6D1B6491B0B31F814A0DFF829
:10C5C0000CB30AFB03FA1BF904200AF5007A02EB0C
:10C5D0009A2AB04A000B32F81490DFF8E4C209FB43
:10C5E00000F91CF9043009F5007903EB9929AA4BED
:10C5F0001FFA8AFA1A781FFA89F9002A00F0E484EF
:10C6000000221A700C2D00F2DF84DFE815F00D0017
:10C610009C000B01AA01D7014D02D4023303F2039F
:10C6200054047804840490049C4C4FF0280B94F933
:10C63000001000200BFB01F101F522418912F7F7F0
:10C6400005FEDFF884C201209CF90010CDF808C077
:10C650000BFB01FB0BF522418912F7F7F7FD904B1D
:10C6600008200093D82140F20532002300F084FE18
:10C670008C4BE8200093D82140F20532002300F0D3
:10C680007BFE894B4FF498700093D82140F205420D
:10C69000002300F071FE854B08200093062140F234
:10C6A0000532002300F068FE814A824B50201B783F
:10C6B0000621009240F2054200F05EFEDDF808C05F
:10C6C000E346FEB97C4BD8210093B82033460522BF
:10C6D00000F052FED8F8001033460BE0DFF8ECE132
:10C6E0006B480EF803204FF4806E20F813E0E254FC
:10C6F00001339BB28A889A424FF00002EED2144670
:10C7000000F062BC012E40F0DD856C4B40F205125A
:10C710000093B8200023D82100F02EFED8F8002086
:10C7200000230AE066485B494FF4806EC45421F848
:10C7300013E00BF8034001339BB291880024994227
:10C74000F0D200F041BC5F4B08200093062140F27C
:10C7500005320023CDF808C000F00EFEDDF808C059
:10C7600016BB5FFA8AFCACF1280111AF384649B21A
:10C77000CDF808C002F076FE6FF0130363434FF666
:10C78000FE71A63303EA01012D2001230522009743
:10C7900000F0F2FD1BF80430DDF808C02833CCEBC4
:10C7A000030C0BF804C024E0012E22D15FFA89FBB0
:10C7B00011AFABF12801384649B2CDF808C002F0FC
:10C7C00051FE6FF0130363434FF6FE71A63303EA85
:10C7D0000101F520334640F20512009700F0CCFD30
:10C7E000DDF808C01CF804302833CBEB030B0CF841
:10C7F00004B0D8F8003001349B88E4B2A34201D2DF
:10C8000002250024254B282719570020794301F5DC
:10C8100022418912F7F71AFD2B4B19574F4307F5A1
:10C8200022413BE10137FFB2072F88BF0027002ECE
:10C830004ED15FFA8AFC11ABACF12801184649B21F
:10C84000CDF808C0039302F00DFE6FF013026243AF
:10C85000039BA6324FF6FE7100932D2002EA0101E0
:10C860003346052200F088FDBAF1280FDDF808C034
:10C870005AD01BF804302833CCEB030C0BF804C05F
:10C8800051E000BF085600200C560020185600202A
:10C89000763E00208A3E0020F44C00201C550020EB
:10C8A000A83B0108BF3B0108C93B0108D33B010875
:10C8B000C23D0108F34C0020023C0108093C01087C
:10C8C000CE550020103C010826550020C4550020FC
:10C8D000012E28D15FFA89F00DF1440BA0F1280157
:10C8E000059049B25846CDF808C002F0BBFD6FF084
:10C8F000130363434FF6FE71A633F52003EA0101EB
:10C9000040F205120023CDF800B000F035FDB9F17A
:10C91000280FDDF808C007D01CF80430059928332B
:10C920005B1A0CF8043017B90134E4B20027D8F8C8
:10C9300000309B88A34201D203250024BA4B4FF05C
:10C94000280B195700200BFB01F101F52241891238
:10C95000F7F77CFCB54B19570BFB01FB0BF522419C
:10C9600024E1B14B4FF0A00B195700200BFB01F154
:10C9700001F5203101F500718912F7F767FCAB4B27
:10C980000137195701200BFB01FB0BF5203101F595
:10C9900000718912FFB2F7F759FC16B90FFA8AF342
:10C9A00003E0012E04D10FFA89F38C2BC8BF0425B4
:10C9B000142F40F209830135EDB205E39A4FDFF8F9
:10C9C0006CB22EBB11AB0AF16001184649B2039359
:10C9D00002F048FD6FF013026243039BA6324FF64C
:10C9E000FE71009302EA010101230522592000F0A3
:10C9F000C3FC0FFA8AF39B02A3F51E336FF09F026C
:10CA0000A3F5F66393FBF2F33A5D9B183B552AE0DE
:10CA1000012E28D111AB09F16001184649B20393E8
:10CA200002F020FD6FF013026243039BA6324FF623
:10CA3000FE71009302EA0101334640F2051240F212
:10CA4000211000F099FC0FFA89F39B02A3F51E3325
:10CA50006FF09F02A3F5F66393FBF2F31BF804203B
:10CA60009B180BF80430D8F8003001349B88E4B2EE
:10CA7000A34201D2052500243957A027794301F5A7
:10CA8000203101F5007189120020F7F7DFFB1BF957
:10CA900004104F4307F5203101F500710120891280
:10CAA000F7F7D4FB00278FE20137FFB2072F88BFCB
:10CAB0000027DFF874B14EBB11AB0AF160011846D4
:10CAC00049B2039302F0CEFC6FF013026243039B62
:10CAD000A6324FF6FE710093592002EA0101334657
:10CAE000052200F049FC0FFA8AF3A02B3ED09B02EE
:10CAF000A3F51E336FF09F02A3F5F66393FBF2F3E9
:10CB00001BF804209B180BF804302EE0012E2CD1CA
:10CB100011AB09F16001184649B2039302F0A2FC7F
:10CB20006FF013026243039BA6324FF6FE7100932F
:10CB300002EA0101002340F2211040F2051200F048
:10CB40001BFC0FFA89F3A02B10D09B02DFF8DCE06E
:10CB5000A3F51E336FF09F02A3F5F66393FBF2F388
:10CB60001EF804209B180EF8043017B90134E4B203
:10CB70000027D8F800309B88A34201D20625002464
:10CB80001BF904104FF0A00B0BFB01F101F5203154
:10CB900001F5007100208912F7F758FB234801576F
:10CBA0000BFB01FB0BF5203101F50071012089120F
:10CBB000F7F74CFB08E201370499FFB2142F88BF46
:10CBC00007250129184BDFF864B031D893F900101C
:10CBD0002824614301F5224100208912F7F736FB32
:10CBE0009BF9001001204C4304F522418912F7F70C
:10CBF0002DFB56B90FFA8AF3312B00F36383049AA5
:10CC00000125531CDBB204935CE3012E40F05A83F0
:10CC10000FFA89F3312B00F35583049C3546631CCE
:10CC2000DBB204934EE300BF1C55002026550020C4
:10CC300093F900101924614301F5CC4100208912B9
:10CC4000F7F704FB9BF9001001204C4304F5CC419D
:10CC50008912F7F7FBFA16B90FFA8AF304E0012EEE
:10CC600040F030830FFA89F3362B00F32B83013524
:10CC7000EDB227E3B84B20200093D82140F20532D3
:10CC8000002300F079FBB54A0C2101FB0422DFF8F8
:10CC900018B358209BF80030CC31009240F2054286
:10CCA00000F06AFBAE4BA0200093D82140F2053281
:10CCB000002300F061FBAB4B08200093062140F2FB
:10CCC0000532002300F058FBA74A9BF80030902063
:10CCD0000092062140F2054200F04EFBA34A9BF869
:10CCE0000030B0200092062140F2054200F044FBE3
:10CCF0009F4BD8200093062140F20532002300F01C
:10CD00003BFB9C4A9BF800304FF4A8700092062130
:10CD100040F2054200F030FB974A9BF800304FF498
:10CD2000B8700092062140F2054200F025FB66BB78
:10CD30000FFA8AF3232B0ADD904A14211268193B5B
:10CD400001FB0422116911A80096594302E00096E4
:10CD500011A831468A4A032302F02EFA6FF013021B
:10CD6000624311A99BF80030A63200914FF6FE7184
:10CD7000862002EA0101052200F0FEFA814B4FF401
:10CD8000A4700093D8210522E1E0012E40F01C811F
:10CD90000FFA89F3232B0BDD784A14211268193B13
:10CDA00001FB042211690022009211A8594302E0FC
:10CDB0000021009111A8724A032302F0FDF96FF0DF
:10CDC0001302624311A99BF80030A63200914FF67E
:10CDD000FE7102EA01014FF4A77040F2051200F063
:10CDE000CBFA694B4FF4A4700093D82140F205129E
:10CDF000ADE0664B08200093062140F20532002387
:10CE000000F0BAFADFF8A0B15A4A9BF8003060206F
:10CE10000092062140F2054200F0AEFA564A9BF815
:10CE2000003080200092062140F2054200F0A4FA72
:10CE3000574B88200093062140F20532002300F072
:10CE40009BFA544B08200093D82140F2053200236E
:10CE500000F092FA504B70200093D82140F2054226
:10CE6000002300F089FA4D4A9BF8003048200092D8
:10CE7000D82140F2054200F07FFA56B9484B4FF4F2
:10CE8000A4700093D8210522334600F075FA049669
:10CE90009AE0012E40F09680424B4FF4A47000932C
:10CEA000D82140F20512002300F066FA4FF0000E80
:10CEB000CDF810E088E0394A3B4B48201B78D82158
:10CEC000009240F2054200F057FA384B7020009370
:10CED000D82140F20542002300F04EFA46B9344B07
:10CEE0004FF494700093D82140F2051233462FE09E
:10CEF000012E69D12F4B4FF49470009342E7274ADB
:10CF0000294B48201B78D821009240F2054200F0BE
:10CF100033FA294B16E0214A234B48201B78D821AD
:10CF2000009240F2054200F027FA244B0AE01B4A27
:10CF30001D4B48201B78D821009240F2054200F09A
:10CF40001BFA1F4B00937020D82140F205420023AA
:10CF500000F012FA38E000BF3F3C0108003000202A
:10CF6000473C01085D3C0108773C0108793C010819
:10CF70007B3C0108923C0108943C0108689E00201B
:10CF800070350020963C01089D3C0108A43C010836
:10CF9000B63C0108D73C0108E53C0108C23D010848
:10CFA000033C01080A3C0108F34C0020013D010844
:10CFB000193D0108233D01082D3D01084F3D0108A1
:10CFC000713D010800200490DFF8CCB29BF80030DE
:10CFD000002B3FF48BAAD8F80030A4499B884FF46B
:10CFE0001672A3420A8023D3072D21D16EB96FF0A8
:10CFF0001303634311AAA6334FF6FE71009203EAAE
:10D00000010186200522334610E0012E10D16FF079
:10D010001303634311AAA6334FF6FE71009203EA8D
:10D0200001014FF4A77040F20512002300F0A4F9AB
:10D030009BF80030023B072B00F23F81DFE813F042
:10D0400008003D013D01EC0007013D01D700C8008B
:10D05000002D08BF0125A5F10803DBB2012B50D834
:10D06000092D04BFC6F10106F6B24FF00009A6254E
:10D0700040E0C6B9DFF824A22D2029460522334618
:10D08000CDF800A000F078F9592029460522334652
:10D09000CDF800A000F070F9754B8620009329466A
:10D0A000052233461EE0012E1ED1DFF8F0A1F52047
:10D0B000294640F205120023CDF800A000F05CF9EB
:10D0C00040F22110294640F205120023CDF800A0BD
:10D0D00000F052F9664B4FF4A7700093294640F2D6
:10D0E0000512002300F048F909F10109143D1FFA67
:10D0F00089F9ADB2D8F800309B884B45B9D20025EC
:10D10000DBE0092D40F2D9800A2D2DD1D8F800009E
:10D11000002322E020A9CA1812F80C1C554C20AD9F
:10D12000E15405EB430131F8505C534CDFF860E10A
:10D1300024F8135012F8245C504C31F8641CE55468
:10D1400012F8184C0EF803404D4C24F8131012F846
:10D15000301C4C4AD15401339BB282889A42D9D2B6
:10D1600001F0FCFE484B24E00B2D03D101F0F6FE4C
:10D17000464B1EE00C2D24D1D8F80010002312E0FD
:10D180003D484FF4806420F813403C480022C254CC
:10D19000384D3B48EA5420F813403D4D3948EA5495
:10D1A000C25401339BB28A889A42E9D201F0D6FE7A
:10D1B000384B00930820D82140F20542002300F0AC
:10D1C000DBF84FF47A7001F0EEFF04F083FD7BE0B2
:10D1D000072D04D1002C70D0013CE4B26DE0082D85
:10D1E00001D9013DEDB2082D08BF0C2565E0072DE2
:10D1F00003D90135EDB20C2D04D8072D03D101342C
:10D20000E4B200E00825D8F800309B88A34254D24D
:10D210000135EDB2002450E0072D4ED14EB90FFA82
:10D220008AFABAF1230F48DD134931F81430023B72
:10D2300041E0012E41D10FFA89F9B9F1230F3CDD0C
:10D240000F4A32F81430023B22F8143035E0072D33
:10D2500033D12EBB0FFA8AFABAF1230F2DDD06481F
:10D2600030F81430023320F8143026E0F04C00205F
:10D27000BC3D0108C4550020763E00201C5500200E
:10D280008A3E002026550020933D0108C43D010838
:10D29000CE550020F53D0108FA4C0020BE3D0108A6
:10D2A000012E0AD10FFA89F9B9F1230F05DD0849DA
:10D2B00031F81430023321F8143000238BF8003099
:10D2C000FFF714B900247FE621B0BDE8F08F00BF5E
:10D2D0008A3E0020A0F12003DBB2012B06D92238C0
:10D2E000034B01EBC00033F810007047002070477B
:10D2F000283E0108024B1B1893F8D005704700BF69
:10D30000283E01082DE9F0470E461D4600F10A01AE
:10D3100006F10A0314469BB2324689B2F6F77EFF45
:10D320000B235D434FEA14280026114B002703EB23
:10D33000450333F8069049FA07F313F0010F0D4B3C
:10D340000ABF04F00F0233F8180033F81200013757
:10D35000F6F75EFF0B2FEED10236162EE5D1002038
:10D3600040F28F110246EF23BDE8F047F6F756BFB3
:10D37000244501086C3000202DE9F14F0F461D4671
:10D3800001F10A03144640F28F113A469BB20A9EFD
:10D39000F6F744FF4FEA14294FF00B082C4F25B93C
:10D3A00004F00F0337F8130001E037F8190008F113
:10D3B000FF381FFA88F8F6F72BFFB8F1000FEDD110
:10D3C00038E04FF0000816F8010CA0F12003DBB2A2
:10D3D000012B05D95FFA88F1FFF77CFF834603E054
:10D3E000212804D04FF0000B4FF0000A03E0B8F101
:10D3F000040FF7D11EE00FFA8BF303FA0AF313F4CC
:10D40000806F01D00DB905E025B904F00F0337F89E
:10D41000130001E037F819000AF1010AF6F7F8FEE7
:10D42000BAF10B0FE7D108F101081FFA88F8B8F13B
:10D43000080FC8D116F8010B0028C2D140F28F1195
:10D440000246EF2301B0BDE8F04FF6F7E7BE00BF9C
:10D450006C300020F8B51F460C46BDF818509DF8FA
:10D460001C60089B30E0BCF1210F14BF092105218D
:10D470009042114427D3884225DA411E891A89B285
:10D4800011F4004F04D16046C9B2FFF723FF00E05A
:10D490000020290A04EB4704002302B29A4012F448
:10D4A000806F0C4A01D00EB905E026B905F00F07D0
:10D4B00032F8172001E032F81120013322800234C3
:10D4C0000B2BEAD1F8BD8AB213F801CBBCF1000FE7
:10D4D000C9D1F8BD6C3000202DE9F04FA0F10C034C
:10D4E00005460C46A0F10B0195488FB09B00B0F8A3
:10D4F000008106938B00B0F8B0200793A8F10203D7
:10D500009BB24FF0000C089209930AAF0CAB0DF1DF
:10D510003102664605914FF00009032E87F800900E
:10D52000DFF838920CD8089979B9B8F10B0F0CD8FC
:10D53000DFF82CA20FFA88FB1AFA0BFA1AD404E0CF
:10D54000062E17D10999012914D8069909EB560915
:10D550000FFA81FCCC449CF814C0079902F801CC66
:10D560000FFA81FCE14499F814C083F801C04FF030
:10D57000050C0FE0069909EB56090FFA81FA19F824
:10D580000AA0079902F801AC0FFA81FA19F80A907B
:10D5900083F8019012F8019CB9F1C70F02D94FF03E
:10D5A000C70904E0B9F1010F03D84FF0010902F8EF
:10D5B000019C93F80190B9F1C70F02D94FF0C70948
:10D5C00004E0B9F1010F03D84FF0010983F801908D
:10D5D00012F801AC93F80190D1451AD1B9F1010FBD
:10D5E00002D0B9F1C70F04D14FF0010987F80090BC
:10D5F0000FE0B9F1010F84BF09F1FF3902F8019C76
:10D6000093F80190B9F1C60F9CBF09F1010983F8A5
:10D61000019012F801AC93F80190CA4584BF83F8D9
:10D6200001A002F8019C0236F6B202370233023240
:10D63000082E7FF470AF4FEA4C0C0599404ECCF1A8
:10D64000000C00230AAAD25C1ABBB6F9102002B360
:10D650000CAFFA5CFF187F7819E0DFF8088198F8C2
:10D660000080B8F1010F06D0DFF8E880B8F800803C
:10D67000E044454509DADFF8E08034F8129038F8E4
:10D68000038049EA080824F812800132D2B2BA4273
:10D69000E3D902335036082BD4D12A4E3378002BED
:10D6A00037D0FF2935DC284B33F911200123C72A55
:10D6B000A8BFC72205E04FF4FC6724F813700133BC
:10D6C000DBB29342F7DB214B1B681A1F914202D059
:10D6D0001A1D914210D11E4A1378013B06E01D49E4
:10D6E0004FF01F0824F813804D800133B2F9001069
:10D6F000DBB29942F3DA0CE0DA1E914202D0DA1C76
:10D70000914208D1124B4FF01F0CB3F9003024F8AE
:10D7100013C0002328E05A1F914202D005339942DA
:10D72000F7D10B4A1378023B03E01F2124F81310B2
:10D730000133B2F90010DBB201319942F5DAE8E7C2
:10D7400060310020094D00201A960020549E0020D0
:10D75000509E0020A03E00206C300020FC4E002097
:10D7600000003080004D0020B0F940229A420CD1D8
:10D77000994901EB8302B2F9202031F8131034F8F3
:10D78000127047EA010124F81210B0F81822C2F111
:10D79000A10212B20B2A33DD954215D18F4991F8BF
:10D7A0001A1211F0040F0FD1214604F5C977DFF8E2
:10D7B00028C2BCF80C80B1F802C048EA0C0CA1F8F1
:10D7C00002C00631B942F2D1511E8D4202D0511C25
:10D7D0008D4206D18049B1F80CC0A4F890C1898966
:10D7E000218095420CD17C4A9189A4F890119789A7
:10D7F000A4F88E71B2F80C80A4F80280928922807D
:10D80000B0F830130B3109B28D4215D1734A92F83A
:10D81000322312F0040F0FD1224604F5C977DFF846
:10D82000B8C1BCF80880B2F802C048EA0C0CA2F8F3
:10D8300002C00632BA42F2D14A1E954202D04A1CB8
:10D8400095420CD1644AB4F890C117894CEA070795
:10D85000A4F890711289278847EA020222808D423B
:10D8600018D15D4AB4F89071118947EA0101A4F812
:10D8700090111189B4F88E7147EA0101A4F88E1154
:10D880001189678847EA010161801289218841EA8C
:10D8900002022280B0F844130B3109B28D4215D137
:10D8A0004E4A92F8462312F0040F0FD1224604F597
:10D8B000C977DFF824C1BCF80880B2F802C048EA92
:10D8C0000C0CA2F802C00632BA42F2D14A1E9542AE
:10D8D00002D04A1C954206D13F4AB2F808C0A4F8CB
:10D8E00090C1128922808D4208D13B4A1189A4F847
:10D8F00090111789A4F88E71128962800133042B6C
:10D900007FF432AF0C2D04D0354B1B88013B9D4278
:10D9100012D1B0F99032304A34F81370118947EAC5
:10D92000010124F81310B0F9A432128934F813104D
:10D9300041EA020224F8132090F8923213F0040F07
:10D940000AD1264B244AB3F99032128934F81310C5
:10D9500041EA020224F8132090F8A63213F0040FD3
:10D960000AD11E4B1C4AB3F9A432128934F81310A1
:10D9700041EA020224F813203378002B72D04FF6CC
:10D98000FF73009301230193164BF522029328465F
:10D9900004232146FFF75EFD134B1B881AB2052AAC
:10D9A00035DD0F4A9188222998BF4FF0230C19B218
:10D9B00098BFA2F804C0A4290C4919DD92884FF63B
:10D9C000FF73143A009301230193029128462146E4
:10D9D00092B2B13319E000BF6C30002060310020FA
:10D9E000A03E00202C9E0020509E0020589E00202B
:10D9F00092884FF6FF70143A0E3300900120019088
:10DA000002912846214692B29BB2FFF723FD174BA5
:10DA10004FF6FF7701260293284621460F22BD23A9
:10DA200000970196FFF716FD114B284602932146F9
:10DA30003222BD2300970196FFF70CFD0D4B2846BF
:10DA400002932146C822BD2300970196FFF702FDED
:10DA5000094B284602932146EB22BD2300970196ED
:10DA6000FFF7F8FC0FB0BDE8F08F00BF0C4C0108C9
:10DA7000449E0020114C0108389E00200D4B1B884D
:10DA8000834201D00B2801D10B4811E00B381E2333
:10DA900090FBF3F203FB12030BB9084808E00623DE
:10DAA00090FBF3F203FB120008B9054800E00548BB
:10DAB000F6F7BEBBA03E00207C4501080E470108DA
:10DAC000A0480108324A0108B0F5827F30B50B4604
:10DAD00004D0154A441C1288944201D113481DE019
:10DAE0000B2801D111481AE0A0F10A02192492FB77
:10DAF000F4F504FB152424B9B0F5827F01D20C485B
:10DB00000DE0052192FBF1F101EB81018A4204D184
:10DB1000B0F5827F01D2074800E007481946BDE80A
:10DB20003040F6F785BB00BFA03E00207C450108D1
:10DB30000E470108A0480108324A01080148F6F7DB
:10DB400077BB00BF324A010803282DE9F843054698
:10DB50000F4606D8464B502202FB0033B3F94C3037
:10DB600004E0444B03EB8103B3F92030C52B7DDC8B
:10DB70000024A6B2062E30D8032DDFF8F8803E4BE5
:10DB80000BD803EBC5035B1B13F80490384B5022F2
:10DB900002FB0533B3F84C1005E01B1993F81C90F9
:10DBA00008EB8703198C0931304689B2F6F72EFB52
:10DBB000082619F0010F14BFB8F80A0038F817004A
:10DBC000013EB6B2F6F724FB16B14FEA5909F0E769
:10DBD00038F81700F6F71CFB45E0032D23D8DFF8D3
:10DBE00090804FF0500909FB0589B9F84C10304678
:10DBF0000331711889B2F6F709FBB9F84C300333D9
:10DC0000F61805E01B4B013633F81700F6F700FB5A
:10DC1000502303FB0583B3F94C30B6B218331B1BFA
:10DC20009E42EFDB1FE0DFF84C80304608EB8709AF
:10DC3000B9F820100331711889B2F6F7E7FAB9F88C
:10DC400020300333F61805E00A4B013633F817008D
:10DC5000F6F7DEFA08EB8703B3F92030B6B21833D3
:10DC60001B1B9E42F0DB01340B2C82D1BDE8F883F4
:10DC7000603100206C300020C44B01082DE9F047D2
:10DC8000F6F7D4FA002630460C21F6F7BFFACB2778
:10DC9000954D013F6889FFB2F6F7BAFA002FF7D128
:10DCA0000136B6B20B2EEED1904CB4F910301BB148
:10DCB00038463946FFF748FFB4F960301BB1012000
:10DCC0000146FFF741FFB4F9B0301BB10220014615
:10DCD000FFF73AFFB4F900311BB103200146FFF70B
:10DCE00033FFB4F9401211B90720FFF72DFFB4F943
:10DCF0004012012902D10720FFF726FFB4F9401294
:10DD0000022902D10720FFF71FFFB4F940120329AF
:10DD100002D10720FFF718FF754F0C2138884FF00C
:10DD2000CB08013080B2F6F771FA08F1FF38688944
:10DD30005FFA88F8F6F76CFAB8F1000FF5D111E048
:10DD40001FFA86F90C214846F6F760FA6889F6F75B
:10DD50005FFA4846D621F6F759FA6889F6F758FA75
:10DD60000136B6B23B8808F10B0201339A4208F142
:10DD70000108E5DDB4F890120A200B3189B2F6F7FC
:10DD800045FA0526013E2889B6B2F6F741FA002E7B
:10DD9000F8D1B4F8A4120A200B3189B2F6F736FA9A
:10DDA0000536013E2889B6B2F6F732FA002EF8D1D0
:10DDB0003888B4F8901201300B3180B289B2F6F78E
:10DDC00025FA0536013E2889B6B2F6F721FA002E6B
:10DDD000F8D13888B4F8A41201300B3180B289B27E
:10DDE000F6F714FA0536013E2889B6B2F6F710FAAE
:10DDF000002EF8D1B4F81882C8F1A1081FFA88F8EB
:10DE00000FFA88F30B2BC14620DDA8F102081FFA98
:10DE100088F8474612E01FFA87FA0C215046F6F7B9
:10DE2000F5F9A889F6F7F4F95046D621F6F7EEF998
:10DE3000A889F6F7EDF90137BFB201360FFA88F27B
:10DE40000FFA89F3B21802339A42E4DDB4F8309342
:10DE5000002609F10B081FFA88F8A8F10207BFB2E3
:10DE600012E01FFA87FA0C215046F6F7CFF92889FD
:10DE7000F6F7CEF95046D621F6F7C8F92889F6F715
:10DE8000C7F90137BFB2013609F1090212B20FFA20
:10DE900088F3B21802339A42E3DDB4F844830024D5
:10DEA00008F10B07BFB2BE1EB6B212E01FFA86F928
:10DEB0000C214846F6F7AAF92889F6F7A9F9484649
:10DEC000D621F6F7A3F92889F6F7A2F90136B6B2FA
:10DED000013408F1090212B23BB2A21802339A428D
:10DEE000E4DDBDE8F08700BF6C3000206031002029
:10DEF000A03E00202DE9F84359200021F6F786F9CD
:10DF00000C24013C40F21F50A4B2F6F781F9002C1A
:10DF1000F7D121465A20F6F779F90C34013C40F24A
:10DF20001F50A4B2F6F774F9002CF7D121464FF434
:10DF30009A70F6F76BF90C34013C40F21F50A4B212
:10DF4000F6F766F9002CF7D1214640F23510F6F7C6
:10DF50005DF90C34013C40F21F50A4B2F6F758F9B9
:10DF6000002CF7D15B261CE028460021F6F74EF97D
:10DF70000027444B185B384110F0010018BF40F2F5
:10DF80001F500137F6F744F90C2FF2D10234013556
:10DF9000102CADB2E8D10836B6B240F233139E422F
:10DFA00003D0B6B235460024DEE7374CC820B4F9BA
:10DFB00018320021584340F6886390FBF3F05B3041
:10DFC00080B2F6F723F90925013D4FF6FF70ADB297
:10DFD000F6F71EF9002DF7D104F024F9B4F9183240
:10DFE000C822534340F6886293FBF2F34FF64C622B
:10DFF00092FBF0F25C339B18294698B2F6F706F9CB
:10E000000935013D4FF6FF70ADB2F6F701F9002D6D
:10E01000F7D12E4627E0B4F918024FF0C80909FBE2
:10E0200000F040F6886890FBF8F0B7B25B30381823
:10E03000002180B2F6F7EAF84FF6FF70F6F7E8F83D
:10E04000B4F91832092109FB03F999FBF8F808F132
:10E050005B084744B8B2F6F7D9F84FF6FF70F6F709
:10E06000D7F80136B6B204F0DDF84FF64C622B4615
:10E0700092FBF0F201359A42CDDA002384F82E3279
:10E08000BDE8F883E84B01086031002038B54FF453
:10E090009C740FE0294620460135F6F7B7F8ADB27B
:10E0A0000020F6F7B5F8D82DF4D10134A4B2B4F5B8
:10E0B000C87F01D00B25EDE7024B002283F82E220A
:10E0C00038BD00BF603100202DE9F04300232A4C09
:10E0D0001A462A4D94F80090EE791FFA82FC4E44BD
:10E0E000643EB6B206F1FF391FFA89F9B9F1C60FDD
:10E0F00014F8018CAF790FD847446C3FBFB25FB1C1
:10E10000F92F09D8874207D11D4F31F81680FF88B3
:10E1100048EA070721F81670EE7966450FD1052801
:10E120000DD9164EB679371D874208DB043E86426C
:10E1300005DC134EB788CE5A47EA0606CE52AD79B3
:10E14000854210D1BCF1050F0DD90C4DED792E1D76
:10E15000964208DB043D954205DC094DAE88CD5A58
:10E1600046EA0505CD52013204340233B2F5807F10
:10E17000AFD1BDE8F08300BFFD4E0020A03E0020DF
:10E180006C300020020C0302D2B2400903F4784341
:10E1900043EAD20300F4FC6043EA0000704730B564
:10E1A000040C0D0CE4B2EDB22D1B5543030A04EB35
:10E1B00025240D0ADBB2EDB2ED1A5543C0B2C9B247
:10E1C000091A4A4303EB2523DBB200EB22201B0292
:10E1D000E4B243EA0444C0B244EA000030BD70B582
:10E1E0000F4D00243221B4FBF1F2D0B201FB1242F8
:10E1F0000C4BD2B203EB80061002821A92FBF1F2B2
:10E20000D2B2D6F8D41DD6F8D00DFFF7C8FFFFF76D
:10E21000B9FF0134E4B2C82C25F8020FE2D170BD79
:10E22000A63E0020283E010810B50C46FFF7D7FF98
:10E23000084B214603F5C77233F9020F064CC72875
:10E24000A8BFC72004EB40000089934221F8020FC9
:10E25000F2D110BD1A960020A03E0020274B70B5C9
:10E260004FF4F07200F0010602FB0635044686F01A
:10E27000010602FB0636F5F7D9FF20460D21F5F71A
:10E28000C5FF1F4BB3F9F031062B31D8DFE803F09F
:10E29000040404041313220020463146FFF7EEFB6A
:10E2A0000B2C25D9174B1B88A34221D92046294680
:10E2B000FFF712F91CE020463146FFF705FC0B2C56
:10E2C00016D9104B1B88A34212D920462946FFF7C6
:10E2D000FBFE0DE020463146FFF730FC0B2C07D942
:10E2E000084B1B88A34203D920462946FFF79CFF11
:10E2F0002846C921BDE87040F5F794BF384000209A
:10E3000060310020A03E002070B52A482A49F5F768
:10E310008FFFF5F78BFF294AB2F8F031043B9BB22F
:10E32000012B0AD8B2F910303BB92549692058545D
:10E33000043340F224618B42F7D1B2F8F031043B50
:10E340009BB2012B0CD81D4BB3F9603043B91C4B69
:10E3500003F5C46104316420587004338B42FAD150
:10E36000B2F9F031174C062B01D00B2516E0B4F8AA
:10E37000582523889A4202D90023A4F85835B4F8C6
:10E380005805FFF76BFFB4F858350133A4F858353A
:10E3900007E02846FFF762FF0135ADB22388AB42A4
:10E3A000F7D26388A380F5F73BFFBDE87040F5F72F
:10E3B0003DBF00BF324A01083840002060310020D4
:10E3C000FC4E0020A03E002013B503460C4601A8D9
:10E3D000194601F02DF89DF80430002023719DF8B6
:10E3E000053063719DF80630A3711CBD4FF6FF73B5
:10E3F000984252D01F3B00EA03034FF6E07293426B
:10E400004DD043055B0D40F2FF72934249D04FF669
:10E410001F0300EA03034FF61F02934243D000F4A8
:10E42000FC63B3F5FC6F40D04BF6E05300EA030306
:10E430004BF6E05293423AD040F2F75300EA03031E
:10E4400040F2F752934234D04BF6170300EA03032D
:10E450004BF6170293422ED000F4BC63B3F5BC6FA9
:10E460002BD047F6EF3300EA030347F6EF3293422F
:10E4700025D040F21F5300EA030340F21F5293429B
:10E480001FD000F47843B3F5784F1CD000F01F0084
:10E490001F2814BF0D200C2070470020704701205A
:10E4A00070470320704705207047072070470220FF
:10E4B00070470420704706207047082070470920E5
:10E4C00070470A2070470B20704730B5164A87B056
:10E4D0005168044610686B4603C39068694618602B
:10E4E0002046FFF771FF1148694603AA05ABF5F70F
:10E4F000CDFE0446A0B905460C4803A9F5F7C8FEB1
:10E5000068B90B494FF4C8724819A1F5007105F5B7
:10E51000C87505F0DBF9B5F5C86FEDD100E008244A
:10E52000204607B030BD00BF164C0108FA4300205A
:10E53000FA45002070B52A4A88B051680446106830
:10E5400001AB03C3906801A91860002320468DF831
:10E550001030FFF739FF234801A905AA07ABF5F7EB
:10E5600093FE204E0446002835D1304621464FF414
:10E57000007205F053FA1C4D1EE01C496118C95C7D
:10E58000043302F8011F40F23C618B42F5D1B5F82B
:10E590004C3005A9134886F88F31F5F77BFE01460C
:10E5A000D8B9FE2004F0030340F20A520134FEF70A
:10E5B000A9FE5035042C02D00D4A0023DDE709489E
:10E5C0004FF4006105AA07ABF5F766FE002814BFFB
:10E5D0000920002002E00A2000E0092008B070BDF8
:10E5E000164C0108FA43002060310020FC4E002048
:10E5F000FB4300202DE9F047484A86B051680446A5
:10E6000010686B4603C39068694618602046FFF7A0
:10E61000DBFE4348694603AA05ABF5F735FEDFF894
:10E620000081002873D13F4B424603F1340153F877
:10E63000040B8B4242F8040BF9D11B881380384B32
:10E64000002239490024895A023201F4784000122C
:10E6500083F8360001F4FC60C010C90083F837006D
:10E6600083F8381083F839400433202AE9D176271B
:10E67000264638E021462846F5F7C8FDF5F7F4FDB3
:10E680008146681C214680B2F5F7C0FDF5F7ECFD28
:10E6900082464846FFF7AAFE81465046FFF7A6FE8F
:10E6A00000EB091008F807000137BFB2B7F5007F8B
:10E6B00010D31B4803A9F5F7EDFD074648BB7308C7
:10E6C000FE200136394640F20A5203F00303B6B287
:10E6D000FEF718FE0235ADB2B5F5C87FCAD10134D8
:10E6E000A4B2F02C01D00025C4E727B10C4803A93F
:10E6F000F5F7D0FD68B90A484FF43C4103AA05ABD1
:10E70000F5F7CAFD002814BF0920002002E00A2006
:10E7100000E0092006B0BDE8F08700BF224C0108E8
:10E72000FA4300209C300020D2300020F0B53E4A51
:10E7300087B05168044610686B4603C39068694609
:10E7400018602046FFF740FE3848694603AA05AB2B
:10E75000F5F79AFD002862D1354F0546334C39460E
:10E760004FF40072204605F0B1F8204603A9F5F7F2
:10E7700091FD0646002854D16B080135FE20314634
:10E7800040F20A5203F00303EDB2FEF7BBFD202D69
:10E7900007F50077E2D131464FF40072204605F0CC
:10E7A0003DF9244B04F12000224619461D8A1580AC
:10E7B0009D8C55801D8F9580B3F84C505033D5807B
:10E7C00008328242F2D1B1F8A0311B4A2384B1F859
:10E7D000B4516584B1F93830184DD25CA5F12800E8
:10E7E000A284174A32F81320E284B1F98830154A1E
:10E7F00003A9D25C2285144A32F813206A80F5F707
:10E8000049FD70B9A5F128004FF4844103AA05AB76
:10E81000F5F742FD002814BF0920002002E00A207D
:10E8200000E0092007B0F0BD2E4C0108FA4300209B
:10E830001856002060310020C455002022440020DA
:10E84000763E0020CE5500208A3E00202DE9F0477C
:10E850005C4A88B051680746106801AB03C39068F2
:10E8600059491860594C00234AF655228DF810304A
:10E8700001F5066001F50463A1F840280A330A3067
:10E8800022462546168A23F8086CB2F824E023F8BD
:10E8900006EC168F23F8046CB2F84CE0503223F8E3
:10E8A00002EC08338342EDD1B5F8A021B5F8B431BC
:10E8B000A1F86228A1F864384548464B4649002231
:10E8C000464EDFF82CA116F802E023F808EC30F8E9
:10E8D00002EF23F806EC1AF802E0013223F804EC08
:10E8E00031F802EF23F802EC0833082AE8D101A935
:10E8F0003846FFF769FD344801A905AA07ABF5F7CB
:10E90000C5FC8046002859D181462F4F05A93846BD
:10E91000F5F7BEFC00284FD13148394648444FF442
:10E92000007209F5007904F0D1FFB9F5804FECD100
:10E93000384605A9F5F7ACFC00283DD107F12001C8
:10E940003B461A8822825A88A2849A882287DA88CB
:10E950000833A4F84C200222A27484F8262084F8FC
:10E960003A2084F84E2050348B42EAD13B8CA5F8F3
:10E97000A031798C85F8A221A5F8B41185F8B621CB
:10E98000BA8CB5F938301749F254FE8C164A22F881
:10E9900013603A8DB5F988300AF803204988134A84
:10E9A00022F8131095F85231012143F00203A5F823
:10E9B000501185F8523101E04FF00808404608B088
:10E9C000BDE8F0872E4C0108FA430020603100209A
:10E9D000743E0020684C0020883E0020C455002072
:10E9E0001856002022440020763E00208A3E002057
:10E9F000CE55002028484AF65523B0F8402870B577
:10EA00009A4247D1254B00F5046200F506650A32AB
:10EA10000A351C4632F8081C198232F8061C998403
:10EA200032F8041C198732F8021C0832A3F84C1083
:10EA30000221997483F8261083F83A1083F84E1057
:10EA40005033AA42E6D1B0F86238B0F86458A4F85E
:10EA5000A03184F8A21184F8B611A4F8B451104B77
:10EA6000104C1149002233F8086C104D565533F8FC
:10EA7000065C24F8025F33F8046C0D4D565533F8EC
:10EA8000025C01320833082A21F8025FEBD1002131
:10EA9000A0F8401870BD00BFFA430020603100208C
:10EAA000684C0020743E0020883E0020C4550020A1
:10EAB000CE5500200E4B10B5502404FB0033B3F9A3
:10EAC00038000C4B463C04FB0034002305E02128B1
:10EAD00008BF0138C8540133DBB214F8010B002819
:10EAE000F5D12C24CC54C91801334870137010BDD3
:10EAF000603100202C4D00202DE9F047A84A8AB053
:10EB000051680446106801AB03C3906801A91860FE
:10EB10002046A44CFFF758FC204601A904AA06ABE6
:10EB2000F5F7B2FB002840F034819F4BE11D1A68D5
:10EB300022609A889B79A280A3710DF12702FFF7CA
:10EB4000B9FF9A4B9DF827101868CD1D6051988821
:10EB50009B7962190E319080937161180DF1270233
:10EB60000120FFF7A7FF9DF82780914B08F10708C8
:10EB7000A84404EB080203F10C0153F8040B8B4288
:10EB800042F8040BF9D119888A4E9B781180937052
:10EB900008F10F0806F580490025874B8748B3F92F
:10EBA000381056F8042B30F8110002F0FF024243EF
:10EBB000834802F50072415601EB922211B20029FE
:10EBC00003DDFF2902DDFF2200E000228DF8202076
:10EBD000B3F988007B4A32F8101056F8042C02F47E
:10EBE0007F477943784F090A385601F5007100EBE9
:10EBF000912108B2002803DDFF2802DDFF2100E09B
:10EC000000218DF8211012F4803F0EBFB3F8EC10F4
:10EC100093F8EC1014318DF8221012F4003F0EBF5F
:10EC2000B3F83C3193F83C3114338DF8233000278E
:10EC300008ABD95D07A800F0FBFB002321E00AAA7E
:10EC4000D31813F80C3C13B304F8083008F101088A
:10EC5000B8F5007F12D3534804A9F5F71BFB804693
:10EC6000002840F098806B08FE200135414640F2B4
:10EC70000A5203F00303EDB2FEF744FB9DF8273080
:10EC800001338DF827309DF82730022BD7D92C235C
:10EC900004F8083008F10108B8F5007F11D34148A5
:10ECA00004A9F5F7F7FA8046002874D16B08FE2016
:10ECB0000135414640F20A5203F00303EDB2FEF77C
:10ECC00021FB0137042FB3D108F101070D23B7F55C
:10ECD000007FAA4604F8083012D1324804A9F5F79B
:10ECE000D9FA0746002856D14FEA5A030135FE20CB
:10ECF000394640F20A5203F00303EDB2FEF702FB7D
:10ED000007F101080A23B8F5007FE35512D1254821
:10ED100004A9F5F7BFFA074600283CD16B08FE208E
:10ED2000394640F20A5203F00303FEF7EBFA0135CD
:10ED3000EDB2B8464E457FF430AFB8F1000F1DD0AC
:10ED40000D2304F8083008F10108033B08F1010223
:10ED500004F80830A0180021C2F5007204F05EFE2D
:10ED600004A91048F5F796FA0146A0B96B08FE20F1
:10ED700040F20A5203F00303FEF7C4FA094869029D
:10ED800004AA06ABF5F788FA002814BF0920002072
:10ED900002E00A2000E009200AB0BDE8F08700BFC9
:10EDA0005B4C0108FA4300203A4C0108424C010830
:10EDB0004A4C01081856002060310020763E0020A1
:10EDC000C45500208A3E0020CE550020F0B587B003
:10EDD000F5F734FA0146684600F0C7FB57238DF873
:10EDE0000830073B8DF809304A4C04338DF80A305F
:10EDF000543B8DF80B302046694603AA05ABF5F766
:10EE000045FA0546002840F08280204603A9F5F720
:10EE10003FFA002876D1218801F0FF03062B73D139
:10EE20002A462B46A05C01321B18B2F5007FDBB2EC
:10EE3000F8D1002B6AD1384A090A117035490A46BF
:10EE400032F8020F354C18551E190233000A0E2BEA
:10EE50007070F5D1324B2F4A03F58260148A1C8200
:10EE6000568A9E84948A1C87D68A0832A3F84C60FE
:10EE700050338342F2D1274A00232A48B2F878401F
:10EE800018180C3344710232240A6C2B0471F4D12B
:10EE9000254B264C26480022B1F88A60254FD655CE
:10EEA000254F360AD655B1F88C60244F24F8026BF2
:10EEB000B1F88E6020F8026FB1F890600831D65535
:10EEC0001F4F360AD65501320A2AE5D1B3F8501041
:10EED0001C4A1180B3F852409480B3F854101A4A77
:10EEE0001170B3F85610194A1170B3F85810184A37
:10EEF0001170B3F85A10174A1170B3F85C20164B12
:10EF00001A7004E0082502E0052500E006252846E1
:10EF100007B0F0BDFA4300200E4D00201E4D00202A
:10EF200060310020F430002084440020763E002030
:10EF3000883E0020C4550020CE5500201C550020DE
:10EF4000265500208C3000200A4D0020004D002066
:10EF5000074D0020A63E0020A73E0020F0B589B056
:10EF6000F5F76CF9014601A800F0FFFA57238DF878
:10EF70000C30073B8DF80D3004338DF80E3072489D
:10EF800001A904AA06ABF5F781F96F4C18B1042862
:10EF900040F0D7802DE04223BDF810008DF80C30F2
:10EFA000013B8DF80D300A33ADF81C008DF80E30A2
:10EFB000204601A904AA06ABF5F766F9002840F03F
:10EFC000BE80204607A9F5F763F9002840F0B58018
:10EFD000204604A9F5F75EF9002840F0B2802046EB
:10EFE0004FF4007104AA06ABF5F756F9002840F07B
:10EFF000A88057238DF80C30534D073B8DF80D300A
:10F0000004338DF80E30284601A904AA06ABF5F7A3
:10F010003BF90646002840F09280284631464FF4DE
:10F02000007204F0FBFC494B1B781B0206332B805B
:10F030002B46474AB1184878B15C000202364218A4
:10F040000E2E23F8022FF4D1424B3F4A03F5826182
:10F050001E8A1682988C50821E8F9682B3F84C00BE
:10F060005033D08208328B42F2D1374A00233A49DA
:10F0700059180E794879360231180C33A2F87810F5
:10F0800002326C2BF3D1354B354836490022364ECF
:10F09000364F9657D7573602F619A5F88A6030F8DA
:10F0A000026B334FA5F88C6031F8026FA5F88E60C3
:10F0B000304ED757965701323602F619A5F89060B0
:10F0C00008350A2AE3D12C4A1088A3F85000928808
:10F0D000A3F85220294A1278A3F85420284A12781B
:10F0E000A3F85620274A1278A3F85820264A127807
:10F0F000A3F85A20254A1278A3F85C2000231A4668
:10F10000E15C0133521840F2FF118B420E4DD2B236
:10F11000F6D15242284604A985F8FF21F5F7BAF83E
:10F1200078B928464FF4007104AA06ABF5F7B4F895
:10F13000002814BF0920002004E0082002E00A2073
:10F1400000E0092009B0F0BDFA4300200E4D002078
:10F150001E4D002060310020F43000208444002047
:10F16000763E0020883E0020CE550020C455002069
:10F170001C550020265500208C3000200A4D002010
:10F18000004D0020074D0020A63E0020A73E002095
:10F19000034609B905E058430139C9B20029FAD13B
:10F1A000704701207047034B18801A8892B2002ADA
:10F1B000FBD17047E84C00202DE9F74F9DF830B0A7
:10F1C000B1F1004F0C4615461E465FFA8BF913D17C
:10F1D0000346202203F8012B0E3242705A1C33469C
:10F1E00001E020214170013BDBB20130002BF8D15E
:10F1F000013EF6B29355AFE0B9F1000F18D10029E6
:10F2000000F1010305DD4FF02B0880F8008018465F
:10F2100010E006D04FF02D0880F800804C421846D0
:10F2200008E03022027018462E230370884601E061
:10F230004FF0000821460522002306E001330A278B
:10F24000B342C8BF7A4391FBF7F10929F6DCB34218
:10F25000A8BFA4182246002703E00A2192FBF1F27E
:10F260001F46092A07F10103F7DC032E4FF0030ABA
:10F270000BD997FBFAF793FBFAFA0AEB4A0AB3EBBE
:10F280000A0A08BF4FF0030A05E093FBFAF707EB01
:10F29000470ACAEB030A831931460A200193FFF794
:10F2A00077FF019B02E00A2294FBF2F48442FAD237
:10F2B000002204E015F8011B0029FBD10132BA42FB
:10F2C000F8DB1A46297802F8011F15F8011B0029FE
:10F2D000F8D114E00A2194FBF1F201FB1241013E46
:10F2E0003031B9F1020FF6B203F80119144606D015
:10F2F000002F04DDB24502D12E2203F80129002E91
:10F30000E8D1B9F1020F07D0B9F1000F20D01FBB2F
:10F310002E225A70023201E0F7B920221A701BE047
:10F320001878302818D0587983F807B09871187970
:10F330005871D878187198789A703022B8F12D0FDA
:10F34000D8700A7002D183F8008005E02B22E5E72F
:10F350005A78591C2E2AE3D0BDE8FE8F70B51B4B9E
:10F3600086B005460C4601AA03F1100618685968D4
:10F370000833B34203C2F9D11B781370A5F16103BE
:10F38000DBB2192B01D8203DEDB2A4F16103DBB251
:10F39000192B01D8203CE4B200230DF103021846DA
:10F3A00012F8011FA94204BF1818C0B21033DBB213
:10F3B000002BF5D101A9C95CDAB2A14204BF101833
:10F3C000C0B20133102BF5D106B070BD7A4F0108E1
:10F3D00042F2107230B5B1FBF2F4034604F130058D
:10F3E00003F8015B02FB14154FF47A72ADB2B5FB62
:10F3F000F2F101F13004447002FB1150642280B23A
:10F40000B0FBF2F502FB150005F13001597080B236
:10F410000A21B0FBF1F202F1300501FB12025C1C83
:10F420003032023365705A7002340023637030BD8D
:10F43000642230B5B1FBF2F5034605F1300403F860
:10F44000014B02FB15140A21E4B2B4FBF1F202F104
:10F45000300501FB124230324570581C5A700023AF
:10F46000437030BD002930B500F1010202DB2B23CF
:10F47000037003E02D234942037049B2642491FBD9
:10F48000F4F004FB1011134600F1300549B22E20B0
:10F490005A3C03F8015B507091FBF4F004FB10112F
:10F4A00000F13005303100225D709970DA7030BDA6
:10F4B0006423B1FBF3F202FB131370B5DBB20A262F
:10F4C000B3FBF6F506FB15330446303305F1300285
:10F4D00004F8012B43700023637070BD9F294FEA2D
:10F4E000111200F1010301D9373200E0303201F08E
:10F4F0000F010929027003F1010201D9373100E03F
:10F5000030311970002313707047B1F5204F4FEA66
:10F51000113200F1010301D3373200E03032090526
:10F52000090DB1F5206F02704FEA112003F10102BD
:10F5300001D3373000E03030C9B29F2918704FEA4C
:10F54000111002F1010301D9373000E0303001F031
:10F550000F010929107003F1010201D9373100E0D0
:10F5600030311970002313707047B1F1204F4FEA0A
:10F57000117200F1010301D3373200E0303221F083
:10F580007041B1F1206F02704FEA116003F1010286
:10F5900001D3373000E0303021F07F41B1F5200F4A
:10F5A00018704FEA115002F1010301D3373000E027
:10F5B000303021F07F4121F47001B1F5202F10701F
:10F5C0004FEA114003F1010201D3373000E030303F
:10F5D00009041870080CB0F5204F4FEA117102F1C0
:10F5E000010301D3373100E0303100051170020D05
:10F5F000B2F5206F4FEA107003F1010101D33730EB
:10F6000000E0303002F0FF029F2A18704FEA12101B
:10F6100001F1010301D9373000E0303002F00F0270
:10F62000092A087003F1010101D9373200E03032B4
:10F630001A7000230B70704710B54FF4004310216F
:10F640001A4603FB03F4844288BF53405208013931
:10F6500001D1184610BD1343F3E738B50420F4F781
:10F66000F9FD2C49C2430C8892B2A4B222EA0404E8
:10F67000A3B2002B34D028481E25057013F00800D3
:10F6800018BF092003F04005002D18BF0A2003F41D
:10F690008075002D18BF032003F40075002D18BFDE
:10F6A000042003F48065002D18BF052003F40065D5
:10F6B000002D18BF062003F48055002D18BF072029
:10F6C00003F40055002D18BF022003F48043002BE3
:10F6D00018BF012024B230EA240028BF08200AE025
:10F6E0000888104007D00C48007818B90B4B1C78DC
:10F6F0000CB902E018460A8038BD12F4806018BFC9
:10F70000052002F40064002C18BF062002241C709F
:10F71000F1E700BFFC4C0020F84C0020F94C002021
:10F72000104B0022011E10B5DA7715D001DA4942DC
:10F7300001320D4B18460A2391FBF3F403FB14111D
:10F740000A4B5B5C21460370431E002CF2D13AB198
:10F7500018462D23037010BD1846302300F81E3FB5
:10F7600010BD00BFBE4C0020DC4C0020684C0108DE
:10F770002DE9F04F002491B002F1FF3C0F46064600
:10F7800023461CE015466D1005EB0308E045FADC46
:10F7900005F1FF3808EA03035B19A3420DDD758804
:10F7A00030F81380A6F8028020F813507D8831F8D5
:10F7B0001390A7F8029021F8135002360237013453
:10F7C0006445DFDD4FF0080ACDF818A001240D9044
:10F7D0000E91B9E00E9B610003930D9B00200493F2
:10F7E000A8E0DDF818805B4B00FA08F503EB45064E
:10F7F000738AB6F912515B42DDF81090DDF80CA067
:10F800001BB26D1067005B104FF0000B0B9509EBFE
:10F81000070C0C934FEA4108574456464D46CDF825
:10F820001CB00F946EE00B9B1BB208934B005B4225
:10F830003CF90340DDF820A0099404FB0AF90C9C74
:10F840004FEAA93BCDF804B037F903B024B20A94CB
:10F850000BFB04F44FEAA43ACDF814A0DDF804A0A1
:10F860000AF0010ACDF804A00AEBE939DDF814A08A
:10F870001FFA89F9A9EBE4390AF00104C4EB090481
:10F88000A4B20594089CDDF824A00BFB04FB4FEA0E
:10F89000AB39CDF82090DDF828900AFB09F44FEA47
:10F8A000A43ACDF824A0DDF820A00AF0010909EB64
:10F8B000EB391FFA89F909EBE439F45ADDF824B081
:10F8C0000894EC5E0BF0010A6410DDF814B0A4B2E9
:10F8D000D144CBEB040A2CF803A0DDF820A01FFADA
:10F8E00089F90FFA8AFB4FEA6B0B1FFA8BFBC9EB06
:10F8F0000B0A27F803A0DDF814A0D9445444EC52B5
:10F9000026F80390DDF81CB0431A8B445B44934205
:10F91000CDF81CB0C44447444544464483DB049BB3
:10F92000DDF80C80023308F102080F9C01300493CB
:10F93000CDF80C80A042FFF654AFDDF818900C46CD
:10F9400009F1FF39CDF818909442FFF643AF11B09A
:10F95000BDE8F08F684C01087047FEE7FEE7FEE760
:10F96000FEE77047704770477047704770477047B1
:10F9700070477047704770477047704770477047CF
:10F9800070477047704770477047704770477047BF
:10F99000F4F736BCF4F736BC7047704770477047D1
:10F9A000704770477047704738B513200021F4F74F
:10F9B0004DFC384B1A781C461AB11A78013A1A7065
:10F9C00038BD14232370636813B16368013B63601F
:10F9D0002289304B92B2142A02D91A89143A00E0D3
:10F9E00000221A8162892B4B92B2132A03D95A89B9
:10F9F000143A5A8103E003200021F4F727FC237B0B
:10FA0000244D312B03D82B7B01332B730EE00023C5
:10FA1000042001212B73F4F719FCEB890133EB81EE
:10FA20002B8A9BB213B12B8A013B2B82A27C194BF0
:10FA30000132A274A27C0E2A09D900229A74DA7CBF
:10FA4000D2F1010238BF0022DA7401221A75E28A6B
:10FA5000104B92B212B1DA8A013ADA82227E0D4B51
:10FA600012B11A7E013A1A76627E0A4B12B15A7EA0
:10FA7000013A5A76FFF7F1FD58B1074BA076B3F97A
:10FA8000E4130320013901EB8101F4F7DFFB3C2390
:10FA9000638138BDE04C0020603100207047704722
:10FAA000704770477047704770477047704770479E
:10FAB000704770477047704770477047704770478E
:10FAC000704770477047704770477047704770477E
:10FAD000704770477047704714490B78A3F10D02C7
:10FAE000D2B2082A03D90B2B01D00C2B0ED1104A0D
:10FAF000D05C50225A43142303FB00230D4A9B1869
:10FB00009A7842F002029A7000230B700A4B00228E
:10FB10001A700A4B40F2931018800B78082B04D10E
:10FB2000034B197A022908BF1A7270470E4D002044
:10FB30001E4D002070310020004D0020A03E00200E
:10FB400010B5344CB4F82833B4F9302319B2633902
:10FB5000914202DC643BA4F83033B4F83C33B4F98E
:10FB6000442319B26339914203DC2A4A643BA2F868
:10FB70004433FEF78BFA284A01231370274A40F2D8
:10FB800037111180264A1370264B03F16C02D97A83
:10FB900041F00201D9720C339342F8D194F8BA3291
:10FBA00043F0020384F8BA3294F85A3343F0020364
:10FBB00084F85A3394F8CE3243F0020384F8CE32FC
:10FBC00094F86E3343F0020384F86E3394F8823372
:10FBD00043F0020384F8823394F8D23343F00203F3
:10FBE00084F8D23394F8963343F0020384F89633C2
:10FBF00094F8E63343F0020384F8E63301F058F951
:10FC0000002420460134E4B201F09EF9092CF8D119
:10FC100010BD00BF60310020004D0020A03E00203C
:10FC2000323A0020F43000202DE9F04F4FF0006010
:10FC300089B0914903F05AF9F4F718FB0B20F4F757
:10FC400009FB034640B98D4A302000921E2140F244
:10FC5000FF72F4F7F9FAFEE7894B32214FF6FF7293
:10FC6000009320200023F4F7EFFA0720F4F7F2FACC
:10FC7000844B18600820F4F7EDFA834B18600920D4
:10FC8000F4F7E8FA814B18600A20F4F7E3FA804BA6
:10FC9000186001F031FFFFF799F8064638B97D4B3F
:10FCA000302000931E214FF4FC62334606E07A4B6D
:10FCB000302000931E2140F2FF720023F4F7C4FAB3
:10FCC000764B4FF4FA701880FCF732FA02F002F823
:10FCD000734D744F00233B702B78734C012B734B87
:10FCE0000DBF40F2371140F28D121A801980B4F81E
:10FCF000F031B4F89C006B70B4F84C30EA796B804A
:10FD00006B4B4FF0000A1988A8800691AA71CDF8B4
:10FD100014A0D046CDF81CA0CDF810A09946B4F997
:10FD2000F0216978604B8A42DFF874B175D0042AFB
:10FD300023D1029301F094FF9BF80120029B032A38
:10FD400007D8B3F84C20B3F89C30ABF80220ABF8DE
:10FD50000430584A87211170574A6423A4F84C3064
:10FD6000A4F89C3013702B782B720BB9FFF7E8FEC8
:10FD7000B9F800300693EB79AB71B4F9F031DFF8E4
:10FD800028B1052B24D101F06BFF6A78444B032A7C
:10FD90000BD8BBF84C001A78BBF89CB05880A3F87D
:10FDA00004B01A720AB9FFF7CBFE6A783C4B042AFA
:10FDB00004D106999A79A9F80010DA713D4A872191
:10FDC00011703D4A6423A4F84C30A4F89C301370A1
:10FDD000B4F9F031032B01DD062B1ED16B78DFF86F
:10FDE000C0B0032B19D9062B17D0BBF80430BBF8D1
:10FDF0000220A4F89C30A4F84C2001F031FF9BF8BD
:10FE000008300BB9FFF768FE6A78254B042A04D145
:10FE100006989A79A9F80000DA71B4F8F031224A0C
:10FE2000191F89B201296B700DD872216420042B2F
:10FE3000A2F84C10A2F89C0005D1194B0022C82151
:10FE4000DA71A9F80010B4F800310A3B9BB2012B1B
:10FE500001D8012300E00023DFF860B06B72BBF82B
:10FE6000001089B261BB0220F4F7F0F914200121DF
:10FE7000F4F7ECF9E8E000BF00C000088B4F010880
:10FE8000B14F0108689E0020305500206C9E002074
:10FE9000709E0020D64F0108FD4F0108EA4C00205B
:10FEA000004D0020FA4C002060310020A03E0020D0
:10FEB0008C300020A63E0020A73E0020F04C002001
:10FEC00002F020FEA94B1B889BB2BBB194F85A33B9
:10FED00043F0020384F85A3394F8BA3243F0020331
:10FEE00084F8BA3294F8CE3243F0020384F8CE326A
:10FEF00094F86E3343F0020384F86E33049A079843
:10FF0000531C9BB204939A4B1A8892B2904216D01B
:10FF10001B8804999BB20793964B198001F02EFE23
:10FF20002B78012B09D10026F0B2013601F00CF834
:10FF3000092EF9D10022049201E0002304932B78CA
:10FF4000012B01D100F0B4FF01F058FB8A4803787F
:10FF5000002B76D0EB795BB9B4F84022874902F5E3
:10FF6000A062009140F26D10D82192B2FDF704FA20
:10FF7000EB79012B0BD1B4F84022814902F5A06244
:10FF8000009140F26D10D82192B2FDF7F5F9EB79AE
:10FF9000022B0CD1B4F840227A4B02F5A0620093F8
:10FFA00040F26D10D82192B20123FDF7E5F9EB790B
:10FFB000032B0CD1B4F84022734B02F5A0620093DE
:10FFC00040F26D10D82192B20123FDF7D5F901F06E
:10FFD000FFFE01F053FF01F085FFB4F9F031042B6F
:10FFE00001D002F047F8B4F8F031043B9BB2022B89
:10FFF00001D9FDF743FEB4F994330A210133594383
:020000040801F1
:100000000220F4F723F9614B1B78092B01D0FDF78F
:1000100071FF2B78012B11D194F8BA3243F002030F
:1000200084F8BA3294F8CE3243F0020384F8CE3228
:1000300094F86E3343F0020384F86E334E49002384
:100040000B70534B00221A70B4F95031012B10D1B0
:100050000320F4F7FFF818B90230F4F7FBF840B9C1
:1000600094F85231022243F00203A4F8502184F89C
:100070005231EB79002B4BD0444B1B78072B0BD123
:10008000444BDA79022A07D194F86A2242F002023C
:1000900084F86A220022DA71B4F94032CBB93E4BBF
:1000A0003E491B78EA7909785200C91A4A430598F3
:1000B00048BF073203EBE2039BB2421D934202DCCE
:1000C000421F934205DA2C4A0121A9F80030117031
:1000D0000593B4F94032012B1AD1314B31491B78C9
:1000E000EA7909785200C91A4A4348BF073203EB3C
:1000F000E2039BB20AF10502934203DCAAF1050276
:10010000934205DA1C4A0121A9F8043011709A467D
:10011000A97A254B01290FD1B4F9F0010022032857
:10012000A4F8182201D1197008E02049B1F904128D
:100130000A2902DC022200E000221A703B78002B20
:100140003FF4EDADBBF800309BB20BB901F0C2FD3E
:100150004FF41671ABF800103B78012B61D1144BB2
:100160004FF42F721A809B4656E000BFF64C0020D9
:10017000EE4C00201C4D0020323A00202450010893
:100180002A50010830500108365001080E4D002059
:10019000F44C00201E4D002006560020045600207E
:1001A0000756002005560020E85500206031002049
:1001B000E84C00200420F4F74DF810F4804F29D0CB
:1001C000B4F95031D3F1010338BF0023A4F8503102
:1001D00094F8523143F0020384F85231A74B1B7854
:1001E000092B06D1A64BB3F90833022B01D1FEF738
:1001F00001FCB4F9F031022B13D10026A14B0022EF
:10020000F2540136B6F5C46FF8D106200121F4F797
:100210001DF806E09C4B1B88BBF800309BB2002BFE
:10022000C8D13B78022B3ED1DFF85CB240F6B83340
:10023000ABF800305B4628E004200293F4F70AF89C
:1002400010F4005F029B20D0EB790133DBB2032B6B
:10025000EB7102D98D4B0022DA71884A8C4B1178F0
:100260004FF0500E585C0EFB01F1AEF13C0E0EFB50
:1002700000116118887C40F002008874E97941B966
:10028000073111700222DA7103E01A8892B2002A53
:10029000D2D1BBF800309BB22BB9784B187801282B
:1002A00001D8FBF7B5FF3B78032B49D1764B40F2E1
:1002B000DC501880B3463DE00420F3F7CBFF10F488
:1002C000807F0FD02B785E46012B08D1B4F8F03137
:1002D000043B9BB2012B33D9FFF7FEFB30E0FFF765
:1002E0002FFC2DE0684B1B889BB21BBBFEF736FE34
:1002F000624B1B78092B1DD00426664B002140F26F
:10030000054200935B200B46FDF736F84FF49670DC
:10031000FEF749FF604B002100935B2040F205424D
:100320000B46013EFDF728F8F6B2C820FEF73BFF6A
:10033000002EE2D154490B889BB2002BBCD15E4603
:100340003B78042B40F07581DFF830B19BF800302A
:10035000092B00F0DF804C4B4FF42F721A801A46A5
:10036000C3E0042003920293F3F774FF10F4007FBC
:10037000039A029B00F0B9802A78012A40F0BA80E3
:10038000B8F1030F00F28585B4F8F00108F1010817
:10039000043880B201285FFA88F803D8B8F1010F59
:1003A00024D105E0B8F1040F20D0B8F1010F03D13A
:1003B0000120A4F8B80202E00021A4F8B812374ADC
:1003C000D17A41F00201D1720021517104311171D1
:1003D0000339D07D0131C9B240F00200D0755174AB
:1003E00082F810800C320929F3D183E02B49CA7AB4
:1003F00001F1600E42F00202CA7200224A71043218
:100400000A710A4691F817C04CF0020C81F817C027
:100410000C317145F6D1012808D9B4F9B010002982
:100420003ED11749B1F90011002939D100214FF00F
:1004300004084FF0030C4FF0020E072011741177DF
:1004400082F8281082F83410013182F8118082F885
:100450001DC082F829E082F8350082F8418082F8D8
:10046000401082F84DC082F84C1082F859E082F8B2
:10047000581082F8650082F864103BE00E4D0020B1
:1004800060310020FC4E0020E84C0020004D002090
:100490001E4D00203C500108A83D0108F43000200A
:1004A000002010741077013082F8280082F83400A0
:1004B00001304FF00408072182F8400082F84C0018
:1004C000013082F81180517782F8298082F8351046
:1004D00082F8418082F84D1082F8598082F85800E5
:1004E00082F8651082F8640004E0118889B200295E
:1004F0007FF437AF1A8892B262B9A97A8A4B29B9C8
:1005000001329A72B4F818229A8103E09A729B8998
:10051000A4F818329BF80030092B40F08A80834BF6
:1005200000210093E6200B4640F20A52FCF724FF1C
:100530007F4B50211B7801FB0342B2F9100088BBAE
:10054000B2F93820032A24D8DFE802F00209151C8A
:1005500001FB034191F82400FEF74CF818E001FB81
:10056000034191F82400FDF7E5FF06464FF47A7049
:10057000FEF719FE0DE001FB034191F82400FEF7A0
:10058000D5F805E001FB034191F82400FEF7B4FA29
:1005900006469BF80030502202FB03439A8C01323E
:1005A0009A8418E0B2F93830012B05D192F8240072
:1005B000FDF78BFF064600E000269BF80030502236
:1005C00002FB0343B3F93820022A04D193F8240034
:1005D000FEF73CF906463EB9564BE62000933146FD
:1005E00040F20A5233460DE0042E01D1524B03E093
:1005F000032E0CBF514B524B00210093E62040F2DA
:100600000A520B46FCF7B8FE4FF47A70FEF7CBFDAA
:100610009BF80030502202FB034393F8261093F816
:100620003A2041F0020142F0020283F8261083F8DA
:100630003A203B78052B40F00D81B4F8F031043BB3
:100640009BB2012B3A4B18D81A784AB93D4A127816
:10065000032A05D13C4A11782D2901D9023911709C
:100660001A78012A09D1374A5278032A05D1374A24
:1006700011781E2901D9023911701A780A2A03D07B
:10068000082A04D12A7812B9314A962111801A78A1
:100690000C2A00F2B980072A0FD12A49C979022908
:1006A0000BD1B4F9402239F8221008B211285BDDD1
:1006B0002848013920F8221056E0A2F10B01C9B2F6
:1006C000012909D8502101FB0242918C08B200286F
:1006D0004ADD0139918447E0062A1A4916D1887902
:1006E000022813D1B4F818221B4910B21E2801DDCC
:1006F0001E3A02E0002802DD013AA1F8182294F81F
:100700002E2242F0020284F82E222DE05020895C35
:1007100042433C3800FB0122A218118A08B200288B
:100720001CDD013911821FE0004D002058500108E6
:100730000E4D00205E500108645001086A50010807
:10074000705001081E4D0020A63E0020A73E00204C
:10075000F64C00208C30002060310020917A11F09E
:10076000100F1CBF108910821A78062A0AD19C4AE1
:1007700092793AB9A4F8502194F8522142F0020239
:1007800084F852211A78052A0DD1B4F9A011954A9E
:10079000042908D0052906D0B2F9B4110E2902DDCA
:1007A0000E21A2F8B4111A78092A12D1B4F9E01274
:1007B0008C4A01290DD1B2F9081311B90220A2F80F
:1007C0000803B4F90823032A03D1864A0221A2F8B8
:1007D00008131B78502202FB0343997C93F84E20A8
:1007E00041F00201997493F8261042F0020241F0A0
:1007F000020183F8261093F83A1083F84E2041F056
:10080000020183F83A1025E077480D3A0C2101FBEC
:10081000020393F80BC093F805E04CF0020C83F848
:100820000BC0BEF1000F02D00EF1FF3E01E04FF011
:100830000B0E01FB020183F805E04B79012B01D17E
:1008400003330B710C2303FB020043790B2B01D103
:100850000B3B03713B78072B40F0D28063494FF08C
:10086000500E0A785E4B0EFB02FE985C4FF0140CA3
:100870000CFB00EEA6449EF812C0022A4CF0020CBB
:100880008EF812C001D100B99A540A78032A04D113
:10089000DA7812B9524A0220D0702A7832B9087830
:1008A000082803D1187A012800F0A2800A780C2ABF
:1008B00079D84FF0500C0CFB02FC985C4FF0140BF5
:1008C0000BFB00CCA4449CF812B002284BF0020BA6
:1008D000DFF80CE18CF812B001D8013000E0002004
:1008E000052A0EF8020009D1B4F9A021042A05D185
:1008F0005A79032A02D13A4A002050710A78052A0F
:1009000009D1B4F9A021042A05D05A79022A02D1CA
:10091000334A032050710A785020504313F802E004
:100920004FF0140C0CFB0E00201890F90A00002860
:1009300004DA2B484FF0000E00F802E0502050433C
:1009400013F802E04FF0140C0CFB0E002018807A14
:1009500010F0010F04D022484FF0000E00F802E022
:100960005020504313F802E04FF0140C0CFB0E0023
:100970002018807A10F0020F08D0092A06D0052A24
:1009800004D017484FF0000E00F802E00A78995C96
:1009900050235A433C3B03FB0123E3189A7C42F06B
:1009A00001029A742CE010480D3A0C2101FB02035D
:1009B00093F804E001FB020293F80BC0BEF1030FB1
:1009C0009CBF0EF1010E83F804E04CF0020C83F89A
:1009D0000BC01379032B13D90023137110E000BF50
:1009E0001E4D002060310020F43000200E4D00200C
:1009F00094F8A63243F0020384F8A632854B1A72AB
:100A00003B78062B40F03981B4F8F031043B9BB2BF
:100A1000012B814B18D81A784AB97E4A1278032ADA
:100A200005D17E4A1178D62901D8023111701A7881
:100A3000012A09D1774A5278032A05D1784A1178D8
:100A4000A92901D8023111701A780A2A03D0082A7C
:100A500004D12A7812B9734A96201080EA7942B1FB
:100A60001A78072A05D16B4AD179022901D10239B6
:100A7000D17119780C2900F2DB8007290FD1654A62
:100A8000D279022A0BD1B4F9402239F8221008B2E7
:100A9000D02870DC6448013120F822106BE0A1F10D
:100AA0000B02D2B2012A0BD8502202FB0142918CD8
:100AB000B2F91CE008B286455DDD013191845AE04F
:100AC000062954481CD18279022A3CD1B4F8181264
:100AD000564A08B21D2809DDB2F910E2AEF11E0C2B
:100AE000604501DA1E3102E0704502DA0131A2F8F8
:100AF000181294F82E2242F0020284F82E223AE0D4
:100B00000A2920D1827A012A1DD8297801294FF09B
:100B1000140109D101FB0242B2F83013B2F92803E3
:100B20000FFA81FE643808E001FB0242B2F830138C
:100B3000B2F928030FFA81FE0C3886451BDA013121
:100B4000A2F8301317E05022405C51433C3A02FBBC
:100B50000012A218118AB2F908C00FFA81FEF445FA
:100B600002F1080001DD013104E0817811F0100F7D
:100B700001D0002111821A78062A0AD1254A9279D9
:100B80003AB9A4F8502194F8522142F0020284F8B4
:100B900052211A78052A0DD1B4F9A011234A04294B
:100BA00008D0052906D0B2F9B4110E2902DD0E20B5
:100BB000A2F8B4011A78092A11D1B4F9E0121B4A3B
:100BC00001290CD1B2F9080308B9A2F80813B4F945
:100BD0000823032A03D1154A0121A2F808131B7820
:100BE000502202FB0343997C93F84E2041F002010E
:100BF000997493F8261042F0020241F0020183F842
:100C0000261093F83A1083F84E2041F0020183F841
:100C10003A1032E01E4D00200E4D0020A63E00206E
:100C2000A73E0020F64C00208C30002060310020D0
:100C30009A48A1F10D020C2101FB020393F805E093
:100C400001FB020193F80BC0BEF10A0F94BF0EF135
:100C5000010E4FF0000E4CF0020C83F805E083F813
:100C60000BC04B790BB904330B710C2303FB02004F
:100C70004379022B01D1023B03713B78092B67D1E9
:100C8000874B1A780C2A47D85020504385494FF09B
:100C9000140C11F802E00CFB0E00201890F812E082
:100CA0004EF0020E80F812E02878012802D122B915
:100CB0000C3203E00AB90A3200E0013A1A701A78DD
:100CC000042A02D1764A032010701B7850225A431E
:100CD000C95C142000FB01216118887C092B40F0BD
:100CE0000300887434D1704B9A18917C92F84E307E
:100CF00041F00201917492F8261043F0020341F092
:100D0000020182F8261092F83A1082F84E3041F033
:100D1000020182F83A101BE060494FF00C0EA2F17C
:100D20000D000EFB001090F80BE00D2A4EF0020EA5
:100D300080F80BE001D1083200E0013A1A701B780C
:100D40000C220D3B02FB0311CB7A43F00103CB7263
:100D50003B780A2B2AD1524A524913784FF0140E8D
:100D6000C85C502159430EFB00116118887C40F08B
:100D700002008874297849B9A3F10D01C9B2082984
:100D800012D90B2B10D00C2B10D10DE00C2B01D84D
:100D90000D230AE0414B03F16C01D87A40F00200C8
:100DA000D8720C338B42F8D1002313703B78082B98
:100DB00068D13B4B1A780C2A48D850203949504307
:100DC00011F802E04FF0140C0CFB0E00201890F804
:100DD00012E04EF0020E80F812E0287818B90A2AC4
:100DE00001D1187005E00C2A01D10C3A00E0013263
:100DF0001A701A78042A02D1294A052010701B782B
:100E000050225A43C95C142000FB01216118887CE0
:100E1000092B40F00300887434D1234B9A18917C3D
:100E200092F84E3041F00201917492F8261043F08E
:100E3000020341F0020182F8261092F83A1082F87B
:100E40004E3041F0020182F83A101BE013494FF096
:100E50000C0EA2F10D000EFB001090F80BE0152A0D
:100E60004EF0020E80F80BE001D1083A00E00132AA
:100E70001A701B780C220D3B02FB0311CB7A43F056
:100E80000103CB7200233B70084B01221A70FEF75E
:100E900046BF4FF00008FFF78FBA00BFF4300020C4
:100EA0000E4D00201E4D002060310020323A0020FF
:100EB000F7B51F4C04F16C05237813F0020F14D022
:100EC00014F8076C1B4A54F80B7C32F8162014F8FF
:100ED000066C002306EB8606237034F8050C14F824
:100EE000011CBE190096FCF747FA0C34AC42E3D162
:100EF000114B1A780D3AD2B2082A18D80F4B19782C
:100F0000A9B10C2555430E4E00211970741927798B
:100F1000E088A17A647975590A4B064A04EB840487
:100F20001B782C1932F817200094FCF725FAFEBD27
:100F3000FF300020765001080E4D0020F44C0020B8
:100F4000F4300020F34C00202DE9F347AB4BAC4CC0
:100F50001A68B4F97062142101FB0622082E984623
:100F60000546D7894FF003030BD8C6F10B01B1FB3F
:100F7000F3F10A20C9B2FEF70BF94FF0010A8146DE
:100F80000AE0A6F10901B1FBF3F10A20C9B2FEF7AC
:100F9000FFF84FF0010982460323B6FBF3F3D8F8BC
:100FA000002003EB4303F61A142303FB0626D6F8AE
:100FB000C46001F037F90C2303FB054252798046E7
:100FC0000B2A00F2EF82DFE812F00C0013001C0085
:100FD00050008000DC0003016901CC01F401A30290
:100FE0002F020620F3F736F94FF47A71414350E1AE
:100FF00084480223C189844A0093013001F07F01B3
:10100000CEE203FB05431B797D4A73B9B2F87C300D
:10101000002B00F03D81B2F8A4007C4A06B21178A2
:101020007B4A12788A1A7B4910E0012B40F02E810E
:10103000B2F8CC30002B00F02B81B2F8F400764AE5
:1010400006B21178754A12788A1A754931F8161065
:1010500000B24A4312F5007144BF02F5BE610F3180
:1010600089120429D8BF002104E103FB05431B7941
:10107000634A8BB9B2F87C30002B00F00981B2F9D9
:10108000A4006849B2F9B82009568A1A6649096865
:10109000B1FBF8F85F4913E0012B40F0F780B2F89C
:1010A000CC30002B00F0F480B2F9F4005F49B2F9C3
:1010B000082109568A1A5E490968B1FBF8F85849AF
:1010C00031F8101001FB08F1CCE003FB05431B795C
:1010D0004B4A3BBBB2F97C1029B3B2F9A430514A58
:1010E000D6564C4A32F81370524B1868B0FBF8F0E1
:1010F000FEF7A2FA504AB4F9A4301268142147430B
:1011000001FB032307F50077196906EB9726B4F96D
:101110007C30042ED8BF00267143022B03D1083344
:10112000594300E000210C2202FB05421279344BA6
:10113000012A40F0AE80B3F9CC10002900F0A9805C
:10114000B3F9F430394AD656354A32F813703B4B6E
:101150001868B0FBF8F0FEF76FFA374AB4F9F430CC
:1011600012681421474301FB032307F5007719692F
:1011700006EB9726042ED8BF00267143B4F9CC3075
:101180007FE003FB05431B791D4A7BB9B2F87C3035
:10119000002B7DD0B2F9A4002249B2F9B82009563B
:1011A0001A4E8A1A1B4931F8101059E0012B6DD1E3
:1011B000B2F8CC30002B6BD0B2F9F4001B49B2F975
:1011C00008210956144E8A1A154931F8101047E0C3
:1011D00003FB05431B790A4A93BBB2F87C30002B12
:1011E00056D0B2F9A4000F49B2F9B8200956084EFA
:1011F0008A1A084931F8101032E000BF305500203B
:10120000F43000200E4D00207C35002004560020D4
:1012100006560020763E0020055600200756002086
:101220008A3E0020C455002008560020CE550020DC
:101230000C56002010560020689E002014560020F6
:10124000012B23D1B2F8CC3013B3B2F9F400994991
:10125000B2F908210956984E8A1A984931F81010A7
:101260003678714301F5007102EB91218A1C042A42
:1012700098BF0021924A1426126806FB00200269DA
:101280005143022B05D10833594302E0002100E00D
:101290001946002300938B488B4A80E103FB0543EA
:1012A0001B798A4A4BB9B2F97C30002B2FD0884B7E
:1012B000884A1B885343884A21E0012B08D1B2F9A0
:1012C000CC3023B3854B834A1B885343844A16E0B2
:1012D000022B09D1B2F91C31012B17D1814B7D4A68
:1012E0001B885343804A0AE0032B0FD1B2F96C31BB
:1012F000012B0BD17D4B774A1B8853437C4A1288C4
:1013000093FBF2F34FF4FA62534300E00023BAF187
:10131000090F4FF0060210D8B6FBF2F6B3FBF6F356
:10132000F4325343B3FBF9F9012300930E33B9FBB5
:10133000F3F164486F4A0B3B32E1B6FBF2F6B3FBC4
:10134000F6F30AFB03FAF021BAFBF1FA07FB0AF7FE
:1013500001233F0A4FF47A7100935A487943654A52
:101360001DE103FB05431B79584A33B9B2F97C10E0
:10137000002900F02881584BD4E0012B06D1B2F9A6
:10138000CC10002900F01F81554BD6E0022B06D16E
:10139000B2F91C31012B40F0ED80534BD8E0032B08
:1013A00040F0E880B2F96C31012B40F0E380504B03
:1013B000D9E003FB05431B79444A4BB9B2F97C10D1
:1013C00000292CD04C4B4D491B885943424B21E0FE
:1013D000012B08D1B2F9CC1009B3494B47491B88FE
:1013E00059433F4B16E0022B09D1B2F91C31012BB6
:1013F00014D1444B41491B8859433B4B0AE0032B12
:101400000CD1B2F96C31012B08D13F4B3B491B8801
:101410005943374B1B8891FBF3F100E00021012376
:1014200000932848394ABAE003FB05431B79274A51
:101430006BB9B2F97C10002900F0C580264A244B14
:1014400012881B8872432C49B2FBF3F22CE0012B6B
:101450000DD1B2F9CC10002900F0B580204A1F4B05
:1014600012881B8872432649B2FBF3F21CE0022B60
:101470000CD1B2F91C31012B7CD11B4A194B1288BB
:101480001B8872431F49B2FBF3F20DE0032B71D1AD
:10149000B2F96C31012B6DD1154A144B12881B889F
:1014A00072431949B2FBF3F209884E43B6FBF3F3DA
:1014B000D61A60E0CE550020075600208A3E002054
:1014C000689E00200F4D002070350020F430002071
:1014D000F2550020404B4C001A9A0020F455002091
:1014E0001E9A0020F6550020229A0020F855002070
:1014F000249A002088350020EA550020A0860100AB
:10150000EC550020EE550020F0550020A0350020BD
:1015100003FB05431B792D4A43B9B2F97C1000291E
:1015200051D02B4B1B885E432A4B1FE0012B08D167
:10153000B2F9CC10002946D0274B1B885E43274BBD
:1015400014E0022B08D1B2F91C31012B12D1244B2B
:101550001B885E43234B09E0032B0BD1B2F96C319E
:10156000012B07D1204B1B885E43204B1B88B6FB09
:10157000F3F600E000266FF00043B3FBF9F39E4260
:1015800007D809FB06F1B1FBF7F18902B1FBFAF1CB
:1015900001E04FF0004101231548164A0093033340
:1015A000FDF70AFE0C2303FB0544134B2279208927
:1015B00003EB42035A890E4BA17A00930023FBF7F9
:1015C000DBFEBDE8FC870E46D5E700BFF430002007
:1015D000EA550020F2550020EC550020F45500207B
:1015E000EE550020F6550020F0550020F85500205B
:1015F0000F4D002094350020765001082DE9F74F5B
:10160000B74B1A78052A07D15B7D023BDBB2012B71
:1016100002D8B44B1C7800E00124B34DB5F90C326C
:10162000042B1AD1D5F8240295F83412FDF700FFE7
:10163000D5F828329C201A88AC4BD8210093234639
:10164000FBF79AFED5F82832B5F830021A88D5F89B
:10165000243295F83212009320E0D5F828329C20ED
:101660001A88A34BD82100932346FBF785FEA14E91
:10167000B5F948320122009246F2905105F58E628A
:10168000594330460C320223FDF796FDD5F83C3223
:10169000B5F8440295F846121A8800962346FBF7DF
:1016A0006BFE954F4FF000080EE2237813F0020115
:1016B00000F0618123F00203042E237014F8082C3B
:1016C00001D0072E16D112F020030AD0B7F910204E
:1016D00054F80E3C34F8060C14F8041C33F81220AD
:1016E00012E012F0800F40F0E08134F8060C14F89C
:1016F000041C6BE112F0200809D054F80E3C34F8B9
:10170000060C14F8041C1A8854F8123C42E012F03B
:10171000020300F0B480082E3ED1B5F924335021E5
:1017200001FB0351B1F97C306F4A022B73480ED193
:10173000B1F9A4300168142000FB03131B690A21CE
:101740004B43B2F9FC02B2F91013411A0DE0B2F9A1
:10175000FCE2B2F91033B1F9A4100068C3EB0E0338
:101760004FF0140E0EFB0101096902F58E62594318
:1017700060480C320323CDF80080FDF71DFD54F8BE
:101780000E3CB5F9242334F8060C33F8122014F873
:10179000041C584B0093A0E00A2E5BD1B5F970826F
:1017A0000323B8F1080F0ADCC8F10B0191FBF3F138
:1017B0003046C9B2FDF7ECFC0346012008E0A8F171
:1017C000090191FBF3F13046C9B2FDF7E1FC0123B9
:1017D000B5F9B013B5F99C234FF0030E8A1A4849A6
:1017E00098FBFEFE0EEB4E0E0968CEEB08084FF09C
:1017F000140E0EFB0811D1F8C4104A43002A6FF0F2
:10180000004104DD91FBF3F18A420BDC05E0C2F1FB
:10181000000E91FBF3F18E4504DD02FB03F191FB19
:10182000F0F101E04FF00041DFF8C8804FF0000B0D
:101830004046344A0323CDF800B0FDF7BDFC54F810
:101840000E3C34F8060C1A8814F8041C5B46CDF8DC
:10185000008028E1092E40F02881D5F8500395F842
:101860006013FDF7E5FDD5F85433B5F85C031A882D
:10187000D5F8503395F85E130093434613E1012ADF
:1018800044D1174A202353700B2E02F1010834F87B
:10189000022C04D112B2092A0DD11E3B05E034F905
:1018A0000A3C12B2934206DC0223009340466421B4
:1018B000154A013306E001320A2102235143124A3C
:1018C00000934046FDF778FC54F80E3C34F8060CC3
:1018D00014F8041C1A88CDF800800023E3E000BF50
:1018E0000E4D0020F34C0020F4300020AC500108D5
:1018F000B45001080F4D002060310020689E002088
:101900003055002094350020A0350020802A27D0B3
:10191000082E34F8060C14F8041C73D0012E13D8CA
:10192000BAF1020F10D1B7F91030022B0CD154F8D4
:101930000E3C34F8060C1A8814F8041C34F902EC36
:101940004FF0060C674B08E054F80E3C34F902ECFB
:101950001A8854F8123C4FF00A0C0CFB0E3319E7AE
:101960000A2E40F0A28054F80E2C34F8060C14F81D
:10197000041C128826E05C4A1378B34240F095803C
:1019800002F1100313F80920524540F08E80574BA6
:101990001878002800F089801970042E14F8083C8B
:1019A00001D0072E15D113F0200F34F8060C504B40
:1019B00014F8041C09D0B7F910E054F80E2C1B7869
:1019C00032F81E2054F812EC6BE01B78B7F910E0E7
:1019D0001AE013F0200F0BD0454B54F80E2C1B7857
:1019E00034F8060C14F8041C128854F812EC3FE08A
:1019F000022B41D0082E3E4B13D11B7834F8060C35
:101A000014F8041CB5F924E354F80E2C54F812CC45
:101A100032F81E2034F902EC4FF00A0808FB0ECE13
:101A20003FE0012E14D8022A12D1B7F91020022A61
:101A30000ED154F80E2C1B7834F8060C14F8041C44
:101A4000128834F902EC4FF00608DFF898C00DE078
:101A500054F80E2C1B7834F8060C14F8041C128869
:101A600034F902EC54F812CC4FF00A0808FB0ECE01
:101A7000CDF800E0FBF780FC092E16D114F8083CE5
:101A800013F0020F11D0786997F82410FDF7D0FCFD
:101A9000174BBA691B78388C97F822101288D7F840
:101AA00014E0CDF800E0FBF767FC0AF1010A1FFA29
:101AB0008AFA1434BAF1040F7FF4F7AD09F1010882
:101AC0005037B8F10D0F0AD00A4B502404FB0834EC
