:020000040800F2
:10C0000000A00020D130010809FC00080BFC00084A
:10C010000DFC00080FFC000811FC000800000000E7
:10C0200000000000000000000000000015FC0008F7
:10C0300013FC00080000000017FC000819FC0008B1
:10C040001BFC00081DFC00081FFC000821FC000868
:10C0500023FC000825FC000827FC000829FC000838
:10C060002BFC00082DFC00082FFC000831FC000808
:10C0700033FC000835FC000837FC000839FC0008D8
:10C080003BFC00083DFC00083FFC000841FC0008A8
:10C0900045FC000849FC00084BFC00084DFC00086A
:10C0A0004FFC000851FC000853FC000855FC000838
:10C0B00057FC000859FC00084DFD00084FFD000822
:10C0C00051FD000853FD000855FD000857FD00080C
:10C0D00059FD00085BFD00085DFD00085FFD0008DC
:10C0E00061FD000863FD000865FD000867FD0008AC
:10C0F00069FD00086BFD00086DFD00086FFD00087C
:10C1000071FD000873FD000875FD000877FD00084B
:10C1100079FD00087BFD00087DFD00087FFD00081B
:10C1200081FD000883FD000885FD000887FD0008EB
:10C1300070B514200021304CF8F788F82420012134
:10C14000F8F784F823680720B3F95C11F8F77EF854
:10C1500023680820B3F85E11F8F778F80920012168
:10C16000F8F774F80B200121F8F770F8234C002041
:10C170006421F8F76BF801206421F8F767F8236869
:10C180000A209988F8F762F823680C2099881C4ED9
:10C190000131F8F75BF805200121F8F757F806F0B0
:10C1A0001BF920200146F8F751F84FF4FA6003F02C
:10C1B000E8F8144D06200121F8F748F8002414206F
:10C1C00003F0DFF834602C60F8F734F80E4B00F021
:10C1D000FF02E0503368000AD3182A6800F0FF001D
:10C1E00004348018B4F5804F33602860ECD11B1AFA
:10C1F000064A1B0B137070BD505300204C94002056
:10C20000285400202C54002038540020469400204C
:10C210002DE9F04FBD4B0024BD4DA1B01C7021464F
:10C2200006461420F8F712F8B5F994330A210133C1
:10C2300059430220F8F70AF82046F7F7EBFFB54B11
:10C2400005201C702146F8F701F824200121F7F79A
:10C25000FDFF20200146F7F7F9FFB5F9E413A5F833
:10C2600050410139032001EB8101F7F7EFFFAA4D9F
:10C27000AA4B4FF4FA7018802B680720B3F9F81016
:10C28000F7F7E4FF2B680820B3F8FA10F7F7DEFFA2
:10C2900009202146F7F7DAFF0B202146F7F7D6FFF2
:10C2A00011E028462146F7F7B1FF01354FF6FF7040
:10C2B000F7F7AEFFADB240F28F139D42F1D11434C7
:10C2C000A4B2DC2C01D00025EBE700242046EF21AE
:10C2D000F7F79CFF01344FF6FF70F7F799FFA4B210
:10C2E00040F28F139C42F1D100200146F7F78EFFF8
:10C2F000EF24013C4FF6FF70A4B2F7F789FF002C42
:10C30000F7D12C201421F7F781FF143401344FF6B4
:10C31000FF70A4B2F7F77CFFC92CF7D15820142185
:10C32000F7F774FFB53C01344FF6FF70A4B2F7F78E
:10C330006FFFC92CF7D184201421F7F767FF143C55
:10C34000013C4FF6FF70A4B2F7F762FF002CF7D163
:10C35000C8201421F7F75AFFB534013C4FF6FF709F
:10C36000A4B2F7F755FF002CF7D1F4201421F7F70A
:10C370004DFFB534013C4FF6FF70A4B2F7F748FF0C
:10C38000002CF7D14FF490701421F7F73FFFB5342C
:10C39000013C4FF6FF70A4B2F7F73AFF002CF7D13B
:10C3A0004FF4A6701421F7F731FFB534013C4FF676
:10C3B000FF70A4B2F7F72CFF002CF7D121464FF401
:10C3C000C770F7F723FFEF34013C4FF6FF70A4B2BC
:10C3D000F7F71EFF002CF7D1514B06200093B9212F
:10C3E000052223464F4F00F0C5FF4F4D3120B921A4
:10C3F00005222346DFF85C81009700F0BBFF5D203B
:10C40000B92105222346009500F0B4FF8920B92107
:10C4100005222346CDF8008000F0ACFF434BCE2030
:10C420000093B92140F20512234600F0A3FFF92042
:10C43000B92140F205122346009700F09BFF40F21D
:10C440002510B92140F205122346009500F092FF15
:10C450004FF4A970B92140F205122346CDF80080AF
:10C46000A62500F087FF39E04FF0140808FB04F818
:10C470002F4F29463B6806204344009305220023A2
:10C4800000F078FF3B6829464344009340F20512D0
:10C490000023CE2000F06EFF264A20A9125D0B1962
:10C4A00003F80C2C01EB44022349143D31F814101D
:10C4B000ADB222F8501C2149095D03F8241C204923
:10C4C000095D03F8181C1F4931F8141022F8641C88
:10C4D0001D4A125D013403F8302CA4B21B4B1A68BC
:10C4E00098469288A242BFD2002504952F462C463A
:10C4F000174A118889B279BB0220F7F7A7FE1420EA
:10C500000121F7F7A3FE00F0E3BE00BF164B0020A9
:10C51000603100203853002050530020064B00208B
:10C52000783701087D370108823701088F37010805
:10C5300048940020E45300204A3E00203953002054
:10C54000EE5300205E3E0020435300204C94002018
:10C550000C4B0020873701080A202146F7F776FEAA
:10C5600021460C20F7F772FE142002F00AFF012189
:10C570000620F7F76BFE142002F003FFC349C44AFC
:10C5800000230B60136099468B469246F7F752FEE4
:10C59000C04B00F0FF0249F80300DBF80030000A4E
:10C5A000D318DAF8002000F0FF0009F10409801820
:10C5B000B9F5804FCBF80030CAF80000E6D1B64993
:10C5C0001B0B31F814A0DFF80CB30AFB03FA1BF9BC
:10C5D00004200AF5007A02EB9A2AB04A000B32F8DE
:10C5E0001490DFF8E4C209FB00F91CF9043009F5E6
:10C5F000007903EB9929AA4B1FFA8AFA1A781FFAD5
:10C6000089F9002A00F0E48400221A700C2D00F24F
:10C61000DF84DFE815F00D009C000B01AA01D701B3
:10C620004D02D4023303F2035404780484049004CA
:10C630009C4C4FF0280B94F9001000200BFB01F1EB
:10C6400001F522418912F7F701FEDFF884C20120CB
:10C650009CF90010CDF808C00BFB01FB0BF5224143
:10C660008912F7F7F3FD904B08200093D82140F290
:10C670000532002300F07EFE8C4BE8200093D82189
:10C6800040F20532002300F075FE894B4FF498709C
:10C690000093D82140F20542002300F06BFE854B49
:10C6A00008200093062140F20532002300F062FECC
:10C6B000814A824B50201B780621009240F20542AD
:10C6C00000F058FEDDF808C0E346FEB97C4BD821E7
:10C6D0000093B8203346052200F04CFED8F8001035
:10C6E00033460BE0DFF8ECE16B480EF803204FF423
:10C6F000806E20F813E0E25401339BB28A889A429C
:10C700004FF00002EED2144600F062BC012E40F061
:10C71000DD856C4B40F205120093B8200023D82130
:10C7200000F028FED8F8002000230AE066485B49A4
:10C730004FF4806EC45421F813E00BF8034001332A
:10C740009BB2918800249942F0D200F041BC5F4B2B
:10C7500008200093062140F205320023CDF808C0DE
:10C7600000F008FEDDF808C016BB5FFA8AFCACF1E9
:10C77000280111AF384649B2CDF808C002F060FF79
:10C780006FF0130363434FF6FE71A63303EA010112
:10C790002D2001230522009700F0ECFD1BF804304A
:10C7A000DDF808C02833CCEB030C0BF804C024E000
:10C7B000012E22D15FFA89FB11AFABF12801384677
:10C7C00049B2CDF808C002F03BFF6FF0130363439A
:10C7D0004FF6FE71A63303EA0101F520334640F21D
:10C7E0000512009700F0C6FDDDF808C01CF8043003
:10C7F0002833CBEB030B0CF804B0D8F8003001342D
:10C800009B88E4B2A34201D202250024254B2827AD
:10C8100019570020794301F522418912F7F716FDD7
:10C820002B4B19574F4307F522413BE10137FFB22C
:10C83000072F88BF0027002E4ED15FFA8AFC11AB6C
:10C84000ACF12801184649B2CDF808C0039302F0B4
:10C85000F7FE6FF013026243039BA6324FF6FE71A0
:10C8600000932D2002EA01013346052200F082FDEB
:10C87000BAF1280FDDF808C05AD01BF8043028336D
:10C88000CCEB030C0BF804C051E000BF285400208F
:10C890002C540020385400204A3E00205E3E0020E8
:10C8A000104B00203953002094370108AB370108A2
:10C8B000B5370108BF370108AE3901080F4B00201A
:10C8C000EE370108F5370108EE530020FC37010868
:10C8D00043530020E4530020012E28D15FFA89F051
:10C8E0000DF1440BA0F12801059049B25846CDF84E
:10C8F00008C002F0A5FE6FF0130363434FF6FE710C
:10C90000A633F52003EA010140F205120023CDF819
:10C9100000B000F02FFDB9F1280FDDF808C007D0F6
:10C920001CF80430059928335B1A0CF8043017B949
:10C930000134E4B20027D8F800309B88A34201D22A
:10C9400003250024BA4B4FF0280B195700200BFB8E
:10C9500001F101F522418912F7F778FCB54B19571F
:10C960000BFB01FB0BF5224124E1B14B4FF0A00B77
:10C97000195700200BFB01F101F5203101F5007181
:10C980008912F7F763FCAB4B0137195701200BFBFA
:10C9900001FB0BF5203101F500718912FFB2F7F7A9
:10C9A00055FC16B90FFA8AF303E0012E04D10FFAF1
:10C9B00089F38C2BC8BF0425142F40F2098301355D
:10C9C000EDB205E39A4FDFF86CB22EBB11AB0AF162
:10C9D0006001184649B2039302F032FE6FF0130271
:10C9E0006243039BA6324FF6FE71009302EA0101F7
:10C9F00001230522592000F0BDFC0FFA8AF39B02A7
:10CA0000A3F51E336FF09F02A3F5F66393FBF2F3D9
:10CA10003A5D9B183B552AE0012E28D111AB09F154
:10CA20006001184649B2039302F00AFE6FF0130248
:10CA30006243039BA6324FF6FE71009302EA0101A6
:10CA4000334640F2051240F2211000F093FC0FFA39
:10CA500089F39B02A3F51E336FF09F02A3F5F663E3
:10CA600093FBF2F31BF804209B180BF80430D8F862
:10CA7000003001349B88E4B2A34201D20525002492
:10CA80003957A027794301F5203101F5007189124A
:10CA90000020F7F7DBFB1BF904104F4307F52031AB
:10CAA00001F5007101208912F7F7D0FB00278FE212
:10CAB0000137FFB2072F88BF0027DFF874B14EBBE4
:10CAC00011AB0AF16001184649B2039302F0B8FDB8
:10CAD0006FF013026243039BA6324FF6FE71009380
:10CAE000592002EA01013346052200F043FC0FFA07
:10CAF0008AF3A02B3ED09B02A3F51E336FF09F025A
:10CB0000A3F5F66393FBF2F31BF804209B180BF8D4
:10CB100004302EE0012E2CD111AB09F16001184632
:10CB200049B2039302F08CFD6FF013026243039B42
:10CB3000A6324FF6FE71009302EA0101002340F293
:10CB4000211040F2051200F015FC0FFA89F3A02B1A
:10CB500010D09B02DFF8DCE0A3F51E336FF09F02DC
:10CB6000A3F5F66393FBF2F31EF804209B180EF86E
:10CB7000043017B90134E4B20027D8F800309B889C
:10CB8000A34201D2062500241BF904104FF0A00B8C
:10CB90000BFB01F101F5203101F500710020891234
:10CBA000F7F754FB234801570BFB01FB0BF5203132
:10CBB00001F5007101208912F7F748FB08E20137FF
:10CBC0000499FFB2142F88BF07250129184BDFF8FD
:10CBD00064B031D893F900102824614301F5224153
:10CBE00000208912F7F732FB9BF9001001204C431B
:10CBF00004F522418912F7F729FB56B90FFA8AF397
:10CC0000312B00F36383049A0125531CDBB2049398
:10CC10005CE3012E40F05A830FFA89F3312B00F3C5
:10CC20005583049C3546631CDBB204934EE300BF7E
:10CC3000395300204353002093F900101924614315
:10CC400001F5CC4100208912F7F700FB9BF9001099
:10CC500001204C4304F5CC418912F7F7F7FA16B9D5
:10CC60000FFA8AF304E0012E40F030830FFA89F3C3
:10CC7000362B00F32B830135EDB227E3B84B202090
:10CC80000093D82140F20532002300F073FBB54A2F
:10CC90000C2101FB0422DFF818B358209BF8003068
:10CCA000CC31009240F2054200F064FBAE4BA02074
:10CCB0000093D82140F20532002300F05BFBAB4B20
:10CCC00008200093062140F20532002300F052FBB9
:10CCD000A74A9BF8003090200092062140F20542BE
:10CCE00000F048FBA34A9BF80030B02000920621D8
:10CCF00040F2054200F03EFB9F4BD82000930621F6
:10CD000040F20532002300F035FB9C4A9BF80030CE
:10CD10004FF4A8700092062140F2054200F02AFB71
:10CD2000974A9BF800304FF4B8700092062140F209
:10CD3000054200F01FFB66BB0FFA8AF3232B0ADDC6
:10CD4000904A14211268193B01FB0422116911A8B1
:10CD50000096594302E0009611A831468A4A0323FF
:10CD600002F018FB6FF01302624311A99BF8003028
:10CD7000A63200914FF6FE71862002EA01010522DB
:10CD800000F0F8FA814B4FF4A4700093D8210522EB
:10CD9000E1E0012E40F01C810FFA89F3232B0BDD1B
:10CDA000784A14211268193B01FB04221169002200
:10CDB000009211A8594302E00021009111A8724A83
:10CDC000032302F0E7FA6FF01302624311A99BF804
:10CDD0000030A63200914FF6FE7102EA01014FF4D5
:10CDE000A77040F2051200F0C5FA694B4FF4A47029
:10CDF0000093D82140F20512ADE0664B0820009365
:10CE0000062140F20532002300F0B4FADFF8A0B1A9
:10CE10005A4A9BF8003060200092062140F20542F9
:10CE200000F0A8FA564A9BF80030802000920621B4
:10CE300040F2054200F09EFA574B882000930621ED
:10CE400040F20532002300F095FA544B082000937D
:10CE5000D82140F20532002300F08CFA504B7020AC
:10CE60000093D82140F20542002300F083FA4D4A96
:10CE70009BF8003048200092D82140F2054200F093
:10CE800079FA56B9484B4FF4A4700093D821052283
:10CE9000334600F06FFA04969AE0012E40F0968037
:10CEA000424B4FF4A4700093D82140F205120023A6
:10CEB00000F060FA4FF0000ECDF810E088E0394A3B
:10CEC0003B4B48201B78D821009240F2054200F0ED
:10CED00051FA384B70200093D82140F205420023CC
:10CEE00000F048FA46B9344B4FF494700093D821BF
:10CEF00040F2051233462FE0012E69D12F4B4FF43B
:10CF00009470009342E7274A294B48201B78D82188
:10CF1000009240F2054200F02DFA294B16E0214A1A
:10CF2000234B48201B78D821009240F2054200F0A4
:10CF300021FA244B0AE01B4A1D4B48201B78D821BC
:10CF4000009240F2054200F015FA1F4B009370204A
:10CF5000D82140F20542002300F00CFA38E000BF6F
:10CF60002B38010800300020333801084938010807
:10CF70006338010865380108673801087E38010800
:10CF8000803801084894002070350020823801085C
:10CF90008938010890380108A2380108C33801080F
:10CFA000D1380108AE390108EF370108F63701081A
:10CFB0000F4B0020ED380108053901080F39010831
:10CFC000193901083B3901085D3901080020049036
:10CFD000DFF8CCB29BF80030002B3FF489AAD8F8D8
:10CFE0000030A4499B884FF41672A3420A8023D3D1
:10CFF000072D21D16EB96FF01303634311AAA63335
:10D000004FF6FE71009203EA0101862005223346A5
:10D0100010E0012E10D16FF01303634311AAA63361
:10D020004FF6FE71009203EA01014FF4A77040F23F
:10D030000512002300F09EF99BF80030023B072BFD
:10D0400000F23F81DFE813F008003D013D01EC00F4
:10D0500007013D01D700C800002D08BF0125A5F13B
:10D060000803DBB2012B50D8092D04BFC6F101061D
:10D07000F6B24FF00009A62540E0C6B9DFF824A2B9
:10D080002D20294605223346CDF800A000F072F984
:10D090005920294605223346CDF800A000F06AF950
:10D0A000754B862000932946052233461EE0012E4B
:10D0B0001ED1DFF8F0A1F520294640F20512002329
:10D0C000CDF800A000F056F940F22110294640F2B8
:10D0D00005120023CDF800A000F04CF9664B4FF488
:10D0E000A7700093294640F20512002300F042F990
:10D0F00009F10109143D1FFA89F9ADB2D8F80030E1
:10D100009B884B45B9D20025DBE0092D40F2D98040
:10D110000A2D2DD1D8F80000002322E020A9CA183A
:10D1200012F80C1C554C20ADE15405EB430131F8CD
:10D13000505C534CDFF860E124F8135012F8245C83
:10D14000504C31F8641CE55412F8184C0EF80340AA
:10D150004D4C24F8131012F8301C4C4AD1540133B2
:10D160009BB282889A42D9D201F0E6FF484B24E074
:10D170000B2D03D101F0E0FF464B1EE00C2D24D116
:10D18000D8F80010002312E03D484FF4806420F8E6
:10D1900013403C480022C254384D3B48EA5420F822
:10D1A00013403D4D3948EA54C25401339BB28A883A
:10D1B0009A42E9D201F0C0FF384B00930820D821F1
:10D1C00040F20542002300F0D5F84FF47A7002F0E7
:10D1D000D8F804F0CDFE7BE0072D04D1002C70D0F0
:10D1E000013CE4B26DE0082D01D9013DEDB2082DFE
:10D1F00008BF0C2565E0072D03D90135EDB20C2DD4
:10D2000004D8072D03D10134E4B200E00825D8F892
:10D2100000309B88A34254D20135EDB2002450E087
:10D22000072D4ED14EB90FFA8AFABAF1230F48DD15
:10D23000134931F81430023B41E0012E41D10FFA7D
:10D2400089F9B9F1230F3CDD0F4A32F81430023B63
:10D2500022F8143035E0072D33D12EBB0FFA8AFAAD
:10D26000BAF1230F2DDD064830F81430023320F8D0
:10D27000143026E00C4B0020A8390108E4530020AC
:10D280004A3E0020395300205E3E002043530020D8
:10D290007F390108B0390108EE530020E139010857
:10D2A000164B0020AA390108012E0AD10FFA89F97C
:10D2B000B9F1230F05DD084931F81430023321F8A4
:10D2C000143000238BF80030FFF712B900247FE6FA
:10D2D00021B0BDE8F08F00BF5E3E00202238034B36
:10D2E00001EBC00133F81100704700BF123A01088A
:10D2F000024B1B1893F8D005704700BF123A010883
:10D300002DE9F0470E461D4600F10A0106F10A0319
:10D3100014469BB2324689B2F6F780FF0B235D4379
:10D320004FEA14280026114B002703EB450333F87E
:10D33000069049FA07F313F0010F0D4B0ABF04F0F2
:10D340000F0233F8180033F812000137F6F760FFC8
:10D350000B2FEED10236162EE5D1002040F28F11B0
:10D360000246EF23BDE8F047F6F758BF0E4101082B
:10D370006C3000202DE9F14F0F461D4601F10A03E4
:10D38000144640F28F113A469BB20A9EF6F746FFCA
:10D390004FEA14294FF00B082C4F25B904F00F0366
:10D3A00037F8130001E037F8190008F1FF381FFAC9
:10D3B00088F8F6F72DFFB8F1000FEDD138E04FF007
:10D3C000000816F8010CA0F12003DBB2012B05D9EF
:10D3D0005FFA88F1FFF782FF834603E0212804D03B
:10D3E0004FF0000B4FF0000A03E0B8F1040FF7D143
:10D3F0001EE00FFA8BF303FA0AF313F4806F01D0E7
:10D400000DB905E025B904F00F0337F8130001E06A
:10D4100037F819000AF1010AF6F7FAFEBAF10B0F14
:10D42000E7D108F101081FFA88F8B8F1080FC8D150
:10D4300016F8010B0028C2D140F28F110246EF23EB
:10D4400001B0BDE8F04FF6F7E9BE00BF6C30002038
:10D45000F0B50B2885B00546A14C56D923888342E8
:10D4600053D3A0F10C0CA0F10B0E4FEA8C0C4FEA39
:10D470008E0E6E4602AB0DF10902002000213170C4
:10D4800098490FFA8CF701EB5001CF5D02F8017C4F
:10D490000FFA8EF7C95D597012F8011CC72901D91E
:10D4A000C72102E0012902D8012102F8011C5978A4
:10D4B000C72901D9C72102E0012901D801215970EA
:10D4C00012F8017C5978B94210D1012901D0C7293D
:10D4D00002D10121317009E0012902D9013902F894
:10D4E000011C5978C62901D80131597012F8017C04
:10D4F00059788F4284BF5F7002F8011C0230C0B2BD
:10D500000236023302320828B8D1F6F78FFE0D2119
:10D510002846F6F77BFE15F0010F00F0E181704E12
:10D520007148B11CF6F784FE0B2D40F299813388C7
:10D53000AB4240F296819DF800306C4A43BBB2F991
:10D5400010302BB39DF809109DF80830C81A052833
:10D55000674801DC068819E00688A6F5844608E0DD
:10D5600004EB4300B0F8E27101333743A0F8E271F5
:10D57000DBB28B42F4D90BE004EB4300B0F8E2716C
:10D58000013346EA0707A0F8E271DBB28B42F3D918
:10D590009DF8023043BBB2F960302BB39DF80B10FD
:10D5A0009DF80A30C81A0528514801DC468819E060
:10D5B0004688A6F5027608E004EB4300B0F8E27175
:10D5C00001333743A0F8E271DBB28B42F4D90BE0B0
:10D5D00004EB4300B0F8E271013346EA0707A0F814
:10D5E000E271DBB28B42F3D99DF804304BBBB2F948
:10D5F000B03033B39DF80D009DF80C30C11A0529E9
:10D600003B4901DC8E881AE08988A1F58041083900
:10D6100008E004EB4306B6F8E27101330F43A6F8C5
:10D62000E271DBB28342F4D90BE004EB4301B1F8C1
:10D63000E271013346EA0707A1F8E271DBB28342E7
:10D64000F3D99DF8063043BBB2F900312BB39DF8F6
:10D650000F109DF80E30C81A0528254801DCC68831
:10D6600019E0C688A6F5007608E004EB4300B0F8A0
:10D67000E27101333743A0F8E271DBB28B42F4D997
:10D680000BE004EB4300B0F8E271013346EA070710
:10D69000A0F8E271DBB28B42F3D9B2F8403243B961
:10D6A0001349B1F92030098804EB4303B3F8E201D0
:10D6B0002AE01BB2012B08D10D49B1F92430498869
:10D6C00004EB4303B3F8E2011EE0022B12D1084938
:10D6D000B1F92830898804EB4303B3F8E20113E081
:10D6E000743E0020184D0020664101086031002082
:10D6F0006C300020032B0BD1B149B1F92C30C98813
:10D7000004EB4303B3F8E20140EA0101A3F8E2119C
:10D71000B2F81812C1F1A10109B20B292BDD8D421B
:10D7200011D1A84B93F81A3213F0040F0BD1A44B6C
:10D730009E89A54B03F5C9705F8846EA07075F809D
:10D7400006338342F8D14B1E9D4202D04B1C9D42B2
:10D7500005D19B4B9B89A4F87233A4F8E2318D422A
:10D7600009D1974B9B89A4F87233A4F87033A4F8BD
:10D77000E431A4F8E231B2F830130B3109B28D4232
:10D7800011D1904B93F8323313F0040F0BD18C4B23
:10D790001E898D4B03F5C9705F8846EA07075F80D5
:10D7A00006338342F8D14B1E9D4202D04B1C9D4252
:10D7B0000CD1834BB4F872031B8943EA0000A4F830
:10D7C0007203B4F8E2010343A4F8E2318D4218D1A8
:10D7D0007B4BB4F872131B8943EA0101A4F872135E
:10D7E000B4F8701343EA0101A4F87013B4F8E4111B
:10D7F00043EA0101A4F8E411B4F8E2110B43A4F8E0
:10D80000E231B2F844230B3212B2954211D16D4B82
:10D8100093F8463313F0040F0BD1694B18896A4B08
:10D8200003F5C9715E8840EA06065E8006338B42C6
:10D83000F8D1531E9D4202D0531C9D4205D1604B2E
:10D840001B89A4F87233A4F8E231954209D15C4BEC
:10D850001B89A4F87233A4F87033A4F8E43100E013
:10D8600002D02388AB4239D15649554BB1F99022A9
:10D870001B89501E04EB4000B0F8E25143EA050555
:10D88000A0F8E25104EB4200B0F8E251013243EA61
:10D890000505A0F8E25104EB4202B2F8E20143EAC6
:10D8A0000000A2F8E201B1F9A422511E04EB4101EB
:10D8B000B1F8E20143EA0000A1F8E20104EB420101
:10D8C000B1F8E201013243EA0000A1F8E20104EB01
:10D8D0004204B4F8E2211343A4F8E2313A4897E154
:10D8E00023886A1C9A42374E01D1384814E00A2D29
:10D8F00017D0A5F10A031E2293FBF2F102FB1132AD
:10D900000AB9334808E0062293FBF2F102FB113317
:10D910000BB9304800E030482B49F6F789FC0C2D54
:10D9200003D02388013B9D4210D1B6F99032244A9E
:10D9300004EB43035988128942EA01015980B6F980
:10D94000A43204EB430359880A435A8096F8923272
:10D9500013F0040F0AD11B4B194AB3F99032128904
:10D9600004EB4303598841EA02025A8096F8A63232
:10D9700013F0040F0AD1134B114AB3F9A4321289E0
:10D9800004EB4303598841EA02025A800B2D40F20E
:10D99000B6802388AB4240F2B2809DF80030002B65
:10D9A00034D1B6F91030002B30D09DF809209DF805
:10D9B0000830D11A0529024910DC088824E000BF8C
:10D9C0006C3000206031002056400020F8420108F1
:10D9D0008A4401081C460108664101080888A0F530
:10D9E000844006E004EB43014F88013307434F8036
:10D9F000DBB29342F6D909E004EB43014F880133CF
:10DA000040EA07074F80DBB29342F5D99DF8023018
:10DA100023BBB6F960300BB39DF80B209DF80A309C
:10DA2000D11A05297D4901DC488815E04888A0F510
:10DA3000027006E004EB43014F88013307434F8037
:10DA4000DBB29342F6D909E004EB43014F8801337E
:10DA500040EA07074F80DBB29342F5D99DF80430C6
:10DA60002BBBB6F9B03013B39DF80D109DF80C30F8
:10DA7000CA1A052A694A01DC908816E09288A2F544
:10DA80008042083A06E004EB43004788013317431D
:10DA90004780DBB28B42F6D909E004EB430257889A
:10DAA000013340EA07075780DBB28B42F5D99DF876
:10DAB000063023BBB6F900310BB39DF80F209DF85B
:10DAC0000E30D11A0529554901DCC88815E0C888EF
:10DAD000A0F5007006E004EB43014F8801330743D3
:10DAE0004F80DBB29342F6D909E004EB43014F8843
:10DAF000013340EA07074F80DBB29342F5D9B6F80D
:10DB00001822C2F1A10212B20B2A28DD954211D1CE
:10DB1000434B93F81A3213F0040F0BD13F4B988903
:10DB2000404B03F5C9715F8840EA07075F80063301
:10DB30008B42F8D1531E9D4202D0531C9D4204D10A
:10DB4000364B9B89A4F892316380954207D1334BC1
:10DB50009B89A4F89231A4F89031A3806380B6F831
:10DB600030230B3212B2954211D12D4B93F8323340
:10DB700013F0040F0BD1294B18892A4B03F5C971F7
:10DB80005F8840EA07075F8006338B42F8D1531E57
:10DB90009D4202D0531C9D4204D1204B1B89A4F806
:10DBA00092316380954206D11C4B1B89A4F89231B7
:10DBB000A4F89031A380B6F844230B3212B29542F8
:10DBC00011D1174B93F8463313F0040F0BD1134BBD
:10DBD0001889144B03F5C9715E8840EA06065E8019
:10DBE00006338B42F8D1531E9D4202D0531C9D42F6
:10DBF00004D10A4B1B89A4F892316380954206D167
:10DC0000064B1B89A4F89231A4F89031A3800548F3
:10DC1000C92105B0BDE8F040F6F704BB6C30002028
:10DC200060310020763E002003282DE9F8430546A8
:10DC30000F4606D8464B502202FB0033B3F94C3056
:10DC400004E0444B03EB8103B3F92030C52B7DDCAA
:10DC50000024A6B2062E30D8032DDFF8F8803E4B04
:10DC60000BD803EBC5035B1B13F80490384B502211
:10DC700002FB0533B3F84C1005E01B1993F81C9018
:10DC800008EB8703198C0931304689B2F6F7BEFAE2
:10DC9000082619F0010F14BFB8F80A0038F8170069
:10DCA000013EB6B2F6F7B4FA16B14FEA5909F0E7F9
:10DCB00038F81700F6F7ACFA45E0032D23D8DFF863
:10DCC00090804FF0500909FB0589B9F84C10304697
:10DCD0000331711889B2F6F799FAB9F84C30033369
:10DCE000F61805E01B4B013633F81700F6F790FAEB
:10DCF000502303FB0583B3F94C30B6B218331B1B1A
:10DD00009E42EFDB1FE0DFF84C80304608EB8709CE
:10DD1000B9F820100331711889B2F6F777FAB9F81B
:10DD200020300333F61805E00A4B013633F81700AC
:10DD3000F6F76EFA08EB8703B3F92030B6B2183362
:10DD40001B1B9E42F0DB01340B2C82D1BDE8F88313
:10DD5000603100206C300020AE4701082DE9F0470B
:10DD6000F6F764FA002630460C21F6F74FFACB2777
:10DD7000954D013F6889FFB2F6F74AFA002FF7D1B7
:10DD80000136B6B20B2EEED1904CB4F910301BB167
:10DD900038463946FFF748FFB4F960301BB101201F
:10DDA0000146FFF741FFB4F9B0301BB10220014634
:10DDB000FFF73AFFB4F900311BB103200146FFF72A
:10DDC00033FFB4F9401211B90720FFF72DFFB4F962
:10DDD0004012012902D10720FFF726FFB4F94012B3
:10DDE000022902D10720FFF71FFFB4F940120329CF
:10DDF00002D10720FFF718FF754F0C2138884FF02C
:10DE0000CB08013080B2F6F701FA08F1FF386889D3
:10DE10005FFA88F8F6F7FCF9B8F1000FF5D111E0D8
:10DE20001FFA86F90C214846F6F7F0F96889F6F7EB
:10DE3000EFF94846D621F6F7E9F96889F6F7E8F9E7
:10DE40000136B6B23B8808F10B0201339A4208F161
:10DE50000108E5DDB4F890120A200B3189B2F6F71B
:10DE6000D5F90526013E2889B6B2F6F7D1F9002E7C
:10DE7000F8D1B4F8A4120A200B3189B2F6F7C6F92A
:10DE80000536013E2889B6B2F6F7C2F9002EF8D160
:10DE90003888B4F8901201300B3180B289B2F6F7AD
:10DEA000B5F90536013E2889B6B2F6F7B1F9002E6C
:10DEB000F8D13888B4F8A41201300B3180B289B29D
:10DEC000F6F7A4F90536013E2889B6B2F6F7A0F9AF
:10DED000002EF8D1B4F81882C8F1A1081FFA88F80A
:10DEE0000FFA88F30B2BC14620DDA8F102081FFAB8
:10DEF00088F8474612E01FFA87FA0C215046F6F7D9
:10DF000085F9A889F6F784F95046D621F6F77EF907
:10DF1000A889F6F77DF90137BFB201360FFA88F20A
:10DF20000FFA89F3B21802339A42E4DDB4F8309361
:10DF3000002609F10B081FFA88F8A8F10207BFB202
:10DF400012E01FFA87FA0C215046F6F75FF928898C
:10DF5000F6F75EF95046D621F6F758F92889F6F714
:10DF600057F90137BFB2013609F1090212B20FFAAF
:10DF700088F3B21802339A42E3DDB4F844830024F4
:10DF800008F10B07BFB2BE1EB6B212E01FFA86F947
:10DF90000C214846F6F73AF92889F6F739F9484648
:10DFA000D621F6F733F92889F6F732F90136B6B2F9
:10DFB000013408F1090212B23BB2A21802339A42AC
:10DFC000E4DDBDE8F08700BF6C3000206031002048
:10DFD000743E00202DE9F04159200021F6F716F992
:10DFE0000C24013C40F21F50A4B2F6F711F9002CAA
:10DFF000F7D121465A20F6F709F90C34013C40F2DA
:10E000001F50A4B2F6F704F9002CF7D121464FF4C3
:10E010009A70F6F7FBF80C34013C40F21F50A4B2A2
:10E02000F6F7F6F8002CF7D1214640F23510F6F756
:10E03000EDF80C34013C40F21F50A4B2F6F7E8F8BA
:10E04000002CF7D15B261CE028460021F6F7DEF80D
:10E050000027574B185B384110F0010018BF40F201
:10E060001F500137F6F7D4F80C2FF2D102340135E6
:10E07000102CADB2E8D10836B6B240F233139E424E
:10E0800003D0B6B235460024DEE74A4B1B78012B9D
:10E0900032D15B200021F6F7B9F80924013C4FF694
:10E0A000FF70A4B2F6F7B4F8002CF7D121464FF474
:10E0B0009970F6F7ABF80934013C4FF6FF70A4B243
:10E0C000F6F7A6F8002CF7D15B3400212046F6F7CE
:10E0D0009DF84FF6FF70F6F79BF820460921F6F7FA
:10E0E00095F801344FF6FF70F6F792F8A4B240F2BB
:10E0F00033139C42E9D155E02F4DC820B5F91832B1
:10E100000021584340F6886390FBF3F05B3080B207
:10E11000F6F77CF80924013C4FF6FF70A4B2F6F73D
:10E1200077F8002CF7D1B5F91832C820584340F6DB
:10E13000886390FBF3F06A30214680B2F6F766F808
:10E140000934013C4FF6FF70A4B2F6F761F8002CD9
:10E15000F7D1B5F918024FF0C80808FB00F040F6F7
:10E16000886790FBF7F0A6B25B303018002180B2D0
:10E17000F6F74CF84FF6FF70F6F74AF8B5F9183293
:10E18000092108FB03F898FBF7F75B37F619B0B2E3
:10E190000134F6F73BF8A4B24FF6FF70F6F738F803
:10E1A000102CD6D1044B002283F82E22BDE8F0813A
:10E1B000D2470108254B00206031002038B54FF4CC
:10E1C0009C740FE0294620460135F6F71FF8ADB2E2
:10E1D0000020F6F71DF8D82DF4D10134A4B2B4F51F
:10E1E000C87F01D00B25EDE7024B002283F82E22D9
:10E1F00038BD00BF603100202DE9F04F044687B0E4
:10E20000F6F714F80D212046F6F700F814F0010F88
:10E21000A74DA84F00F0A780A91CA748F6F708F85B
:10E22000B4F5827F03D02B88621C9A4224D1A34884
:10E23000A349F5F7FDFF95F8C26395F8C303A6F16E
:10E240006C039BB20193FB88A0F16409029306F171
:10E250000408A6F1040AA0F1040C00231FFA89F9AE
:10E26000CDF80C80CDF810A0BF8800F1040BCDF8DC
:10E2700014C094491A4620E00B2C01D18F480BE0C2
:10E28000A4F10A03192293FBF2F102FB113232B915
:10E29000B4F5827F03D28C4805F5F171C9E70522F8
:10E2A00093FBF2F202EB8202934204D1B4F5827F37
:10E2B00001D28648BCE78048BAE791F800C011F85F
:10E2C00001ACCC441FFA8CFC0CF1FF381FFA88F823
:10E2D000B8F1C60F16D8DDF80480C2441FFA8AFAD6
:10E2E000BAF1000F0ED0BAF1F90F0BD8A24509D13F
:10E2F00005EB4C0CBCF8E281DDF808A04AEA0808FE
:10E30000ACF8E2811FFA82FA824511D1052C0FD9AF
:10E31000DDF80CC0A4450BDBDDF81080A04507DC60
:10E32000DFF89CC13CF8038047EA08082CF803801A
:10E33000B44210D1BAF1050F0DD993450BDBDDF8CE
:10E3400014A0924507DCDFF878C13CF8038047EA67
:10E3500008082CF80380013204310233B2F5807FC3
:10E36000ABD157489EE0B4F5827F03D02B88621C66
:10E370009A4222D151485649F5F75AFF95F8C303FE
:10E3800095F8C263A0F164039BB20293A6F16C03FB
:10E390009BB2B7F806C00193331D0493A6F104089D
:10E3A0000023CDF80CC0CDF81480BF8800F104091B
:10E3B000A0F1040B43491A461FE00B2C01D13F4842
:10E3C0000BE0A4F10A03192293FBF2F102FB1132D4
:10E3D0002AB9B4F5827F02D23B48A91CCCE70522BA
:10E3E00093FBF2F202EB8202934204D1B4F5827FF6
:10E3F00001D23648BFE73048BDE7DDF8088091F824
:10E4000000C011F801ACC4441FFA8CFC0CF1FF38B9
:10E410001FFA88F8B8F1C60F16D8DDF80480C24498
:10E420001FFA8AFABAF1000F0ED0BAF1F90F0BD821
:10E43000A24509D105EB4C0CBCF80280DDF80CA01C
:10E440004AEA0808ACF802801FFA82FA824511D124
:10E45000052C0FD9DDF810C0A4450BDBDDF81480C6
:10E46000A04507DCDFF868C03CF8038047EA0808ED
:10E470002CF80380B4420ED1BAF1050F0BD99145A7
:10E4800009DB934507DCDFF848C03CF8038047EA26
:10E4900008082CF80380013204310233B2F5807F82
:10E4A000ABD10B48C92107B0BDE8F04FF5F7BABEB4
:10E4B000743E00206C30002066410108F8420108DB
:10E4C00056400020194D00208A4401081C460108CE
:10E4D000763E002070B5F5F7A9FE2B4C2B482C4951
:10E4E000F5F7A6FEF5F7A2FE2A482B49F5F7A0FEA0
:10E4F000B4F8F031043B9BB2012B0AD8B4F91030C8
:10E500003BB9264A69219954043340F2246293426C
:10E51000F7D1B4F8F031043B9BB2012B0CD81A4B65
:10E52000B3F9603043B91D4B03F5C4620432642172
:10E53000597004339342FAD1B4F8F031043B9BB2E2
:10E54000012B0AD90B2504E02846FEF781FF01358F
:10E55000ADB2134B1B88AB42F6D2B4F8F031043B9A
:10E560009BB2012B0AD80B2404E02046FFF744FE9F
:10E570000134A4B20A4B1B88A342F6D2F5F750FE31
:10E58000BDE87040F5F752BE60310020F842010846
:10E590005640002066410108763E0020184D0020BC
:10E5A000743E002013B503460C4601A8194601F03D
:10E5B0002DF89DF80430002023719DF8053063711B
:10E5C0009DF80630A3711CBD4FF6FF73984252D0E0
:10E5D0001F3B00EA03034FF6E07293424DD0430520
:10E5E0005B0D40F2FF72934249D04FF61F0300EAE1
:10E5F00003034FF61F02934243D000F4FC63B3F5CC
:10E60000FC6F40D04BF6E05300EA03034BF6E052B8
:10E6100093423AD040F2F75300EA030340F2F75234
:10E62000934234D04BF6170300EA03034BF617026C
:10E6300093422ED000F4BC63B3F5BC6F2BD047F6E9
:10E64000EF3300EA030347F6EF32934225D040F25E
:10E650001F5300EA030340F21F5293421FD000F4FD
:10E660007843B3F5784F1CD000F01F001F2814BF6B
:10E670000D200C20704700207047012070470320B8
:10E68000704705207047072070470220704704201C
:10E6900070470620704708207047092070470A20FD
:10E6A00070470B20704730B5164A87B05168044652
:10E6B00010686B4603C39068694618602046FFF7F0
:10E6C00071FF1148694603AA05ABF5F7DFFD044663
:10E6D000A0B905460C4803A9F5F7DAFD68B90B495E
:10E6E0004FF4C8724819A1F5007105F5C87504F01A
:10E6F000E3FEB5F5C86FEDD100E00824204607B071
:10E7000030BD00BFE24701083842002038440020F5
:10E7100070B52A4A88B051680446106801AB03C33B
:10E72000906801A91860002320468DF81030FFF78B
:10E7300039FF234801A905AA07ABF5F7A5FD204E2F
:10E740000446002835D1304621464FF4007204F0CB
:10E750005BFF1C4D1EE01C496118C95C043302F8C4
:10E76000011F40F23C618B42F5D1B5F84C3005A950
:10E77000134886F88F31F5F78DFD0146D8B9FE2094
:10E7800004F0030340F20A520134FEF7B9FD50359C
:10E79000042C02D00D4A0023DDE709484FF4006144
:10E7A00005AA07ABF5F778FD002814BF0920002063
:10E7B00002E00A2000E0092008B070BDE24701082D
:10E7C0003842002060310020184D002039420020DE
:10E7D0002DE9F047484A86B05168044610686B46F8
:10E7E00003C39068694618602046FFF7DBFE434884
:10E7F000694603AA05ABF5F747FDDFF8008100285D
:10E8000073D13F4B424603F1340153F8040B8B4262
:10E8100042F8040BF9D11B881380384B0022394988
:10E820000024895A023201F47840001283F836003D
:10E8300001F4FC60C010C90083F8370083F8381079
:10E8400083F839400433202AE9D17627264638E078
:10E8500021462846F5F7DAFCF5F706FD8146681CE7
:10E86000214680B2F5F7D2FCF5F7FEFC8246484619
:10E87000FFF7AAFE81465046FFF7A6FE00EB0910FF
:10E8800008F807000137BFB2B7F5007F10D31B4867
:10E8900003A9F5F7FFFC074648BB7308FE200136C5
:10E8A000394640F20A5203F00303B6B2FEF728FDE0
:10E8B0000235ADB2B5F5C87FCAD10134A4B2F02C8F
:10E8C00001D00025C4E727B10C4803A9F5F7E2FC05
:10E8D00068B90A484FF43C4103AA05ABF5F7DCFCE4
:10E8E000002814BF0920002002E00A2000E00920CF
:10E8F00006B0BDE8F08700BFEE47010838420020AF
:10E900009C300020D2300020F0B53E4A87B05168DC
:10E91000044610686B4603C3906869461860204639
:10E92000FFF740FE3848694603AA05ABF5F7ACFC93
:10E93000002862D1354F0546334C39464FF40072FA
:10E94000204604F0B9FD204603A9F5F7A3FC0646CE
:10E95000002854D16B080135FE20314640F20A529E
:10E9600003F00303EDB2FEF7CBFC202D07F5007793
:10E97000E2D131464FF40072204604F045FE244BAC
:10E9800004F12000224619461D8A15809D8C558071
:10E990001D8F9580B3F84C505033D5800832824299
:10E9A000F2D1B1F8A0311B4A2384B1F8B451658487
:10E9B000B1F93830184DD25CA5F12800A284174A6D
:10E9C00032F81320E284B1F98830154A03A9D25CE9
:10E9D0002285144A32F813206A80F5F75BFC70B97F
:10E9E000A5F128004FF4844103AA05ABF5F754FCC8
:10E9F000002814BF0920002002E00A2000E00920BE
:10EA000007B0F0BDFA470108384200203854002012
:10EA100060310020E4530020604200204A3E002084
:10EA2000EE5300205E3E00202DE9F0475C4A88B09E
:10EA300051680746106801AB03C3906859491860D4
:10EA4000594C00234AF655228DF8103001F5066026
:10EA500001F50463A1F840280A330A30224625460E
:10EA6000168A23F8086CB2F824E023F806EC168F17
:10EA700023F8046CB2F84CE0503223F802EC08336F
:10EA80008342EDD1B5F8A021B5F8B431A1F86228E0
:10EA9000A1F864384548464B46490022464EDFF807
:10EAA0002CA116F802E023F808EC30F802EF23F866
:10EAB00006EC1AF802E0013223F804EC31F802EF18
:10EAC00023F802EC0833082AE8D101A93846FFF7F9
:10EAD00069FD344801A905AA07ABF5F7D7FB8046C5
:10EAE000002859D181462F4F05A93846F5F7D0FBAC
:10EAF00000284FD13148394648444FF4007209F597
:10EB0000007904F0D9FCB9F5804FECD1384605A95D
:10EB1000F5F7BEFB00283DD107F120013B461A88DE
:10EB200022825A88A2849A882287DA880833A4F835
:10EB30004C200222A27484F8262084F83A2084F81B
:10EB40004E2050348B42EAD13B8CA5F8A031798C11
:10EB500085F8A221A5F8B41185F8B621BA8CB5F9CB
:10EB600038301749F254FE8C164A22F813603A8D59
:10EB7000B5F988300AF803204988134A22F813109F
:10EB800095F85231012143F00203A5F8501185F8A0
:10EB9000523101E04FF00808404608B0BDE8F08768
:10EBA000FA4701083842002060310020483E00202A
:10EBB000A64A00205C3E0020E45300203854002088
:10EBC000604200204A3E00205E3E0020EE530020BE
:10EBD00028484AF65523B0F8402870B59A4247D1E4
:10EBE000254B00F5046200F506650A320A351C461D
:10EBF00032F8081C198232F8061C998432F8041C79
:10EC0000198732F8021C0832A3F84C1002219974BB
:10EC100083F8261083F83A1083F84E105033AA4236
:10EC2000E6D1B0F86238B0F86458A4F8A03184F89E
:10EC3000A21184F8B611A4F8B451104B104C11492C
:10EC4000002233F8086C104D565533F8065C24F852
:10EC5000025F33F8046C0D4D565533F8025C0132F7
:10EC60000833082A21F8025FEBD10021A0F84018F0
:10EC700070BD00BF3842002060310020A64A00204D
:10EC8000483E00205C3E0020E4530020EE5300206C
:10EC90000E4B10B5502404FB0033B3F938000C4B75
:10ECA000463C04FB0034002305E0212808BF01385E
:10ECB000C8540133DBB214F8010B0028F5D12C2421
:10ECC000CC54C91801334870137010BD6031002056
:10ECD000464B00202DE9F047A84A8AB05168044607
:10ECE000106801AB03C3906801A918602046A44CCA
:10ECF000FFF758FC204601A904AA06ABF5F7C4FAB1
:10ED0000002840F034819F4BE11D1A6822609A88E8
:10ED10009B79A280A3710DF12702FFF7B9FF9A4BEF
:10ED20009DF827101868CD1D605198889B7962194D
:10ED30000E319080937161180DF127020120FFF7C9
:10ED4000A7FF9DF82780914B08F10708A84404EB22
:10ED5000080203F10C0153F8040B8B4242F8040B38
:10ED6000F9D119888A4E9B781180937008F10F08A9
:10ED700006F580490025874B8748B3F9381056F8C7
:10ED8000042B30F8110002F0FF024243834802F5E1
:10ED90000072415601EB922211B2002903DDC8290D
:10EDA00002DDC72200E000228DF82020B3F98800A0
:10EDB0007B4A32F8101056F8042C02F47F4779434E
:10EDC000784F090A385601F5007100EB912108B21D
:10EDD000002803DDC82802DDC72100E000218DF8EE
:10EDE000211012F4803F0EBFB3F8EC1093F8EC1032
:10EDF00014318DF8221012F4003F0EBFB3F83C31ED
:10EE000093F83C3114338DF82330002708ABD95DDB
:10EE100007A800F0FBFB002321E00AAAD31813F88F
:10EE20000C3C13B304F8083008F10108B8F5007F72
:10EE300012D3534804A9F5F72DFA8046002840F074
:10EE400098806B08FE200135414640F20A5203F0DB
:10EE50000303EDB2FEF754FA9DF8273001338DF825
:10EE600027309DF82730022BD7D92C2304F80830FF
:10EE700008F10108B8F5007F11D3414804A9F5F75E
:10EE800009FA8046002874D16B08FE2001354146FE
:10EE900040F20A5203F00303EDB2FEF731FA0137F4
:10EEA000042FB3D108F101070D23B7F5007FAA465F
:10EEB00004F8083012D1324804A9F5F7EBF90746F7
:10EEC000002856D14FEA5A030135FE20394640F258
:10EED0000A5203F00303EDB2FEF712FA07F101083C
:10EEE0000A23B8F5007FE35512D1254804A9F5F7A8
:10EEF000D1F9074600283CD16B08FE20394640F284
:10EF00000A5203F00303FEF7FBF90135EDB2B846F0
:10EF10004E457FF430AFB8F1000F1DD00D2304F83B
:10EF2000083008F10108033B08F1010204F8083039
:10EF3000A0180021C2F5007204F066FB04A9104875
:10EF4000F5F7A8F90146A0B96B08FE2040F20A5275
:10EF500003F00303FEF7D4F90948690204AA06ABDB
:10EF6000F5F79AF9002814BF0920002002E00A20D2
:10EF700000E009200AB0BDE8F08700BF274801087B
:10EF800038420020064801080E48010816480108CA
:10EF900038540020603100204A3E0020E453002015
:10EFA0005E3E0020EE530020F0B587B0F5F746F93D
:10EFB0000146684600F0C7FB57238DF80830073B31
:10EFC0008DF809304A4C04338DF80A30543B8DF8E3
:10EFD0000B302046694603AA05ABF5F757F90546FD
:10EFE000002840F08280204603A9F5F751F9002857
:10EFF00076D1218801F0FF03062B73D12A462B46D8
:10F00000A05C01321B18B2F5007FDBB2F8D1002BF7
:10F010006AD1384A090A117035490A4632F8020F96
:10F02000354C18551E190233000A0E2B7070F5D19D
:10F03000324B2F4A03F58260148A1C82568A9E84C2
:10F04000948A1C87D68A0832A3F84C6050338342D6
:10F05000F2D1274A00232A48B2F8784018180C3316
:10F0600044710232240A6C2B0471F4D1254B264CD6
:10F0700026480022B1F88A60254FD655254F360A1A
:10F08000D655B1F88C60244F24F8026BB1F88E602D
:10F0900020F8026FB1F890600831D6551F4F360A3C
:10F0A000D65501320A2AE5D1B3F850101C4A118016
:10F0B000B3F852409480B3F854101A4A1170B3F860
:10F0C0005610194A1170B3F85810184A1170B3F855
:10F0D0005A10174A1170B3F85C20164B1A7004E0EE
:10F0E000082502E0052500E00625284607B0F0BD0A
:10F0F00038420020284B0020384B0020603100208F
:10F10000F4300020C24200204A3E00205C3E002035
:10F11000E4530020EE5300203953002043530020D5
:10F120008C300020254B00201C4B0020234B00205E
:10F130003642002037420020F0B589B0F5F77EF85E
:10F14000014601A800F0FFFA57238DF80C30073B69
:10F150008DF80D3004338DF80E30724801A904AAE1
:10F1600006ABF5F793F86F4C18B1042840F0D78040
:10F170002DE04223BDF810008DF80C30013B8DF8D6
:10F180000D300A33ADF81C008DF80E30204601A971
:10F1900004AA06ABF5F778F8002840F0BE802046B8
:10F1A00007A9F5F775F8002840F0B580204604A9B6
:10F1B000F5F770F8002840F0B28020464FF4007157
:10F1C00004AA06ABF5F768F8002840F0A88057239A
:10F1D0008DF80C30534D073B8DF80D3004338DF80E
:10F1E0000E30284601A904AA06ABF5F74DF80646ED
:10F1F000002840F09280284631464FF4007204F017
:10F2000003FA494B1B781B0206332B802B46474AD7
:10F21000B1184878B15C0002023642180E2E23F86D
:10F22000022FF4D1424B3F4A03F582611E8A1682B7
:10F23000988C50821E8F9682B3F84C005033D08247
:10F2400008328B42F2D1374A00233A4959180E79D5
:10F250004879360231180C33A2F8781002326C2B40
:10F26000F3D1354B354836490022364E364F965746
:10F27000D7573602F619A5F88A6030F8026B334F7B
:10F28000A5F88C6031F8026FA5F88E60304ED75724
:10F29000965701323602F619A5F8906008350A2A09
:10F2A000E3D12C4A1088A3F850009288A3F852208A
:10F2B000294A1278A3F85420284A1278A3F8562035
:10F2C000274A1278A3F85820264A1278A3F85A2021
:10F2D000254A1278A3F85C2000231A46E15C01332A
:10F2E000521840F2FF118B420E4DD2B2F6D152426B
:10F2F000284604A985F8FF21F4F7CCFF78B9284601
:10F300004FF4007104AA06ABF4F7C6FF002814BF3F
:10F310000920002004E0082002E00A2000E0092083
:10F3200009B0F0BD38420020284B0020384B0020A7
:10F3300060310020F4300020C24200204A3E00200C
:10F340005C3E0020EE530020E4530020395300209F
:10F35000435300208C300020254B00201C4B002004
:10F36000234B00203642002037420020034609B9D3
:10F3700005E058430139C9B20029FAD1704701208C
:10F380007047034B18801A8892B2002AFBD170474D
:10F39000044B00202DE9F74F9DF830B0B1F1004F3C
:10F3A0000C4615461E465FFA8BF913D10346202200
:10F3B00003F8012B0E3242705A1C334601E0202123
:10F3C0004170013BDBB20130002BF8D1013EF6B2B7
:10F3D0009355AFE0B9F1000F18D1002900F10103F6
:10F3E00005DD4FF02B0880F80080184610E006D0AD
:10F3F0004FF02D0880F800804C42184608E030227B
:10F40000027018462E230370884601E04FF0000872
:10F4100021460522002306E001330A27B342C8BF74
:10F420007A4391FBF7F10929F6DCB342A8BFA4188F
:10F430002246002703E00A2192FBF1F21F46092A27
:10F4400007F10103F7DC032E4FF0030A0BD997FBFA
:10F45000FAF793FBFAFA0AEB4A0AB3EB0A0A08BF77
:10F460004FF0030A05E093FBFAF707EB470ACAEBF4
:10F47000030A831931460A200193FFF777FF019BA6
:10F4800002E00A2294FBF2F48442FAD2002204E061
:10F4900015F8011B0029FBD10132BA42F8DB1A46EC
:10F4A000297802F8011F15F8011B0029F8D114E092
:10F4B0000A2194FBF1F201FB1241013E3031B9F116
:10F4C000020FF6B203F80119144606D0002F04DD2E
:10F4D000B24502D12E2203F80129002EE8D1B9F15C
:10F4E000020F07D0B9F1000F20D01FBB2E225A7097
:10F4F000023201E0F7B920221A701BE01878302898
:10F5000018D0587983F807B0987118795871D8785D
:10F51000187198789A703022B8F12D0FD8700A704F
:10F5200002D183F8008005E02B22E5E75A78591CC8
:10F530002E2AE3D0BDE8FE8F70B51B4B86B0054682
:10F540000C4601AA03F11006186859680833B34243
:10F5500003C2F9D11B781370A5F16103DBB2192B3B
:10F5600001D8203DEDB2A4F16103DBB2192B01D823
:10F57000203CE4B200230DF10302184612F8011FEB
:10F58000A94204BF1818C0B21033DBB2002BF5D16A
:10F5900001A9C95CDAB2A14204BF1018C0B201339C
:10F5A000102BF5D106B070BD3348010842F210723D
:10F5B00030B5B1FBF2F4034604F1300503F8015B0A
:10F5C00002FB14154FF47A72ADB2B5FBF2F101F102
:10F5D0003004447002FB1150642280B2B0FBF2F59B
:10F5E00002FB150005F13001597080B20A21B0FB11
:10F5F000F1F202F1300501FB12025C1C30320233E1
:10F6000065705A7002340023637030BD642230B5D7
:10F61000B1FBF2F5034605F1300403F8014B02FBA0
:10F6200015140A21E4B2B4FBF1F202F1300501FB3A
:10F63000124230324570581C5A700023437030BD5E
:10F64000002930B500F1010202DB2B23037003E037
:10F650002D234942037049B2642491FBF4F004FB6A
:10F660001011134600F1300549B22E205A3C03F820
:10F67000015B507091FBF4F004FB101100F13005B8
:10F68000303100225D709970DA7030BD6423B1FBB7
:10F69000F3F202FB131370B5DBB20A26B3FBF6F5E7
:10F6A00006FB15330446303305F1300204F8012B14
:10F6B00043700023637070BD9F294FEA111200F15F
:10F6C000010301D9373200E0303201F00F0109297E
:10F6D000027003F1010201D9373100E030311970B5
:10F6E000002313707047B1F5204F4FEA113200F13B
:10F6F000010301D3373200E030320905090DB1F5BD
:10F70000206F02704FEA112003F1010201D337305C
:10F7100000E03030C9B29F2918704FEA111002F191
:10F72000010301D9373000E0303001F00F01092921
:10F73000107003F1010201D9373100E03031197046
:10F74000002313707047B1F1204F4FEA117200F19E
:10F75000010301D3373200E0303221F07041B1F1C2
:10F76000206F02704FEA116003F1010201D33730BC
:10F7700000E0303021F07F41B1F5200F18704FEAE2
:10F78000115002F1010301D3373000E0303021F095
:10F790007F4121F47001B1F5202F10704FEA114024
:10F7A00003F1010201D3373000E030300904187052
:10F7B000080CB0F5204F4FEA117102F1010301D39B
:10F7C000373100E0303100051170020DB2F5206FC5
:10F7D0004FEA107003F1010101D3373000E03030FF
:10F7E00002F0FF029F2A18704FEA121001F1010384
:10F7F00001D9373000E0303002F00F02092A0870DA
:10F8000003F1010101D9373200E030321A700023D0
:10F810000B70704710B5044650B18008FFF7FAFF2F
:10F820004000431C03FB03F2A24298BF184610BDE0
:10F8300010BD38B50420F4F70DFD314CC2432588C6
:10F8400091B2ADB221EA0505ABB2002B34D02D49FF
:10F850001E20087013F0080018BF092003F04001B3
:10F86000002918BF0A2003F48071002918BF032063
:10F8700003F40071002918BF042003F480610029FB
:10F8800018BF052003F40061002918BF062003F407
:10F890008051002918BF072003F40051002918BF28
:10F8A000022003F48043002B18BF01202DB230EA60
:10F8B000250028BF08200AE02088104007D0114802
:10F8C000007818B9104B1D780DB902E01846228057
:10F8D00038BD12F4806018BF052002F40065002DC9
:10F8E00018BF062002F0080509B2002D18BF092034
:10F8F00030EA210028BF082002211970E7E700BF85
:10F90000184B0020144B0020154B0020034BC0580F
:10F91000884234BF00200120704700BF083800082B
:10F920000A4B10B5C4580433C158002318460122AD
:10F930009A40224201D00130C0B20A4201D00130C7
:10F94000C0B20133202BF2D110BD00BF083800082F
:10F95000014BC058704700BF04380008064B0246F0
:10F96000202019688A4205D0203080B22033B0F5BB
:10F97000006FF6D1704700BF2038000830B50C4B3F
:10F9800020200FE054F8045B013989B22A40002995
:10F99000F8D1B2F1FF3F0AD0203080B22033B0F569
:10F9A000006F04D01C4608214FF0FF32EAE730BD5B
:10F9B0002038000870B50D460446F4F75DFC05F1EB
:10F9C0000060A1B200F56050F4F754FC064606480A
:10F9D000210C2818F4F74EFC0446F4F74FFC04EA17
:10F9E0000600C0B270BD00BF02380008F8B5064678
:10F9F0000F46F4F741FC00240425A3190848597860
:10FA0000A35D3818001943EA0121F4F733FC0234EE
:10FA1000102C05EA0005F0D1F4F730FC2846F8BDBB
:10FA200010380008F8B507460E46F4F725FCDFB19C
:10FA3000202F02D900231C460FE000231D4601227F
:10FA40009A4001331543DAB2BA42F8D300240DE0EC
:10FA500001229A4001331443DBB2A7F12002934202
:10FA6000F6DB4FF0FF3501E03C463D460F48A9B2BA
:10FA70003018F4F7FFFB07460D48290C3018F4F74F
:10FA8000F9FB00EA07050B48A1B23018F4F7F2FBC6
:10FA9000EDB205400848210C3018F4F7EBFB0446A2
:10FAA000F4F7ECFB05EA0400F8BD00BF08380008D5
:10FAB0000A3800080C3800080E38000870B50446F3
:10FAC0000D46F4F7D9FB0948A1B22818F4F7D2FB88
:10FAD00006460748210C2818F4F7CCFB0446F4F737
:10FAE000CDFB04EA0600C0B270BD00BF04380008B8
:10FAF000063800082DE9F04F87B002AC8A46302165
:10FB00008146ADF8141020460021FFF71CFE484640
:10FB100051464FF6FF7200230094F4F795FB002640
:10FB20003546344602A82946FFF70DFE344B1A78B5
:10FB3000964224D009EBC40B1E781FFA8BFBC846F3
:10FB4000002702ABDA5D06AB03F8042DFAB294424B
:10FB500006D10093584651464FF6FF72334605E0F2
:10FB60000093404651464FF6FF7200230137F4F7E9
:10FB70006BFB08F10808082F1FFA88F8E1D1214B28
:10FB80001A78002A36D01A78023A072A30D8DFE8E5
:10FB900002F02A2F2F04102F2226C4F10702920010
:10FBA00035FA02F111F00F0F01D001210FE00F2102
:10FBB00009E0C4F10702920035FA02F101F00F01E9
:10FBC0000F2904D0012111FA02F2AD1810E011FA48
:10FBD00002F2AD1A0CE0072C07D0013401E034B179
:10FBE000013CE4B204E0082402E0002400E0072421
:10FBF00000221A70072C95D9284607B0BDE8F08F6F
:10FC00000F4B0020164B00207047FEE7FEE7FEE793
:10FC1000FEE77047704770477047704770477047FE
:10FC2000704770477047704770477047704770471C
:10FC3000704770477047704770477047704770470C
:10FC4000F4F7DEBAF4F7DEBA7047704770477047D2
:10FC5000704770477047704738B513200021F4F79C
:10FC6000F5FA384B1A781C461AB11A78013A1A700C
:10FC700038BD14232370636813B16368013B63606C
:10FC80002289304B92B2142A02D91A89143A00E020
:10FC900000221A8162892B4B92B2132A03D95A8906
:10FCA000143A5A8103E003200021F4F7CFFA237BB2
:10FCB000244D312B03D82B7B01332B730EE0002313
:10FCC000042001212B73F4F7C1FAEB890133EB8196
:10FCD0002B8A9BB213B12B8A013B2B82A27C194B3E
:10FCE0000132A274A27C0E2A09D900229A74DA7C0D
:10FCF000D2F1010238BF0022DA7401221A75E28AB9
:10FD0000104B92B212B1DA8A013ADA82227E0D4B9E
:10FD100012B11A7E013A1A76627E0A4B12B15A7EED
:10FD2000013A5A76FFF785FD58B1074BA076B3F933
:10FD3000E4130320013901EB8101F4F787FA3C2336
:10FD4000638138BDFC4A0020603100207047704755
:10FD500070477047704770477047704770477047EB
:10FD600070477047704770477047704770477047DB
:10FD700070477047704770477047704770477047CB
:10FD8000704770477047704714490B78A3F10D0214
:10FD9000D2B2082A03D90B2B01D00C2B0ED1104A5A
:10FDA000D05C50225A43142303FB00230D4A9B18B6
:10FDB0009A7842F002029A7000230B700A4B0022DC
:10FDC0001A700A4B40F2931018800B78082B04D15C
:10FDD000034B197A022908BF1A727047284B00207A
:10FDE000384B0020703100201C4B0020743E002056
:10FDF00010B5344CB4F82833B4F9302319B2633950
:10FE0000914202DC643BA4F83033B4F83C33B4F9DB
:10FE1000442319B26339914203DC2A4A643BA2F8B5
:10FE20004433FEF7CBF9284A01231370274A40F2E6
:10FE300037111180264A1370264B03F16C02D97AD0
:10FE400041F00201D9720C339342F8D194F8BA32DE
:10FE500043F0020384F8BA3294F85A3343F00203B1
:10FE600084F85A3394F8CE3243F0020384F8CE3249
:10FE700094F86E3343F0020384F86E3394F88233BF
:10FE800043F0020384F8823394F8D23343F0020340
:10FE900084F8D23394F8963343F0020384F896330F
:10FEA00094F8E63343F0020384F8E63301F038F9BE
:10FEB000002420460134E4B201F07EF9092CF8D187
:10FEC00010BD00BF603100201C4B0020743E00209C
:10FED000073A0020F43000202DE9F04F4FF0006089
:10FEE00089B0A94903F0E2F9F4F7C0F90B20F4F75F
:10FEF000B1F9034640B9A54A302000921E2140F2D4
:10FF0000FF72F4F7A1F9FEE7A14B32214FF6FF7221
:10FF1000009320200023F4F797F90720F4F79AF9CB
:10FF20009C4B18600820F4F795F99B4B186009204A
:10FF3000F4F790F9994B18600A20F4F78BF9984B75
:10FF4000186001F027FFFFF72FF8064638B9954BE8
:10FF5000302000931E214FF4FC62334606E0924BA2
:10FF6000302000931E2140F2FF720023F4F76CF959
:10FF70008E4B4FF4FA701880FCF7DAF801F0F8FFB6
:10FF80008B4D8C4F00233B702B788B4C012B8B4B74
:10FF90000DBF40F2371140F28D121A801980B4F86B
:10FFA000F031B4F89C006B70B4F84C30EA796B8097
:10FFB000834B4FF0000A1988A8800691AA71CDF8EA
:10FFC00014A0D046CDF81CA0CDF810A09946B4F9E5
:10FFD000F0216978784B8A42DFF8D4B172D0042AD4
:10FFE00023D1029301F08AFF9BF80120029B032A90
:10FFF00007D8B3F84C20B3F89C30ABF80220ABF82C
:020000040801F1
:100000000430704A872111706F4A6423A4F84C3081
:10001000A4F89C3013702B782B720BB9FFF7E8FE15
:10002000B9F800300693EB79AB71B4F9F031DFF831
:1000300088B1052B24D101F061FF6A785C4B032A5B
:100040000BD8BBF84C001A78BBF89CB05880A3F8CA
:1000500004B01A720AB9FFF7CBFE6A78544B042A2F
:1000600004D106999A79A9F80010DA71554A8721C6
:100070001170554A6423A4F84C30A4F89C301370D6
:10008000B4F9F0214C4B032A1CDC6A78DFF820B16C
:10009000032A17D9BBF80220BBF80400A3F84C20B0
:1000A000A3F89C0001F02AFF9BF808300BB9FFF77A
:1000B0006BFE6A783E4B042A04D106999A79A9F816
:1000C0000010DA71B4F8F0313B4A191F89B20129E6
:1000D0006B700DD872206421042BA2F84C00A2F89A
:1000E0009C1005D1324B0022DA71C822A9F80020F9
:1000F000DFF8E4B0BBF8001089B239B90220F4F798
:10010000A5F814200121F4F7A1F8EEE002F0EAFED0
:100110002E4B1B889BB2BBB194F85A3343F00203B9
:1001200084F85A3394F8BA3243F0020384F8BA32AE
:1001300094F8CE3243F0020384F8CE3294F86E3352
:1001400043F0020384F86E3304980799431C9BB272
:1001500004931F4B1A8892B2914241D01B88049A93
:100160009BB207931B4B1A8001F056FE2B78012B94
:1001700034D10026F0B2013601F01EF8092EF9D173
:10018000002304932CE000BF00C00008444801088D
:100190006A48010848940020505300204C940020E5
:1001A0005094002095480108BC480108064B0020E7
:1001B0001C4B0020164B002060310020743E0020B4
:1001C0008C3000203642002037420020124B0020A5
:1001D0000A4B0020364B00200C4B002000200490DE
:1001E0002B78012B01D100F09BFF01F057FBA049B8
:1001F0000B78002B76D0EB795BB9B4F840229D499F
:1002000002F5A062009140F26D10D82192B2FDF784
:10021000B1F8EB79012B0BD1B4F84022964902F5E5
:10022000A062009140F26D10D82192B2FDF7A2F8C1
:10023000EB79022B0CD1B4F84022904B02F5A0626E
:10024000009340F26D10D82192B20123FDF792F88D
:10025000EB79032B0CD1B4F84022894B02F5A06254
:10026000009340F26D10D82192B20123FDF782F87D
:1002700001F0FCFE01F052FF01F08CFFB4F9F03107
:10028000042B01D002F0A8F8B4F8F031043B9BB283
:10029000012B01D9FDF762FDB4F994330A21013332
:1002A00059430220F3F7D2FF764B1B78092B01D07C
:1002B000FDF790FE2B78012B11D194F8BA3243F060
:1002C000020384F8BA3294F8CE3243F0020384F881
:1002D000CE3294F86E3343F0020384F86E33644AEE
:1002E00000231370684B00221A70B4F95031012BAF
:1002F00010D10320F3F7AEFF18B90230F3F7AAFFCD
:1003000040B90223A4F8503194F8523143F002036B
:1003100084F85231EB79002B4BD05A4B1B78072BCA
:100320000BD15A4BDA79022A07D194F86A2242F0AB
:10033000020284F86A220022DA71B4F94032CBB9A1
:10034000534B54491B78EA7909785200C91A4A4339
:10035000059848BF073203EBE2039BB2421D93426C
:1003600002DC421F934205DA414A0121A9F800301C
:1003700011700593B4F94032012B1AD1464B47490D
:100380001B78EA7909785200C91A4A4348BF0732F4
:1003900003EBE2039BB20AF10502934203DCAAF1EC
:1003A0000502934205DA324A0121A9F8043011709E
:1003B0009A46697A3A4B012913D1B4F9F001394AC6
:1003C000032803D10020A2F8180208E00021A2F8B7
:1003D0001812B2F904220A2A01DC022202E0197082
:1003E00001E000221A703B78002B3FF4F0ADBBF81F
:1003F00000309BB20BB901F0BBFD4FF41671ABF8A6
:1004000000103B78012B28D1B4F95031D3F101030E
:1004100038BF0023A4F8503194F8523143F002035E
:1004200084F85231174B1B78092B06D11D4BB3F9B9
:100430000833022B01D1FEF7CBFBB4F9F031022BCC
:100440000BD10026184B0022F2540136B6F5C46FCA
:10045000F8D106200121F3F7F9FE3B78022B5ED19B
:10046000DFF848B040F6B832ABF800205B4648E011
:10047000073A0020E3480108E9480108EF4801086D
:10048000F5480108284B0020104B0020384B002075
:1004900024540020225400202554002023540020FE
:1004A0000C54002060310020184D0020044B002027
:1004B00004200293F3F7CEFE10F4005F029B20D0DD
:1004C000EB790133DBB2032BEB7102D9A34B002292
:1004D000DA71A34AA34B11784FF0500E585C0EFB13
:1004E00001F1AEF13C0E0EFB00116118887C40F06A
:1004F00002008874E97941B9073111700222DA717A
:1005000003E01A8892B2002AD2D1BBF800309BB225
:100510002BB9934B1878012801D8FBF779FE3B786B
:10052000032B49D1904B40F2DC501880B3463DE09C
:100530000420F3F78FFE10F4807F0FD02B785E46F7
:10054000012B08D1B4F8F031043B9BB2012B33D915
:10055000FFF71AFC30E0FFF74BFC2DE0824B1B88C5
:100560009BB21BBBFEF7E8FD7D4B1B78092B1DD012
:1005700004267E4B002140F2054200935B200B468F
:10058000FCF7F8FE4FF49670FEF7FBFE784B002167
:1005900000935B2040F205420B46013EFCF7EAFE69
:1005A000F6B2C820FEF7EDFE002EE2D16E490B88B0
:1005B0009BB2002BBCD15E463B78042B40F071818E
:1005C000DFF89CB19BF80030092B00F0DB80664B14
:1005D0004FF42F721A801A46AFE004200392029360
:1005E000F3F738FE10F4007F039A029B00F0A58019
:1005F0002A78012A40F0A680B8F1030F00F2818525
:10060000B4F8F00108F10108043880B201285FFA5B
:1006100088F803D8B8F1010F24D105E0B8F1040F30
:1006200020D0B8F1010F03D10120A4F8B80202E0F4
:100630000021A4F8B8124F4AD17A41F00201D172D8
:1006400000215171043111710339D07D0131C9B2DA
:1006500040F00200D075517482F810800C320929E4
:10066000F3D16FE04349CA7A01F1600E42F0020211
:10067000CA7200224A7104320A710A4691F817C000
:100680004CF0020C81F817C00C317145F6D10128ED
:1006900006D9B4F9B01059BB3749B1F9001139BBCB
:1006A00000214FF004084FF0030C4FF0020E07201A
:1006B0001174117782F8281082F83410013182F811
:1006C000118082F81DC082F829E082F8350082F896
:1006D000418082F8401082F84DC082F84C1082F8B8
:1006E00059E082F8581082F8650082F8641029E019
:1006F000002010741077013082F8280082F834004E
:1007000001304FF00408072182F8400082F84C00C5
:10071000013082F81180517782F8298082F83510F3
:1007200082F8418082F84D1082F8598082F8580092
:1007300082F8651082F8640004E0118889B200290B
:100740007FF44BAF1A8892B2E2B9697A034BA9B928
:1007500001325A72B4F818225A8113E01C4B00205F
:10076000284B0020384B0020044B0020FB48010898
:1007700094390108F4300020603100205A725B89FE
:10078000A4F818329BF80030092B40F08A80834B84
:1007900000210093E6200B4640F20A52FCF7EAFDE6
:1007A0007F4B50211B7801FB0342B2F9100088BB3C
:1007B000B2F93820032A24D8DFE802F00209151C18
:1007C00001FB034191F82400FEF702F818E001FB59
:1007D000034191F82400FDF79BFF06464FF47A7021
:1007E000FEF7CFFD0DE001FB034191F82400FEF779
:1007F0008BF805E001FB034191F82400FEF76AFA4B
:1008000006469BF80030502202FB03439A8C0132CB
:100810009A8418E0B2F93830012B05D192F82400FF
:10082000FDF741FF064600E000269BF8003050220D
:1008300002FB0343B3F93820022A04D193F82400C1
:10084000FEF7F2F806463EB9564BE62000933146D5
:1008500040F20A5233460DE0042E01D1524B03E020
:10086000032E0CBF514B524B00210093E62040F267
:100870000A520B46FCF77EFD4FF47A70FEF781FDBD
:100880009BF80030502202FB034393F8261093F8A4
:100890003A2041F0020142F0020283F8261083F868
:1008A0003A203B78052B40F00B81B4F8F031043B43
:1008B0009BB2012B3A4B18D81A784AB93D4A1278A4
:1008C000032A05D13C4A11782D2901D9023911702A
:1008D0001A78012A09D1374A5278032A05D1374AB2
:1008E00011781E2901D9023911701A780A2A03D009
:1008F000082A04D12A7812B9314A962111801A782F
:100900000C2A00F2B780072A0FD12A49C979022997
:100910000BD1B4F9402239F8221008B211285BDD5E
:100920002848013920F8221056E0A2F10B01C9B283
:10093000012909D8502101FB0242918C08B20028FC
:100940004ADD0139918447E0062A1A4918D188798D
:10095000022815D1687A98B9B4F818221A4910B249
:100960001E2801DD1E3A02E0002802DD013AA1F84E
:10097000182294F82E2242F0020284F82E222BE054
:100980005020895C42433C3800FB0122A218118AA6
:1009900008B200281ADD013911821DE0174901084B
:1009A000284B00201D490108234901082949010855
:1009B0002F490108384B00203642002037420020E2
:1009C000124B00208C30002060310020917A11F011
:1009D000100F1CBF108910821A78062A0AD19B4A70
:1009E00092793AB9A4F8502194F8522142F00202C7
:1009F00084F852211A78052A0BD1B4F9A011944A2F
:100A0000042906D0B2F9B4110E2902DD0E21A2F894
:100A1000B4111A78092A12D1B4F9E0128C4A0129CA
:100A20000DD1B2F9081311B90220A2F80803B4F9E4
:100A30000823032A03D1864A0221A2F808131B784F
:100A4000502202FB0343997C93F84E2041F00201AF
:100A5000997493F8261042F0020241F0020183F8E3
:100A6000261093F83A1083F84E2041F0020183F8E3
:100A70003A1025E077480D3A0C2101FB020393F868
:100A80000BC093F805E04CF0020C83F80BC0BEF1EC
:100A9000000F02D00EF1FF3E01E04FF00B0E01FB04
:100AA000020183F805E04B79012B01D103330B716F
:100AB0000C2303FB020043790B2B01D10B3B037189
:100AC0003B78072B40F0D28063494FF0500E0A78F4
:100AD0005E4B0EFB02FE985C4FF0140C0CFB00EE1C
:100AE000A6449EF812C0022A4CF0020C8EF812C0E6
:100AF00001D100B99A540A78032A04D1DA7812B9DC
:100B0000524A0220D0702A7832B90878082803D1D6
:100B1000187A012800F0A2800A780C2A79D84FF0C0
:100B2000500C0CFB02FC985C4FF0140B0BFB00CC40
:100B3000A4449CF812B002284BF0020BDFF80CE141
:100B40008CF812B001D8013000E00020052A0EF820
:100B5000020009D1B4F9A021042A05D15A79032A47
:100B600002D13A4A002050710A78052A09D1B4F915
:100B7000A021042A05D05A79022A02D1334A03203F
:100B800050710A785020504313F802E04FF0140CD3
:100B90000CFB0E00201890F90A00002804DA2B48FC
:100BA0004FF0000E00F802E05020504313F802E02E
:100BB0004FF0140C0CFB0E002018807A10F0010F7F
:100BC00004D022484FF0000E00F802E050205043BD
:100BD00013F802E04FF0140C0CFB0E002018807A82
:100BE00010F0020F08D0092A06D0052A04D01748B1
:100BF0004FF0000E00F802E00A78995C50235A4347
:100C00003C3B03FB0123E3189A7C42F001029A74F7
:100C10002CE010480D3A0C2101FB020393F804E08C
:100C200001FB020293F80BC0BEF1030F9CBF0EF153
:100C3000010E83F804E04CF0020C83F80BC013792A
:100C4000032B13D90023137110E000BF384B002091
:100C500060310020F4300020284B002094F8A632A8
:100C600043F0020384F8A632864B1A723B78062BB7
:100C700040F03B81B4F8F031043B9BB2012B824B36
:100C800018D81A784AB97F4A1278032A05D17F4AC0
:100C90001178D62901D8023111701A78012A09D1A8
:100CA000784A5278032A05D1794A1178A92901D8BE
:100CB000023111701A780A2A03D0082A04D12A783E
:100CC00012B9744A96201080EA7942B11A78072A3C
:100CD00005D16C4AD179022901D10239D171197833
:100CE0000C2900F2DD8007290FD1664AD279022A49
:100CF0000BD1B4F9402239F8221008B2D02873DCA5
:100D00006548013120F822106EE0A1F10B02D2B249
:100D1000012A0BD8502202FB0142918CB2F91CE04F
:100D200008B2864560DD013191845DE006295548B1
:100D30001FD18279022A3FD16A7A002A3CD1B4F8C5
:100D40001812564A08B21D2809DDB2F910E2AEF1B8
:100D50001E0C604501DA1E3102E0704502DA0131F5
:100D6000A2F8181294F82E2242F0020284F82E22E1
:100D70003AE00A2920D1827A012A1DD8297801294E
:100D80004FF0140109D101FB0242B2F83013B2F95D
:100D900028030FFA81FE643808E001FB0242B2F832
:100DA0003013B2F928030FFA81FE0C3886451BDA9E
:100DB0000131A2F8301317E05022405C51433C3A15
:100DC00002FB0012A218118AB2F908C00FFA81FEC4
:100DD000F44502F1080001DD013104E0817811F0F1
:100DE000100F01D0002111821A78062A0AD1254A53
:100DF00092793AB9A4F8502194F8522142F00202B3
:100E000084F852211A78052A0BD1B4F9A011234A8B
:100E1000042906D0B2F9B4110E2902DD0E20A2F881
:100E2000B4011A78092A11D1B4F9E0121B4A012938
:100E30000CD1B2F9080308B9A2F80813B4F90823D1
:100E4000032A03D1154A0121A2F808131B78502266
:100E500002FB0343997C93F84E2041F00201997400
:100E600093F8261042F0020241F0020183F82610A6
:100E700093F83A1083F84E2041F0020183F83A10BB
:100E800033E000BF384B0020284B002036420020C2
:100E900037420020124B00208C30002060310020AF
:100EA0009A48A1F10D020C2101FB020393F805E021
:100EB00001FB020193F80BC0BEF10A0F94BF0EF1C3
:100EC000010E4FF0000E4CF0020C83F805E083F8A1
:100ED0000BC04B790BB904330B710C2303FB0200DD
:100EE0004379022B01D1023B03713B78092B67D177
:100EF000874B1A780C2A47D85020504385494FF029
:100F0000140C11F802E00CFB0E00201890F812E00F
:100F10004EF0020E80F812E02878012802D122B9A2
:100F20000C3203E00AB90A3200E0013A1A701A786A
:100F3000042A02D1764A032010701B7850225A43AB
:100F4000C95C142000FB01216118887C092B40F04A
:100F50000300887434D1704B9A18917C92F84E300B
:100F600041F00201917492F8261043F0020341F01F
:100F7000020182F8261092F83A1082F84E3041F0C1
:100F8000020182F83A101BE060494FF00C0EA2F10A
:100F90000D000EFB001090F80BE00D2A4EF0020E33
:100FA00080F80BE001D1083200E0013A1A701B789A
:100FB0000C220D3B02FB0311CB7A43F00103CB72F1
:100FC0003B780A2B2AD1524A524913784FF0140E1B
:100FD000C85C502159430EFB00116118887C40F019
:100FE00002008874297849B9A3F10D01C9B2082912
:100FF00012D90B2B10D00C2B10D10DE00C2B01D8DB
:101000000D230AE0414B03F16C01D87A40F0020055
:10101000D8720C338B42F8D1002313703B78082B25
:1010200068D13B4B1A780C2A48D850203949504394
:1010300011F802E04FF0140C0CFB0E00201890F891
:1010400012E04EF0020E80F812E0287818B90A2A51
:1010500001D1187005E00C2A01D10C3A00E00132F0
:101060001A701A78042A02D1294A052010701B78B8
:1010700050225A43C95C142000FB01216118887C6E
:10108000092B40F00300887434D1234B9A18917CCB
:1010900092F84E3041F00201917492F8261043F01C
:1010A000020341F0020182F8261092F83A1082F809
:1010B0004E3041F0020182F83A101BE013494FF024
:1010C0000C0EA2F10D000EFB001090F80BE0152A9B
:1010D0004EF0020E80F80BE001D1083A00E0013238
:1010E0001A701B780C220D3B02FB0311CB7A43F0E4
:1010F0000103CB7200233B70084B01221A70FEF7EC
:1011000066BF4FF00008FFF793BA00BFF43000202D
:10111000284B0020384B002060310020073A002087
:10112000F7B51F4C04F16C05237813F0020F14D0AF
:1011300014F8076C1B4A54F80B7C32F8162014F88C
:10114000066C002306EB8606237034F8050C14F8B1
:10115000011CBE190096FCF70DF90C34AC42E3D12A
:10116000114B1A780D3AD2B2082A18D80F4B1978B9
:10117000A9B10C2555430E4E002119707419277919
:10118000E088A17A647975590A4B064A04EB840415
:101190001B782C1932F817200094FCF7EBF8FEBDF1
:1011A000FF30002036490108284B0020104B00205A
:1011B000F43000200F4B00202DE9F347AC4B0546DF
:1011C0001B78AC4CDFF8EC8243B9B4F97032D8F834
:1011D0000020142101FB0323DE8908E0B4F97032FA
:1011E000D8F80020142101FB0323B3F87260B4F98E
:1011F00070720323082F0BD8C7F10B01B1FBF3F179
:101200000A20C9B2FEF7B2F84FF0010A81460AE09F
:10121000A7F10901B1FBF3F10A20C9B2FEF7A6F864
:101220004FF0010982460323B7FBF3F3D8F80020FF
:1012300003EB4303FF1A142303FB0727D7F8C470FB
:1012400001F0C6F90C2303FB0542527980460B2AB4
:1012500000F2F582DFE812F00C0013001C005000D1
:101260008800E40030016F01D201FA013502A902C1
:101270000620F2F7EFFF4FF47A71414356E17E48C2
:101280000223C1897D4A0093013001F07F01D4E23D
:1012900003FB05431B79774A73B9B2F87C30002B06
:1012A00000F04381B2F8A400754A06B21178754A7D
:1012B00012788A1A744910E0012B40F03481B2F898
:1012C000CC30002B00F03181B2F8F4006F4A06B246
:1012D00011786F4A12788A1A6E4931F8161000B2E6
:1012E0004A4312F5007144BF02F5BE610F31891205
:1012F0000429D8BF00210AE103FB05431B795D4A9D
:101300008BB9B2F87C30002B00F00F81B2F9A40049
:101310006149B2F9B82009568A1A60490968B1FBD7
:10132000F8F8594913E0012B40F0FD80B2F8CC30B9
:10133000002B00F0FA80B2F9F4005949B2F9082103
:1013400009568A1A57490968B1FBF8F8514931F82A
:10135000101001FB08F101F5007102EB91218A1CCC
:10136000042A98BF0021D2E003FB05431B79414AC0
:101370003BBBB2F97C1029B3B2F9A430464AD65629
:10138000414A32F81370484B1868B0FBF8F0FEF78A
:1013900041FA464AB4F9A43012681421474301FBCC
:1013A000032307F50077196906EB9726B4F97C301B
:1013B000022ED8BF00267143022B03D108335943B4
:1013C00000E000210C2202FB05421279294B012A80
:1013D00040F0AC80B3F9CC10002900F0A780B3F93D
:1013E000F4302F4AD6562B4A32F81370304B186817
:1013F000B0FBF8F0FEF70EFA2C4AB4F9F43012689C
:101400001421474301FB032307F50077196906EB15
:101410009726022ED8BF00267143B4F9CC307DE068
:1014200003FB05431B79134A7BB9B2F87C30002BD0
:101430007BD0B2F9A4001849B2F9B8200956104E71
:101440008A1A114931F810105BE0012B6BD1B2F808
:10145000CC30002B69D0B2F9F4001149B2F908215F
:1014600009560A4E8A1A0B4931F8101049E000BF9C
:1014700038530020F4300020284B00207C35002019
:1014800022540020245400204A3E002023540020EF
:10149000255400205E3E0020E45300202854002004
:1014A000EE5300202C54002030540020489400209B
:1014B000345400205053002003FB05431B79994A04
:1014C0007BB9B2F87C30002B2FD0B2F9A40096493A
:1014D000B2F9B8200956954E8A1A954931F810107C
:1014E0000FE0012B1FD1B2F8CC30F3B1B2F9F40008
:1014F0009049B2F9082109568F4E8A1A8F4931F85E
:1015000010103678714301F5007102EB91218C4A7D
:101510001426126806FB002002695143022B05D1F4
:101520000833594302E0002100E0194600230093EC
:101530008448854A80E103FB05431B79794A4BB90E
:10154000B2F97C30002B2FD0804B814A1B8853434B
:10155000804A21E0012B08D1B2F9CC3023B37E4B75
:101560007B4A1B8853437D4A16E0022B09D1B2F90E
:101570001C31012B17D17A4B754A1B885343794A8A
:101580000AE0032B0FD1B2F96C31012B0BD1764B52
:101590006F4A1B885343754A128893FBF2F34FF44A
:1015A000FA62534300E00023BAF1090F4FF006023C
:1015B00010D8B7FBF2F7B3FBF7F3F4325343B3FBA6
:1015C000F9F9012300930E33B9FBF3F15D48684A42
:1015D0000B3B32E1B7FBF2F7B3FBF7F30AFB03FA7D
:1015E000F021BAFBF1FA06FB0AF60123360A4FF4A2
:1015F0007A710093534871435D4A1DE103FB054333
:101600001B79484A33B9B2F97C10002900F02881CF
:10161000504BD4E0012B06D1B2F9CC10002900F0D8
:101620001F814E4BD6E0022B06D1B2F91C31012BA3
:1016300040F0ED804B4BD8E0032B40F0E880B2F94E
:101640006C31012B40F0E380484BD9E003FB0543AC
:101650001B79344A4BB9B2F97C1000292CD0454B88
:1016600045491B8859433B4B21E0012B08D1B2F976
:10167000CC1009B3414B40491B885943374B16E006
:10168000022B09D1B2F91C31012B14D13C4B3A4940
:101690001B885943334B0AE0032B0CD1B2F96C3150
:1016A000012B08D1374B34491B8859432F4B1B88DA
:1016B00091FBF3F100E00021012300932148324A1D
:1016C000BAE003FB05431B79164A93B9B2F97C10C3
:1016D000002900F0C5801F4A2649128809887A43EC
:1016E0001A4B4F431B88B2FBF3F2B7FBF3F3D71A45
:1016F0008EE0012B0AD1B2F9CC70002F00F0888067
:101700001E4B1D4F1B885F43144B4AE0022B3DD1FB
:10171000B2F91C31012B7AD1194B174F1B885F434B
:10172000104B3EE0F4300020E4530020245400200D
:101730004A3E0020EE530020255400205E3E00204B
:1017400048940020294B00207035002016540020BA
:10175000404B4C003A940020185400203E94002046
:101760001A540020429400201C540020449400206D
:10177000883500200E540020A0860100105400205F
:101780001254002014540020A0350020032B3ED119
:10179000B2F96C31012B3AD1324B334F1B885F4386
:1017A000324B1B8897FBF3F732E003FB05431B79B1
:1017B0002F4A43B9B2F97C10002951D02D4B1B8818
:1017C0005F432D4B1FE0012B08D1B2F9CC1000294B
:1017D00046D02A4B1B885F43294B14E0022B08D1CB
:1017E000B2F91C31012B12D1264B1B885F43264BCB
:1017F00009E0032B0BD1B2F96C31012B07D1194B46
:101800001B885F43214B1B88B7FBF3F700E00027E1
:101810006FF00043B3FBF9F39F4207D809FB07F1D0
:10182000B1FBF6F18902B1FBFAF101E04FF00041A2
:1018300001231748174A00930333FDF7ABFD0C2330
:1018400003FB0544144B2279208903EB42035A8998
:101850000F4BA17A00930023FBF78CFDBDE8FC87BA
:101860000F46D5E714540020A086010044940020C0
:10187000F43000200E540020165400201054002094
:1018800018540020125400201A5400201C54002028
:10189000294B002094350020364901082DE9F74FE7
:1018A000B64B1A78052A07D15B7D023BDBB2012BD0
:1018B00002D8B34B1C7800E00124B24DB5F90C32CC
:1018C000042B1AD1D5F8240295F83412FDF79EFEA8
:1018D000D5F828329C201A88AB4BD8210093234698
:1018E000FBF748FDD5F82832B5F830021A88D5F84C
:1018F000243295F83212009320E0D5F828329C204B
:101900001A88A24BD82100932346FBF733FDA04E43
:10191000B5F948320122009246F2905105F58E62E7
:10192000594330460C320223FDF734FDD5F83C32E2
:10193000B5F8440295F846121A8800962346FBF73C
:1019400019FD944F4FF000080CE2237813F00201C8
:1019500000F05F8123F00203042E237014F8082C9A
:1019600001D0072E16D112F020030AD0B7F91020AB
:1019700054F80E3C34F8060C14F8041C33F812200A
:1019800012E012F0800F40F0DE8134F8060C14F8FB
:10199000041C69E112F0200809D054F80E3C34F818
:1019A000060C14F8041C1A8854F8123C42E012F099
:1019B000020300F0B480082E3ED1B5F92433502143
:1019C00001FB0351B1F97C306E4A022B72480ED1F3
:1019D000B1F9A4300168142000FB03131B690A212C
:1019E0004B43B2F9FC02B2F91013411A0DE0B2F9FF
:1019F000FCE2B2F91033B1F9A4100068C3EB0E0396
:101A00004FF0140E0EFB0101096902F58E62594375
:101A10005F480C320323CDF80080FDF7BBFC54F87F
:101A20000E3CB5F9242334F8060C33F8122014F8D0
:101A3000041C574B00939EE00A2E5BD1B5F97082CF
:101A40000323B8F1080F0ADCC8F10B0191FBF3F195
:101A50003046C9B2FDF78AFC0346012008E0A8F130
:101A6000090191FBF3F13046C9B2FDF77FFC012378
:101A7000B5F9B013B5F99C234FF0030E8A1A474904
:101A800098FBFEFE0EEB4E0E0968CEEB08084FF0F9
:101A9000140E0EFB0811D1F8C4104A43002A6FF04F
:101AA000004104DD91FBF3F18A420BDC05E0C2F159
:101AB000000E91FBF3F18E4504DD02FB03F191FB77
:101AC000F0F101E04FF00041DFF8C4804FF0000B6F
