:020000040800F2
:10C0000000A0002099BA0108F93501080536010899
:10C010000D360108153601081D3601080000000024
:10C0200000000000000000000000000031360108A0
:10C0300025360108000000003D3601084936010898
:10C0400055360108613601086D3601087936010858
:10C0500085360108913601089D360108A936010888
:10C06000B5360108C1360108CD360108D9360108B8
:10C07000E5360108F1360108FD36010809370108E7
:10C0800015370108213701082D3701083937010814
:10C0900045370108513701085D3701086937010844
:10C0A00075370108813701088D3701089937010874
:10C0B000A5370108B1370108AD390108B9390108C0
:10C0C000C5390108D1390108DD390108E93901080C
:10C0D000F5390108013A01080D3A0108193A010839
:10C0E000253A0108313A01083D3A0108493A010868
:10C0F000553A0108613A01086D3A0108793A010898
:10C10000853A0108913A01089D3A0108A93A0108C7
:10C11000B53A0108C13A0108CD3A0108D93A0108F7
:10C12000E53A0108F13A0108FD3A0108093B010826
:10C1300090B583B000AF4FF014004FF00001F8F756
:10C1400085F84FF024004FF00101F8F77FF84E4BCF
:10C150001B6803F5AA731B891BB24FF00700194631
:10C16000F8F774F8484B1B6803F5AA735B894FF026
:10C1700008001946F8F76AF84FF009004FF001017E
:10C18000F8F764F84FF00B004FF00101F8F75EF894
:10C190004FF000004FF06401F8F758F84FF001003D
:10C1A0004FF06401F8F752F8384B1B689B884FF04A
:10C1B0000A001946F8F74AF8344B1B689B8803F1CC
:10C1C00001034FF00C001946F8F740F84FF0050056
:10C1D0004FF00101F8F73AF80EF0D4F84FF02000D4
:10C1E0004FF02001F8F732F84FF4FA6005F0C0FF85
:10C1F0004FF006004FF00101F8F728F84FF0140057
:10C2000005F0B6FF224B4FF400621A60214B4FF449
:10C2100000621A604FF00003FB8022E0FC88F8F710
:10C2200009F802461C4B43F82420FA881A4B53F8AD
:10C23000223003F0FF02164B1B68D218144B1A6011
:10C24000FA88154B53F822304FEA132303F0FF020C
:10C25000104B1B68D2180F4B1A60FB8803F10103C7
:10C26000FB80FA8840F6FF739A42D7D9084B1A68C8
:10C27000084B1B68D31A4FEA1333DAB2074B1A7014
:10C2800007F10C07BD4690BDC84F0020CC4F0020E1
:10C290008C4F0020904F0020D44F0020884F00206A
:10C2A00090B5A1B002AF0346FB714FF0000387F8D1
:10C2B0007230BD4B4FF000021A704FF014004FF077
:10C2C0000001F7F7C3FFB94BB3F894331BB203F186
:10C2D000010213464FEA83039B184FEA43034FF0D2
:10C2E00002001946F7F7B2FF4FF00000F7F792FF90
:10C2F000AF4B4FF000021A704FF005004FF00001F5
:10C30000F7F7A4FF4FF024004FF00101F7F79EFF6D
:10C310004FF020004FF02001F7F798FFA34B4FF0AC
:10C320000002A3F85021A14BB3F8E4331BB203F190
:10C33000FF3213464FEA83039B184FF00300194660
:10C34000F7F784FF9B4B4FF4FA721A804FF000030B
:10C3500087F873304FF0000387F870304FF0000318
:10C3600087F87130944B1B6803F1F0031B891BB2F3
:10C370004FF007001946F7F769FF8F4B1B6803F171
:10C38000F0035B894FF008001946F7F75FFF4FF0A5
:10C3900009004FF00001F7F759FF4FF00B004FF085
:10C3A0000001F7F753FF4FF00003A7F8743021E0C6
:10C3B0004FF00003A7F8763011E0B7F87620B7F811
:10C3C000743010461946F7F721FF4FF6FF70F7F764
:10C3D0001FFFB7F8763003F10103A7F87630B7F8FE
:10C3E0007630B3F5C77FE8D9B7F8743003F114039A
:10C3F000A7F87430B7F87430DB2BD9D94FF00003AD
:10C40000A7F8763010E0B7F8763018464FF0EF0115
:10C41000F7F7FCFE4FF6FF70F7F7FAFEB7F8763045
:10C4200003F10103A7F87630B7F87630B3F5C77F8C
:10C43000E9D94FF000004FF00001F7F7E7FE4FF0A9
:10C440000003A7F8743009E04FF6FF70F7F7E0FE3D
:10C45000B7F8743003F10103A7F87430B7F87430FB
:10C46000EE2BF1D94FF02C004FF01401F7F7CEFE70
:10C470004FF01403A7F8743009E04FF6FF70F7F798
:10C48000C7FEB7F8743003F10103A7F87430B7F8AA
:10C490007430C82BF1D94FF058004FF01401F7F762
:10C4A000B5FE4FF01403A7F8743009E04FF6FF70A3
:10C4B000F7F7AEFEB7F8743003F10103A7F8743054
:10C4C000B7F87430C82BF1D94FF084004FF0140145
:10C4D000F7F79CFE4FF01403A7F8743009E04FF60D
:10C4E000FF70F7F795FEB7F8743003F10103A7F872
:10C4F0007430B7F87430C82BF1D94FF0C8004FF042
:10C500001401F7F783FE4FF01403A7F8743009E025
:10C510004FF6FF70F7F77CFEB7F8743003F10103B4
:10C52000A7F87430B7F87430C82BF1D94FF0F40085
:10C530004FF01401F7F76AFE4FF01403A7F87430B8
:10C5400009E04FF6FF70F7F763FEB7F8743003F1B8
:10C550000103A7F87430B7F87430C82BF1D94FF441
:10C5600090704FF01401F7F751FE4FF01403A7F845
:10C57000743009E04FF6FF70F7F74AFEB7F87430F1
:10C5800003F10103A7F87430B7F87430C82BF1D960
:10C590004FF4A6704FF01401F7F738FE4FF0140374
:10C5A000A7F8743014E000BF374D00203436002067
:10C5B000B84F0020404D0020C84F00204FF6FF70BC
:10C5C000F7F726FEB7F8743003F10103A7F87430CB
:10C5D000B7F87430C82BF1D94FF4C7704FF0000191
:10C5E000F7F714FE4FF00003A7F8743009E04FF698
:10C5F000FF70F7F70DFEB7F8743003F10103A7F8E9
:10C600007430B7F87430EE2BF1D99F4B00934FF094
:10C6100006004FF0B9014FF005024FF0000301F0A2
:10C620001BFE9A4B00934FF031004FF0B9014FF0D1
:10C6300005024FF0000301F00FFE954B00934FF001
:10C640005D004FF0B9014FF005024FF0000301F01B
:10C6500003FE904B00934FF089004FF0B9014FF06B
:10C6600005024FF0000301F0F7FD8B4B00934FF0F4
:10C67000CE004FF0B90140F205124FF0000301F077
:10C68000EBFD824B00934FF0F9004FF0B90140F2FF
:10C6900005124FF0000301F0DFFD7D4B009340F2E7
:10C6A00025104FF0B90140F205124FF0000301F0E0
:10C6B000D3FD784B00934FF4A9704FF0B90140F2CD
:10C6C00005124FF0000301F0C7FD4FF00003A7F87B
:10C6D000763093E0B7F876301A464FEA0232D21A33
:10C6E0004FEA8202D31A4FEA83039BB203F1A603F7
:10C6F00099B26A4B1868B7F8762013464FEA83035D
:10C700009B184FEA8303C31800934FF006004FF0C5
:10C7100005024FF0000301F09FFDB7F876301A468E
:10C720004FEA0232D21A4FEA8202D31A4FEA830347
:10C730009BB203F1A60399B2584B1868B7F876205C
:10C7400013464FEA83039B184FEA8303C3180093F1
:10C750004FF0CE0040F205124FF0000301F07CFDD7
:10C76000B7F87630B7F876204D498A5C07F1780142
:10C77000CB1803F8182CB7F87630B7F87610494A7A
:10C7800032F811204FEA430307F1780C634423F891
:10C79000502CB7F87630B7F8762043498A5C07F119
:10C7A0007801CB1803F8302CB7F87630B7F876203C
:10C7B0003E498A5C07F1780C634403F8242CB7F8EF
:10C7C0007630B7F876103A4A32F811204FEA430330
:10C7D00007F17801CB1823F8642CB7F87630B7F856
:10C7E000762034498A5C07F1780C634403F83C2CCA
:10C7F000B7F8763003F10103A7F876302E4B1B68AB
:10C800009B88B7F876209A427FF664AF00E000BFBD
:10C810002A4B1B889BB2002B0DD14FF002004FF02A
:10C820000001F7F713FD4FF014004FF00101F7F787
:10C830000DFD01F068BC97F873304FF00A001946FF
:10C84000F7F704FD97F873304FF00C001946F7F72F
:10C85000FDFC4FF0140005F08BFC4FF006004FF08C
:10C860000101F7F7F3FC4FF0140005F081FC144BC5
:10C870004FF400621A60134B4FF400621A604FF0DD
:10C880000003A7F8763047E078C6010880C60108A3
:10C8900088C6010890C6010898C60108C44F002048
:10C8A000DC950020B43A0020F4950020E8950020A3
:10C8B000C83A002000960020CC4F0020464D0020B2
:10C8C0008C4F0020904F0020B7F87640F7F7B2FC6D
:10C8D0000246B44B43F82420B7F87620B14B53F806
:10C8E000223003F0FF02B04B1B68D218AE4B1A6027
:10C8F000B7F87620AB4B53F822304FEA132303F0FE
:10C90000FF02AA4B1B68D218A84B1A60B7F8763002
:10C9100003F10103A7F87630B7F8762040F6FF73ED
:10C920009A42D1D997F87330A14AD35C5BB29AB2DC
:10C9300097F873109F4B33F811309B4909684FEA01
:10C94000113101FB03F303F500734FEA93239BB20C
:10C95000D3189BB2A7F86E3097F87330964AD35C21
:10C960005BB29AB297F87310944B33F811308F4939
:10C9700009684FEA113101FB03F303F500734FEA35
:10C9800093239BB2D3189BB2A7F86C308C4B1B78C7
:10C99000DBB2002B01F0C180894B4FF000021A700E
:10C9A00097F870300C2B01F2B88001A151F823F0F8
:10C9B000E5C90008F1CB0008A9CD0008A1CF000807
:10C9C0007DD0000851D2000875D400080DD60008AB
:10C9D000B5D80008ABD900081DDA000851DA000804
:10C9E00085DA00084FF0000387F8733097F873304A
:10C9F000744AD35C5AB213464FEA83039B184FEA3A
:10CA0000C30303F52243002B03DA03F57E7303F11E
:10CA100007034FEAA3234FF000001946F7F716FC6F
:10CA200097F87330684AD35C5AB213464FEA8303CF
:10CA30009B184FEAC30303F52243002B03DA03F5E7
:10CA40007E7303F107034FEAA3234FF00100194659
:10CA5000F7F7FCFB5D4B00934FF008004FF0D80157
:10CA600040F205324FF0000301F0F6FB584B009303
:10CA70004FF0E8004FF0D80140F205324FF00003CC
:10CA800001F0EAFB534B00934FF498704FF0D8013C
:10CA900040F205424FF0000301F0DEFB4E4B0093E5
:10CAA0004FF008004FF0060140F205324FF000034E
:10CAB00001F0D2FB494B1B78DBB2494A00924FF0A0
:10CAC00050004FF0060140F2054201F0C5FBFB7932
:10CAD000002B30D1434B00934FF0B8004FF0D801FA
:10CAE0004FF005024FF0000301F0B6FB4FF00003DA
:10CAF000A7F8763018E0B7F876302D4A4FF00001ED
:10CB0000D154B7F876202B4B4FF4806123F81210E4
:10CB1000B7F876302B4A4FF00001D154B7F8763091
:10CB200003F10103A7F876302F4B1B689B88B7F8F9
:10CB300076209A42DFD9FB79012B40F0BD872B4B41
:10CB400000934FF0B8004FF0D80140F205124FF0BB
:10CB5000000301F081FB4FF00003A7F8763018E0E6
:10CB6000B7F87630144A4FF00001D154B7F8762068
:10CB7000124B4FF4806123F81210B7F87630124A46
:10CB80004FF00001D154B7F8763003F10103A7F854
:10CB90007630154B1B689B88B7F876209A42DFD910
:10CBA00000F0BBBFD44F00208C4F0020904F0020DE
:10CBB000DC950020B43A0020E8950020C83A002017
:10CBC0003B4D0020F495002000960020A0C60108EF
:10CBD000B8C60108C4C60108D0C601083A4D0020F5
:10CBE00000C7010804C70108CC4F00200CC701088A
:10CBF000964B00934FF008004FF0060140F20532CB
:10CC00004FF0000301F028FBFB79002B3BD1B7F874
:10CC10006E30DBB2A3F12803DBB2DBB207F108020E
:10CC20005BB21046194605F0FDFD97F873309BB2D4
:10CC30001A464FEA0232D21A4FEA8202D31A4FEA58
:10CC400083039BB203F1A6039BB207F10802009293
:10CC50004FF02D0019464FF005024FF0010301F08F
:10CC6000FBFA97F8733097F8732079498A5CD1B250
:10CC7000B7F86E20D2B28A1AD2B202F12802D2B22A
:10CC8000D1B2734AD154FB79012B3BD1B7F86C3048
:10CC9000DBB2A3F12803DBB2DBB207F108025BB21F
:10CCA0001046194605F0BEFD97F873309BB21A4640
:10CCB0004FEA0232D21A4FEA8202D31A4FEA8303B2
:10CCC0009BB203F1A6039BB207F1080200924FF05A
:10CCD000F500194640F205124FF0010301F0BCFACD
:10CCE00097F8733097F873205A498A5CD1B2B7F835
:10CCF0006C20D2B28A1AD2B202F12802D2B2D1B2D8
:10CD0000544AD15497F8733003F1010387F8733014
:10CD100097F873309AB2504B1B689B889A4209D996
:10CD20004FF0000387F8733097F8703003F1010378
:10CD300087F8703097F87330484AD35C5AB213467C
:10CD40004FEA83039B184FEAC30303F52243002BEA
:10CD500003DA03F57E7303F107034FEAA3234FF0D1
:10CD600000001946F7F772FA97F873303C4AD35C23
:10CD70005AB213464FEA83039B184FEAC30303F5E5
:10CD80002243002B03DA03F57E7303F107034FEA16
:10CD9000A3234FF001001946F7F758FA4FF00003AC
:10CDA00087F8723000F0B9BE97F8723003F10103D2
:10CDB00087F8723097F87230072B03D94FF00003D1
:10CDC00087F87230FB79002B50D1B7F86E30DBB2A8
:10CDD000A3F12803DBB2DBB207F108025BB2104615
:10CDE000194605F01FFD97F873309BB21A464FEABB
:10CDF0000232D21A4FEA8202D31A4FEA83039BB25D
:10CE000003F1A6039BB207F1080200924FF02D0038
:10CE100019464FF005024FF0000301F01DFAB7F973
:10CE20006E30282B1ED097F8733097F8732008497E
:10CE30008A5CD1B2B7F86E20D2B28A1AD2B202F1AD
:10CE40002802D2B2D1B2024AD1540FE014C701086D
:10CE5000DC950020E8950020CC4F0020F4950020C0
:10CE6000009600204FF0000387F87230FB79012B09
:10CE700044D1B7F86C30DBB2A3F12803DBB2DBB2EC
:10CE800007F108025BB21046194605F0CBFC97F893
:10CE900073309BB21A464FEA0232D21A4FEA82022C
:10CEA000D31A4FEA83039BB203F1A6039BB207F1A7
:10CEB000080200924FF0F500194640F205124FF0BB
:10CEC000000301F0C9F9B7F96C30282B12D097F89C
:10CED000733097F8732065498A5CD1B2B7F86C203B
:10CEE000D2B28A1AD2B202F12802D2B2D1B25F4AC9
:10CEF000D15403E04FF0000387F8723097F8723096
:10CF0000002B05D197F8733003F1010387F87330D4
:10CF100097F873309AB2564B1B689B889A4209D98E
:10CF20004FF0000387F8733097F8703003F1010376
:10CF300087F8703097F873304E4AD35C5AB2134674
:10CF40004FEA83039B184FEAC30303F52243002BE8
:10CF500003DA03F57E7303F107034FEAA3234FF0CF
:10CF600000001946F7F772F997F87330424AD35C1C
:10CF70005AB213464FEA83039B184FEAC30303F5E3
:10CF80002243002B03DA03F57E7303F107034FEA14
:10CF9000A3234FF001001946F7F758F900F0BDBD83
:10CFA00097F8723003F1010387F8723097F8733005
:10CFB000304AD35C5AB213464FEA83039B184FEAB8
:10CFC000431303F5203303F50073002B03DA03F555
:10CFD0007E7303F107034FEAA3234FF000001946C5
:10CFE000F7F734F997F87330234AD35C5AB21346F3
:10CFF0004FEA83039B184FEA431303F5203303F5ED
:10D000000073002B03DA03F57E7303F107034FEA85
:10D01000A3234FF001001946F7F718F9FB79002B0D
:10D0200009D1B7F96E308C2B05DD97F8703003F11C
:10D03000010387F87030FB79012B09D1B7F96C3007
:10D040008C2B05DD97F8703003F1010387F8703001
:10D0500097F87230142B40F2318597F8703003F155
:10D06000010387F8703000F058BD00BFE89500203C
:10D07000CC4F0020F4950020009600204FF00003D4
:10D0800087F87230FB79002B46D1B7F86E30DBB2EF
:10D0900003F16003DBB2DBB207F108025BB21046BA
:10D0A000194605F0BFFB97F873309BB21A464FEA5A
:10D0B0000232D21A4FEA8202D31A4FEA83039BB29A
:10D0C00003F1A6039BB207F1080200924FF059004A
:10D0D00019464FF005024FF0010301F0BDF897F833
:10D0E000732097F873308949CB5CD9B2B7F96E30A9
:10D0F000A3F1A0034FEA832303F15003844880FB8C
:10D1000003C04FEAA0104FEAE373C31ADBB2CB1A95
:10D11000DBB2D9B27D4B9954FB79012B46D1B7F8DC
:10D120006C30DBB203F16003DBB2DBB207F1080263
:10D130005BB21046194605F075FB97F873309BB249
:10D140001A464FEA0232D21A4FEA8202D31A4FEA43
:10D1500083039BB203F1A6039BB207F1080200927E
:10D1600040F22110194640F205124FF0010301F080
:10D1700073F897F8732097F873306649CB5CD9B28F
:10D18000B7F96C30A3F1A0034FEA832303F15003F6
:10D190005F4880FB03C04FEAA0104FEAE373C31A55
:10D1A000DBB2CB1ADBB2D9B25A4B995497F8733031
:10D1B00003F1010387F8733097F873309AB2564B36
:10D1C0001B689B889A4209D94FF0000387F8733097
:10D1D00097F8703003F1010387F8703097F87330D7
:10D1E0004A4AD35C5AB213464FEA83039B184FEA6C
:10D1F000431303F5203303F50073002B03DA03F523
:10D200007E7303F107034FEAA3234FF00000194692
:10D21000F7F71CF897F873303E4AD35C5AB21346BE
:10D220004FEA83039B184FEA431303F5203303F5BA
:10D230000073002B03DA03F57E7303F107034FEA53
:10D24000A3234FF001001946F7F700F800F065BC82
:10D2500097F8723003F1010387F8723097F8723053
:10D26000072B03D94FF0000387F87230FB79002BAE
:10D2700058D1B7F86E30DBB203F16003DBB2DBB23A
:10D2800007F108025BB21046194605F0CBFA97F891
:10D2900073309BB21A464FEA0232D21A4FEA820228
:10D2A000D31A4FEA83039BB203F1A6039BB207F1A3
:10D2B000080200924FF0590019464FF005024FF056
:10D2C000000300F0C9FFB7F96E30A02B26D097F805
:10D2D000732097F873300D49CB5CD9B2B7F96E3033
:10D2E000A3F1A0034FEA832303F15003084880FB16
:10D2F00003C04FEAA0104FEAE373C31ADBB2CB1AA4
:10D30000DBB2D9B2014B99540CE000BFF495002078
:10D310006766666600960020CC4F00204FF0000341
:10D3200087F87230FB79012B4FD1B7F86C30DBB244
:10D3300003F16003DBB2DBB207F108025BB2104617
:10D34000194605F06FFA97F873309BB21A464FEA08
:10D350000232D21A4FEA8202D31A4FEA83039BB2F7
:10D3600003F1A6039BB207F10802009240F22110DC
:10D37000194640F205124FF0000300F06DFFB7F9B7
:10D380006C30A02B1DD097F8732097F873309B4911
:10D39000CB5CD9B2B7F96C30A3F1A0034FEA832379
:10D3A00003F15003964880FB03C04FEAA0104FEAF8
:10D3B000E373C31ADBB2CB1ADBB2D9B28F4B9954E9
:10D3C00003E04FF0000387F8723097F87230002BBB
:10D3D00005D197F8733003F1010387F8733097F89C
:10D3E00073309AB2874B1B689B889A4209D94FF0D9
:10D3F000000387F8733097F8703003F1010387F862
:10D40000703097F87330804AD35C5AB213464FEAB3
:10D4100083039B184FEA431303F5203303F500738E
:10D42000002B03DA03F57E7303F107034FEAA3230E
:10D430004FF000001946F6F709FF97F873306F4A6E
:10D44000D35C5AB213464FEA83039B184FEA431347
:10D4500003F5203303F50073002B03DA03F57E7325
:10D4600003F107034FEAA3234FF001001946F6F733
:10D47000EDFE52E397F8723003F1010387F8723042
:10D4800097F87230142B05D997F8703003F1010327
:10D4900087F870304FF0000387F8733097F87130D9
:10D4A000012B58D897F87330574AD35C5AB21346B9
:10D4B0004FEA83039B184FEAC30303F52243002B73
:10D4C00003DA03F57E7303F107034FEAA3234FF05A
:10D4D00000001946F6F7BAFE97F87330474AD35C56
:10D4E0005AB213464FEA83039B184FEAC30303F56E
:10D4F0002243002B03DA03F57E7303F107034FEA9F
:10D50000A3234FF001001946F6F7A0FEFB79002B8C
:10D510000DD1B7F96E30312B09DC4FF0010387F8DC
:10D52000703097F8713003F1010387F87130FB799F
:10D53000012B40F0C582B7F96C30312B00F3C28269
:10D540004FF0010387F8703097F8713003F1010351
:10D5500087F87130E1E297F873302B4AD35C5AB206
:10D5600013464FEA83039B184FEA83029B1803F587
:10D57000CC43002B03DA03F57E7303F107034FEA74
:10D58000A3234FF000001946F6F760FE97F87330BA
:10D590001A4AD35C5AB213464FEA83039B184FEAE8
:10D5A00083029B1803F5CC43002B03DA03F57E734B
:10D5B00003F107034FEAA3234FF001001946F6F7E2
:10D5C00045FEFB79002B09D1B7F96E30362B05DC0F
:10D5D00097F8703003F1010387F87030FB79012B65
:10D5E00040F07282B7F96C30362B00F36F8297F8F7
:10D5F000703003F1010387F870308EE2009600204E
:10D6000067666666CC4F0020F49500209B4B009324
:10D610004FF020004FF0D80140F205324FF00003E8
:10D6200000F01AFE964B1B78DCB2964997F87320EF
:10D6300013464FEA43039B184FEA8303CB1800932A
:10D640004FF058004FF0D80140F20542234600F059
:10D6500003FE8D4B00934FF0A0004FF0D80140F235
:10D6600005324FF0000300F0F7FD884B00934FF0B8
:10D6700008004FF0060140F205324FF0000300F0C1
:10D68000EBFD7F4B1B78DBB2814A00924FF090009C
:10D690004FF0060140F2054200F0DEFD784B1B78AA
:10D6A000DBB27C4A00924FF0B0004FF0060140F22E
:10D6B000054200F0D1FD784B00934FF0D8004FF0B9
:10D6C000060140F205324FF0000300F0C5FD6C4B3F
:10D6D0001B78DBB2714A00924FF4A8704FF006013C
:10D6E00040F2054200F0B8FD654B1B78DBB26C4A96
:10D6F00000924FF4B8704FF0060140F2054200F07E
:10D70000ABFDFB79002B59D1B7F96E30232B1FDD10
:10D71000B7F96E30A3F119031946624B186897F8F0
:10D72000732013464FEA83039B184FEA8303C31801
:10D730001B6903FB01F307F108024FF000010091A0
:10D7400010461946584A4FF0030304F027FD0CE039
:10D7500007F108034FF00002009218464FF0000155
:10D76000514A4FF0030304F019FD97F873309BB250
:10D770001A464FEA0232D21A4FEA8202D31A4FEA0D
:10D7800083039BB203F1A6039AB23D4B1B78DBB235
:10D7900007F1080100914FF0860011464FF0050295
:10D7A00000F05AFD414B00934FF4A4704FF0D801A4
:10D7B0004FF005024FF0000300F04EFDFB79012B06
:10D7C00040F08681B7F96C30232B1FDDB7F96C3040
:10D7D000A3F119031946334B186897F873201346C1
:10D7E0004FEA83039B184FEA8303C3181B6903FBAB
:10D7F00001F307F108024FF00001009110461946AD
:10D80000294A4FF0030304F0C9FC0CE007F10803B8
:10D810004FF00002009218464FF00001224A4FF0EC
:10D82000030304F0BBFC97F873309BB21A464FEA2F
:10D830000232D21A4FEA8202D31A4FEA83039BB212
:10D8400003F1A6039AB20E4B1B78DBB207F1080175
:10D8500000914FF4A770114640F2051200F0FCFC55
:10D86000134B00934FF4A4704FF0D80140F205120F
:10D870004FF0000300F0F0FC4FE100BF44C7010887
:10D880003A4D0020003000204CC7010864C7010851
:10D8900080C7010884C7010888C70108A0C701081C
:10D8A000A4C70108C44F0020A8310020A8C7010860
:10D8B000B0C701084FF0000387F87130864B009322
:10D8C0004FF008004FF0060140F205324FF0000320
:10D8D00000F0C2FC814B1B78DBB2814A00924FF012
:10D8E00060004FF0060140F2054200F0B5FC7B4BB2
:10D8F0001B78DBB27B4A00924FF080004FF00601AC
:10D9000040F2054200F0A8FC774B00934FF08800EE
:10D910004FF0060140F205324FF0000300F09CFC8E
:10D92000724B00934FF008004FF0D80140F20532DF
:10D930004FF0000300F090FC6D4B00934FF070002F
:10D940004FF0D80140F205424FF0000300F084FC94
:10D95000624B1B78DBB2674A00924FF048004FF0F1
:10D96000D80140F2054200F077FCFB79002B0BD187
:10D97000614B00934FF4A4704FF0D8014FF00502B3
:10D980004FF0000300F068FCFB79012B40F0A2800F
:10D990005A4B00934FF4A4704FF0D80140F2051297
:10D9A0004FF0000300F058FCB7E04C4B1B78DBB2A3
:10D9B000504A00924FF048004FF0D80140F2054223
:10D9C00000F04AFC4E4B00934FF070004FF0D8012E
:10D9D00040F205424FF0000300F03EFCFB79002BC3
:10D9E0000BD1484B00934FF494704FF0D80140F2A4
:10D9F00005124FF0000300F02FFCFB79012B40F0E3
:10DA00008B80414B00934FF494704FF0D8014FF04E
:10DA100005024FF0000300F01FFC7EE02F4B1B7847
:10DA2000DBB2344A00924FF048004FF0D80140F288
:10DA3000054200F011FC354B00934FF070004FF0A1
:10DA4000D80140F205424FF0000300F005FC64E00D
:10DA5000224B1B78DBB2274A00924FF048004FF070
:10DA6000D80140F2054200F0F7FB294B00934FF03C
:10DA700070004FF0D80140F205424FF0000300F073
:10DA8000EBFB4AE0154B1B78DBB21A4A00924FF0D1
:10DA900048004FF0D80140F2054200F0DDFB1D4B7D
:10DAA00000934FF070004FF0D80140F205424FF064
:10DAB000000300F0D1FB30E000BF2EE000BF2CE0FF
:10DAC00000BF2AE000BF28E000BF26E000BF24E03E
:10DAD00000BF22E000BF20E0B8C701083A4D002097
:10DAE000A0C70108A4C70108CCC70108F0C70108F6
:10DAF00000C8010800C701081CC8010824C80108A3
:10DB00002CC8010844C8010850C801085CC80108B5
:10DB100080C80108A4C8010800BF474B1B78DBB2CE
:10DB2000002B3EF474AE454B4FF416721A8097F8F2
:10DB300073309AB2424B1B689B889A4241D897F83F
:10DB40007030072B3DD1FB79002B1BD197F8733038
:10DB50009BB21A464FEA0232D21A4FEA8202D31A15
:10DB60004FEA83039BB203F1A6039BB207F10802BD
:10DB700000924FF0860019464FF005024FF0000367
:10DB800000F06AFBFB79012B1BD197F873309BB235
:10DB90001A464FEA0232D21A4FEA8202D31A4FEAE9
:10DBA00083039BB203F1A6039BB207F10802009224
:10DBB0004FF4A770194640F205124FF0000300F031
:10DBC0004BFB1D4B1B78DBB2A3F10203072B00F2CA
:10DBD000948201A151F823F0F9DB0008FBE0000872
:10DBE000FBE0000825E000087FE00008FBE00008FB
:10DBF000C7DF000883DF000897F87030002B05D1DD
:10DC000097F8703003F1010387F8703097F870309F
:10DC1000082B04D097F87030092B40F0C78097F894
:10DC20007030092B03D1FB79C3F10103FB714FF075
:10DC30000003A7F87630ADE0374D0020464D0020B8
:10DC4000CC4F0020FB79002B4DD1B7F876301A4627
:10DC50004FEA0232D21A4FEA8202D31A4FEA830302
:10DC60009BB203F1A6039BB2964A00924FF02D009F
:10DC700019464FF005024FF0000300F0EDFAB7F837
:10DC800076301A464FEA0232D21A4FEA8202D31A8B
:10DC90004FEA83039BB203F1A6039BB2894A009229
:10DCA0004FF0590019464FF005024FF0000300F005
:10DCB000D3FAB7F876301A464FEA0232D21A4FEA50
:10DCC0008202D31A4FEA83039BB203F1A6039BB2ED
:10DCD0007D4A00924FF0860019464FF005024FF042
:10DCE000000300F0B9FAFB79012B4DD1B7F876307B
:10DCF0001A464FEA0232D21A4FEA8202D31A4FEA88
:10DD000083039BB203F1A6039BB26E4A00924FF0CD
:10DD1000F500194640F205124FF0000300F09CFA9E
:10DD2000B7F876301A464FEA0232D21A4FEA820228
:10DD3000D31A4FEA83039BB203F1A6039BB2614A55
:10DD4000009240F22110194640F205124FF00003F4
:10DD500000F082FAB7F876301A464FEA0232D21A49
:10DD60004FEA8202D31A4FEA83039BB203F1A60360
:10DD70009BB2554A00924FF4A770194640F2051223
:10DD80004FF0000300F068FAB7F8763003F10103B2
:10DD9000A7F876304D4B1B689B88B7F876209A42DF
:10DDA0007FF650AF4FF0000387F8703097F870306F
:10DDB000092B40F2918197F870300A2B67D14FF010
:10DDC0000003A7F876304DE0B7F87630B7F8762044
:10DDD00007F1780C624412F8181C3D4AD154B7F888
:10DDE0007620B7F876304FEA430307F17801CB1875
:10DDF00033F8501C374B23F81210B7F87630B7F8C9
:10DE0000762007F1780C624412F8301C324AD15463
:10DE1000B7F87630B7F8762007F178018A1812F84B
:10DE2000241C2E4AD154B7F87620B7F876304FEA42
:10DE3000430307F1780C634433F8641C284B23F840
:10DE40001210B7F87630B7F8762007F178018A1803
:10DE500012F83C1C234AD154B7F8763003F1010381
:10DE6000A7F87630194B1B689B88B7F876209A4242
:10DE7000AAD903F033FF1C4B00934FF008004FF07A
:10DE8000D80140F205424FF0000300F0E5F997F8A1
:10DE900070300B2B0DD103F021FF144B00934FF08A
:10DEA00008004FF0D80140F205424FF0000300F0A7
:10DEB000D3F997F870300C2B5BD14FF00003A7F823
:10DEC000763041E0C8C80108D0C80108CC4F002016
:10DED000DC950020B43A0020F4950020E89500205D
:10DEE000C83A002000960020D8C801080CC90108D3
:10DEF000B7F87630864A4FF00001D154B7F8762053
:10DF0000844B4FF4806123F81210B7F87630824AC0
:10DF10004FF00001D154B7F87630804A4FF000013D
:10DF2000D154B7F876207E4B4FF4806123F812105D
:10DF3000B7F876307B4A4FF00001D154B7F876300D
:10DF400003F10103A7F87630774B1B689B88B7F87D
:10DF500076209A42CCD903F0C1FE744B00934FF067
:10DF600008004FF0D80140F205424FF0000300F0E6
:10DF700073F94FF47A7004F0FBF80BF0E9FD00BF81
:10DF8000C1E097F87030072B09D197F87330002B58
:10DF900005D097F8733003F1FF3387F8733097F8A3
:10DFA0007030082B05D997F8703003F1FF3387F8EC
:10DFB000703097F87030082B40F090804FF00C03D1
:10DFC00087F8703099E097F87030072B05D997F8EB
:10DFD000703003F1010387F8703097F870300C2B24
:10DFE00003D94FF0080387F8703097F87030072B8B
:10DFF00005D197F8733003F1010387F8733097F870
:10E0000073309AB2484B1B689B889A4268D94FF08C
:10E01000000387F8733097F8703003F1010387F835
:10E0200070306AE097F87030072B5BD1FB79002BDA
:10E0300010D1B7F96E30232B0CDD97F8732097F8C9
:10E040007310344B33F81130A3F1020399B2314B02
:10E0500023F81210FB79012B46D1B7F96C30232B32
:10E0600044DD97F8732097F873102D4B33F8113077
:10E07000A3F1020399B22A4B23F812103DE097F85E
:10E080007030072B34D1FB79002B10D1B7F96E30EB
:10E09000232B0CDD97F8732097F873101D4B33F882
:10E0A000113003F1020399B21A4B23F81210FB79D5
:10E0B000012B1FD1B7F96C30232B1DDD97F873208E
:10E0C00097F87310164B33F8113003F1020399B22D
:10E0D000134B23F8121010E000BF0EE000BF0CE05D
:10E0E00000BF0AE000BF08E000BF06E000BF04E098
:10E0F00000BF02E000BF00E000BF0D4B4FF0000288
:10E100001A70FEF785BB07F17C07BD4690BD00BFC6
:10E11000DC950020B43A0020F4950020E89500201A
:10E12000C83A002000960020CC4F002040C90108CA
:10E13000374D002080B483B000AF02460B46FA7121
:10E14000BB71FB79A3F122034FEAC302BB79D2185A
:10E15000044B33F81230184607F10C07BD4680BC5B
:10E16000704700BF28CA010880B483B000AF0346DF
:10E17000FB80FB88034AD35C184607F10C07BD46B9
:10E1800080BC7047F8CF010880B584B000AFF8803C
:10E19000B9807A807B70FB8803F10A0399B2BB884F
:10E1A00003F10A039BB2F888BA88F6F737F84FF004
:10E1B0000003FB813AE07A7813464FEA83039B1809
:10E1C0004FEA43039A18FB89D218214B33F81230D7
:10E1D0007B814FF00003BB8121E07A89BB8942FA41
:10E1E00003F303F00103DBB2002B0BD07B884FEA73
:10E1F00013239BB21A46174B33F812301846F6F722
:10E2000007F808E07B8803F00F02124B33F8123056
:10E210001846F5F7FDFFBB8903F10103BB81BB89FC
:10E220000A2BDAD9FB8903F10103FB81FB890A2B55
:10E23000C1D94FF0000040F28F114FF000024FF0B3
:10E24000EF03F5F7EBFF07F11007BD4680BD00BFF8
:10E25000D0C901080C31002080B584B000AFF8802F
:10E26000B9807A807B70BB8803F10A039BB2F9887E
:10E27000BA88084640F28F11F5F7D0FF4FF000033F
:10E28000BB811BE07B78002B09D17B8803F00F0258
:10E290005A4B33F812301846F5F7BAFF0AE07B887C
:10E2A0004FEA13239BB21A46544B33F812301846E8
:10E2B000F5F7AEFFBB8903F10103BB81B7F90C3061
:10E2C0000A2BDFDDFB8803F10103FB8083E04FF0C5
:10E2D0000003FB8168E0BB691B78202B03D0BB697E
:10E2E0001B78212B03D14FF000037B8109E0BB6930
:10E2F0001A78FB89DBB210461946FFF71BFF03466D
:10E300007B81BB691B78212B03D1B7F90E30042B1D
:10E310004FD04FF00003BB813EE0B7F90A20B7F9B8
:10E320000C3002FA03F303F48063002B18D07B78DF
:10E33000002B0BD17B884FEA13239BB21A462F4B3D
:10E3400033F812301846F5F763FF21E07B8803F0BD
:10E350000F022A4B33F812301846F5F759FF17E031
:10E360007B78002B09D17B8803F00F02234B33F815
:10E3700012301846F5F74CFF0AE07B884FEA13236A
:10E380009BB21A461D4B33F812301846F5F740FF82
:10E39000BB8903F10103BB81B7F90C300A2BBCDD4B
:10E3A000FB8903F10103FB81B7F90E30072B92DDE6
:10E3B00000E000BFBB691B78212B04D1FB8803F16F
:10E3C0000403FB8003E0FB8803F10803FB80BB69C7
:10E3D00003F10103BB61BB691B78002B7FF477AFAE
:10E3E0004FF0000040F28F114FF000024FF0EF03AA
:10E3F000F5F714FF07F11007BD4680BD0C31002072
:10E4000080B588B000AF0346FB80FB880B2B40F241
:10E410002081A64B1B88FA889A4200F21A81FB8859
:10E42000A3F10C039BB24FEA83039BB2BB83FB882F
:10E43000A3F10B039BB24FEA83039BB27B834FF0A4
:10E440000003FB7701E1FB7F07F12000C3184FF0C9
:10E45000000203F8182CFB7FB7F91C10FA7F4FEA73
:10E460005202D2B28A1892498A5C07F12001CB1875
:10E4700003F8102CFB7F03F10103B7F91A10FA7FA0
:10E480004FEA5202D2B28A1889498A5C07F1200009
:10E49000C31803F8102CFB7F07F12001CB1813F8E9
:10E4A000103CC72B08D9FB7F07F12002D3184FF08F
:10E4B000C70203F8102C0FE0FB7F07F12000C31800
:10E4C00013F8103C012B07D8FB7F07F12001CB1874
:10E4D0004FF0010203F8102CFB7F03F1010307F159
:10E4E0002002D31813F8103CC72B0AD9FB7F03F185
:10E4F000010307F12000C3184FF0C70203F8102CE6
:10E5000013E0FB7F03F1010307F12001CB1813F89F
:10E51000103C012B09D8FB7F03F1010307F1200216
:10E52000D3184FF0010203F8102CFB7F07F12000F5
:10E53000C31813F8102CFB7F03F1010307F120012E
:10E54000CB1813F8103C9A424CD1FB7F07F1200204
:10E55000D31813F8103C012B07D0FB7F07F12000E4
:10E56000C31813F8103CC72B08D1FB7F07F120011B
:10E57000CB184FF0010203F8182C33E0FB7F07F1B2
:10E580002002D31813F8103C012B0ED9FB7FFA7F21
:10E5900007F12000821812F8102C02F1FF32D2B2DB
:10E5A00007F12001CB1803F8102CFB7F03F10103C6
:10E5B00007F12002D31813F8103CC62B12D8FB7FAA
:10E5C00003F10103FA7F02F1010207F12000821832
:10E5D00012F8102C02F10102D2B207F12001CB187F
:10E5E00003F8102CFB7F07F12002D31813F8102C2E
:10E5F000FB7F03F1010307F12000C31813F8103C5F
:10E600009A421ED9FB7F03F1010307F12001CB18C9
:10E6100013F8103C3B83FB7F03F10103FA7F07F102
:10E620002000821812F8102C07F12001CB1803F8F3
:10E63000102CFB7F3A8BD2B207F12000C31803F8ED
:10E64000102CFB7F03F10203FB77FB7F072B7FF688
:10E65000FAAEF5F7EBFDFB8818464FF00D01F5F724
:10E66000D5FDFB8803F00103DBB2002B00F05D83D6
:10E6700010481149F5F7DCFDFB880B2B40F2C482F2
:10E680000A4B1B88FA889A4280F0BE823B7A002BA4
:10E690004AD10A4B1B8A002B46D07B7C1A463B7C16
:10E6A000D31A052B28DD3B7CFB7720E0143F0020AC
:10E6B000D48F00204CD40108AC4000203436002018
:10E6C000FA7FF97F764B33F8113099B2754B1B887E
:10E6D000A3F584439BB29BB241EA03039BB299B278
:10E6E0006F4B23F81210FB7F03F10103FB777B7C58
:10E6F000FA7F9A42E4D917E03B7CFB7710E0FA7F7F
:10E70000F97F674B33F81110664B1B8841EA03030E
:10E7100099B2634B23F81210FB7F03F10103FB77DF
:10E720007B7CFA7F9A42EAD9BB7A002B41D15E4BBF
:10E73000B3F86030002B3CD0FB7C1A46BB7CD31A6C
:10E74000052B1EDDBB7CFB7716E0FA7FF97F544B6F
:10E7500033F8113099B2534B5B88A3F502739BB227
:10E760009BB241EA03039BB299B24D4B23F81210BE
:10E77000FB7F03F10103FB77FB7CFA7F9A42E4D92C
:10E7800017E0BB7CFB7710E0FA7FF97F444B33F84E
:10E790001110444B5B8841EA030399B2404B23F8C4
:10E7A0001210FB7F03F10103FB77FB7CFA7F9A4297
:10E7B000EAD93B7B002B43D13B4BB3F8B030002B65
:10E7C0003ED07B7D1A463B7DD31A052B20DD3B7D59
:10E7D000FB7718E0FA7FF97F314B33F8113099B2AB
:10E7E000304B9B88A3F58043A3F108039BB29BB2F7
:10E7F00041EA03039BB299B2294B23F81210FB7F25
:10E8000003F10103FB777B7DFA7F9A42E2D917E09F
:10E810003B7DFB7710E0FA7FF97F214B33F8111035
:10E82000204B9B8841EA030399B21D4B23F8121039
:10E83000FB7F03F10103FB777B7DFA7F9A42EAD9E4
:10E84000BB7B002B47D1184BB3F80031002B42D0D3
:10E85000FB7D1A46BB7DD31A052B1EDDBB7DFB77E6
:10E8600016E0FA7FF97F0E4B33F8113099B20D4B59
:10E87000DB88A3F500739BB29BB241EA03039BB212
:10E8800099B2074B23F81210FB7F03F10103FB77CA
:10E89000FB7DFA7F9A42E4D91DE0BB7DFB7716E051
:10E8A0008C4200200C31002034360020FA7FF97FA2
:10E8B000714B33F81110714BDB8841EA030399B2B5
:10E8C0006D4B23F81210FB7F03F10103FB77FB7DF7
:10E8D000FA7F9A42EAD96A4BB3F84032002B10D142
:10E8E000684B1B881AB2674B1B8819B2624B33F80E
:10E8F0001110624B1B8841EA030399B25E4B23F867
:10E9000012105F4BB3F840321BB2012B10D15D4B9C
:10E910009B881AB25B4B9B8819B2574B33F8111086
:10E92000564B5B8841EA030399B2534B23F812100C
:10E93000534BB3F840321BB2022B10D1514B1B8901
:10E940001AB2504B1B8919B24B4B33F811104B4B79
:10E950009B8841EA030399B2474B23F81210484BB6
:10E96000B3F840321BB2032B10D1464B9B891AB22D
:10E97000444B9B8919B2404B33F811103F4BDB8855
:10E9800041EA030399B23C4B23F812103C4BB3F815
:10E9900018329BB2C3F1A1039BB23B83B7F9183085
:10E9A0000B2B51DDFA88B7F918309A421ED1344B3F
:10E9B00093F81A3203F00403002B17D14FF0010330
:10E9C000FB7710E0FA7FF97F2B4B33F811102B4BBC
:10E9D0009B8941EA030399B2274B23F81210FB7F6E
:10E9E00003F10303FB77FB7FC72BEBD9FA88B7F959
:10E9F000183003F1FF339A4206D0FA88B7F918307D
:10EA000003F101039A4208D11C4B9A891A4BA3F8CF
:10EA100090211A4B9A89184B1A80FA88B7F9183046
:10EA20009A4211D1154B9A89134BA3F89021134B9D
:10EA30009A89114BA3F88E21104B9A890E4B5A805C
:10EA40000E4B9A890C4B1A800D4BB3F830339BB2A6
:10EA500003F10B039BB23B83FA88B7F918309A4253
:10EA600026D1074B93F8323303F00403002B1FD158
:10EA70004FF00103FB7718E08C4200200C3100209E
:10EA8000343600202C310020FA7FF97F3C4B33F8DC
:10EA900011103C4B1B8941EA030399B2384B23F810
:10EAA0001210FB7F03F10303FB77FB7FC72BEBD92E
:10EAB000FA88B7F9183003F1FF339A4206D0FA8882
:10EAC000B7F9183003F101039A4213D12C4BB3F874
:10EAD00090212C4B1B8942EA03039AB2284BA3F8DE
:10EAE0009021274B1A88274B1B8942EA03039AB2CD
:10EAF000234B1A80FA88B7F918309A4227D1204B55
:10EB0000B3F890211F4B1B8942EA03039AB21C4BB6
:10EB1000A3F890211A4BB3F88E211A4B1B8942EAB5
:10EB200003039AB2164BA3F88E21154B5A88154B46
:10EB30001B8942EA03039AB2114B5A80104B1A8880
:10EB4000104B1B8942EA03039AB20D4B1A800E4BFD
:10EB5000B3F844339BB203F10B039BB23B83FA88B7
:10EB6000B7F918309A4225D1074B93F8463303F092
:10EB70000403002B1ED14FF00103FB7717E000BF09
:10EB80008C4200200C31002034360020FA7FF97FBF
:10EB9000864B33F81110864B1B8941EA030399B267
:10EBA000824B23F81210FB7F03F10303FB77FB7FFB
:10EBB000C72BEBD9FA88B7F9183003F1FF339A4223
:10EBC00006D0FA88B7F9183003F101039A4208D148
:10EBD000774B1A89754BA3F89021754B1A89734BA3
:10EBE0001A80FA88B7F918309A420DD1704B1A89F9
:10EBF0006E4BA3F890216E4B1A896C4BA3F88E21B3
:10EC00006B4B1A89694B5A80FB880B2B05D0694BDB
:10EC10001B88FA889A4240F08280674BB3F89032A2
:10EC20001BB203F1FF32644BB3F890321BB203F115
:10EC3000FF315E4B33F811105D4B1B8941EA030332
:10EC400099B25A4B23F812105B4BB3F890321AB2B8
:10EC5000594BB3F8903219B2544B33F81110544B4E
:10EC60001B8941EA030399B2504B23F81210524B0F
:10EC7000B3F890321BB203F101024F4BB3F890325C
:10EC80001BB203F10101494B33F81110484B1B89AA
:10EC900041EA030399B2454B23F81210464BB3F8EF
:10ECA000A4321BB203F1FF32434BB3F8A4321BB2C0
:10ECB00003F1FF313D4B33F811103D4B1B8941EA05
:10ECC000030399B2394B23F812103B4BB3F8A4322B
:10ECD0001AB2394BB3F8A43219B2344B33F81110CD
:10ECE000334B1B8941EA030399B2304B23F81210CE
:10ECF000314BB3F8A4321BB203F101022E4BB3F82F
:10ED0000A4321BB203F10101284B33F81110284B38
:10ED10001B8941EA030399B2244B23F812102348BC
:10ED20004FF0C901F5F77EFAFBE2FB8803F101021F
:10ED3000204B1B889A4204D120481C49F5F778FAE9
:10ED40004AE0FB880A2B47D0FB88A3F10A011C4B41
:10ED500083FB01235B184FEA23124FEAE173D21AB7
:10ED600013464FEA03139B1A4FEA4303CA1A002AB9
:10ED700004D114480D49F5F75BFA2DE0FB88A3F1A7
:10ED80000A01114B83FB01024FEAE173D21A1346C9
:10ED90004FEA43039B184FEA4303CA1A002A17D1CC
:10EDA0000A480249F5F744FA16E000BF8C420020F9
:10EDB0000C310020143F002034360020B8D2010866
:10EDC0008988888874D70108ABAAAA2AE0D50108E7
:10EDD00085488649F5F72CFAFB880C2B06D0FA8873
:10EDE000834B1B8803F1FF339A4225D1814BB3F843
:10EDF00090321AB27F4BB3F8903219B27E4B33F88F
:10EE000011107E4B1B8941EA030399B27A4B23F818
:10EE10001210784BB3F8A4321AB2764BB3F8A4327E
:10EE200019B2754B33F81110744B1B8941EA030377
:10EE300099B2714B23F812106E4B93F8923203F093
:10EE40000403002B12D16B4BB3F890321AB2694B0A
:10EE5000B3F8903219B2684B33F81110674B1B8925
:10EE600041EA030399B2644B23F81210614B93F803
:10EE7000A63203F00403002B12D15E4BB3F8A43288
:10EE80001AB25C4BB3F8A43219B25B4B33F81110D1
:10EE90005A4B1B8941EA030399B2574B23F81210CE
:10EEA000FB880B2B40F22781514B1B88FA889A4232
:10EEB00080F021813B7A002B40D14E4B1B8A002BE6
:10EEC0003CD07B7C1A463B7CD31A052B1EDD3B7C59
:10EED000FB7716E0FA7FF97F474B33F8113099B290
:10EEE000464B1B88A3F584439BB29BB241EA0303C4
:10EEF0009BB299B2404B23F81210FB7F03F1010340
:10EF0000FB777B7CFA7F9A42E4D917E03B7CFB7766
:10EF100010E0FA7FF97F384B33F81110374B1B881C
:10EF200041EA030399B2344B23F81210FB7F03F13B
:10EF30000103FB777B7CFA7F9A42EAD9BB7A002BEC
:10EF400041D12C4BB3F86030002B3CD0FB7C1A46EF
:10EF5000BB7CD31A052B1EDDBB7CFB7716E0FA7F4A
:10EF6000F97F254B33F8113099B2244B5B88A3F518
:10EF700002739BB29BB241EA03039BB299B21E4B50
:10EF800023F81210FB7F03F10103FB77FB7CFA7F70
:10EF90009A42E4D917E0BB7CFB7710E0FA7FF97F57
:10EFA000154B33F81110154B5B8841EA030399B2F6
:10EFB000114B23F81210FB7F03F10103FB77FB7C5D
:10EFC000FA7F9A42EAD93B7B002B4FD1094BB3F829
:10EFD000B030002B4AD07B7D1A463B7DD31A052BDF
:10EFE0002CDD3B7DFB7724E04CD401088C420020D3
:10EFF000143F002034360020AC4000200C310020AB
:10F00000FA7FF97F774B33F8113099B2764B9B88B2
:10F01000A3F58043A3F108039BB29BB241EA03032B
:10F020009BB299B26F4B23F81210FB7F03F10103DF
:10F03000FB777B7DFA7F9A42E2D917E03B7DFB7735
:10F0400010E0FA7FF97F674B33F81110664B9B880D
:10F0500041EA030399B2634B23F81210FB7F03F1DB
:10F060000103FB777B7DFA7F9A42EAD9BB7B002BB9
:10F0700041D15E4BB3F80031002B3CD0FB7D1A46EA
:10F08000BB7DD31A052B1EDDBB7DFB7716E0FA7F17
:10F09000F97F544B33F8113099B2534BDB88A3F509
:10F0A00000739BB29BB241EA03039BB299B24D4BF2
:10F0B00023F81210FB7F03F10103FB77FB7DFA7F3E
:10F0C0009A42E4D917E0BB7DFB7710E0FA7FF97F25
:10F0D000444B33F81110444BDB8841EA030399B2E7
:10F0E000404B23F81210FB7F03F10103FB77FB7DFC
:10F0F000FA7F9A42EAD93D4BB3F818329BB2C3F17A
:10F10000A1039BB23B83B7F918300B2B51DDFA8872
:10F11000B7F918309A421ED1344B93F81A3203F0E3
:10F120000403002B17D14FF00103FB7710E0FA7FA7
:10F13000F97F2C4B33F811102B4B9B8941EA0303C9
:10F1400099B2284B23F81210FB7F03F10303FB77DE
:10F15000FB7FC72BEBD9FA88B7F9183003F1FF33DF
:10F160009A4206D0FA88B7F9183003F101039A429F
:10F1700008D11D4B9A891B4BA3F890211A4B9A89F1
:10F18000184B1A80FA88B7F918309A4211D1164BE9
:10F190009A89144BA3F89021134B9A89114BA3F829
:10F1A0008E21114B9A890F4B5A800F4B9A890D4B28
:10F1B0001A800E4BB3F830339BB203F10B039BB2B2
:10F1C0003B83FA88B7F918309A4225D1074B93F858
:10F1D000323303F00403002B1ED14FF00103FB7701
:10F1E00017E000BFAC4000200C3100203436002076
:10F1F000FA7FF97F4D4B33F811104D4B1B8941EAD3
:10F20000030399B2494B23F81210FB7F03F1030368
:10F21000FB77FB7FC72BEBD9FA88B7F9183003F1DE
:10F22000FF339A4206D0FA88B7F9183003F1010388
:10F230009A4208D13E4B1A893C4BA3F890213C4B93
:10F240001A893A4B1A80FA88B7F918309A420DD1C8
:10F25000374B1A89354BA3F89021354B1A89334B1C
:10F26000A3F88E21324B1A89304B5A80314BB3F8B8
:10F2700044339BB203F10B039BB23B83FA88B7F98B
:10F2800018309A421ED12B4B93F8463303F00403F7
:10F29000002B17D14FF00103FB7710E0FA7FF97FC5
:10F2A000224B33F81110224B1B8941EA030399B218
:10F2B0001E4B23F81210FB7F03F10303FB77FB7F48
:10F2C000C72BEBD9FA88B7F9183003F1FF339A420C
:10F2D00006D0FA88B7F9183003F101039A4208D131
:10F2E000134B1A89114BA3F89021114B1A890F4B1C
:10F2F0001A80FA88B7F918309A420DD10C4B1A8946
:10F300000A4BA3F890210A4B1A89084BA3F88E21C7
:10F31000074B1A89054B5A8004484FF0C901F4F78E
:10F3200081FF07F12007BD4680BD00BFAC40002033
:10F330000C3100203436002080B582B000AFF4F7E5
:10F3400075FF4A484A49F4F773FFF4F76FFF4948DD
:10F350004949F4F76DFF494BB3F8F0311BB2042B68
:10F3600005D0464BB3F8F0311BB2052B16D1434BF9
:10F370001B8A002B12D14FF00003BB800AE0BB8830
:10F380004FEA83033E4A4FF06901D154BB8803F131
:10F390000103BB80BB88B3F5C87FF0D9374BB3F806
:10F3A000F0311BB2042B05D0344BB3F8F0311BB253
:10F3B000052B19D1314BB3F86030002B14D14FF02D
:10F3C0000003BB800CE0BB884FEA830303F1010319
:10F3D0002B4A4FF06401D154BB8803F10103BB8079
:10F3E000BB88B3F5C87FEED9244BB3F8F0311BB21C
:10F3F000042B16D0214BB3F8F0311BB2052B10D0E3
:10F400004FF00B03FB8007E0FB881846FEF7F8FF80
:10F41000FB8803F10103FB801A4B1B88FA889A4290
:10F42000F2D9164BB3F8F0311BB2042B05D0134BB5
:10F43000B3F8F0311BB2052B10D14FF00B03FB805A
:10F4400007E0FB88184600F0FBFCFB8803F1010392
:10F45000FB800C4B1B88FA889A42F2D9F4F7E0FE45
:10F46000F4F7E4FE07F10807BD4680BDB8D20108F5
:10F470008C4200204CD40108AC40002034360020DF
:10F48000D48F0020143F002080B584B000AF024626
:10F490000B46FA80BB80FB88032B0FD8FA8887497C
:10F4A00013464FEA83039B184FEA0313CB1803F16B
:10F4B0004C031B881BB2C52B08DDFAE0BA88804BD1
:10F4C00033F822301BB2C52B00F3F2804FF000035B
:10F4D000FB81E8E0FB89062B5FD8FB88032B20D853
:10F4E000FA88F889774913464FEAC3039B1A1B1819
:10F4F000CB181B787B81FA88704913464FEA830347
:10F500009B184FEA0313CB1803F14C031B889BB2E3
:10F5100003F109039BB2FA8910461946F4F776FE07
:10F5200011E0FB89674AD3181B7F7B81BA88644B43
:10F5300033F822309BB203F109039BB2FA891046DB
:10F540001946F4F763FE4FF00003BB811AE07B8994
:10F5500003F00103DBB2002B05D05B4B5B8918463F
:10F56000F4F756FE06E0BA88574B33F812301846C7
:10F57000F4F74EFE7B894FEA53037B81BB8903F18D
:10F580000103BB81BB89072BE1D9BA884E4B33F805
:10F5900012301846F4F73CFE81E0FB88032B4BD871
:10F5A000FA88464913464FEA83039B184FEA031330
:10F5B000CB1803F14C031B889AB2FB89D3189BB27A
:10F5C00003F103039BB2FA8910461946F4F71EFEB5
:10F5D000FA883A4913464FEA83039B184FEA03130C
:10F5E000CB1803F14C031B889AB2FB89D3189BB24A
:10F5F00003F10303BB810AE0BA88334B33F81230BE
:10F600001846F4F705FEBB8903F10103BB81B989F4
:10F61000FA882A4813464FEA83039B184FEA0313DC
:10F62000C31803F14C031B881BB203F11802FB89BA
:10F63000D31A9942E0DB32E0BA88214B33F822300A
:10F640009AB2FB89D3189BB203F103039BB2FA89E8
:10F6500010461946F4F7DAFDBA88194B33F8223010
:10F660009AB2FB89D3189BB203F10303BB810AE072
:10F67000BA88154B33F812301846F4F7C9FDBB8928
:10F6800003F10103BB81BA89B9880D4B33F82130EE
:10F690001BB203F11801FB89CB1A9A42E8DBFB8904
:10F6A00003F10103FB81FB890A2B7FF613AF00E016
:10F6B00000BF07F11007BD4680BD00BF34360020F3
:10F6C0002C310020ACC901080C31002080B582B07B
:10F6D00000AFF4F7ABFD4FF00003FB8019E0FB88AF
:10F6E00018464FF00C01F4F791FD4FF00C037B71BD
:10F6F00008E09E4B5B891846F4F78AFD7B7903F19D
:10F7000001037B717B79D62BF3D9FB8803F10103CD
:10F71000FB80B7F906300A2BE1DD954B1B8A002BE5
:10F7200005D04FF000004FF00001FFF7ADFE904B09
:10F73000B3F86030002B05D04FF001004FF001010D
:10F74000FFF7A2FE8A4BB3F8B030002B05D04FF084
:10F7500002004FF00201FFF797FE854BB3F800312E
:10F76000002B05D04FF003004FF00301FFF78CFE94
:10F770007F4BB3F84032002B05D14FF007004FF01C
:10F780000001FFF781FE7A4BB3F840321BB2012B28
:10F7900005D14FF007004FF00101FFF775FE744BE4
:10F7A000B3F840321BB2022B05D14FF007004FF0E7
:10F7B0000201FFF769FE6E4BB3F840321BB2032B18
:10F7C00005D14FF007004FF00301FFF75DFE694BD5
:10F7D0001B8803F101039BB218464FF00C01F4F7AC
:10F7E00015FD4FF00C037B7108E0604B5B891846F8
:10F7F000F4F70EFD7B7903F101037B717B79D62B46
:10F80000F3D94FF00B03FB8019E0FB8818464FF04B
:10F810000C01F4F7FBFC554B5B891846F4F7F8FC38
:10F82000FB8818464FF0D601F4F7F0FC4F4B5B898C
:10F830001846F4F7EDFCFB8803F10103FB80B7F9F0
:10F8400006204C4B1B8803F101039A42DDDD484B37
:10F85000B3F890329BB203F10B039BB24FF00A0056
:10F860001946F4F7D3FC4FF00003FB8008E03F4B50
:10F870001B891846F4F7CCFCFB8803F10103FB80DD
:10F88000B7F90630042BF2DD394BB3F8A4329BB242
:10F8900003F10B039BB24FF00A001946F4F7B6FCD4
:10F8A0004FF00003FB8008E0304B1B891846F4F74B
:10F8B000AFFCFB8803F10103FB80B7F90630042B92
:10F8C000F2DD2C4B1B8803F101039AB2284BB3F8ED
:10F8D00090329BB203F10B039BB210461946F4F72A
:10F8E00095FC4FF00003FB8008E0204B1B89184675
:10F8F000F4F78EFCFB8803F10103FB80B7F90630B7
:10F90000042BF2DD1B4B1B8803F101039AB2184B49
:10F91000B3F8A4329BB203F10B039BB21046194615
:10F92000F4F774FC4FF00003FB8008E00F4B1B89D9
:10F930001846F4F76DFCFB8803F10103FB80B7F96F
:10F940000630042BF2DD0A4BB3F818329BB2C3F138
:10F95000A1039BB27B80B7F902300B2B2EDD7B8895
:10F96000A3F102039BB2FB8020E000BF0C3100201A
:10F9700034360020143F0020FB8818464FF00C015D
:10F98000F4F744FC3F4B9B891846F4F741FCFB8895
:10F9900018464FF0D601F4F739FC3A4B9B891846CC
:10F9A000F4F736FCFB8803F10103FB80B7F906206E
:10F9B000B7F9023003F102039A42DDDD324BB3F8AE
:10F9C00030339BB203F10B039BB27B807B88A3F1A6
:10F9D00002039BB2FB8019E0FB8818464FF00C0134
:10F9E000F4F714FC274B1B891846F4F711FCFB882D
:10F9F00018464FF0D601F4F709FC224B1B89184634
:10FA0000F4F706FCFB8803F10103FB80B7F906203D
:10FA1000B7F9023003F102039A42DDDD1A4BB3F865
:10FA200044339BB203F10B039BB27B807B88A3F131
:10FA300002039BB2FB8019E0FB8818464FF00C01D3
:10FA4000F4F7E4FB0F4B1B891846F4F7E1FBFB8846
:10FA500018464FF0D601F4F7D9FB0A4B1B8918461C
:10FA6000F4F7D6FBFB8803F10103FB80B7F906200E
:10FA7000B7F9023003F102039A42DDDD07F108070E
:10FA8000BD4680BD0C3100203436002080B582B0E8
:10FA900000AF4FF059004FF00001F4F7B7FB4FF003
:10FAA0000003BB8007E040F21F50F4F7B1FBBB88B6
:10FAB00003F10103BB80B7F904300B2BF3DD4FF0EA
:10FAC0005A004FF00001F4F7A1FB4FF00003BB8098
:10FAD00007E040F21F50F4F79BFBBB8803F10103E2
:10FAE000BB80B7F904300B2BF3DD4FF49A704FF065
:10FAF0000001F4F78BFB4FF00003BB8007E040F2FE
:10FB00001F50F4F785FBBB8803F10103BB80B7F9F5
:10FB100004300B2BF3DD40F235104FF00001F4F709
:10FB200075FB4FF00003BB8007E040F21F50F4F775
:10FB30006FFBBB8803F10103BB80B7F904300B2BCB
:10FB4000F3DD4FF05B03FB803DE04FF00003BB8033
:10FB500030E0FA88BB88D3189BB218464FF00001FA
:10FB6000F4F754FB4FF000037B801BE0B7F904204F
:10FB7000964B33F812301A46B7F9023042FA03F3C3
:10FB800003F00103DBB2002B04D040F21F50F4F766
:10FB90003FFB03E04FF00000F4F73AFB7B8803F1F2
:10FBA00001037B80B7F902300B2BDFDDBB8803F14B
:10FBB0000103BB80B7F90430072BCADDFB8803F1D2
:10FBC00008039BB2FB80B7F90630B3F5997FBCDD23
:10FBD0007F4B1B78012B52D14FF05B004FF000019F
:10FBE000F4F714FB4FF00003BB8007E04FF6FF7003
:10FBF000F4F70EFBBB8803F10103BB80B7F90430B7
:10FC0000082BF3DD4FF499704FF00001F4F7FEFA82
:10FC10004FF00003BB8007E04FF6FF70F4F7F8FAEF
:10FC2000BB8803F10103BB80B7F90430082BF3DD77
:10FC30004FF00003FB801DE0FB8803F15B039BB2E8
:10FC400018464FF00001F4F7E1FA4FF6FF70F4F7B1
:10FC5000DFFAFB8803F15B039BB218464FF0090102
:10FC6000F4F7D4FA4FF6FF70F4F7D2FAFB8803F1F9
:10FC70000103FB80B7F90630D72BDDDD9DE0554B46
:10FC8000B3F818321BB24FF0C80202FB03F3524A1A
:10FC900082FB03124FEAE2124FEAE373D31A9BB2DC
:10FCA00003F15B039BB218464FF00001F4F7AEFA84
:10FCB0004FF00003BB8007E04FF6FF70F4F7A8FA9F
:10FCC000BB8803F10103BB80B7F90430082BF3DDD7
:10FCD000404BB3F818321BB24FF0C80202FB03F3DB
:10FCE0003D4A82FB03124FEAE2124FEAE373D31A52
:10FCF0009BB203F16A039BB218464FF00001F4F780
:10FD000085FA4FF00003BB8007E04FF6FF70F4F771
:10FD10007FFABB8803F10103BB80B7F90430082BDD
:10FD2000F3DD4FF00003FB8043E02A4BB3F81832B9
:10FD30001BB24FF0C80202FB03F3274A82FB0312F7
:10FD40004FEAE2124FEAE373D31A9AB2FB88D31850
:10FD50009BB203F15B039BB218464FF00001F4F72E
:10FD600055FA4FF6FF70F4F753FA1A4BB3F81832FE
:10FD70001BB24FF0C80202FB03F3174A82FB0312C7
:10FD80004FEAE2124FEAE373D31A9AB2FB88D31810
:10FD90009BB203F15B039BB218464FF00901F4F7E5
:10FDA00035FA4FF6FF70F4F733FAFB8803F10103DD
:10FDB000FB80B7F906300F2BB7DD064B4FF0000282
:10FDC00083F82E2207F10807BD4680BD74C90108DB
:10FDD000574D0020343600208D00CF0880B582B00A
:10FDE00000AF4FF49C73BB8019E04FF00B03FB8016
:10FDF0000DE0BA88FB8810461946F4F707FA4FF071
:10FE00000000F4F705FAFB8803F10103FB80B7F962
:10FE10000630D72BEDDDBB8803F10103BB80B7F9BA
:10FE2000042040F28F139A42DFDD044B4FF00002B2
:10FE300083F82E2207F10807BD4680BD3436002026
:10FE400080B588B000AF0346FB80FB880B2B40F2E7
:10FE50000F81AC4B1B88FA889A4200F20981FB881B
:10FE6000A3F10C039BB24FEA83039BB27B83FB8815
:10FE7000A3F10B039BB24FEA83039BB23B834FF08A
:10FE80000003FB77F0E0FB7FB7F91A10FA7F4FEA27
:10FE90005202D2B28A189C498A5C07F12001CB1821
:10FEA00003F8182CFB7F03F10103B7F91810FA7F50
:10FEB0004FEA5202D2B28A1893498A5C07F12001B4
:10FEC000CB1803F8182CFB7F07F12002D31813F886
:10FED000183CC72B08D9FB7F07F12001CB184FF046
:10FEE000C70203F8182C0FE0FB7F07F12002D3189C
:10FEF00013F8183C012B07D8FB7F07F12001CB1822
:10FF00004FF0010203F8182CFB7F03F1010307F106
:10FF10002002D31813F8183CC72B0AD9FB7F03F132
:10FF2000010307F12001CB184FF0C70203F8182C8A
:10FF300013E0FB7F03F1010307F12002D31813F84C
:10FF4000183C012B09D8FB7F03F1010307F12001C5
:10FF5000CB184FF0010203F8182CFB7F07F12002A9
:10FF6000D31813F8182CFB7F03F1010307F12001CC
:10FF7000CB1813F8183C9A4243D1FB7F07F12002BB
:10FF8000D31813F8183C012B3BD0FB7F07F120015D
:10FF9000CB1813F8183CC72B33D0FB7F07F1200296
:10FFA000D31813F8183C012B0ED9FB7FFA7F07F109
:10FFB00020018A1812F8182C02F1FF32D2B207F190
:10FFC0002001CB1803F8182CFB7F03F1010307F184
:10FFD0002002D31813F8183CC62B12D8FB7F03F16C
:10FFE0000103FA7F02F1010207F120018A1812F8D9
:10FFF000182C02F10102D2B207F12001CB1803F84C
:020000040801F1
:10000000182CFB7F07F12002D31813F8182CFB7F64
:1000100003F1010307F12001CB1813F8183C9A42B1
:100020001ED9FB7F03F1010307F12002D31813F857
:10003000183CFB82FB7F03F10103FA7F07F12001EB
:100040008A1812F8182C07F12001CB1803F8182C85
:10005000FB7FFA8AD2B207F12001CB1803F8182CE3
:10006000FB7F03F10203FB77FB7F072B7FF60BAFD0
:10007000F4F7DCF8FB8818464FF00D01F4F7C6F8EA
:10008000FB8803F00103DBB2002B00F000811F4866
:100090001F49F4F7CDF8FB88B3F5827F06D0FB88C3
:1000A00003F10102174B1B889A4204D119481A49DF
:1000B000F4F7BEF85AE0FB880B2B04D1154816491B
:1000C000F4F7B6F852E0FB88A3F10A01134B83FB67
:1000D00001234FEAE3024FEAE173D21A13464FEAD3
:1000E00083039B184FEA83029B18CA1A002A19D16E
:1000F000FA8840F203139A4214D809480649F4F7E3
:1001000097F833E0143F0020D48F00204CD401082E
:10011000AC400020B8D201088C4200201F85EB5172
:1001200074D70108FB88A3F10A01884B83FB0123E4
:100130004FEA63024FEAE173D21A13464FEA830390
:100140009B18CA1A002A09D1FA8840F203139A426E
:1001500004D87F487F49F4F76BF807E0FB88B3F5D4
:10016000827F03D07C487B49F4F762F84FF00003AC
:10017000BB8382E0BB8B4FEA8303784AD35C1A4689
:10018000774B1B78D3189BB2A3F16C03BB82BB8B5C
:100190004FEA830303F10103704AD35C1A46714BA3
:1001A0001B78D3189BB2A3F164037B827B8A002B5C
:1001B00019D07B8AC72B16D8BB8A002B13D0BB8AD9
:1001C000F92B10D8BA8AFB889A420CD17A8A798A9C
:1001D000604B33F81110644BDB8841EA030399B29A
:1001E0005C4B23F812105F4B1B78BA8B9A421DD1DF
:1001F000FB88052B1AD9FA88594B1B7803F10503A4
:100200009A4213DAFA88564B1B78A3F105039A42F7
:100210000CDDBA8BB98B4F4B33F81110524B9B88C6
:1002200041EA030399B24B4B23F812104C4B1B7855
:10023000FA889A421DD1BB8B052B1AD9BA8B494B30
:100240001B7803F105039A4213DABA8B454B1B78EE
:10025000A3F105039A420CDDBA8BB98B3D4B33F801
:100260001110414B9B8841EA030399B2394B23F8A3
:100270001210BB8B03F10103BB83BB8BFF2B7FF6FB
:1002800079AF34484FF0C901F3F7CCFF04E1FB88A4
:10029000B3F5827F06D0FB8803F10102334B1B8844
:1002A0009A4204D132483349F3F7C2FF4AE0FB884F
:1002B0000B2B04D12E482F49F3F7BAFF42E0FB88FD
:1002C000A3F10A012C4B83FB01234FEAE3024FEA1F
:1002D000E173D21A13464FEA83039B184FEA830255
:1002E0009B18CA1A002A09D1FA8840F203139A42CD
:1002F00004D822481F49F3F79BFF23E0FB88A3F1B2
:100300000A01124B83FB01234FEA63024FEAE173B8
:10031000D21A13464FEA83039B18CA1A002A09D13E
:10032000FA8840F203139A4204D809481149F3F7B6
:100330007FFF07E0FB88B3F5827F03D006480D49B5
:10034000F3F776FF4FF00003BB839CE067666666B9
:10035000E0D501088C4200204CD40108D48F002045
:10036000A9400020AA4000200C310020143F0020AA
:10037000B8D20108AC4000201F85EB5174D70108AA
:10038000BB8B4FEA8303464AD35C1A46454B1B7826
:10039000D3189BB2A3F16C03BB82BB8B4FEA8303E0
:1003A00003F101033E4AD35C1A463F4B1B78D31836
:1003B0009BB2A3F164037B827B8A002B19D07B8ADA
:1003C000C72B16D8BB8A002B13D0BB8AF92B10D8A9
:1003D000BA8AFB889A420CD17A8A798A334B33F8ED
:1003E0001110334BDB8841EA030399B22F4B23F8FA
:1003F00012102D4B1B78BA8B9A421DD1FB88052B0E
:100400001AD9FA88274B1B7803F105039A4213DAAD
:10041000FA88244B1B78A3F105039A420CDDBA8BB2
:10042000B98B224B33F81110214B9B8841EA03030F
:1004300099B21E4B23F812101A4B1B78FA889A4275
:100440001DD1BB8B052B1AD9BA8B174B1B7803F127
:1004500005039A4213DABA8B134B1B78A3F10503F9
:100460009A420CDDBA8BB98B104B33F81110104B3C
:100470009B8841EA030399B20C4B23F81210BB8B03
:1004800003F10103BB83BB8BFF2B7FF679AF0748DA
:100490004FF0C901F3F7C6FE07F12007BD4680BD46
:1004A000D48F0020A9400020AA400020AC400020AA
:1004B0000C31002080B584B000AF03463960FB7179
:1004C00007F10C02FB791046194602F053F93B681C
:1004D00003F104033A7B1A703B6803F105037A7B4E
:1004E0001A703B6803F10603BA7B1A704FF00003E1
:1004F000184607F11007BD4680BD00BF80B483B029
:1005000000AF0346FB80FA884FF6FF739A4202D190
:100510004FF0000384E0FA884FF6E07302EA030329
:100520004FF6E072934202D14FF0010378E0FB886E
:100530004FEA43534FEA535340F2FF72934202D1C2
:100540004FF003036CE0FA884FF61F0302EA03033F
:100550004FF61F02934202D14FF0050360E0FB8883
:1005600003F4FC63B3F5FC6F02D14FF0070357E0CF
:10057000FA884BF6E05302EA03034BF6E05293424B
:1005800002D14FF002034BE0FA8840F2F75302EA3F
:10059000030340F2F752934202D14FF004033FE0CD
:1005A000FA884BF6170302EA03034BF6170293424D
:1005B00002D14FF0060333E0FB8803F4BC63B3F5CC
:1005C000BC6F02D14FF008032AE0FA8847F6EF33F8
:1005D00002EA030347F6EF32934202D14FF00903D8
:1005E0001EE0FA8840F21F5302EA030340F21F5252
:1005F000934202D14FF00A0312E0FB8803F47843E0
:10060000B3F5784F02D14FF00B0309E0FB8803F0FC
:100610001F031F2B02D14FF00C0301E04FF00D031D
:10062000184607F10C07BD4680BC704780B58AB0FC
:1006300000AF0346FB71254A07F1180307CA83E898
:100640000700FA7907F1180310461946FFF732FF41
:1006500007F1180107F1100207F10C031C48F3F72A
:1006600015FE0346FB84FB8C002B02D0FB8CDBB217
:1006700026E04FF00003FB841DE007F1100314484F
:100680001946F3F705FE0346002B02D04FF008038E
:1006900016E0FB8C4FF4C87202FB03F31A460D4BB5
:1006A000D31818460A494FF4C8720BF085FEFB8C2C
:1006B00003F10103FB84FB8C032BDED94FF0000315
:1006C000184607F12807BD4680BD00BF08D90108BC
:1006D0006C4400206C46002080B58AB000AF034611
:1006E000FB71444A07F1140307CA83E807004FF07F
:1006F000000387F82030FA7907F1140310461946F1
:10070000FFF7D8FE07F1140107F10C0207F1080307
:100710003948F3F7B9FD0346002B02D04FF00A0326
:1007200063E035484FF000014FF400720BF0ECFE2F
:100730004FF00003BB8444E04FF00003FB840FE064
:10074000FB8C03F10203FA8C4FEA8201BA8C8A18FF
:100750002A49895C284AD154FB8C03F10103FB84AC
:10076000FB8CB3F5C77FEBD9BA8C254913464FEA0A
:1007700083039B184FEA0313CB1803F14C031B8828
:10078000DAB21D4B83F88F2107F10C031A48194682
:10079000F3F780FD0346002B02D04FF0090324E05D
:1007A000BB8CDBB203F00303DBB24FF0FE004FF073
:1007B000000140F20A52FDF7E7FCBB8C03F1010394
:1007C000BB84BB8C032BB7D907F10C0207F10803DC
:1007D00009484FF40061F3F75FFD0346002B02D098
:1007E0004FF0090301E04FF00003184607F1280716
:1007F000BD4680BD08D901086C440020D48F00207C
:1008000034360020B0B58CB000AF0346FB71854A8A
:1008100007F1140307CA83E807004FF000033B8584
:100820004FF00003FB84FA7907F1140310461946D0
:10083000FFF740FE07F1140107F10C0207F108036E
:100840007948F3F721FD0346002B02D04FF00A034D
:10085000E3E0754875494FF036020BF0ADFD4FF0FF
:100860003603BB854FF000037B8540E07B8D4FEA6C
:100870008302BB8DD318798D6D4A32F8112002F4B2
:1008800078424FEA2222D1B2674AD1547B8D4FEA97
:100890008302BB8DD31803F10103798D644A32F8CA
:1008A000112002F4FC624FEAE202D1B25E4AD15456
:1008B0007B8D4FEA8302BB8DD31803F10203798D40
:1008C0005B4A32F811204FEAC202D1B2564AD154E3
:1008D0007B8D4FEA8302BB8DD31803F10303524A89
:1008E0004FF00001D1547B8D03F101037B857B8D9B
:1008F0000F2BBBD94FF07603BB854FF00003FB8570
:100900004FF00003FB8465E04FF000033B8558E0A7
:100910003A8DFB8C10461946F3F778FCF3F7A4FCEC
:100920000346BB843B8D03F101039AB2FB8C104656
:100930001946F3F76BFCF3F797FC03467B84BC8DF9
:10094000BB8C1846FFF7DAFD03464FEA0313DDB20E
:100950007B8C1846FFF7D2FD0346EB18DAB2324B18
:100960001A55BB8D03F10103BB85BA8D40F2FF130D
:100970009A4222D907F10C032B481946F3F78AFC57
:100980000346002B02D04FF0090346E0FB8D4FEAEF
:1009900053039BB2DBB203F00303DBB2FA8D02F127
:1009A0000102FA854FF0FE004FF0000140F20A52BA
:1009B000FDF7EAFB4FF00003BB853B8D03F102031B
:1009C0003B853A8D40F28F139A42A1D9FB8C03F1FB
:1009D0000103FB84FB8CEF2B96D9BB8D002B0BD036
:1009E00007F10C0310481946F3F754FC0346002B9B
:1009F00002D04FF0090310E007F10C0207F10803E1
:100A000009484FF43C41F3F747FC0346002B02D062
:100A10004FF0090301E04FF00003184607F13007DB
:100A2000BD46B0BD14D901086C44002060310020DF
:100A30004031002080B58AB000AF0346FB71994A6F
:100A400007F1140307CA83E80700FA7907F11403D2
:100A500010461946FFF72EFD07F1140107F10C02AD
:100A600007F108039048F3F70FFC0346002B02D070
:100A70004FF00A0311E14FF0000387F8273035E00B
:100A800097F827304FEA4323002B01DA03F10303E1
:100A90004FEAA3034FEA8302844BD31882481946D6
:100AA0004FF400720BF088FC07F10C037E481946E6
:100AB000F3F7F0FB0346002B02D04FF00903ECE004
:100AC00097F827304FEA5303DBB203F00303DBB29E
:100AD0004FF0FE004FF0000140F20A52FDF754FBC8
:100AE00097F8273003F1010387F8273097F827306C
:100AF0001F2BC5D96C484FF000014FF400720BF06A
:100B000003FD694B3B624FF0000387F8273055E047
:100B100097F82720664913464FEA83039B184FEA4C
:100B20000313CB1803F110031B889AB23B6A1A8097
:100B30003B6A03F102033B6297F827205C491346A6
:100B40004FEA83039B184FEA0313CB1803F12403E6
:100B50001B889AB23B6A1A803B6A03F102033B622C
:100B600097F82720524913464FEA83039B184FEA10
:100B70000313CB1803F138031B889AB23B6A1A801F
:100B80003B6A03F102033B6297F82720484913466A
:100B90004FEA83039B184FEA0313CB1803F14C036E
:100BA0001B889AB23B6A1A803B6A03F102033B62DC
:100BB00097F8273003F1010387F8273097F827309B
:100BC000032BA5D93A4BB3F8A0319AB23B6A1A80ED
:100BD0003B6A03F102033B62354BB3F8B4319AB27E
:100BE0003B6A1A803B6A03F102033B62304B1B8F66
:100BF0001BB2304AD35C5BB29BB203F0FF039AB2E4
:100C00003B6A1A803B6A03F102033B62284B1B8F4D
:100C10001AB2294B33F812203B6A1A803B6A03F15F
:100C200002033B62224BB3F888301BB2234AD35CE9
:100C30005BB29BB203F0FF039AB23B6A1A803B6A35
:100C400003F102033B621A4BB3F888301AB21C4B13
:100C500033F812203B6A1A803B6A03F102033B62BD
:100C600007F10C0310481946F3F714FB0346002B59
:100C700002D04FF0090310E007F10C0207F108035E
:100C800009484FF48441F3F707FB0346002B02D0D9
:100C90004FF0090301E04FF00003184607F1280761
:100CA000BD4680BD20D901086C440020D44F0020EF
:100CB00034360020DC950020B43A0020E89500206E
:100CC000C83A002080B58CB000AF0346FB71934A50
:100CD00007F1180307CA83E807004FF0000387F8FD
:100CE00024308F4BBB62BB6A4AF655221A80BB6A1E
:100CF00003F10203BB624FF0000387F82F3055E089
:100D000097F82F20874913464FEA83039B184FEA31
:100D10000313CB1803F110031B889AB2BB6A1A8025
:100D2000BB6A03F10203BB6297F82F207D4913468B
:100D30004FEA83039B184FEA0313CB1803F12403F4
:100D40001B889AB2BB6A1A80BB6A03F10203BB62BA
:100D500097F82F20734913464FEA83039B184FEAF5
:100D60000313CB1803F138031B889AB2BB6A1A80AD
:100D7000BB6A03F10203BB6297F82F20694913464F
:100D80004FEA83039B184FEA0313CB1803F14C037C
:100D90001B889AB2BB6A1A80BB6A03F10203BB626A
:100DA00097F82F3003F1010387F82F3097F82F3091
:100DB000032BA5D95B4BB3F8A0319AB2BB6A1A805A
:100DC000BB6A03F10203BB62564BB3F8B4319AB26B
:100DD000BB6A1A80BB6A03F10203BB624FF00003D7
:100DE00087F82F3039E097F82F304F4AD35C5BB249
:100DF0009BB203F0FF039AB2BB6A1A80BB6A03F18D
:100E00000203BB6297F82F20484B33F81220BB6ACD
:100E10001A80BB6A03F10203BB6297F82F30444A81
:100E2000D35C5BB29BB203F0FF039AB2BB6A1A8039
:100E3000BB6A03F10203BB6297F82F203D4B33F8E6
:100E40001220BB6A1A80BB6A03F10203BB6297F8E7
:100E50002F3003F1010387F82F3097F82F30072B3D
:100E6000C1D9FA7907F1180310461946FFF722FB9A
:100E700007F1180107F1100207F10C032E48F3F7F0
:100E800005FA034687F82F3097F82F30002B02D051
:100E900097F82F304FE14FF0000387F82F3025E00F
:100EA00007F1100324481946F3F7F2F90346002B23
:100EB00002D04FF008033EE197F82F304FEA43236A
:100EC000002B01DA03F103034FEAA3034FEA830285
:100ED0001A4BD318184618494FF400720BF06CFAED
:100EE00097F82F3003F1010387F82F3097F82F3050
:100EF0001F2BD5D907F110030F481946F3F7C8F98E
:100F00000346002B02D04FF0080314E10A4BBB62EA
:100F10004FF0000387F82F30A8E000BF20D9010868
:100F2000AC4C002034360020DC950020B43A002080
:100F3000E8950020C83A00206C440020D44F0020DF
:100F400097F82F20BB6A1B8899B27D4813464FEA59
:100F500083039B184FEA0313C31803F110030A46D7
:100F60001A80BB6A03F10203BB6297F82F20BB6AA9
:100F70001B8899B2724813464FEA83039B184FEAC5
:100F80000313C31803F124030A461A80BB6A03F152
:100F90000203BB6297F82F20BB6A1B8899B268488E
:100FA00013464FEA83039B184FEA0313C31803F158
:100FB00038030A461A80BB6A03F10203BB6297F842
:100FC0002F20BB6A1B8899B25D4813464FEA830302
:100FD0009B184FEA0313C31803F14C030A461A8007
:100FE000BB6A03F10203BB6297F82F2054491346F2
:100FF0004FEA83039B184FEA0313CB1803F1100346
:101000004FF002029A7097F82F204D4913464FEA8D
:1010100083039B184FEA0313CB1803F124034FF00B
:1010200002029A7097F82F20454913464FEA83032E
:101030009B184FEA0313CB1803F138034FF0020259
:101040009A7097F82F203E4913464FEA83039B1866
:101050004FEA0313CB1803F14C034FF002029A70CE
:1010600097F82F3003F1010387F82F3097F82F30CE
:10107000032B7FF665AFBB6A1B889AB2304BA3F88F
:10108000A021BB6A03F10203BB62BB6A1B889AB250
:101090002B4BA3F8B421BB6A03F10203BB62284BBC
:1010A0004FF0020283F8A221254B4FF0020283F891
:1010B000B621234B1B8F1BB2BA6A1288D1B2214AC8
:1010C000D154BB6A03F10203BB621D4B1B8F1AB2E2
:1010D000BB6A19881C4B23F81210BB6A03F1020388
:1010E000BB62174BB3F888301BB2BA6A1288D1B210
:1010F000164AD154BB6A03F10203BB62104BB3F82A
:1011000088301AB2BB6A1988114B23F81210BB6AD7
:1011100003F10203BB620A4B4FF00102A3F8502116
:10112000074B93F8523143F00203DAB2044B83F8D1
:1011300052214FF00003184607F13007BD4680BD2D
:1011400034360020DC950020B43A0020E8950020D9
:10115000C83A002080B483B000AF814B7B607B68CD
:1011600003F102037B607E4B1A884AF655239A42AC
:1011700040F0F0804FF00003FB708BE0FA787B6862
:101180001B8899B2774813464FEA83039B184FEAAE
:101190000313C31803F110030A461A807B6803F196
:1011A00002037B60FA787B681B8899B26D4813460E
:1011B0004FEA83039B184FEA0313C31803F1240378
:1011C0000A461A807B6803F102037B60FA787B6829
:1011D0001B8899B2634813464FEA83039B184FEA72
:1011E0000313C31803F138030A461A807B6803F11E
:1011F00002037B60FA787B681B8899B259481346D2
:101200004FEA83039B184FEA0313C31803F14C03FF
:101210000A461A807B6803F102037B60FA78514921
:1012200013464FEA83039B184FEA0313CB1803F1CD
:1012300010034FF002029A70FA784A4913464FEAB7
:1012400083039B184FEA0313CB1803F124034FF0D9
:1012500002029A70FA78434913464FEA83039B18B7
:101260004FEA0313CB1803F138034FF002029A70D0
:10127000FA783C4913464FEA83039B184FEA03135D
:10128000CB1803F14C034FF002029A70FB7803F184
:101290000103FB70FB78032B7FF670AF7B681B8824
:1012A0009AB2304BA3F8A0217B6803F102037B6064
:1012B0007B681B889AB22B4BA3F8B4217B6803F19F
:1012C00002037B60274B4FF0020283F8A221254BDB
:1012D0004FF0020283F8B6214FF00003FB702BE0C1
:1012E000FB787A681288D1B21F4AD1547B6803F127
:1012F00002037B60FA787B6819881C4B23F8121074
:101300007B6803F102037B60FB787A681288D1B2B4
:10131000174AD1547B6803F102037B60FA787B683B
:101320001988144B23F812107B6803F102037B60C9
:10133000FB7803F10103FB70FB78072BD0D9084B36
:101340007B607B684FF000021A807B6803F1020328
:101350007B6000E000BF07F10C07BD4680BC704712
:10136000AC4C002034360020DC950020B43A00203C
:10137000E8950020C83A002080B487B000AF03464B
:10138000B9607A60FB734FF00003FB752649FA7B66
:10139000264813464FEA83039B184FEA0313C318EA
:1013A00003F138031B881AB213464FEA83039B18D4
:1013B0004FEA4303CB183B6118E03B691B78212BB4
:1013C00006D1FB7DBA68D3184FF020021A7005E0F1
:1013D000FB7DBA68D3183A6912781A703B6903F139
:1013E00001033B61FB7D03F10103FB753B691B7846
:1013F000002BE2D1FB7DBA68D3184FF02C021A7093
:10140000FB7D03F10103BA68D3184FF000021A7094
:10141000FB7D03F10103DAB27B681A7007F11C0748
:10142000BD4680BC704700BF884D00203436002088
:1014300080B58EB000AF0346FB719D4A07F11803DB
:1014400007CA83E807004FF000033B634FF0000337
:1014500087F82E30FA7907F1180310461946FFF77E
:1014600029F807F1180107F1100207F10C03914860
:10147000F2F70AFF0346002B02D04FF00A0359E2AD
:101480008C488D494FF007020AF096FF07F11703C9
:101490004FF0000089491A46FFF76EFFFB7D03F10C
:1014A00007033B633A6B834BD318184684494FF0CC
:1014B00007020AF081FF3B6B03F107027D4BD21854
:1014C00007F117034FF0010011461A46FFF754FFCA
:1014D000FB7D1A463B6BD31803F107033B633A6B62
:1014E000744BD318184677494FF00F020AF064FF87
:1014F0003B6B03F10F033B634FF000037B63BDE1E4
:10150000714B1B8F1BB2714AD35C5BB29AB26E4BAC
:101510001B8F19B26E4B33F811306E49786B51F84E
:10152000201001F0FF0101FB03F303F500734FEA04
:1015300093239BB2D3189BB2BB85B7F92C30002BF9
:101540000DDDB7F92C30C82B04DD4FF0C70387F849
:10155000283008E0BB8DDBB287F8283003E04FF07D
:10156000000387F82830584BB3F888301BB25A4A2A
:10157000D35C5BB29AB2544BB3F8883019B2574B74
:1015800033F811305349786B51F8201001F47F4142
:1015900001FB03F34FEA132303F500734FEA932390
:1015A0009BB2D3189BB2BB85B7F92C30002B0DDD55
:1015B000B7F92C30C82B04DD4FF0C70387F829306A
:1015C00008E0BB8DDBB287F8293003E04FF0000361
:1015D00087F829303F4B7A6B53F8223003F480337D
:1015E000002B06D1384BB3F8EC30DBB287F82A3049
:1015F00008E0354BB3F8EC30DBB203F11403DBB297
:1016000087F82A30334B7A6B53F8223003F40033D7
:10161000002B06D12C4BB3F83C31DBB287F82B30D2
:1016200008E0294BB3F83C31DBB203F11403DBB221
:1016300087F82B304FF0000387F82F30ADE097F894
:101640002F3007F13802D31813F8103C07F12402A9
:101650001046194601F08EF84FF00003FB755DE06F
:10166000FB7D07F13802D31813F8143C002B59D036
:10167000FB7D07F13802D31813F8142C0D493B6B8E
:10168000CB181A703B6B03F101033B633A6B40F2DA
:10169000FF139A423DD907F1100306481946F2F7A5
:1016A000F9FD0346002B1BD04FF0090342E100BFB8
:1016B00050D901086C4400202CD901087344002043
:1016C00034D901083CD9010834360020DC950020CB
:1016D000B43A0020D44F0020E8950020C83A0020FA
:1016E00097F82E304FEA5303DBB203F00303DBB26B
:1016F00097F82E2002F1010287F82E204FF0FE000D
:101700004FF0000140F20A52FCF73EFD4FF000039B
:101710003B63FB7D03F10103DBB2FB75FB7D022B19
:101720009ED900E000BF864A3B6BD3184FF02C02D5
:101730001A703B6B03F101033B633A6B40F2FF13FA
:101740009A4224D907F110037D481946F2F7A2FD09
:101750000346002B02D04FF00903EBE097F82E3040
:101760004FEA5303DBB203F00303DBB297F82E20FA
:1017700002F1010287F82E204FF0FE004FF0000129
:1017800040F20A52FCF700FD4FF000033B6397F86C
:101790002F3003F1010387F82F3097F82F30032BF8
:1017A0007FF64DAF664A3B6BD3184FF00D021A70AF
:1017B0003B6B03F101033B633A6B40F2FF139A4228
:1017C00024D907F110035E481946F2F763FD03467A
:1017D000002B02D04FF00903ACE097F82E304FEA0F
:1017E0005303DBB203F00303DBB297F82E2002F1C0
:1017F000010287F82E204FF0FE004FF0000140F26A
:101800000A52FCF7C1FC4FF000033B634C4A3B6BB0
:10181000D3184FF00A021A703B6B03F101033B63CC
:101820003A6B40F2FF139A4224D907F1100344485F
:101830001946F2F72FFD0346002B02D04FF00903A3
:1018400078E097F82E304FEA5303DBB203F003033E
:10185000DBB297F82E2002F1010287F82E204FF01C
:10186000FE004FF0000140F20A52FCF78DFC4FF0F1
:1018700000033B637B6B03F101037B637A6B40F6F0
:10188000FF739A427FF63CAE3B6B002B3ED02C4A56
:101890003B6BD3184FF00D021A703B6B03F1010341
:1018A0003B63274A3B6BD3184FF00A021A703B6B1D
:1018B00003F101033B633A6B214BD2183B6BC3F539
:1018C000007310464FF000011A460AF01DFE4FF05B
:1018D00000033B6307F1100319481946F2F7DAFCDD
:1018E0000346002B02D04FF0090323E097F82E3077
:1018F0004FEA5303DBB203F00303DBB24FF0FE0009
:101900004FF0000140F20A52FCF73EFC97F82E30EF
:101910004FEA4323194607F1100207F10C03084868
:10192000F2F7BAFC0346002B02D04FF0090301E0A6
:101930004FF00003184607F13807BD4680BD00BFD1
:101940006C44002080B58AB000AF4FF0000387F8E8
:1019500027304FF00603FB778B4B3B62F2F76EFCB0
:10196000034607F110021046194601F015F94FF031
:1019700057033B764FF050037B764FF05403BB7612
:101980004FF00003FB7607F1100107F1080207F1A1
:1019900004037D48F2F77AFC0346BB84BB8C002B22
:1019A00002D0BB8CDBB27BE107F108037648194615
:1019B000F2F76EFC0346002B02D04FF008036FE1F4
:1019C000FA7F3B6A1B8803F0FF039A4202D04FF074
:1019D000050365E14FF00003BB840BE0BB8C6A4A52
:1019E000D25C97F82730D31887F82730BB8C03F1E7
:1019F0000103BB84BA8C40F2FF139A42EED997F8E8
:101A00002730002B02D04FF0060349E13B6A1B88C8
:101A10004FEA13239BB2DAB25C4B1A703B6A03F1B4
:101A200002033B624FF00003BB841CE0BB8C4FEA17
:101A300043033A6A1288D1B2554AD154BB8C4FEA5B
:101A4000430303F101033A6A12884FEA122292B269
:101A5000D1B24F4AD1543B6A03F102033B62BB8CC3
:101A600003F10103BB84BB8C062BDFD94FF00003CD
:101A7000BB8453E0BA8C3B6A1B8899B24548134635
:101A80004FEA83039B184FEA0313C31803F11003B3
:101A90000A461A803B6A03F102033B62BA8C3B6A36
:101AA0001B8899B23B4813464FEA83039B184FEAC1
:101AB0000313C31803F124030A461A803B6A03F197
:101AC00002033B62BA8C3B6A1B8899B231481346C9
