:020000040800F2
:10C0000000A00020952F01080DFC00080FFC00087F
:10C0100011FC000813FC000815FC000800000000DB
:10C0200000000000000000000000000019FC0008F3
:10C0300017FC0008000000001BFC00081DFC0008A5
:10C040001FFC000821FC000823FC000825FC000858
:10C0500027FC000829FC00082BFC00082DFC000828
:10C060002FFC000831FC000833FC000835FC0008F8
:10C0700037FC000839FC00083BFC00083DFC0008C8
:10C080003FFC000841FC000843FC000845FC000898
:10C0900049FC00084DFC00084FFC000851FC00085A
:10C0A00053FC000855FC000857FC000859FC000828
:10C0B0005BFC00085DFC000851FD000853FD000812
:10C0C00055FD000857FD000859FD00085BFD0008FC
:10C0D0005DFD00085FFD000861FD000863FD0008CC
:10C0E00065FD000867FD000869FD00086BFD00089C
:10C0F0006DFD00086FFD000871FD000873FD00086C
:10C1000075FD000877FD000879FD00087BFD00083B
:10C110007DFD00087FFD000881FD000883FD00080B
:10C1200085FD000887FD000889FD00088BFD0008DB
:10C1300070B514200021314CF8F788F82420012133
:10C14000F8F784F823680720B3F95C11F8F77EF854
:10C1500023680820B3F85E11F8F778F80920012168
:10C16000F8F774F80B200121F8F770F8244C002040
:10C170006421F8F76BF801206421F8F767F8236869
:10C180000A209988F8F762F823680C2099881D4ED8
:10C190000131F8F75BF805200121F8F757F806F0B0
:10C1A00083F820200146F8F751F84FF4FA6003F0C5
:10C1B000EAF806200121F8F749F8134D142003F09E
:10C1C000E2F84FF4006333602B600024F8F732F894
:10C1D0000E4B00F0FF02E0503368000AD3182A68C3
:10C1E00000F0FF0004348018B4F5804F33602860FD
:10C1F000ECD11B1A064A1B0B137070BD585500205A
:10C20000549600202C560020305600204056002026
:10C210004E9600202DE9F04FBD4B0024BD4DA1B03E
:10C220001C70214606461420F8F710F8B5F994332F
:10C230000A21013359430220F8F708F82046F7F79E
:10C24000E9FFB54B05201C702146F7F7FFFF2420BE
:10C250000121F7F7FBFF20200146F7F7F7FFB5F9BB
:10C26000E413A5F850410139032001EB8101F7F7F0
:10C27000EDFFAA4DAA4B4FF4FA7018802B680720E7
:10C28000B3F9F810F7F7E2FF2B680820B3F8FA10BB
:10C29000F7F7DCFF09202146F7F7D8FF0B202146EE
:10C2A000F7F7D4FF11E028462146F7F7AFFF013535
:10C2B0004FF6FF70F7F7ACFFADB240F28F139D421F
:10C2C000F1D11434A4B2DC2C01D00025EBE700241A
:10C2D0002046EF21F7F79AFF01344FF6FF70F7F78A
:10C2E00097FFA4B240F28F139C42F1D10020014687
:10C2F000F7F78CFFEF24013C4FF6FF70A4B2F7F77D
:10C3000087FF002CF7D12C201421F7F77FFF14347E
:10C3100001344FF6FF70A4B2F7F77AFFC92CF7D1BA
:10C3200058201421F7F772FFB53C01344FF6FF7027
:10C33000A4B2F7F76DFFC92CF7D184201421F7F7C9
:10C3400065FF143C013C4FF6FF70A4B2F7F760FFA5
:10C35000002CF7D1C8201421F7F758FFB534013C61
:10C360004FF6FF70A4B2F7F753FF002CF7D1F4207B
:10C370001421F7F74BFFB534013C4FF6FF70A4B220
:10C38000F7F746FF002CF7D14FF490701421F7F720
:10C390003DFFB534013C4FF6FF70A4B2F7F738FF0C
:10C3A000002CF7D14FF4A6701421F7F72FFFB53406
:10C3B000013C4FF6FF70A4B2F7F72AFF002CF7D12B
:10C3C00021464FF4C770F7F721FFEF34013C4FF6D9
:10C3D000FF70A4B2F7F71CFF002CF7D1514B0620D9
:10C3E0000093B921052223464F4F00F0C5FF4F4D62
:10C3F0003120B92105222346DFF85C81009700F047
:10C40000BBFF5D20B92105222346009500F0B4FF53
:10C410008920B92105222346CDF8008000F0ACFF29
:10C42000434BCE200093B92140F20512234600F081
:10C43000A3FFF920B92140F205122346009700F02E
:10C440009BFF40F22510B92140F2051223460095CA
:10C4500000F092FF4FF4A970B92140F20512234673
:10C46000CDF80080A62500F087FF39E04FF01408D2
:10C4700008FB04F82F4F29463B68062043440093ED
:10C480000522002300F078FF3B68294643440093CF
:10C4900040F205120023CE2000F06EFF264A20A9AC
:10C4A000125D0B1903F80C2C01EB44022349143DD7
:10C4B00031F81410ADB222F8501C2149095D03F87F
:10C4C000241C2049095D03F8181C1F4931F8141079
:10C4D00022F8641C1D4A125D013403F8302CA4B20A
:10C4E0001B4B1A6898469288A242BFD20025049539
:10C4F0002F462C46174A118889B279BB0220F7F7DC
:10C50000A5FE14200121F7F7A1FE00F0E3BE00BF55
:10C51000224D0020043200204055002058550020B4
:10C52000124D00203C36010841360108463601080C
:10C530005336010850960020EC550020BE3E0020E6
:10C5400041550020F6550020D23E00204B550020DA
:10C5500054960020184D00204B3601080A20214631
:10C56000F7F774FE21460C20F7F770FE142002F056
:10C570000AFF01210620F7F769FE142002F003FFED
:10C58000AC4AAD4B4FF40061116019604FF00009E7
:10C5900093469A46F7F74EFEA84B00F0FF0249F883
:10C5A0000300DBF80030000AD318DAF8002000F0AE
:10C5B000FF0009F104098018B9F5804FCBF800306D
:10C5C000CAF80000E6D19E491B0B31F814A0DFF831
:10C5D000ACB20AFB03FA1BF904200AF5007A02EB5D
:10C5E0009A2A984A000B32F81490DFF884C209FBAB
:10C5F00000F91CF9043009F5007903EB9929924BF5
:10C600001FFA8AFA1A781FFA89F9002A00F0E284E0
:10C6100000221A700C2D00F2DD84DFE815F00D0009
:10C620009C003101A801D5014B02D2023103F00375
:10C630005204760482048E04844C4FF0280B94F943
:10C64000001000200BFB01F101F522418912F7F7E0
:10C65000FDFDDFF824C201209CF90010CDF808C0D0
:10C660000BFB01FB0BF522418912F7F7EFFD784B2D
:10C6700008200093D82140F20532002300F07CFE10
:10C68000744BE8200093D82140F20532002300F0DB
:10C6900073FE714B4FF498700093D82140F205421D
:10C6A000002300F069FE6D4B08200093062140F244
:10C6B0000532002300F060FE694A6A4B50201B7867
:10C6C0000621009240F2054200F056FEDDF808C057
:10C6D000E346FEB9644BD8210093B82033460522C7
:10C6E00000F04AFED8F8001033460BE0DFF88CE18A
:10C6F00053480EF803204FF4806E20F813E0E25404
:10C7000001339BB28A889A424FF00002EED214465F
:10C7100000F060BC012E40F0DB85544B40F2051266
:10C720000093B8200023D82100F026FED8F800207E
:10C7300000230AE04E4843494FF4806EC45421F868
:10C7400013E00BF8034001339BB291880024994217
:10C75000F0D200F03FBC474B08200093062140F286
:10C7600005320023CDF808C000F006FEDDF808C051
:10C7700016BB5FFA8AFCACF1280111AF384649B20A
:10C78000CDF808C002F05EFF6FF0130363434FF66D
:10C79000FE71A63303EA01012D2001230522009733
:10C7A00000F0EAFD1BF80430DDF808C02833CCEBBC
:10C7B000030C0BF804C024E0012E22D15FFA89FBA0
:10C7C00011AFABF12801384649B2CDF808C002F0EC
:10C7D00039FF6FF0130363434FF6FE71A63303EA8C
:10C7E0000101F520334640F20512009700F0C4FD28
:10C7F000DDF808C01CF804302833CBEB030B0CF831
:10C8000004B0D8F8003001349B88E4B2A34201D2CE
:10C81000022500240D4B282719570020794301F5E4
:10C8200022418912F7F712FD134B19574F4307F5B1
:10C83000224139E12C56002030560020405600207D
:10C84000BE3E0020D23E00201C4D0020415500205D
:10C85000583601086F360108793601088336010819
:10C86000723801081B4D0020B2360108B9360108A4
:10C87000F6550020C03601084B550020EC5500202D
:10C880000137FFB2072F88BF00273EBB5FFA8AFC43
:10C8900011ABACF12801184649B2CDF808C003939A
:10C8A00002F0D0FE6FF013026243039BA6324FF6F4
:10C8B000FE7100932D2002EA01013346052200F0AB
:10C8C0005BFDBAF1280FDDF808C033D01BF8043047
:10C8D0002833CCEB030C0BF804C02AE0012E28D13E
:10C8E0005FFA89F00DF1440BA0F12801059049B2DF
:10C8F0005846CDF808C002F0A5FE6FF0130363435D
:10C900004FF6FE71A633F52003EA010140F205124D
:10C910000023CDF800B000F02FFDB9F1280FDDF8AD
:10C9200008C007D01CF80430059928335B1A0CF8AE
:10C93000043017B90134E4B20027D8F800309B88DE
:10C94000A34201D203250024BA4B4FF0280B1957FC
:10C9500000200BFB01F101F522418912F7F776FC6B
:10C96000B54B19570BFB01FB0BF5224124E1B14BF1
:10C970004FF0A00B195700200BFB01F101F52031FE
:10C9800001F500718912F7F761FCAB4B01371957BC
:10C9900001200BFB01FB0BF5203101F50071891221
:10C9A000FFB2F7F753FC16B90FFA8AF303E0012E32
:10C9B00004D10FFA89F38C2BC8BF0425142F40F241
:10C9C00009830135EDB205E39A4FDFF86CB22EBB57
:10C9D00011AB0AF16001184649B2039302F032FE2E
:10C9E0006FF013026243039BA6324FF6FE71009371
:10C9F00002EA010101230522592000F0BDFC0FFAD3
:10CA00008AF39B02A3F51E336FF09F02A3F5F66332
:10CA100093FBF2F33A5D9B183B552AE0012E28D197
:10CA200011AB09F16001184649B2039302F00AFE06
:10CA30006FF013026243039BA6324FF6FE71009320
:10CA400002EA0101334640F2051240F2211000F0E3
:10CA500093FC0FFA89F39B02A3F51E336FF09F023C
:10CA6000A3F5F66393FBF2F31BF804209B180BF875
:10CA70000430D8F8003001349B88E4B2A34201D2DC
:10CA8000052500243957A027794301F5203101F508
:10CA9000007189120020F7F7D9FB1BF904104F43EE
:10CAA00007F5203101F5007101208912F7F7CEFB5F
:10CAB00000278FE20137FFB2072F88BF0027DFF87A
:10CAC00074B14EBB11AB0AF16001184649B2039331
:10CAD00002F0B8FD6FF013026243039BA6324FF6DB
:10CAE000FE710093592002EA01013346052200F04D
:10CAF00043FC0FFA8AF3A02B3ED09B02A3F51E3312
:10CB00006FF09F02A3F5F66393FBF2F31BF804208A
:10CB10009B180BF804302EE0012E2CD111AB09F13B
:10CB20006001184649B2039302F08CFD6FF01302C6
:10CB30006243039BA6324FF6FE71009302EA0101A5
:10CB4000002340F2211040F2051200F015FC0FFA0C
:10CB500089F3A02B10D09B02DFF8DCE0A3F51E3395
:10CB60006FF09F02A3F5F66393FBF2F31EF8042027
:10CB70009B180EF8043017B90134E4B20027D8F836
:10CB800000309B88A34201D2062500241BF9041023
:10CB90004FF0A00B0BFB01F101F5203101F5007105
:10CBA00000208912F7F752FB234801570BFB01FBCA
:10CBB0000BF5203101F5007101208912F7F746FBD2
:10CBC00008E201370499FFB2142F88BF0725012915
:10CBD000184BDFF864B031D893F900102824614372
:10CBE00001F5224100208912F7F730FB9BF9001074
:10CBF00001204C4304F522418912F7F727FB56B96F
:10CC00000FFA8AF3312B00F36383049A0125531C36
:10CC1000DBB204935CE3012E40F05A830FFA89F3F0
:10CC2000312B00F35583049C3546631CDBB204931F
:10CC30004EE300BF415500204B55002093F90010F2
:10CC40001924614301F5CC4100208912F7F7FEFA5F
:10CC50009BF9001001204C4304F5CC418912F7F7F1
:10CC6000F5FA16B90FFA8AF304E0012E40F030838A
:10CC70000FFA89F3362B00F32B830135EDB227E34E
:10CC8000B84B20200093D82140F20532002300F059
:10CC900073FBB54A0C2101FB0422DFF818B35820BE
:10CCA0009BF80030CC31009240F2054200F064FB6A
:10CCB000AE4BA0200093D82140F20532002300F0B3
:10CCC0005BFBAB4B08200093062140F205320023AA
:10CCD00000F052FBA74A9BF80030902000920621FA
:10CCE00040F2054200F048FBA34A9BF80030B02018
:10CCF0000092062140F2054200F03EFB9F4BD820F7
:10CD00000093062140F20532002300F035FB9C4AD7
:10CD10009BF800304FF4A8700092062140F20542C3
:10CD200000F02AFB974A9BF800304FF4B87000924D
:10CD3000062140F2054200F01FFB66BB0FFA8AF3A2
:10CD4000232B0ADD904A14211268193B01FB0422AF
:10CD5000116911A80096594302E0009611A83146C6
:10CD60008A4A032302F018FB6FF01302624311A9F1
:10CD70009BF80030A63200914FF6FE71862002EA41
:10CD80000101052200F0F8FA814B4FF4A4700093E2
:10CD9000D8210522E1E0012E40F01C810FFA89F331
:10CDA000232B0BDD784A14211268193B01FB042266
:10CDB00011690022009211A8594302E0002100915C
:10CDC00011A8724A032302F0E7FA6FF013026243DC
:10CDD00011A99BF80030A63200914FF6FE7102EACD
:10CDE00001014FF4A77040F2051200F0C5FA694B3B
:10CDF0004FF4A4700093D82140F20512ADE0664BC9
:10CE000008200093062140F20532002300F0B4FA16
:10CE1000DFF8A0B15A4A9BF800306020009206214A
:10CE200040F2054200F0A8FA564A9BF800308020F4
:10CE30000092062140F2054200F09EFA574B8820EE
:10CE40000093062140F20532002300F095FA544B7E
:10CE500008200093D82140F20532002300F08CFA1C
:10CE6000504B70200093D82140F20542002300F07F
:10CE700083FA4D4A9BF8003048200092D82140F2B6
:10CE8000054200F079FA56B9484B4FF4A47000936C
:10CE9000D8210522334600F06FFA04969AE0012E5D
:10CEA00040F09680424B4FF4A4700093D82140F29A
:10CEB0000512002300F060FA4FF0000ECDF810E0EC
:10CEC00088E0394A3B4B48201B78D821009240F239
:10CED000054200F051FA384B70200093D82140F2FF
:10CEE0000542002300F048FA46B9344B4FF49470E1
:10CEF0000093D82140F2051233462FE0012E69D16C
:10CF00002F4B4FF49470009342E7274A294B482057
:10CF10001B78D821009240F2054200F02DFA294BEF
:10CF200016E0214A234B48201B78D821009240F27A
:10CF3000054200F021FA244B0AE01B4A1D4B482011
:10CF40001B78D821009240F2054200F015FA1F4BE1
:10CF500000937020D82140F20542002300F00CFA23
:10CF600038E000BFEF36010800300020F736010836
:10CF70000D37010827370108293701082B37010829
:10CF8000423701084437010850960020143600202B
:10CF9000463701084D370108543701086637010844
:10CFA000873701089537010872380108B336010840
:10CFB000BA3601081B4D0020B1370108C9370108F6
:10CFC000D3370108DD370108FF3701082138010890
:10CFD00000200490DFF8CCB29BF80030002B3FF427
:10CFE00089AAD8F80030A4499B884FF41672A3424E
:10CFF0000A8023D3072D21D16EB96FF01303634349
:10D0000011AAA6334FF6FE71009203EA01018620B1
:10D010000522334610E0012E10D16FF01303634355
:10D0200011AAA6334FF6FE71009203EA01014FF4F4
:10D03000A77040F20512002300F09EF99BF8003023
:10D04000023B072B00F23F81DFE813F008003D01AF
:10D050003D01EC0007013D01D700C800002D08BFCD
:10D060000125A5F10803DBB2012B50D8092D04BF1F
:10D07000C6F10106F6B24FF00009A62540E0C6B998
:10D08000DFF824A22D20294605223346CDF800A042
:10D0900000F072F95920294605223346CDF800A048
:10D0A00000F06AF9754B8620009329460522334625
:10D0B0001EE0012E1ED1DFF8F0A1F520294640F236
:10D0C00005120023CDF800A000F056F940F221101F
:10D0D000294640F205120023CDF800A000F04CF9DB
:10D0E000664B4FF4A7700093294640F205120023C7
:10D0F00000F042F909F10109143D1FFA89F9ADB2B6
:10D10000D8F800309B884B45B9D20025DBE0092DCB
:10D1100040F2D9800A2D2DD1D8F80000002322E05A
:10D1200020A9CA1812F80C1C554C20ADE15405EB8F
:10D13000430131F8505C534CDFF860E124F81350A0
:10D1400012F8245C504C31F8641CE55412F8184C69
:10D150000EF803404D4C24F8131012F8301C4C4AC2
:10D16000D15401339BB282889A42D9D201F0E6FFB2
:10D17000484B24E00B2D03D101F0E0FF464B1EE0AD
:10D180000C2D24D1D8F80010002312E03D484FF4B4
:10D19000806420F813403C480022C254384D3B487C
:10D1A000EA5420F813403D4D3948EA54C254013343
:10D1B0009BB28A889A42E9D201F0C0FF384B0093B3
:10D1C0000820D82140F20542002300F0D5F84FF4A2
:10D1D0007A7002F0D8F804F033FE7BE0072D04D11A
:10D1E000002C70D0013CE4B26DE0082D01D9013D66
:10D1F000EDB2082D08BF0C2565E0072D03D90135D8
:10D20000EDB20C2D04D8072D03D10134E4B200E0B7
:10D210000825D8F800309B88A34254D20135EDB2DE
:10D22000002450E0072D4ED14EB90FFA8AFABAF118
:10D23000230F48DD134931F81430023B41E0012E41
:10D2400041D10FFA89F9B9F1230F3CDD0F4A32F8C9
:10D250001430023B22F8143035E0072D33D12EBBB9
:10D260000FFA8AFABAF1230F2DDD064830F8143090
:10D27000023320F8143026E0184D00206C380108E5
:10D28000EC550020BE3E002041550020D23E00203B
:10D290004B5500204338010874380108F65500202A
:10D2A000A5380108224D00206E380108012E0AD150
:10D2B0000FFA89F9B9F1230F05DD084931F8143067
:10D2C000023321F8143000238BF80030FFF712B935
:10D2D00000247FE621B0BDE8F08F00BFD23E0020E1
:10D2E0002238034B01EBC00133F81100704700BF37
:10D2F000D6380108024B1B1893F8D005704700BFC1
:10D30000D63801082DE9F0470E461D4600F10A0106
:10D3100006F10A0314469BB2324689B2F6F77EFF45
:10D320000B235D434FEA14280026114B002703EB23
:10D33000450333F8069049FA07F313F0010F0D4B3C
:10D340000ABF04F00F0233F8180033F81200013757
:10D35000F6F75EFF0B2FEED10236162EE5D1002038
:10D3600040F28F110246EF23BDE8F047F6F756BFB3
:10D37000D23F01080A3100202DE9F14F0F461D462A
:10D3800001F10A03144640F28F113A469BB20A9EFD
:10D39000F6F744FF4FEA14294FF00B082C4F25B93C
:10D3A00004F00F0337F8130001E037F8190008F113
:10D3B000FF381FFA88F8F6F72BFFB8F1000FEDD110
:10D3C00038E04FF0000816F8010CA0F12003DBB2A2
:10D3D000012B05D95FFA88F1FFF782FF834603E04E
:10D3E000212804D04FF0000B4FF0000A03E0B8F101
:10D3F000040FF7D11EE00FFA8BF303FA0AF313F4CC
:10D40000806F01D00DB905E025B904F00F0337F89E
:10D41000130001E037F819000AF1010AF6F7F8FEE7
:10D42000BAF10B0FE7D108F101081FFA88F8B8F13B
:10D43000080FC8D116F8010B0028C2D140F28F1195
:10D440000246EF2301B0BDE8F04FF6F7E7BE00BF9C
:10D450000A310020F0B50B2885B00546A14C56D9FD
:10D460002388834253D3A0F10C0CA0F10B0E4FEA9A
:10D470008C0C4FEA8E0E6E4602AB0DF109020020B5
:10D480000021317098490FFA8CF701EB5001CF5D04
:10D4900002F8017C0FFA8EF7C95D597012F8011C71
:10D4A000C72901D9C72102E0012902D8012102F8C8
:10D4B000011C5978C72901D9C72102E0012901D8E7
:10D4C0000121597012F8017C5978B94210D1012913
:10D4D00001D0C72902D10121317009E0012902D907
:10D4E000013902F8011C5978C62901D80131597057
:10D4F00012F8017C59788F4284BF5F7002F8011CDA
:10D500000230C0B20236023302320828B8D1F6F730
:10D510008DFE0D212846F6F779FE15F0010F00F07B
:10D52000E181704E7148B11CF6F782FE0B2D40F27E
:10D5300099813388AB4240F296819DF800306C4A65
:10D5400043BBB2F910302BB39DF809109DF8083099
:10D55000C81A0528674801DC068819E00688A6F580
:10D56000844608E004EB4300B0F8E271013337432E
:10D57000A0F8E271DBB28B42F4D90BE004EB43007C
:10D58000B0F8E271013346EA0707A0F8E271DBB2B6
:10D590008B42F3D99DF8023043BBB2F960302BB314
:10D5A0009DF80B109DF80A30C81A0528514801DC77
:10D5B000468819E04688A6F5027608E004EB4300A9
:10D5C000B0F8E27101333743A0F8E271DBB28B426D
:10D5D000F4D90BE004EB4300B0F8E271013346EA02
:10D5E0000707A0F8E271DBB28B42F3D99DF8043053
:10D5F0004BBBB2F9B03033B39DF80D009DF80C3041
:10D60000C11A05293B4901DC8E881AE08988A1F5F9
:10D610008041083908E004EB4306B6F8E2710133B3
:10D620000F43A6F8E271DBB28342F4D90BE004EBBE
:10D630004301B1F8E271013346EA0707A1F8E2714C
:10D64000DBB28342F3D99DF8063043BBB2F9003117
:10D650002BB39DF80F109DF80E30C81A05282548E9
:10D6600001DCC68819E0C688A6F5007608E004EB60
:10D670004300B0F8E27101333743A0F8E271DBB246
:10D680008B42F4D90BE004EB4300B0F8E2710133B4
:10D6900046EA0707A0F8E271DBB28B42F3D9B2F891
:10D6A000403243B91349B1F92030098804EB4303F0
:10D6B000B3F8E2012AE01BB2012B08D10D49B1F900
:10D6C0002430498804EB4303B3F8E2011EE0022B47
:10D6D00012D10849B1F92830898804EB4303B3F823
:10D6E000E20113E0E83E0020384F00202A40010804
:10D6F000043200200A310020032B0BD1B149B1F9CB
:10D700002C30C98804EB4303B3F8E20140EA01017D
:10D71000A3F8E211B2F81812C1F1A10109B20B2964
:10D720002BDD8D4211D1A84B93F81A3213F0040F60
:10D730000BD1A44B9E89A54B03F5C9705F8846EABF
:10D7400007075F8006338342F8D14B1E9D4202D00B
:10D750004B1C9D4205D19B4B9B89A4F87233A4F8C6
:10D76000E2318D4209D1974B9B89A4F87233A4F81A
:10D770007033A4F8E431A4F8E231B2F830130B317D
:10D7800009B28D4211D1904B93F8323313F0040F4C
:10D790000BD18C4B1E898D4B03F5C9705F8846EA0F
:10D7A00007075F8006338342F8D14B1E9D4202D0AB
:10D7B0004B1C9D420CD1834BB4F872031B8943EA86
:10D7C0000000A4F87203B4F8E2010343A4F8E231C4
:10D7D0008D4218D17B4BB4F872131B8943EA0101C7
:10D7E000A4F87213B4F8701343EA0101A4F870139B
:10D7F000B4F8E41143EA0101A4F8E411B4F8E21129
:10D800000B43A4F8E231B2F844230B3212B2954232
:10D8100011D16D4B93F8463313F0040F0BD1694BC4
:10D8200018896A4B03F5C9715E8840EA06065E8076
:10D8300006338B42F8D1531E9D4202D0531C9D42A9
:10D8400005D1604B1B89A4F87233A4F8E2319542EC
:10D8500009D15C4B1B89A4F87233A4F87033A4F887
:10D86000E43100E002D02388AB4239D15649554B10
:10D87000B1F990221B89501E04EB4000B0F8E25130
:10D8800043EA0505A0F8E25104EB4200B0F8E2518A
:10D89000013243EA0505A0F8E25104EB4202B2F876
:10D8A000E20143EA0000A2F8E201B1F9A422511E0C
:10D8B00004EB4101B1F8E20143EA0000A1F8E20102
:10D8C00004EB4201B1F8E201013243EA0000A1F8A1
:10D8D000E20104EB4204B4F8E2211343A4F8E2317C
:10D8E0003A4897E123886A1C9A42374E01D138485A
:10D8F00014E00A2D17D0A5F10A031E2293FBF2F1C2
:10D9000002FB11320AB9334808E0062293FBF2F118
:10D9100002FB11330BB9304800E030482B49F6F7D1
:10D9200087FC0C2D03D02388013B9D4210D1B6F912
:10D930009032244A04EB43035988128942EA0101D8
:10D940005980B6F9A43204EB430359880A435A803C
:10D9500096F8923213F0040F0AD11B4B194AB3F90F
:10D960009032128904EB4303598841EA02025A803B
:10D9700096F8A63213F0040F0AD1134B114AB3F9EB
:10D98000A432128904EB4303598841EA02025A8007
:10D990000B2D40F2B6802388AB4240F2B2809DF856
:10D9A0000030002B34D1B6F91030002B30D09DF868
:10D9B00009209DF80830D11A0529024910DC088891
:10D9C00024E000BF0A31002004320020CA400020B9
:10D9D000BC4101084E430108E04401082A40010807
:10D9E0000888A0F5844006E004EB43014F8801332A
:10D9F00007434F80DBB29342F6D909E004EB4301C1
:10DA00004F88013340EA07074F80DBB29342F5D9D4
:10DA10009DF8023023BBB6F960300BB39DF80B20A4
:10DA20009DF80A30D11A05297D4901DC488815E0A6
:10DA30004888A0F5027006E004EB43014F880133EB
:10DA400007434F80DBB29342F6D909E004EB430170
:10DA50004F88013340EA07074F80DBB29342F5D984
:10DA60009DF804302BBBB6F9B03013B39DF80D1000
:10DA70009DF80C30CA1A052A694A01DC908816E024
:10DA80009288A2F58042083A06E004EB43004788FA
:10DA9000013317434780DBB28B42F6D909E004EB30
:10DAA00043025788013340EA07075780DBB28B42B5
:10DAB000F5D99DF8063023BBB6F900310BB39DF8BC
:10DAC0000F209DF80E30D11A0529554901DCC88870
:10DAD00015E0C888A0F5007006E004EB43014F880C
:10DAE000013307434F80DBB29342F6D909E004EBE0
:10DAF00043014F88013340EA07074F80DBB293426E
:10DB0000F5D9B6F81822C2F1A10212B20B2A28DD0B
:10DB1000954211D1434B93F81A3213F0040F0BD1F5
:10DB20003F4B9889404B03F5C9715F8840EA07076E
:10DB30005F8006338B42F8D1531E9D4202D0531CA6
:10DB40009D4204D1364B9B89A4F892316380954263
:10DB500007D1334B9B89A4F89231A4F89031A3806C
:10DB60006380B6F830230B3212B2954211D12D4B9F
:10DB700093F8323313F0040F0BD1294B18892A4B39
:10DB800003F5C9715F8840EA07075F8006338B425F
:10DB9000F8D1531E9D4202D0531C9D4204D1204B0C
:10DBA0001B89A4F892316380954206D11C4B1B89D6
:10DBB000A4F89231A4F89031A380B6F844230B3234
:10DBC00012B2954211D1174B93F8463313F0040F5C
:10DBD0000BD1134B1889144B03F5C9715E8840EAC9
:10DBE00006065E8006338B42F8D1531E9D4202D05A
:10DBF000531C9D4204D10A4B1B89A4F892316380C7
:10DC0000954206D1064B1B89A4F89231A4F89031B5
:10DC1000A3800548C92105B0BDE8F040F6F702BB76
:10DC20000A31002004320020EA3E002003282DE9BA
:10DC3000F84305460F4606D8464B502202FB0033F8
:10DC4000B3F94C3004E0444B03EB8103B3F92030CB
:10DC5000C52B7DDC0024A6B2062E30D8032DDFF8BC
:10DC6000F8803E4B0BD803EBC5035B1B13F8049005
:10DC7000384B502202FB0533B3F84C1005E01B195A
:10DC800093F81C9008EB8703198C0931304689B250
:10DC9000F6F7BCFA082619F0010F14BFB8F80A000D
:10DCA00038F81700013EB6B2F6F7B2FA16B14FEAED
:10DCB0005909F0E738F81700F6F7AAFA45E0032DFE
:10DCC00023D8DFF890804FF0500909FB0589B9F897
:10DCD0004C1030460331711889B2F6F797FAB9F84B
:10DCE0004C300333F61805E01B4B013633F81700B0
:10DCF000F6F78EFA502303FB0583B3F94C30B6B226
:10DD000018331B1B9E42EFDB1FE0DFF84C803046D0
:10DD100008EB8709B9F820100331711889B2F6F7BA
:10DD200075FAB9F820300333F61805E00A4B0136CE
:10DD300033F81700F6F76CFA08EB8703B3F92030D5
:10DD4000B6B218331B1B9E42F0DB01340B2C82D180
:10DD5000BDE8F883043200200A3100207246010831
:10DD60002DE9F047F6F762FA002630460C21F6F767
:10DD70004DFACB27954D013F6889FFB2F6F748FA77
:10DD8000002FF7D10136B6B20B2EEED1904CB4F97C
:10DD900010301BB138463946FFF748FFB4F9603000
:10DDA0001BB101200146FFF741FFB4F9B0301BB1B0
:10DDB00002200146FFF73AFFB4F900311BB10320FE
:10DDC0000146FFF733FFB4F9401211B90720FFF7FE
:10DDD0002DFFB4F94012012902D10720FFF726FFD9
:10DDE000B4F94012022902D10720FFF71FFFB4F94E
:10DDF0004012032902D10720FFF718FF754F0C21AD
:10DE000038884FF0CB08013080B2F6F7FFF908F1FF
:10DE1000FF3868895FFA88F8F6F7FAF9B8F1000F69
:10DE2000F5D111E01FFA86F90C214846F6F7EEF914
:10DE30006889F6F7EDF94846D621F6F7E7F96889DB
:10DE4000F6F7E6F90136B6B23B8808F10B0201336A
:10DE50009A4208F10108E5DDB4F890120A200B316E
:10DE600089B2F6F7D3F90526013E2889B6B2F6F74E
:10DE7000CFF9002EF8D1B4F8A4120A200B3189B2E0
:10DE8000F6F7C4F90536013E2889B6B2F6F7C0F9AF
:10DE9000002EF8D13888B4F8901201300B3180B2DE
:10DEA00089B2F6F7B3F90536013E2889B6B2F6F71E
:10DEB000AFF9002EF8D13888B4F8A41201300B3134
:10DEC00080B289B2F6F7A2F90536013E2889B6B2CA
:10DED000F6F79EF9002EF8D1B4F81882C8F1A1081F
:10DEE0001FFA88F80FFA88F30B2BC14620DDA8F142
:10DEF00002081FFA88F8474612E01FFA87FA0C2139
:10DF00005046F6F783F9A889F6F782F95046D621EC
:10DF1000F6F77CF9A889F6F77BF90137BFB201362D
:10DF20000FFA88F20FFA89F3B21802339A42E4DD4D
:10DF3000B4F83093002609F10B081FFA88F8A8F10D
:10DF40000207BFB212E01FFA87FA0C215046F6F71B
:10DF50005DF92889F6F75CF95046D621F6F756F9AF
:10DF60002889F6F755F90137BFB2013609F10902E0
:10DF700012B20FFA88F3B21802339A42E3DDB4F812
:10DF80004483002408F10B07BFB2BE1EB6B212E0F4
:10DF90001FFA86F90C214846F6F738F92889F6F772
:10DFA00037F94846D621F6F731F92889F6F730F9DE
:10DFB0000136B6B2013408F1090212B23BB2A2181E
:10DFC00002339A42E4DDBDE8F08700BF0A31002049
:10DFD00004320020E83E00202DE9F04159200021C4
:10DFE000F6F714F90C24013C40F21F50A4B2F6F7E6
:10DFF0000FF9002CF7D121465A20F6F707F90C3417
:10E00000013C40F21F50A4B2F6F702F9002CF7D100
:10E0100021464FF49A70F6F7F9F80C34013C40F2BF
:10E020001F50A4B2F6F7F4F8002CF7D1214640F2C5
:10E030003510F6F7EBF80C34013C40F21F50A4B257
:10E04000F6F7E6F8002CF7D15B261CE02846002105
:10E05000F6F7DCF80027574B185B384110F0010049
:10E0600018BF40F21F500137F6F7D2F80C2FF2D14B
:10E0700002340135102CADB2E8D10836B6B240F208
:10E0800033139E4203D0B6B235460024DEE74A4B36
:10E090001B78012B32D15B200021F6F7B7F8092459
:10E0A000013C4FF6FF70A4B2F6F7B2F8002CF7D19E
:10E0B00021464FF49970F6F7A9F80934013C4FF660
:10E0C000FF70A4B2F6F7A4F8002CF7D15B3400215E
:10E0D0002046F6F79BF84FF6FF70F6F799F82046C2
:10E0E0000921F6F793F801344FF6FF70F6F790F830
:10E0F000A4B240F233139C42E9D155E02F4DC82021
:10E10000B5F918320021584340F6886390FBF3F0CC
:10E110005B3080B2F6F77AF80924013C4FF6FF70C5
:10E12000A4B2F6F775F8002CF7D1B5F91832C8206B
:10E13000584340F6886390FBF3F06A30214680B282
:10E14000F6F764F80934013C4FF6FF70A4B2F6F715
:10E150005FF8002CF7D1B5F918024FF0C80808FB9A
:10E1600000F040F6886790FBF7F0A6B25B303018FD
:10E17000002180B2F6F74AF84FF6FF70F6F748F83C
:10E18000B5F91832092108FB03F898FBF7F75B375C
:10E19000F619B0B20134F6F739F8A4B24FF6FF70B1
:10E1A000F6F736F8102CD6D1044B002283F82E2235
:10E1B000BDE8F08196460108304D00200432002071
:10E1C00038B54FF49C740FE0294620460135F6F728
:10E1D0001DF8ADB20020F6F71BF8D82DF4D10134AC
:10E1E000A4B2B4F5C87F01D00B25EDE7024B0022A5
:10E1F00083F82E2238BD00BF043200202DE9F04FF5
:10E20000044687B0F6F712F80D212046F5F7FEFF19
:10E2100014F0010FA74DA84F00F0A780A91CA74834
:10E22000F6F706F8B4F5827F03D02B88621C9A4279
:10E2300024D1A348A349F5F7FBFF95F8C26395F8ED
:10E24000C303A6F16C039BB20193FB88A0F16409A0
:10E25000029306F10408A6F1040AA0F1040C0023BD
:10E260001FFA89F9CDF80C80CDF810A0BF8800F115
:10E27000040BCDF814C094491A4620E00B2C01D1B0
:10E280008F480BE0A4F10A03192293FBF2F102FB81
:10E29000113232B9B4F5827F03D28C4805F5F171A1
:10E2A000C9E7052293FBF2F202EB8202934204D10A
:10E2B000B4F5827F01D28648BCE78048BAE791F87E
:10E2C00000C011F801ACCC441FFA8CFC0CF1FF38F3
:10E2D0001FFA88F8B8F1C60F16D8DDF80480C244DA
:10E2E0001FFA8AFABAF1000F0ED0BAF1F90F0BD863
:10E2F000A24509D105EB4C0CBCF8E281DDF808A081
:10E300004AEA0808ACF8E2811FFA82FA824511D184
:10E31000052C0FD9DDF80CC0A4450BDBDDF810800F
:10E32000A04507DCDFF89CC13CF8038047EA0808F9
:10E330002CF80380B44210D1BAF1050F0DD99345E2
:10E340000BDBDDF814A0924507DCDFF878C13CF860
:10E35000038047EA08082CF80380013204310233B5
:10E36000B2F5807FABD157489EE0B4F5827F03D0F1
:10E370002B88621C9A4222D151485649F5F758FF22
:10E3800095F8C30395F8C263A0F164039BB20293AE
:10E39000A6F16C039BB2B7F806C00193331D04933A
:10E3A000A6F104080023CDF80CC0CDF81480BF8876
:10E3B00000F10409A0F1040B43491A461FE00B2C9D
:10E3C00001D13F480BE0A4F10A03192293FBF2F1BB
:10E3D00002FB11322AB9B4F5827F02D23B48A91C54
:10E3E000CCE7052293FBF2F202EB8202934204D1C6
:10E3F000B4F5827F01D23648BFE73048BDE7DDF88B
:10E40000088091F800C011F801ACC4441FFA8CFCDC
:10E410000CF1FF381FFA88F8B8F1C60F16D8DDF8EE
:10E420000480C2441FFA8AFABAF1000F0ED0BAF182
:10E43000F90F0BD8A24509D105EB4C0CBCF80280B2
:10E44000DDF80CA04AEA0808ACF802801FFA82FA4C
:10E45000824511D1052C0FD9DDF810C0A4450BDB86
:10E46000DDF81480A04507DCDFF868C03CF80380C5
:10E4700047EA08082CF80380B4420ED1BAF1050F20
:10E480000BD9914509DB934507DCDFF848C03CF820
:10E49000038047EA08082CF8038001320431023374
:10E4A000B2F5807FABD10B48C92107B0BDE8F04F72
:10E4B000F5F7B8BEE83E00200A3100202A400108E6
:10E4C000BC410108CA400020394F00204E430108DA
:10E4D000E0440108EA3E002070B5F5F7A7FE2B4C9A
:10E4E0002B482C49F5F7A4FEF5F7A0FE2A482B4946
:10E4F000F5F79EFEB4F8F031043B9BB2012B0AD82D
:10E50000B4F910303BB9264A69219954043340F2DA
:10E510000C629342F7D1B4F8F031043B9BB2012B6B
:10E520000CD81A4BB3F9603043B91D4B03F5C062E8
:10E530000C326421597004339342FAD1B4F8F031AB
:10E54000043B9BB2012B0AD90B2504E02846FEF7B9
:10E5500081FF0135ADB2134B1B88AB42F6D2B4F844
:10E56000F031043B9BB2012B0AD80B2404E0204677
:10E57000FFF744FE0134A4B20A4B1B88A342F6D233
:10E58000F5F74EFEBDE87040F5F750BE04320020AE
:10E59000BC410108CA4000202A400108EA3E002090
:10E5A000384F0020E83E002013B503460C4601A872
:10E5B000194601F02DF89DF80430002023719DF8D4
:10E5C000053063719DF80630A3711CBD4FF6FF73D3
:10E5D000984252D01F3B00EA03034FF6E072934289
:10E5E0004DD043055B0D40F2FF72934249D04FF688
:10E5F0001F0300EA03034FF61F02934243D000F4C7
:10E60000FC63B3F5FC6F40D04BF6E05300EA030324
:10E610004BF6E05293423AD040F2F75300EA03033C
:10E6200040F2F752934234D04BF6170300EA03034B
:10E630004BF6170293422ED000F4BC63B3F5BC6FC7
:10E640002BD047F6EF3300EA030347F6EF3293424D
:10E6500025D040F21F5300EA030340F21F529342B9
:10E660001FD000F47843B3F5784F1CD000F01F00A2
:10E670001F2814BF0D200C20704700207047012078
:10E68000704703207047052070470720704702201D
:10E690007047042070470620704708207047092003
:10E6A00070470A2070470B20704730B5164A87B074
:10E6B0005168044610686B4603C390686946186049
:10E6C0002046FFF771FF1148694603AA05ABF5F72D
:10E6D000DDFD0446A0B905460C4803A9F5F7D8FDB1
:10E6E00068B90B494FF4C8724819A1F5007105F5D6
:10E6F000C87504F043FEB5F5C86FEDD100E00824FD
:10E70000204607B030BD00BF5C4801083E440020F1
:10E710003E46002070B52A4A88B051680446106809
:10E7200001AB03C3906801A91860002320468DF84F
:10E730001030FFF739FF234801A905AA07ABF5F709
:10E74000A3FD204E0446002835D1304621464FF423
:10E75000007204F0BBFE1C4D1EE01C496118C95C30
:10E76000043302F8011F40F23C618B42F5D1B5F849
:10E770004C3005A9134886F88F31F5F78BFD01461B
:10E78000D8B9FE2004F0030340F20A520134FEF728
:10E79000B9FD5035042C02D00D4A0023DDE70948AD
:10E7A0004FF4006105AA07ABF5F776FD002814BF0A
:10E7B0000920002002E00A2000E0092008B070BD16
:10E7C0005C4801083E44002004320020384F0020FD
:10E7D0003F4400202DE9F047484A86B0516804467E
:10E7E00010686B4603C39068694618602046FFF7BF
:10E7F000DBFE4348694603AA05ABF5F745FDDFF8A4
:10E800000081002873D13F4B424603F1340153F895
:10E81000040B8B4242F8040BF9D11B881380384B50
:10E82000002239490024895A023201F4784000124A
:10E8300083F8360001F4FC60C010C90083F837008B
:10E8400083F8381083F839400433202AE9D1762739
:10E85000264638E021462846F5F7D8FCF5F704FDB2
:10E860008146681C214680B2F5F7D0FCF5F7FCFC28
:10E8700082464846FFF7AAFE81465046FFF7A6FEAD
:10E8800000EB091008F807000137BFB2B7F5007FA9
:10E8900010D31B4803A9F5F7FDFC074648BB7308D6
:10E8A000FE200136394640F20A5203F00303B6B2A5
:10E8B000FEF728FD0235ADB2B5F5C87FCAD10134E7
:10E8C000A4B2F02C01D00025C4E727B10C4803A95D
:10E8D000F5F7E0FC68B90A484FF43C4103AA05ABE0
:10E8E000F5F7DAFC002814BF0920002002E00A2016
:10E8F00000E0092006B0BDE8F08700BF68480108C5
:10E900003E4400203E31002074310020F0B53E4AE4
:10E9100087B05168044610686B4603C39068694627
:10E9200018602046FFF740FE3848694603AA05AB49
:10E93000F5F7AAFC002862D1354F0546334C39461D
:10E940004FF40072204604F019FD204603A9F5F7A4
:10E95000A1FC0646002854D16B080135FE20314643
:10E9600040F20A5203F00303EDB2FEF7CBFC202D78
:10E9700007F50077E2D131464FF40072204604F0EB
:10E98000A5FD244B04F12000224619461D8A15805E
:10E990009D8C55801D8F9580B3F84C505033D58099
:10E9A00008328242F2D1B1F8A0311B4A2384B1F877
:10E9B000B4516584B1F93830184DD25CA5F1280006
:10E9C000A284174A32F81320E284B1F98830154A3C
:10E9D00003A9D25C2285144A32F813206A80F5F725
:10E9E00059FC70B9A5F128004FF4844103AA05AB86
:10E9F000F5F752FC002814BF0920002002E00A208D
:10EA000000E0092007B0F0BD744801083E44002032
:10EA10004056002004320020EC55002066440020BF
:10EA2000BE3E0020F6550020D23E00202DE9F047E2
:10EA30005C4A88B051680746106801AB03C3906810
:10EA400059491860594C00234AF655228DF8103068
:10EA500001F5066001F50463A1F840280A330A3085
:10EA600022462546168A23F8086CB2F824E023F8DB
:10EA700006EC168F23F8046CB2F84CE0503223F801
:10EA800002EC08338342EDD1B5F8A021B5F8B431DA
:10EA9000A1F86228A1F864384548464B464900224F
:10EAA000464EDFF82CA116F802E023F808EC30F807
:10EAB00002EF23F806EC1AF802E0013223F804EC26
:10EAC00031F802EF23F802EC0833082AE8D101A953
:10EAD0003846FFF769FD344801A905AA07ABF5F7E9
:10EAE000D5FB8046002859D181462F4F05A93846CD
:10EAF000F5F7CEFB00284FD13148394648444FF452
:10EB0000007209F5007904F039FCB9F5804FECD1B9
:10EB1000384605A9F5F7BCFB00283DD107F12001D7
:10EB20003B461A8822825A88A2849A882287DA88E9
:10EB30000833A4F84C200222A27484F8262084F81A
:10EB40003A2084F84E2050348B42EAD13B8CA5F811
:10EB5000A031798C85F8A221A5F8B41185F8B621E9
:10EB6000BA8CB5F938301749F254FE8C164A22F89F
:10EB700013603A8DB5F988300AF803204988134AA2
:10EB800022F8131095F85231012143F00203A5F841
:10EB9000501185F8523101E04FF00808404608B0A6
:10EBA000BDE8F087744801083E440020043200208C
:10EBB000BC3E0020AC4C0020D03E0020EC55002094
:10EBC0004056002066440020BE3E0020D23E002079
:10EBD000F655002028484AF65523B0F8402870B56D
:10EBE0009A4247D1254B00F5046200F506650A32CA
:10EBF0000A351C4632F8081C198232F8061C998422
:10EC000032F8041C198732F8021C0832A3F84C10A1
:10EC10000221997483F8261083F83A1083F84E1075
:10EC20005033AA42E6D1B0F86238B0F86458A4F87C
:10EC3000A03184F8A21184F8B611A4F8B451104B95
:10EC4000104C1149002233F8086C104D565533F81A
:10EC5000065C24F8025F33F8046C0D4D565533F80A
:10EC6000025C01320833082A21F8025FEBD100214F
:10EC7000A0F8401870BD00BF3E44002004320020C0
:10EC8000AC4C0020BC3E0020D03E0020EC550020C3
:10EC9000F65500200E4B10B5502404FB0033B3F999
:10ECA00038000C4B463C04FB0034002305E02128CF
:10ECB00008BF0138C8540133DBB214F8010B002837
:10ECC000F5D12C24CC54C91801334870137010BDF1
:10ECD000043200205A4D00202DE9F047A84A8AB09E
:10ECE00051680446106801AB03C3906801A918601D
:10ECF0002046A44CFFF758FC204601A904AA06AB05
:10ED0000F5F7C2FA002840F034819F4BE11D1A68E4
:10ED100022609A889B79A280A3710DF12702FFF7E8
:10ED2000B9FF9A4B9DF827101868CD1D605198883F
:10ED30009B7962190E319080937161180DF1270251
:10ED40000120FFF7A7FF9DF82780914B08F10708E6
:10ED5000A84404EB080203F10C0153F8040B8B42A6
:10ED600042F8040BF9D119888A4E9B781180937070
:10ED700008F10F0806F580490025874B8748B3F94D
:10ED8000381056F8042B30F8110002F0FF0242430D
:10ED9000834802F50072415601EB922211B200291C
:10EDA00003DDC82902DDC72200E000228DF8202003
:10EDB000B3F988007B4A32F8101056F8042C02F49C
:10EDC0007F477943784F090A385601F5007100EB07
:10EDD000912108B2002803DDC82802DDC72100E028
:10EDE00000218DF8211012F4803F0EBFB3F8EC1013
:10EDF00093F8EC1014318DF8221012F4003F0EBF7E
:10EE0000B3F83C3193F83C3114338DF823300027AC
:10EE100008ABD95D07A800F0FBFB002321E00AAA9C
:10EE2000D31813F80C3C13B304F8083008F10108A8
:10EE3000B8F5007F12D3534804A9F5F72BFA8046A2
:10EE4000002840F098806B08FE200135414640F2D2
:10EE50000A5203F00303EDB2FEF754FA9DF827308F
:10EE600001338DF827309DF82730022BD7D92C237A
:10EE700004F8083008F10108B8F5007F11D34148C3
:10EE800004A9F5F707FA8046002874D16B08FE2024
:10EE90000135414640F20A5203F00303EDB2FEF79A
:10EEA00031FA0137042FB3D108F101070D23B7F56B
:10EEB000007FAA4604F8083012D1324804A9F5F7B9
:10EEC000E9F90746002856D14FEA5A030135FE20DA
:10EED000394640F20A5203F00303EDB2FEF712FA8C
:10EEE00007F101080A23B8F5007FE35512D1254840
:10EEF00004A9F5F7CFF9074600283CD16B08FE209E
:10EF0000394640F20A5203F00303FEF7FBF90135DC
:10EF1000EDB2B8464E457FF430AFB8F1000F1DD0CA
:10EF20000D2304F8083008F10108033B08F1010241
:10EF300004F80830A0180021C2F5007204F0C6FAE7
:10EF400004A91048F5F7A6F90146A0B96B08FE2000
:10EF500040F20A5203F00303FEF7D4F909486902AC
:10EF600004AA06ABF5F798F9002814BF0920002081
:10EF700002E00A2000E009200AB0BDE8F08700BFE7
:10EF8000A14801083E440020804801088848010843
:10EF9000904801084056002004320020BE3E002068
:10EFA000EC550020D23E0020F6550020F0B587B089
:10EFB000F5F744F90146684600F0C7FB57238DF882
:10EFC0000830073B8DF809304A4C04338DF80A307D
:10EFD000543B8DF80B302046694603AA05ABF5F784
:10EFE00055F90546002840F08280204603A9F5F730
:10EFF0004FF9002876D1218801F0FF03062B73D149
:10F000002A462B46A05C01321B18B2F5007FDBB20A
:10F01000F8D1002B6AD1384A090A117035490A46DD
:10F0200032F8020F354C18551E190233000A0E2B08
:10F030007070F5D1324B2F4A03F58260148A1C821E
:10F04000568A9E84948A1C87D68A0832A3F84C601C
:10F0500050338342F2D1274A00232A48B2F878403D
:10F0600018180C3344710232240A6C2B0471F4D149
:10F07000254B264C26480022B1F88A60254FD655EC
:10F08000254F360AD655B1F88C60244F24F8026B10
:10F09000B1F88E6020F8026FB1F890600831D65553
:10F0A0001F4F360AD65501320A2AE5D1B3F850105F
:10F0B0001C4A1180B3F852409480B3F854101A4A95
:10F0C0001170B3F85610194A1170B3F85810184A55
:10F0D0001170B3F85A10174A1170B3F85C20164B30
:10F0E0001A7004E0082502E0052500E00625284600
:10F0F00007B0F0BD3E4400203C4D00204C4D0020A8
:10F100000432002098310020C8440020BE3E002078
:10F11000D03E0020EC550020F6550020415500203F
:10F120004B5500202A310020304D0020284D002072
:10F130002F4D0020AA420020AB420020F0B589B03C
:10F14000F5F77CF8014601A800F0FFFA57238DF887
:10F150000C30073B8DF80D3004338DF80E307248BB
:10F1600001A904AA06ABF5F791F86F4C18B1042871
:10F1700040F0D7802DE04223BDF810008DF80C3010
:10F18000013B8DF80D300A33ADF81C008DF80E30C0
:10F19000204601A904AA06ABF5F776F8002840F04E
:10F1A000BE80204607A9F5F773F8002840F0B58027
:10F1B000204604A9F5F76EF8002840F0B2802046FA
:10F1C0004FF4007104AA06ABF5F766F8002840F08A
:10F1D000A88057238DF80C30534D073B8DF80D3028
:10F1E00004338DF80E30284601A904AA06ABF5F7C2
:10F1F0004BF80646002840F09280284631464FF4EE
:10F20000007204F063F9494B1B781B0206332B8014
:10F210002B46474AB1184878B15C000202364218C2
:10F220000E2E23F8022FF4D1424B3F4A03F58261A0
:10F230001E8A1682988C50821E8F9682B3F84C00DC
:10F240005033D08208328B42F2D1374A00233A49F8
:10F2500059180E794879360231180C33A2F8781013
:10F2600002326C2BF3D1354B354836490022364EED
:10F27000364F9657D7573602F619A5F88A6030F8F8
:10F28000026B334FA5F88C6031F8026FA5F88E60E1
:10F29000304ED757965701323602F619A5F89060CE
:10F2A00008350A2AE3D12C4A1088A3F85000928826
:10F2B000A3F85220294A1278A3F85420284A127839
:10F2C000A3F85620274A1278A3F85820264A127825
:10F2D000A3F85A20254A1278A3F85C2000231A4686
:10F2E000E15C0133521840F2FF118B420E4DD2B255
:10F2F000F6D15242284604A985F8FF21F4F7CAFF47
:10F3000078B928464FF4007104AA06ABF4F7C4FF9D
:10F31000002814BF0920002004E0082002E00A2091
:10F3200000E0092009B0F0BD3E4400203C4D002023
:10F330004C4D00200432002098310020C8440020A9
:10F34000BE3E0020D03E0020F6550020EC550020A7
:10F35000415500204B5500202A310020304D00201F
:10F36000284D00202F4D0020AA420020AB42002053
:10F37000034609B905E058430139C9B20029FAD159
:10F38000704701207047034B18801A8892B2002AF8
:10F39000FBD17047104D00202DE9F74F9DF830B09C
:10F3A000B1F1004F0C4615461E465FFA8BF913D19A
:10F3B0000346202203F8012B0E3242705A1C3346BA
:10F3C00001E020214170013BDBB20130002BF8D17C
:10F3D000013EF6B29355AFE0B9F1000F18D1002904
:10F3E00000F1010305DD4FF02B0880F8008018467E
:10F3F00010E006D04FF02D0880F800804C421846EF
:10F4000008E03022027018462E230370884601E07F
:10F410004FF0000821460522002306E001330A27A9
:10F42000B342C8BF7A4391FBF7F10929F6DCB34236
:10F43000A8BFA4182246002703E00A2192FBF1F29C
:10F440001F46092A07F10103F7DC032E4FF0030AD8
:10F450000BD997FBFAF793FBFAFA0AEB4A0AB3EBDC
:10F460000A0A08BF4FF0030A05E093FBFAF707EB1F
:10F47000470ACAEB030A831931460A200193FFF7B2
:10F4800077FF019B02E00A2294FBF2F48442FAD255
:10F49000002204E015F8011B0029FBD10132BA4219
:10F4A000F8DB1A46297802F8011F15F8011B00291C
:10F4B000F8D114E00A2194FBF1F201FB1241013E64
:10F4C0003031B9F1020FF6B203F80119144606D033
:10F4D000002F04DDB24502D12E2203F80129002EAF
:10F4E000E8D1B9F1020F07D0B9F1000F20D01FBB4E
:10F4F0002E225A70023201E0F7B920221A701BE066
:10F500001878302818D0587983F807B0987118798E
:10F510005871D878187198789A703022B8F12D0FF8
:10F52000D8700A7002D183F8008005E02B22E5E74D
:10F530005A78591C2E2AE3D0BDE8FE8F70B51B4BBC
:10F5400086B005460C4601AA03F1100618685968F2
:10F550000833B34203C2F9D11B781370A5F16103DC
:10F56000DBB2192B01D8203DEDB2A4F16103DBB26F
:10F57000192B01D8203CE4B200230DF103021846F8
:10F5800012F8011FA94204BF1818C0B21033DBB231
:10F59000002BF5D101A9C95CDAB2A14204BF101851
:10F5A000C0B20133102BF5D106B070BDAD480108D3
:10F5B00042F2107230B5B1FBF2F4034604F13005AB
:10F5C00003F8015B02FB14154FF47A72ADB2B5FB80
:10F5D000F2F101F13004447002FB1150642280B258
:10F5E000B0FBF2F502FB150005F13001597080B255
:10F5F0000A21B0FBF1F202F1300501FB12025C1CA2
:10F600003032023365705A7002340023637030BDAB
:10F61000642230B5B1FBF2F5034605F1300403F87E
:10F62000014B02FB15140A21E4B2B4FBF1F202F122
:10F63000300501FB124230324570581C5A700023CD
:10F64000437030BD002930B500F1010202DB2B23ED
:10F65000037003E02D234942037049B2642491FBF7
:10F66000F4F004FB1011134600F1300549B22E20CE
:10F670005A3C03F8015B507091FBF4F004FB10114D
:10F6800000F13005303100225D709970DA7030BDC4
:10F690006423B1FBF3F202FB131370B5DBB20A264D
:10F6A000B3FBF6F506FB15330446303305F13002A3
:10F6B00004F8012B43700023637070BD9F294FEA4B
:10F6C000111200F1010301D9373200E0303201F0AC
:10F6D0000F010929027003F1010201D9373100E05D
:10F6E00030311970002313707047B1F5204F4FEA85
:10F6F000113200F1010301D3373200E03032090545
:10F70000090DB1F5206F02704FEA112003F10102DB
:10F7100001D3373000E03030C9B29F2918704FEA6A
:10F72000111002F1010301D9373000E0303001F04F
:10F730000F010929107003F1010201D9373100E0EE
:10F7400030311970002313707047B1F1204F4FEA28
:10F75000117200F1010301D3373200E0303221F0A1
:10F760007041B1F1206F02704FEA116003F10102A4
:10F7700001D3373000E0303021F07F41B1F5200F68
:10F7800018704FEA115002F1010301D3373000E045
:10F79000303021F07F4121F47001B1F5202F10703D
:10F7A0004FEA114003F1010201D3373000E030305D
:10F7B00009041870080CB0F5204F4FEA117102F1DE
:10F7C000010301D3373100E0303100051170020D23
:10F7D000B2F5206F4FEA107003F1010101D3373009
:10F7E00000E0303002F0FF029F2A18704FEA12103A
:10F7F00001F1010301D9373000E0303002F00F028F
:10F80000092A087003F1010101D9373200E03032D2
:10F810001A7000230B70704710B5044650B1800871
:10F82000FFF7FAFF4000431C03FB03F2A24298BF1C
:10F83000184610BD10BD38B50420F4F70BFD314C4F
:10F84000C243258891B2ADB221EA0505ABB2002BC7
:10F8500034D02D491E20087013F0080018BF09206D
:10F8600003F04001002918BF0A2003F48071002929
:10F8700018BF032003F40071002918BF042003F40B
:10F880008061002918BF052003F40061002918BF1A
:10F89000062003F48051002918BF072003F400510B
:10F8A000002918BF022003F48043002B18BF012059
:10F8B0002DB230EA250028BF08200AE02088104039
:10F8C00007D01148007818B9104B1D780DB902E027
:10F8D0001846228038BD12F4806018BF052002F45B
:10F8E0000065002D18BF062002F0080509B2002DA2
:10F8F00018BF092030EA210028BF08200221197012
:10F90000E7E700BF244D0020204D0020214D0020BE
:10F91000034BC058884234BF00200120704700BF0D
:10F92000083800080A4B10B5C4580433C1580023E6
:10F93000184601229A40224201D00130C0B20A4248
:10F9400001D00130C0B20133202BF2D110BD00BF75
:10F9500008380008014BC058704700BF0438000841
:10F96000064B0246202019688A4205D0203080B21A
:10F970002033B0F5006FF6D1704700BF2038000883
:10F9800030B50C4B20200FE054F8045B013989B2EC
:10F990002A400029F8D1B2F1FF3F0AD0203080B2CE
:10F9A0002033B0F5006F04D01C4608214FF0FF3221
:10F9B000EAE730BD2038000870B50D460446F4F77C
:10F9C0005BFC05F10060A1B200F56050F4F752FC59
:10F9D00006460648210C2818F4F74CFC0446F4F7B8
:10F9E0004DFC04EA0600C0B270BD00BF023800083A
:10F9F000F8B506460F46F4F73FFC00240425A3198A
:10FA000008485978A35D3818001943EA0121F4F732
:10FA100031FC0234102C05EA0005F0D1F4F72EFC7D
:10FA20002846F8BD10380008F8B507460E46F4F72A
:10FA300023FCDFB1202F02D900231C460FE0002356
:10FA40001D4601229A4001331543DAB2BA42F8D377
:10FA500000240DE001229A4001331443DBB2A7F1E8
:10FA600020029342F6DB4FF0FF3501E03C463D4675
:10FA70000F48A9B23018F4F7FDFB07460D48290CD2
:10FA80003018F4F7F7FB00EA07050B48A1B230186D
:10FA9000F4F7F0FBEDB205400848210C3018F4F7FC
:10FAA000E9FB0446F4F7EAFB05EA0400F8BD00BFF1
:10FAB000083800080A3800080C3800080E3800081A
:10FAC00070B504460D46F4F7D7FB0948A1B22818D3
:10FAD000F4F7D0FB06460748210C2818F4F7CAFBB8
:10FAE0000446F4F7CBFB04EA0600C0B270BD00BFC9
:10FAF00004380008063800082DE9F04F87B002AC42
:10FB00008A4630218146ADF8141020460021FFF7C7
:10FB10001CFE484651464FF6FF7200230094F4F74E
:10FB200093FB00263546344602A82946FFF70DFE12
:10FB3000344B1A78964224D009EBC40B1E781FFA76
:10FB40008BFBC846002702ABDA5D06AB03F8042D39
:10FB5000FAB2944206D10093584651464FF6FF72CE
:10FB6000334605E00093404651464FF6FF720023AE
:10FB70000137F4F769FB08F10808082F1FFA88F825
:10FB8000E1D1214B1A78002A36D01A78023A072A96
:10FB900030D8DFE802F02A2F2F04102F2226C4F1DC
:10FBA0000702920035FA02F111F00F0F01D0012186
:10FBB0000FE00F2109E0C4F10702920035FA02F1CB
:10FBC00001F00F010F2904D0012111FA02F2AD1842
:10FBD00010E011FA02F2AD1A0CE0072C07D0013444
:10FBE00001E034B1013CE4B204E0082402E0002466
:10FBF00000E0072400221A70072C95D9284607B088
:10FC0000BDE8F08F1B4D0020224D00207047FEE71D
:10FC1000FEE7FEE7FEE770477047704770477047A2
:10FC2000704770477047704770477047704770471C
:10FC3000704770477047704770477047704770470C
:10FC400070477047F4F7DCBAF4F7DCBA70477047D6
:10FC500070477047704770477047704738B513203A
:10FC60000021F4F7F3FA384B1A781C461AB11A78C7
:10FC7000013A1A7038BD14232370636813B16368A6
:10FC8000013B63602289304B92B2142A02D91A894F
:10FC9000143A00E000221A8162892B4B92B2132A97
:10FCA00003D95A89143A5A8103E003200021F4F75A
:10FCB000CDFA237B244D312B03D82B7B01332B73BF
:10FCC0000EE00023042001212B73F4F7BFFAEB8927
:10FCD0000133EB812B8A9BB213B12B8A013B2B8220
:10FCE000A27C194B0132A274A27C0E2A09D90022EF
:10FCF0009A74DA7CD2F1010238BF0022DA74012250
:10FD00001A75E28A104B92B212B1DA8A013ADA829B
:10FD1000227E0D4B12B11A7E013A1A76627E0A4B90
:10FD200012B15A7E013A5A76FFF785FD58B1074B5A
:10FD3000A076B3F9E4130320013901EB8101F4F754
:10FD400085FA3C23638138BD084D00200432002031
:10FD500070477047704770477047704770477047EB
:10FD600070477047704770477047704770477047DB
:10FD700070477047704770477047704770477047CB
:10FD800070477047704770477047704714490B7849
:10FD9000A3F10D02D2B2082A03D90B2B01D00C2BF0
:10FDA0000ED1104AD05C50225A43142303FB002387
:10FDB0000D4A9B189A7842F002029A7000230B7049
:10FDC0000A4B00221A700A4B40F28D1018800B78F3
:10FDD000082B04D1034B197A022908BF1A72704705
:10FDE0003C4D00204C4D002014320020284D0020B6
:10FDF000E83E002010B5344CB4F82833B4F9302371
:10FE000019B26339914202DC643BA4F83033B4F890
:10FE10003C33B4F9442319B26339914203DC2A4AD2
:10FE2000643BA2F84433FEF7CBF9284A0123137050
:10FE3000274A40F237111180264A1370264B03F1EE
:10FE40006C02D97A41F00201D9720C339342F8D195
:10FE500094F8BA3243F0020384F8BA3294F85A3371
:10FE600043F0020384F85A3394F8CE3243F002038D
:10FE700084F8CE3294F86E3343F0020384F86E3384
:10FE800094F8823343F0020384F8823394F8D23337
:10FE900043F0020384F8D23394F8963343F002031C
:10FEA00084F8963394F8E63343F0020384F8E6339B
:10FEB00001F0A8F8002420460134E4B201F0EEF885
:10FEC000092CF8D110BD00BF04320020284D0020BD
:10FED000E83E00207B3A0020983100202DE9F04FC9
:10FEE0004FF0006087B03F4903F042F9F4F7BEF9E4
:10FEF0000B20F4F7AFF9034640B93B4A302000929B
:10FF00001E2140F2FF72F4F79FF9FEE7374B3221D2
:10FF10004FF6FF72009320200023F4F795F9072095
:10FF2000F4F798F9324B18600820F4F793F9314B45
:10FF300018600920F4F78EF92F4B18600A20F4F7A7
:10FF400089F92E4B186001F08DFEFFF72FF8064659
:10FF500038B92B4B302000931E214FF4FC623346FE
:10FF600006E0284B302000931E2140F2FF72002350
:10FF7000F4F76AF9244B4FF4FA701880FCF7D8F8BC
:10FF800001F05EFF214D224F00233B702B78214C66
:10FF9000012B214B0BBF40F2371140F28D1219801B
:10FFA0001A80B4F8F031B4F89C006B70B4F84C309F
:10FFB0004FF000096B80EB79A880AB71CDF8109001
:10FFC000C846CDF81490CB46DFF850A0BAF8001020
:10FFD00089B229BB0220F4F739F914200121F4F782
:10FFE00035F9DEE000C00008D2480108F8480108F1
:10FFF0005096002058550020549600205896002016
:020000040801F1
:10000000244901084B490108124D0020284D0020C9
:10001000224D002004320020E83E0020184D002030
:1000200002F0C2FE9D4B1B889BB2BBB194F85A33C1
:1000300043F0020384F85A3394F8BA3243F00203CF
:1000400084F8BA3294F8CE3243F0020384F8CE3208
:1000500094F86E3343F0020384F86E33904B0599A5
:100060001A880BF1010B92B291421FFA8BFB13D04D
:100070001B889BB205938B4BA3F800B001F034FEB4
:100080002B78012B06D10026F0B2013601F006F8DC
:10009000092EF9D14FF0000B2B78012B01D100F084
:1000A000B1FF01F0A1FB804A1378002B76D0EB79E9
:1000B0005BB9B4F840227D4902F5A062009140F29C
:1000C0006D10D82192B2FDF757F9EB79012B0BD1C6
:1000D000B4F84022764902F5A062009140F26D101A
:1000E000D82192B2FDF748F9EB79022B0CD1B4F884
:1000F0004022704B02F5A062009340F26D10D821AF
:1001000092B20123FDF738F9EB79032B0CD1B4F847
:100110004022694B02F5A062009340F26D10D82195
:1001200092B20123FDF728F901F008FF01F05EFF0C
:1001300001F098FFB4F9F031042B01D002F0B4F8CB
:10014000B4F8F031043B9BB2012B01D9FDF708FE56
:10015000B4F994330A21013359430220F4F776F8B5
:10016000564B1B78092B01D0FDF736FF2B78012B5E
:1001700011D194F8BA3243F0020384F8BA3294F8F9
:10018000CE3243F0020384F8CE3294F86E3343F05B
:10019000020384F86E33444800230370484B002266
:1001A0001A70B4F95031012B10D10320F4F752F832
:1001B00018B90230F4F74EF840B994F852310221E0
:1001C00043F00203A4F8501184F85231EB79002B6C
:1001D0004BD03A4B1B78072B0BD13A4BDA79022ADA
:1001E00007D194F86A2242F0020284F86A220022BF
:1001F000DA71B4F94032CBB9334BE9791A78334B21
:1002000049001B7804989B1A4B4348BF073302EB05
:10021000E3039BB2421D934202DC421F934205DA84
:100220002B4A01211380204A04931170B4F9403203
:10023000012B1AD1274BE9791A78274B49001B78F3
:100240009B1A4B4348BF073302EBE3039BB209F110
:100250000502934203DCA9F10502934205DA1C4A28
:1002600001219380104A99461170297A1B4B01296C
:1002700038D1B4F9F0011A4A032803D10020A2F8BA
:10028000180208E00021A2F81812B2F904220A2A82
:1002900001DC022227E0197026E000BF1E4D00207D
:1002A000164D00204A4D00207B3A0020724901087B
:1002B000784901087E490108844901083C4D002025
:1002C0001C4D00204C4D00202A56002028560020AE
:1002D0002A3100202B560020295600203C560020B1
:1002E0000432002000221A703B78002B3FF46CAEE1
:1002F000BAF800309BB20BB901F0A2FD4FF41671B1
:10030000AAF800103B78012B28D1B4F95031D3F171
:10031000010338BF0023A4F8503194F8523143F060
:10032000020384F85231A44B1B78092B06D1A34B4E
:10033000B3F90833022B01D1FEF74CFCB4F9F031CC
:10034000022B0BD100269E4B0022F2540136B6F54B
:10035000C16FF8D106200121F3F778FF3B78022B1B
:100360003ED1DFF868A240F6B832AAF80020534622
:1003700028E004200293F3F76DFF10F4005F029B66
:1003800020D0EB790133DBB2032BEB7102D98D4B1B
:100390000022DA71884A8C4B11784FF0500E585C6D
:1003A0000EFB01F1AEF13C0E0EFB00116118887CD2
:1003B00040F002008874E97941B9073111700222D6
:1003C000DA7103E01A8892B2002AD2D1BAF800306A
:1003D0009BB22BB9784B1878012801D8FBF71AFF8C
:1003E0003B78032B49D1794B40F2DC501880B24660
:1003F0003DE00420F3F72EFF10F4807F0FD02B7820
:100400005646012B08D1B4F8F031043B9BB2012BC6
:1004100033D9FFF7BBFC30E0FFF7ECFC2DE06B4B72
:100420001B889BB21BBBFEF789FE634B1B78092B15
:100430001DD00426664B002140F2054200935B204C
:100440000B46FCF799FF4FF49670FEF79CFF614B4B
:10045000002100935B2040F205420B46013EFCF771
:100460008BFFF6B2C820FEF78EFF002EE2D157496F
:100470000B889BB2002BBCD156463B78042B40F036
:100480007781DFF834A19AF80030092B00F0E08082
:100490004E4B4FF42F721A801A46C4E00420039288
:1004A0000293F3F7D7FE10F4007F039A029B00F04B
:1004B000BA802A78012A40F0BB80B8F1030F00F21D
:1004C0009385B4F8F00108F10108043880B20128DE
:1004D0005FFA88F803D8B8F1010F24D105E0B8F12C
:1004E000040F20D0B8F1010F03D10120A4F8B80205
:1004F00002E00021A4F8B812374AD17A41F0020193
:10050000D17200215171043111710339D07D013153
:10051000C9B240F00200D075517482F810800C32DC
:100520000929F3D184E02C49CA7A01F1600E42F026
:100530000202CA7200224A7104320A710A4691F814
:1005400017C04CF0020C81F817C00C317145F6D180
:10055000012808D9B4F9B01000293FD11749B1F9E1
:10056000001100293AD100214FF004084FF0030C8C
:100570004FF0020E07201174117782F8281082F8CC
:100580003410013182F8118082F81DC082F829E010
:1005900082F8350082F8418082F8401082F84DC020
:1005A00082F84C1082F859E082F8581082F8650001
:1005B00082F864103CE000BF3C4D00200432002073
:1005C000384F0020284D00204C4D0020104D0020B9
:1005D0008A49010858380108983100200020107419
:1005E0001077013082F8280082F8340001304FF093
:1005F0000408072182F8400082F84C00013082F89C
:100600001180517782F8298082F8351082F8418074
:1006100082F84D1082F8598082F8580082F86510EF
:1006200082F8640004E0118889B200297FF436AFB3
:100630001A8892B262B9297A8D4B29B901321A729D
:10064000B4F818225A8103E01A725B89A4F81832B0
:100650009AF80030092B40F08B80864B00210093E4
:10066000E6200B4640F20A52FCF786FE824B5020F1
:100670001B7800FB0342B2F9101091BBB2F938109D
:100680000246032924D8DFE801F00209151C02FB09
:10069000034393F82400FEF79DF818E002FB0343A0
:1006A00093F82400FEF736F806464FF47A70FEF70A
:1006B0006AFE0DE002FB034393F82400FEF726F9DF
:1006C00005E002FB034393F82400FEF705FB064612
:1006D0009AF80030502202FB03439A8C01329A842C
:1006E00018E0B2F93830012B05D192F82400FDF75B
:1006F000DCFF064600E000269AF80030502202FB9C
:100700000343B3F93820022A04D193F82400FEF7FA
:100710008DF906463EB9594BE6200093314640F22A
:100720000A5233460DE0042E01D1554B03E0032E4F
:100730000CBF544B544B00210093E62040F20A5268
:100740000B46FCF719FE4FF47A70FEF71CFE9AF880
:100750000030502202FB034393F8261093F83A200E
:1007600041F0020142F0020283F8261083F83A2099
:100770003B78052B40F01081B4F8F031043B9BB27C
:10078000012B3D4B18D81A784AB9404A1278032AEF
:1007900005D13F4A11782D2901D9023911701A78F3
:1007A000012A09D1394A5278032A05D1394A1178E8
:1007B0001E2901D9023911701A780A2A03D0082A91
:1007C00004D12A7812B9344A962111801A780C2A59
:1007D00000F2BC80072A11D12C49C97902290DD118
:1007E000B4F940122D4A32F821000FFA80FEBEF112
:1007F000110F5DDD013822F8210059E0A2F10B0153
:10080000C9B2012909D8502101FB0242918C08B2DA
:1008100000284DDD013991844AE0062A1B4918D190
:100820008879022815D1287A98B9B4F818221C4979
:1008300010B21E2801DD1E3A02E0002802DD013A56
:10084000A1F8182294F82E2242F0020284F82E22F7
:100850002EE05020895C42433C3800FB0122A21864
:10086000118A08B200281DDD0139118220E000BF85
:10087000284D0020A64901083C4D0020AC49010844
:10088000B2490108B8490108BE4901084C4D002091
:10089000AA420020AB4200201E4D00202A31002039
:1008A00004320020917A11F0100F1CBF10891082C1
:1008B0001A78062A0AD1914A92793AB9A4F85021B5
:1008C00094F8522142F0020284F852211A78052A43
:1008D0000BD1B4F9A0118A4A042906D0B2F9B41197
:1008E0000E2902DD0E21A2F8B4111A78092A12D1BC
:1008F000B4F9E012824A01290DD1B2F9081311B9F5
:100900000220A2F80803B4F90823032A03D17C4A81
:100910000221A2F808131B78502202FB0343997CA2
:1009200093F84E2041F00201997493F8261042F09A
:10093000020241F0020183F8261093F83A1083F87E
:100940004E2041F0020183F83A1025E06D480D3A3F
:100950000C2101FB020393F80BC093F805E04CF067
:10096000020C83F80BC0BEF1000F02D00EF1FF3E67
:1009700001E04FF00B0E01FB020183F805E04B791B
:10098000012B01D103330B710C2303FB02025379BA
:100990000B2B01D10B3B13713B78072B40F0D1801F
:1009A00059494FF0500E0A78544B0EFB02FE985CEA
:1009B0004FF0140C0CFB00EEA6449EF812C0022A65
:1009C0004CF0020C8EF812C001D100B99A540A788A
:1009D000032A04D1DA7812B9484A0220D0702A7862
:1009E00072B9087808280BD1187A012808D194F830
:1009F000A63243F0020384F8A632404B1A72A0E0FC
:100A00000A780C2A00F282804FF0500C0CFB02FC9A
:100A1000985C4FF0140A0AFB00CCA4449CF812A086
:100A200002284AF0020ADFF8D4E08CF812A001D8BC
:100A3000013000E00020052A0EF8020009D1B4F9C7
:100A4000A021042A05D15A79032A02D12B4A002079
:100A500050710A78052A09D1B4F9A021042A05D0D9
:100A60005A79022A02D1254A032050710A7850206F
:100A7000504313F802E04FF0140C0CFB0E0020184A
:100A800090F90A00002804DA1C484FF0000E00F824
:100A900002E05020504313F802E04FF0140C0CFB1E
:100AA0000E002018807A10F0010F04D013484FF088
:100AB000000E00F802E05020504313F802E04FF01F
:100AC000140C0CFB0E002018807A10F0020F08D0D6
:100AD000092A06D0052A04D008484FF0000E00F875
:100AE00002E00A78995C50235A433C3B03FB012304
:100AF000E3189A7C42F001029A7422E04C4D0020E7
:100B000004320020983100203C4D002096480D3AD8
:100B10000C2101FB020393F804E001FB020293F8AD
:100B20000BC0BEF1030F9CBF0EF1010E83F804E071
:100B30004CF0020C83F80BC01379032B01D900236E
:100B400013713B78062B40F04381B4F8F031043B3D
:100B50009BB2012B854B18D81A784AB9844A12786F
:100B6000032A05D1834A1178D62901D802311170A0
:100B70001A78012A09D17E4A5278032A05D17E4A81
:100B80001178A92901D8023111701A780A2A03D0E4
:100B9000082A04D12A7812B9784A96201080EA7976
:100BA00042B11A78072A05D1714AD179022901D1B7
:100BB0000239D1711A780C2A00F2E680072A11D185
:100BC0006B49C97902290DD1B4F940126C4A32F847
:100BD00021000FFA80FEBEF1D00F77DC013022F841
:100BE000210073E0A2F10B01C9B201290BD85021F9
:100BF00001FB0242918CB2F91CE008B2864565DD2A
:100C00000131918462E0062A59491FD1887902286E
:100C100044D1287A002841D1B4F81812594A08B2B0
:100C20001D2809DDB2F910E2AEF11E0C604501DAB3
:100C30001E3102E0704502DA0131A2F8181294F870
:100C40002E2242F0020284F82E223FE00A2A25D109
:100C5000887A012822D82A78012A4FF014020ED16E
:100C600002FB0040B0F83023B0F928130FFA82FEDF
:100C700064398E452ADA0132A0F8302326E002FBDF
:100C80000042B2F83013B2F928030FFA81FE0C3893
:100C900086451BDA0131A2F8301317E05020895C39
:100CA00042433C3800FB0122A218118AB2F908C065
:100CB0000FFA81FEF44502F1080001DD013104E084
:100CC000817811F0100F01D0002111821A78062AC4
:100CD0000AD1274A92793AB9A4F8502194F85221BE
:100CE00042F0020284F852211A78052A0BD1B4F995
:100CF000A011244A042906D0B2F9B4110E2902DD4C
:100D00000E20A2F8B4011A78092A11D1B4F9E01220
:100D10001C4A01290CD1B2F9080308B9A2F808133A
:100D2000B4F90823032A03D1164A0121A2F80813B3
:100D30001B78502202FB0343997C93F84E2041F02C
:100D40000201997493F8261042F0020241F0020168
:100D500083F8261093F83A1083F84E2041F00201F0
:100D600083F83A1034E000BF983100203C4D002059
:100D70004C4D0020AA420020AB4200201E4D002016
:100D80002A3100200432002099480D3A0C2101FB41
:100D9000020393F805E001FB020193F80BC0BEF1DA
:100DA0000A0F94BF0EF1010E4FF0000E4CF0020C32
:100DB00083F805E083F80BC04B790BB904330B7152
:100DC0000C2303FB02025379022B01D1023B137166
:100DD0003B78092B67D1874B1A780C2A47D85020CB
:100DE000504385494FF0140C11F802E00CFB0E0043
:100DF000201890F812E04EF0020E80F812E02878E9
:100E0000012802D122B90C3203E00AB90A3200E00B
:100E1000013A1A701A78042A02D1764A0320107017
:100E20001A7850235343895C142000FB0131611868
:100E3000887C092A40F00300887434D16F4AD318A3
:100E4000997C93F84E2041F00201997493F8261092
:100E500042F0020241F0020183F8261093F83A10A2
:100E600083F84E2041F0020183F83A101BE06049FC
:100E70004FF00C0EA2F10D000EFB001090F80BE0ED
:100E80000D2A4EF0020E80F80BE001D1083200E08E
:100E9000013A1A701B780C220D3B02FB0313DA7A1D
:100EA00042F00102DA723B780A2B2AD1514A5020D3
:100EB00013785149584311F803E0142101FB0E0146
:100EC0006118887C40F002008874297849B9A3F140
:100ED0000D01C9B2082912D90B2B10D00C2B10D13F
:100EE0000DE00C2B01D80D230AE0414B03F16C01FE
:100EF000D87A40F00200D8720C338B42F8D100232C
:100F000013703B78082B68D13A4B1A780C2A48D8D2
:100F100050203949504311F802E04FF0140C0CFBFB
:100F20000E00201890F812E04EF0020E80F812E049
:100F3000287818B90A2A01D1187005E00C2A01D1C5
:100F40000C3A00E001321A701A78042A02D1294AB8
:100F5000052010701A7850235343895C142000FB3D
:100F600001316118887C092A40F00300887434D16B
:100F7000224AD318997C93F84E2041F002019974CB
:100F800093F8261042F0020241F0020183F8261085
:100F900093F83A1083F84E2041F0020183F83A109A
:100FA0001BE013494FF00C0EA2F10D000EFB0010D8
:100FB00090F80BE0152A4EF0020E80F80BE001D1FC
:100FC000083A00E001321A701B780C220D3B02FB3C
:100FD0000313DA7A42F00102DA7200233B70084B05
:100FE00001221A70FEF7F0BF4FF00008FFF781BA38
:100FF000983100203C4D00204C4D00200432002050
:101000007B3A0020F7B51F4C04F16C05237813F0F0
:10101000020F14D014F8076C1B4A54F80B7C32F8FA
:10102000162014F8066C002306EB8606237034F8AD
:10103000050C14F8011CBE190096FCF79DF90C3440
:10104000AC42E3D1114B1A780D3AD2B2082A18D823
:101050000F4B1978A9B10C2555430E4E002119707C
:1010600074192779E088A17A647975590A4B064A80
:1010700004EB84041B782C1932F817200094FCF739
:101080007BF9FEBDA3310020C44901083C4D00207E
:101090001C4D0020983100201B4D00202DE9F3410C
:1010A000A94B05461B78A94CDFF8E88243B9B4F98F
:1010B0007032D8F80020142101FB0323DE8908E0F8
:1010C000B4F97032D8F80020142101FB0323B3F8DF
:1010D0007260B4F970720323082F0AD8C7F10B01AC
:1010E000B1FBF3F10A20C9B2FEF742F94FF0010C4F
:1010F00009E0A7F10901B1FBF3F10A20C9B2FEF73B
:1011000037F9844601200323B7FBF3F303EB4303D2
:10111000D8F80020FF1A142303FB07278C4AD7F8BE
:10112000C43012789AB1B4F95C1203290AD1894902
:10113000097811B94FF4C37706E0012907D140F2CD
:10114000311701E04FF496775743BFB201E04FF4F7
:1011500080574FF00C0E0EFB054252790B2A00F21D
:101160001083DFE812F00C0013001C005000870011
:10117000190140017A01DE0106024202C402062082
:10118000F3F768F84FF47A71414361E17248022342
:10119000C189724A0093013001F07F01EFE20EFB3A
:1011A00005421179694B71B9B3F97C20012A40F0ED
:1011B0004F81B3F8A4206A4B10B21978694B1B78A1
:1011C000CB1A694910E0012940F04181B3F9CC20E4
:1011D000012A40F03C81B3F8F420644B10B2197836
:1011E000634B1B78CB1A634931F8101012B24B4392
:1011F00013F5007144BF03F5BE610F318912042954
:10120000D8BF00211BE10EFB054211794F4B89B974
:10121000B3F97C20012A40F01B81B3F9A420564980
:10122000B3F9B8308956CB1A54490968B1FBF7F7BE
:101230004D4913E0012940F00A81B3F9CC20012A7D
:1012400040F00581B3F9F4204D49B3F908318956CE
:10125000CB1A4C490968B1FBF7F7464931F812102F
:10126000794301F5007103EB91218B1C042B98BF8E
:101270000021E4E00EFB05421179344B69BBB3F960
:101280007C20012A2AD1B3F9A4303B4AD656364AEB
:1012900032F813803C4B1868B0FBF7F0FEF7BCFA4D
:1012A0003A4AB4F9A4301268142108FB00F801FB93
:1012B000032308F50078196906EB9826B4F87C300A
:1012C000022ED8BF00267143022B02D108335943A6
:1012D00004E0002B08BF002100E000210C2202FBEB
:1012E00005421279194B012A40F0B280B3F9CC20A3
:1012F000012A40F0AD80B3F9F430214AD6561D4A98
:1013000032F81380224B1868B0FBF7F0FEF784FA2E
:101310001E4AB4F9F4301268142108FB00F801FBEE
:10132000032308F50078196906EB9826B4F8CC3049
:10133000022ED8BF00267143022B01D1083384E06E
:10134000002B08BF002183E0405500209831002089
:101350003C560020284D00203C4D00202036002027
:10136000285600202A560020BE3E00202956002084
:101370002B560020D23E0020EC5500202C56002099
:10138000F65500203056002034560020509600209C
:1013900038560020585500200EFB054211799F4B0E
:1013A00079B9B3F97C20012A52D1B3F9A4209C4920
:1013B000B3F9B83089569B48CB1A9B4931F81210C3
:1013C00037E0012943D1B3F9CC20012A3FD1B3F949
:1013D000F4209649B3F9083189569548CB1A9549B6
:1013E00031F8121025E00EFB054211798B4B79B9CB
:1013F000B3F97C20012A2BD1B3F9A4208849B3F991
:10140000B83089568C48CB1A874931F8121010E051
:1014100001291CD1B3F9CC20012A18D1B3F9F42049
:101420008249B3F9083189568448CB1A814931F889
:1014300012100078414301F5007103EB9121804BBC
:1014400014201B6800FB02321369594300E000219D
:10145000002300937B487C4A90E10EFB05410F7905
:101460006E4A4FB9B2F97C20012A30D1774A784FC1
:1014700012885743774A22E0012F09D1B2F9CC20D4
:10148000012A23D1744A724F12885743734A16E0D7
:10149000022F09D1B2F91C21012A17D1704A6C4FD1
:1014A000128857436F4A0AE0032F0FD1B2F96C211B
:1014B000012A0BD16C4A664F128857436B4A128837
:1014C0004FF4FA6197FBF2F74F4300E00027BCF1BD
:1014D000090F4FF0060110D8B3FBF1F1B7FBF1F79C
:1014E000FA2179430123B1FBF0F100930E33B1FBF4
:1014F000F3F154485E4A0B3B41E1B3FBF1F3B7FB18
:10150000F3F70CFB07FCF022BCFBF2FC06FB0CF62D
:101510000123360A4FF47A7100934A487143544AC2
:101520002CE10EFB054109793C4A31B9B2F97C2026
:10153000012A40F03781474AE3E0012906D1B2F998
:10154000CC20012A40F00581444AE5E0022906D179
:10155000B2F91C21012A40F0FC80424AE7E003294D
:1015600040F0F780B2F96C21012A40F0F2803F4A46
:10157000E8E00EFB05421179284B49B9B3F97C30FC
:10158000012B2DD13B4B3C491B885943314B22E069
:10159000012909D1B3F9CC30012B20D1374B364981
:1015A0001B8859432D4B16E0022909D1B3F91C3190
:1015B000012B14D1324B30491B885943294B0AE087
:1015C00003290CD1B3F96C31012B08D12D4B2A49D9
:1015D0001B885943254B1B8891FBF3F100E0002148
:1015E000012300931748284AC8E00EFB05421279F0
:1015F0000A49002A4AD1B1F97C1001296ED1134A57
:101600001C491788134A098812885A434B43B2FB76
:10161000F7F2B3FBF7F7D21B60E000BF9831002070
:10162000EC55002028560020BE3E0020F655002034
:1016300029560020D23E00202A5600202B5600209A
:10164000509600203D4D0020143600201C560020EE
:10165000404B4C00429600201E560020469600202B
:10166000205600204A960020225600204C9600204A
:101670002C36002014560020A086010016560020AB
:10168000185600201A56002044360020012A09D19D
:10169000B1F9CC30012B20D1434B444A1B885A432B
:1016A000434B16E0022A09D1B1F91C31012B14D1A8
:1016B000404B3E4A1B885A433F4B0AE0032A0CD159
:1016C000B1F96C31012B08D13C4B384A1B885A4385
:1016D0003B4B1B8892FBF3F200E000226FF00043CB
:1016E000B3FBF0F39A4243D800FB02F13AE00EFB61
:1016F00005410979334A41B9B2F97C20012A51D117
:10170000314A12885343314A1FE0012908D1B2F906
:10171000CC20012A1DD1244A128853432C4A14E0BC
:10172000022908D1B2F91C21012A12D1214A1288BA
:101730005343284A09E003290BD1B2F96C21012A4D
:1017400007D11E4A12885343234A1288B3FBF2F38F
:1017500000E000236FF00042B2FBF0F2934207D8A2
:1017600000FB03F1B1FBF6F18902B1FBFCF101E0F2
:101770004FF0004101231948194A00930333FDF744
:101780000BFE0C2303FB0544164B2279208903EB47
:1017900042035A89114BA17A00930023FBF7ECFD19
:1017A000BDE8FC810B46D5E716560020A086010057
:1017B00046960020185600204A9600201A5600200F
:1017C0004C96002098310020145600201C56002012
:1017D0001E56002020560020225600203D4D00209D
:1017E00038360020C44901082DE9F74FBC4B1A7860
:1017F000052A07D15B7D023BDBB2012B02D8B94B36
:101800001C7800E00124B84DB5F90C32042B1AD134
:10181000D5F8240295F83412FDF7FAFED5F82832EF
:101820009C201A88B14BD82100932346FBF7A4FDD6
:10183000D5F82832B5F830021A88D5F8243295F850
:101840003212009320E0D5F828329C201A88A84B49
:10185000D82100932346FBF78FFDA64EB5F94832F9
:101860000122009246F2905105F58E6259433046AE
:101870000C320223FDF790FDD5F83C32B5F8440256
:1018800095F846121A8800962346FBF775FD9A4F85
:101890004FF00008D0E1237813F0020200F04181FC
:1018A00023F00203042E237014F8082C01D0072E15
:1018B00016D112F020030AD0B7F9102054F80E3CCC
:1018C00034F8060C14F8041C33F8122012E012F05D
:1018D000800F40F0A28134F8060C14F8041C48E193
:1018E00012F0200809D054F80E3C34F8060C14F815
:1018F000041C1A8854F8123C42E012F0020300F073
:10190000B480082E3ED1B5F92433502101FB035198
:10191000B1F97C30744A022B78480ED1B1F9A43069
:101920000168142000FB03131B690A214B43B2F921
:10193000FC02B2F91013411A0DE0B2F9FCE2B2F95F
:101940001033B1F9A4100068C3EB0E034FF0140E6E
:101950000EFB0101096902F58E62594365480C329C
:101960000323CDF80080FDF717FD54F80E3CB5F9C0
:10197000242334F8060C33F8122014F8041C5D4BB1
:1019800000939EE00A2E5BD1B5F970820323B8F173
:10199000080F0ADCC8F10B0191FBF3F13046C9B224
:1019A000FDF7E6FC0346012008E0A8F1090191FBE0
:1019B000F3F13046C9B2FDF7DBFC0123B5F9B013F2
:1019C000B5F99C234FF0030E8A1A4D4998FBFEFE91
:1019D0000EEB4E0E0968CEEB08084FF0140E0EFB0E
:1019E0000811D1F8C4104A43002A6FF0004104DD09
:1019F00091FBF3F18A420BDC05E0C2F1000E91FB92
:101A0000F3F18E4504DD02FB03F191FBF0F101E0FF
:101A10004FF00041DFF8DC804FF0000B4046394AC0
:101A20000323CDF800B0FDF7B7FC54F80E3C34F8B2
:101A3000060C1A8814F8041C5B46CDF80080EAE016
:101A4000092E40F0EA80D5F8500395F86013FDF7B1
:101A5000DFFDD5F85433B5F85C031A88D5F8503358
:101A600095F85E1300934346D5E0012A2BD11C491B
:101A700020234B700B2E01F1010834F8022C04D105
:101A800012B2092A0BD11E3B03E012B20A2A06D178
:101A900002230093404664211B4A013306E00132D1
:101AA0000A2102235143184A00934046FDF774FC73
:101AB00054F80E3C34F8060C14F8041C1A88CDF8BF
:101AC00000800023A7E0802A20D0082E34F8060CDE
